{
	"data": {
		"bytecode": {
			"linkReferences": {},
			"object": "608060405234801562000010575f80fd5b50303360015f819055505f73ffffffffffffffffffffffffffffffffffffffff168273ffffffffffffffffffffffffffffffffffffffff16036200008b576040517f08c379a00000000000000000000000000000000000000000000000000000000081526004016200008290620001e2565b60405180910390fd5b5f73ffffffffffffffffffffffffffffffffffffffff168173ffffffffffffffffffffffffffffffffffffffff1603620000fc576040517f08c379a0000000000000000000000000000000000000000000000000000000008152600401620000f39062000250565b60405180910390fd5b8160015f6101000a81548173ffffffffffffffffffffffffffffffffffffffff021916908373ffffffffffffffffffffffffffffffffffffffff1602179055508060025f6101000a81548173ffffffffffffffffffffffffffffffffffffffff021916908373ffffffffffffffffffffffffffffffffffffffff160217905550505062000270565b5f82825260208201905092915050565b7f496e76616c696420696d706c656d656e746174696f6e206164647265737300005f82015250565b5f620001ca601e8362000184565b9150620001d78262000194565b602082019050919050565b5f6020820190508181035f830152620001fb81620001bc565b9050919050565b7f496e76616c69642061646d696e206164647265737300000000000000000000005f82015250565b5f6200023860158362000184565b9150620002458262000202565b602082019050919050565b5f6020820190508181035f83015262000269816200022a565b9050919050565b615c1e806200027e5f395ff3fe6080604052600436106101db575f3560e01c80638231f5df11610101578063c68fade011610094578063e2f273bd11610063578063e2f273bd14610696578063ec58f41f146106be578063f851a440146106fa578063ffa1ad7414610724576101e2565b8063c68fade0146105ec578063d89b952514610608578063d8cf5ed914610630578063df5aa2621461065a576101e2565b80639f81a3b3116100d05780639f81a3b314610520578063aebdde501461054a578063b7a501a714610586578063bb660784146105b0576101e2565b80638231f5df146104765780638e7569d0146104925780638f919650146104ce578063978bbdb9146104f6576101e2565b80633fad53f011610179578063585d53d011610148578063585d53d0146103cc5780635c60da1b146103e857806373db3cb4146104125780637f3584691461044e576101e2565b80633fad53f01461032a57806346904840146103525780634f17d2af1461037c578063548eb8e1146103a4576101e2565b806321c0c856116101b557806321c0c856146102a2578063258b7f22146102be57806326977e64146102e65780633b1ebb621461030e576101e2565b80630900f0101461022a5780631a2522d0146102525780631ee9bcaa1461027a576101e2565b366101e257005b5f60015f9054906101000a900473ffffffffffffffffffffffffffffffffffffffff169050604051365f82375f803683855af43d805f843e815f8114610226578184f35b8184fd5b348015610235575f80fd5b50610250600480360381019061024b9190613d1d565b61074e565b005b34801561025d575f80fd5b5061027860048036038101906102739190613d9e565b610960565b005b348015610285575f80fd5b506102a0600480360381019061029b9190613d9e565b611021565b005b6102bc60048036038101906102b79190613f39565b61144e565b005b3480156102c9575f80fd5b506102e460048036038101906102df9190613fa8565b611526565b005b3480156102f1575f80fd5b5061030c60048036038101906103079190614004565b6116b9565b005b61032860048036038101906103239190614093565b61184b565b005b348015610335575f80fd5b50610350600480360381019061034b9190614107565b61199b565b005b34801561035d575f80fd5b50610366611a89565b6040516103739190614154565b60405180910390f35b348015610387575f80fd5b506103a2600480360381019061039d9190613d1d565b611aae565b005b3480156103af575f80fd5b506103ca60048036038101906103c5919061416d565b611b80565b005b6103e660048036038101906103e19190613d9e565b611d63565b005b3480156103f3575f80fd5b506103fc61205a565b6040516104099190614154565b60405180910390f35b34801561041d575f80fd5b50610438600480360381019061043391906141dc565b612082565b6040516104459190614216565b60405180910390f35b348015610459575f80fd5b50610474600480360381019061046f9190613f39565b61209c565b005b610490600480360381019061048b919061422f565b6121e9565b005b34801561049d575f80fd5b506104b860048036038101906104b391906141dc565b612414565b6040516104c59190614216565b60405180910390f35b3480156104d9575f80fd5b506104f460048036038101906104ef919061422f565b61242e565b005b348015610501575f80fd5b5061050a6126b9565b604051610517919061427e565b60405180910390f35b34801561052b575f80fd5b506105346126cc565b6040516105419190614311565b60405180910390f35b348015610555575f80fd5b50610570600480360381019061056b9190614331565b612705565b60405161057d919061436c565b60405180910390f35b348015610591575f80fd5b5061059a612734565b6040516105a791906143e0565b60405180910390f35b3480156105bb575f80fd5b506105d660048036038101906105d191906141dc565b612759565b6040516105e39190614154565b60405180910390f35b6106066004803603810190610601919061416d565b612792565b005b348015610613575f80fd5b5061062e6004803603810190610629919061422f565b612900565b005b34801561063b575f80fd5b50610644612b16565b6040516106519190614216565b60405180910390f35b348015610665575f80fd5b50610680600480360381019061067b91906141dc565b612b1c565b60405161068d9190614413565b60405180910390f35b3480156106a1575f80fd5b506106bc60048036038101906106b79190613d1d565b612b42565b005b3480156106c9575f80fd5b506106e460048036038101906106df919061442c565b612c14565b6040516106f1919061436c565b60405180910390f35b348015610705575f80fd5b5061070e612c43565b60405161071b9190614154565b60405180910390f35b34801561072f575f80fd5b50610738612c6b565b6040516107459190614311565b60405180910390f35b60025f9054906101000a900473ffffffffffffffffffffffffffffffffffffffff1673ffffffffffffffffffffffffffffffffffffffff163373ffffffffffffffffffffffffffffffffffffffff16146107dd576040517f08c379a00000000000000000000000000000000000000000000000000000000081526004016107d4906144c8565b60405180910390fd5b5f73ffffffffffffffffffffffffffffffffffffffff168173ffffffffffffffffffffffffffffffffffffffff160361084b576040517f08c379a000000000000000000000000000000000000000000000000000000000815260040161084290614556565b60405180910390fd5b60015f9054906101000a900473ffffffffffffffffffffffffffffffffffffffff1673ffffffffffffffffffffffffffffffffffffffff168173ffffffffffffffffffffffffffffffffffffffff16036108da576040517f08c379a00000000000000000000000000000000000000000000000000000000081526004016108d1906145e4565b60405180910390fd5b8060015f6101000a81548173ffffffffffffffffffffffffffffffffffffffff021916908373ffffffffffffffffffffffffffffffffffffffff1602179055508073ffffffffffffffffffffffffffffffffffffffff167fbc7cd75a20ee27fd9adebab32041f755214dbc6bffa90cc0225b39da2e5c2d3b60405160405180910390a250565b600960149054906101000a900460ff166109af576040517f08c379a00000000000000000000000000000000000000000000000000000000081526004016109a69061464c565b60405180910390fd5b600260058111156109c3576109c261466a565b5b8260200160208101906109d691906146ba565b60058111156109e8576109e761466a565b5b03610b03575f801b610a10836040016020810190610a069190613d1d565b8460c00135612ca4565b148015610a2157505f826101400135145b610a60576040517f08c379a0000000000000000000000000000000000000000000000000000000008152600401610a5790614755565b60405180910390fd5b610a81826040016020810190610a769190613d1d565b8360c0013583612cfa565b8160c001353373ffffffffffffffffffffffffffffffffffffffff167f35ac9eac59b8c3168f5e4447cd7afc6434ce47b273a2e2e2d04ce743b899de7d846060016020810190610ad19190613d1d565b856040016020810190610ae49190613d1d565b8587604051610af694939291906149ec565b60405180910390a3611003565b60046005811115610b1757610b1661466a565b5b826020016020810190610b2a91906146ba565b6005811115610b3c57610b3b61466a565b5b03610eb8575f610b62836040016020810190610b589190613d1d565b8460c00135612ca4565b9050610b8b83610140013583856040016020810190610b819190613d1d565b8660c00135612db9565b610bca576040517f08c379a0000000000000000000000000000000000000000000000000000000008152600401610bc190614aa0565b60405180910390fd5b610c1e835f016020810190610bdf9190614abe565b846040016020810190610bf29190613d1d565b856080016020810190610c059190613d1d565b610c0e85612759565b8760c00135886101600135612e17565b610c55836060016020810190610c349190613d1d565b846080016020810190610c479190613d1d565b610c5084612414565b612f98565b60035f846040016020810190610c6b9190613d1d565b73ffffffffffffffffffffffffffffffffffffffff1673ffffffffffffffffffffffffffffffffffffffff1681526020019081526020015f205f8460c0013581526020019081526020015f205f905560055f8281526020019081526020015f205f6101000a81549073ffffffffffffffffffffffffffffffffffffffff021916905560065f8281526020019081526020015f205f905560075f8281526020019081526020015f205f9055600160045f8381526020019081526020015f205f6101000a81548160ff0219169083151502179055508260c00135610d4c82612759565b73ffffffffffffffffffffffffffffffffffffffff16846080016020810190610d759190613d1d565b73ffffffffffffffffffffffffffffffffffffffff167f6be48afe3d3198771d849c4fedafce4823b0fefb75d8726e35e9805a3f211086866040016020810190610dbf9190613d1d565b876060016020810190610dd29190613d1d565b610ddb87612414565b87604051610dec9493929190614ae9565b60405180910390a48260c00135610e0282612759565b73ffffffffffffffffffffffffffffffffffffffff16846080016020810190610e2b9190613d1d565b73ffffffffffffffffffffffffffffffffffffffff167f6d794d38d52c34db77f62adcae8c890dc87664e863643cb6363a6ad4d1fc5fd0866040016020810190610e759190613d1d565b876060016020810190610e889190613d1d565b610e9187612414565b87604051610ea29493929190614ae9565b60405180910390a4610eb26131a2565b50611002565b5f610ed9836040016020810190610ecf9190613d1d565b8460c00135612ca4565b90505f73ffffffffffffffffffffffffffffffffffffffff16610efb82612759565b73ffffffffffffffffffffffffffffffffffffffff16148015610f2557505f610f2382612414565b145b610f64576040517f08c379a0000000000000000000000000000000000000000000000000000000008152600401610f5b90614b9c565b60405180910390fd5b60035f846040016020810190610f7a9190613d1d565b73ffffffffffffffffffffffffffffffffffffffff1673ffffffffffffffffffffffffffffffffffffffff1681526020019081526020015f205f8460c0013581526020019081526020015f205f90557f5f8f216fd2e5bdc47deb48c822665830695f90b549772ae028d6fc3c4832c5b182604051610ff8919061436c565b60405180910390a1505b5b5f600960146101000a81548160ff0219169083151502179055505050565b600960149054906101000a900460ff16611070576040517f08c379a00000000000000000000000000000000000000000000000000000000081526004016110679061464c565b60405180910390fd5b5f73ffffffffffffffffffffffffffffffffffffffff1661109082612759565b73ffffffffffffffffffffffffffffffffffffffff16141580156110bc57505f6110b982612414565b14155b15611259575f6110cb82612759565b90505f6110d783612414565b90505f61110160646110f36002856131bb90919063ffffffff16565b6131d090919063ffffffff16565b9050808561010001351161114a576040517f08c379a000000000000000000000000000000000000000000000000000000000815260040161114190614c2a565b60405180910390fd5b60085f9054906101000a900473ffffffffffffffffffffffffffffffffffffffff1673ffffffffffffffffffffffffffffffffffffffff1663b97be86586606001602081019061119a9190613d1d565b85856040518463ffffffff1660e01b81526004016111ba93929190614c48565b5f604051808303815f87803b1580156111d1575f80fd5b505af11580156111e3573d5f803e3d5ffd5b505050503360055f8681526020019081526020015f205f6101000a81548173ffffffffffffffffffffffffffffffffffffffff021916908373ffffffffffffffffffffffffffffffffffffffff16021790555084610100013560065f8681526020019081526020015f2081905550505050611385565b60085f9054906101000a900473ffffffffffffffffffffffffffffffffffffffff1673ffffffffffffffffffffffffffffffffffffffff16638e1976e98360600160208101906112a99190613d1d565b33308661010001356040518563ffffffff1660e01b81526004016112d09493929190614c7d565b5f604051808303815f87803b1580156112e7575f80fd5b505af11580156112f9573d5f803e3d5ffd5b505050506113056131e5565b60075f8381526020019081526020015f20819055503360055f8381526020019081526020015f205f6101000a81548173ffffffffffffffffffffffffffffffffffffffff021916908373ffffffffffffffffffffffffffffffffffffffff16021790555081610100013560065f8381526020019081526020015f20819055505b8160c001353373ffffffffffffffffffffffffffffffffffffffff168360800160208101906113b49190613d1d565b73ffffffffffffffffffffffffffffffffffffffff167f8276efb7a040b9314c89f6444f0d221ac94f714076fc6b3f5ce718841e1a03ea8560600160208101906113fe9190613d1d565b8661010001358760400160208101906114179190613d1d565b876040516114289493929190614cc0565b60405180910390a45f600960146101000a81548160ff0219169083151502179055505050565b5f3403611459575f80fd5b611461613204565b61146c828233613251565b6114ab576040517f08c379a00000000000000000000000000000000000000000000000000000000081526004016114a290614d73565b60405180910390fd5b6114b583836132ae565b6114f4576040517f08c379a00000000000000000000000000000000000000000000000000000000081526004016114eb90614e01565b60405180910390fd5b6001600960146101000a81548160ff02191690831515021790555061151983836121e9565b6115216133c8565b505050565b61152e613204565b5f600460058111156115435761154261466a565b5b83602001602081019061155691906146ba565b60058111156115685761156761466a565b5b036115945761158d8360400160208101906115839190613d1d565b8460c00135612ca4565b90506115a0565b61159d83612705565b90505b6115ab818333613251565b6115ea576040517f08c379a00000000000000000000000000000000000000000000000000000000081526004016115e190614d73565b60405180910390fd5b61160a8360400160208101906116009190613d1d565b8460c001356133d1565b80611648575061161981612759565b73ffffffffffffffffffffffffffffffffffffffff163373ffffffffffffffffffffffffffffffffffffffff16145b611687576040517f08c379a000000000000000000000000000000000000000000000000000000000815260040161167e90614e8f565b60405180910390fd5b6001600960146101000a81548160ff0219169083151502179055506116ac8382610960565b506116b56133c8565b5050565b6116c1613204565b5f8060058111156116d5576116d461466a565b5b8360200160208101906116e891906146ba565b60058111156116fa576116f961466a565b5b0361170f5761170883612c14565b9050611770565b6005808111156117225761172161466a565b5b83602001602081019061173591906146ba565b60058111156117475761174661466a565b5b0361176f5761176c8360400160208101906117629190613d1d565b8460c00135612ca4565b90505b5b61177b818333613251565b6117ba576040517f08c379a00000000000000000000000000000000000000000000000000000000081526004016117b190614d73565b60405180910390fd5b6117da8360400160208101906117d09190613d1d565b8460c001356133d1565b611819576040517f08c379a000000000000000000000000000000000000000000000000000000000815260040161181090614e8f565b60405180910390fd5b6001600960146101000a81548160ff02191690831515021790555061183e838261242e565b506118476133c8565b5050565b5f6118846064611876600960159054906101000a900460ff1660ff16856131bb90919063ffffffff16565b6131d090919063ffffffff16565b90508273ffffffffffffffffffffffffffffffffffffffff166108fc6118b383856133f690919063ffffffff16565b90811502906040515f60405180830381858888f193505050501580156118db573d5f803e3d5ffd5b505f73ffffffffffffffffffffffffffffffffffffffff1660095f9054906101000a900473ffffffffffffffffffffffffffffffffffffffff1673ffffffffffffffffffffffffffffffffffffffff16146119965760095f9054906101000a900473ffffffffffffffffffffffffffffffffffffffff1673ffffffffffffffffffffffffffffffffffffffff166108fc8290811502906040515f60405180830381858888f19350505050158015611994573d5f803e3d5ffd5b505b505050565b60025f9054906101000a900473ffffffffffffffffffffffffffffffffffffffff1673ffffffffffffffffffffffffffffffffffffffff163373ffffffffffffffffffffffffffffffffffffffff1614611a2a576040517f08c379a0000000000000000000000000000000000000000000000000000000008152600401611a21906144c8565b60405180910390fd5b80600960156101000a81548160ff021916908360ff1602179055508160095f6101000a81548173ffffffffffffffffffffffffffffffffffffffff021916908373ffffffffffffffffffffffffffffffffffffffff1602179055505050565b60095f9054906101000a900473ffffffffffffffffffffffffffffffffffffffff1681565b60025f9054906101000a900473ffffffffffffffffffffffffffffffffffffffff1673ffffffffffffffffffffffffffffffffffffffff163373ffffffffffffffffffffffffffffffffffffffff1614611b3d576040517f08c379a0000000000000000000000000000000000000000000000000000000008152600401611b34906144c8565b60405180910390fd5b8060085f6101000a81548173ffffffffffffffffffffffffffffffffffffffff021916908373ffffffffffffffffffffffffffffffffffffffff16021790555050565b611b88613204565b5f73ffffffffffffffffffffffffffffffffffffffff16836060016020810190611bb29190613d1d565b73ffffffffffffffffffffffffffffffffffffffff1603611c08576040517f08c379a0000000000000000000000000000000000000000000000000000000008152600401611bff90614ef7565b60405180910390fd5b611c13828233613251565b611c52576040517f08c379a0000000000000000000000000000000000000000000000000000000008152600401611c4990614d73565b60405180910390fd5b611c6c83803603810190611c669190615038565b8361340b565b611cab576040517f08c379a0000000000000000000000000000000000000000000000000000000008152600401611ca2906150d4565b60405180910390fd5b5f73ffffffffffffffffffffffffffffffffffffffff16611ccb83612759565b73ffffffffffffffffffffffffffffffffffffffff1614611d315742611cf083612082565b11611d30576040517f08c379a0000000000000000000000000000000000000000000000000000000008152600401611d2790615162565b60405180910390fd5b5b6001600960146101000a81548160ff021916908315150217905550611d568383611021565b611d5e6133c8565b505050565b600960149054906101000a900460ff16611db2576040517f08c379a0000000000000000000000000000000000000000000000000000000008152600401611da99061464c565b60405180910390fd5b5f73ffffffffffffffffffffffffffffffffffffffff16611dd282612759565b73ffffffffffffffffffffffffffffffffffffffff1614158015611dfe57505f611dfb82612414565b14155b15611f0e575f611e0d82612759565b90505f611e1983612414565b90505f611e436064611e356002856131bb90919063ffffffff16565b6131d090919063ffffffff16565b90508034118015611e58575080856101000135115b611e97576040517f08c379a0000000000000000000000000000000000000000000000000000000008152600401611e8e90615216565b60405180910390fd5b611ea183836134d7565b3360055f8681526020019081526020015f205f6101000a81548173ffffffffffffffffffffffffffffffffffffffff021916908373ffffffffffffffffffffffffffffffffffffffff1602179055503460065f8681526020019081526020015f2081905550505050611f91565b611f166131e5565b60075f8381526020019081526020015f20819055503360055f8381526020019081526020015f205f6101000a81548173ffffffffffffffffffffffffffffffffffffffff021916908373ffffffffffffffffffffffffffffffffffffffff1602179055503460065f8381526020019081526020015f20819055505b8160c001353373ffffffffffffffffffffffffffffffffffffffff16836080016020810190611fc09190613d1d565b73ffffffffffffffffffffffffffffffffffffffff167f8276efb7a040b9314c89f6444f0d221ac94f714076fc6b3f5ce718841e1a03ea85606001602081019061200a9190613d1d565b8661010001358760400160208101906120239190613d1d565b876040516120349493929190614cc0565b60405180910390a45f600960146101000a81548160ff0219169083151502179055505050565b5f60015f9054906101000a900473ffffffffffffffffffffffffffffffffffffffff16905090565b5f60075f8381526020019081526020015f20549050919050565b6120a4613204565b5f73ffffffffffffffffffffffffffffffffffffffff168360600160208101906120ce9190613d1d565b73ffffffffffffffffffffffffffffffffffffffff1603612124576040517f08c379a000000000000000000000000000000000000000000000000000000000815260040161211b906152a4565b60405180910390fd5b61212f828233613251565b61216e576040517f08c379a000000000000000000000000000000000000000000000000000000000815260040161216590614d73565b60405180910390fd5b61217883836132ae565b6121b7576040517f08c379a00000000000000000000000000000000000000000000000000000000081526004016121ae90615332565b60405180910390fd5b6001600960146101000a81548160ff0219169083151502179055506121dc8383612900565b6121e46133c8565b505050565b600960149054906101000a900460ff16612238576040517f08c379a000000000000000000000000000000000000000000000000000000000815260040161222f9061464c565b60405180910390fd5b612296825f01602081019061224d9190614abe565b8360400160208101906122609190613d1d565b8460800160208101906122739190613d1d565b8560a00160208101906122869190613d1d565b8660c00135876101200135612e17565b6122b68260800160208101906122ac9190613d1d565b8360e0013561184b565b60035f8360400160208101906122cc9190613d1d565b73ffffffffffffffffffffffffffffffffffffffff1673ffffffffffffffffffffffffffffffffffffffff1681526020019081526020015f205f8360c0013581526020019081526020015f205f9055600160045f8381526020019081526020015f205f6101000a81548160ff0219169083151502179055508160c001353373ffffffffffffffffffffffffffffffffffffffff168360800160208101906123739190613d1d565b73ffffffffffffffffffffffffffffffffffffffff167f6d794d38d52c34db77f62adcae8c890dc87664e863643cb6363a6ad4d1fc5fd08560400160208101906123bd9190613d1d565b8660600160208101906123d09190613d1d565b8760e00135876040516123e69493929190614ae9565b60405180910390a46123f66131a2565b5f600960146101000a81548160ff0219169083151502179055505050565b5f60065f8381526020019081526020015f20549050919050565b600960149054906101000a900460ff1661247d576040517f08c379a00000000000000000000000000000000000000000000000000000000081526004016124749061464c565b60405180910390fd5b5f60058111156124905761248f61466a565b5b8260200160208101906124a391906146ba565b60058111156124b5576124b461466a565b5b036125c0575f801b6124dd8360400160208101906124d39190613d1d565b8460c00135612ca4565b1461251d576040517f08c379a000000000000000000000000000000000000000000000000000000000815260040161251490614755565b60405180910390fd5b61253e8260400160208101906125339190613d1d565b8360c0013583612cfa565b8160c001353373ffffffffffffffffffffffffffffffffffffffff167f3af7e15c36e0552067e803a0d3e9a1a90b6d95f5be49bb25a9642b7f43e06f4184606001602081019061258e9190613d1d565b8560400160208101906125a19190613d1d565b85876040516125b3949392919061546a565b60405180910390a361269b565b6005808111156125d3576125d261466a565b5b8260200160208101906125e691906146ba565b60058111156125f8576125f761466a565b5b0361269a5760035f8360400160208101906126139190613d1d565b73ffffffffffffffffffffffffffffffffffffffff1673ffffffffffffffffffffffffffffffffffffffff1681526020019081526020015f205f8360c0013581526020019081526020015f205f90557f30ad15c39984aa59d60d4089cbbbaa503c4c9e0fa0e3bdf62a5bab180fcb974d81604051612691919061436c565b60405180910390a15b5b5f600960146101000a81548160ff0219169083151502179055505050565b600960159054906101000a900460ff1681565b6040518060400160405280600781526020017f544147574542330000000000000000000000000000000000000000000000000081525081565b5f8160405160200161271791906154ae565b604051602081830303815290604052805190602001209050919050565b60085f9054906101000a900473ffffffffffffffffffffffffffffffffffffffff1681565b5f60055f8381526020019081526020015f205f9054906101000a900473ffffffffffffffffffffffffffffffffffffffff169050919050565b5f340361279d575f80fd5b6127a5613204565b6127b0828233613251565b6127ef576040517f08c379a00000000000000000000000000000000000000000000000000000000081526004016127e690615538565b60405180910390fd5b612809838036038101906128039190615038565b8361340b565b612848576040517f08c379a000000000000000000000000000000000000000000000000000000000815260040161283f906155c6565b60405180910390fd5b5f73ffffffffffffffffffffffffffffffffffffffff1661286883612759565b73ffffffffffffffffffffffffffffffffffffffff16146128ce574261288d83612082565b116128cd576040517f08c379a00000000000000000000000000000000000000000000000000000000081526004016128c490615162565b60405180910390fd5b5b6001600960146101000a81548160ff0219169083151502179055506128f38383611d63565b6128fb6133c8565b505050565b600960149054906101000a900460ff1661294f576040517f08c379a00000000000000000000000000000000000000000000000000000000081526004016129469061464c565b60405180910390fd5b6129ad825f0160208101906129649190614abe565b8360400160208101906129779190613d1d565b84608001602081019061298a9190613d1d565b8560a001602081019061299d9190613d1d565b8660c00135876101200135612e17565b6129e18260600160208101906129c39190613d1d565b338460800160208101906129d79190613d1d565b8560e001356135c7565b60035f8360400160208101906129f79190613d1d565b73ffffffffffffffffffffffffffffffffffffffff1673ffffffffffffffffffffffffffffffffffffffff1681526020019081526020015f205f8360c0013581526020019081526020015f205f90558160c001353373ffffffffffffffffffffffffffffffffffffffff16836080016020810190612a759190613d1d565b73ffffffffffffffffffffffffffffffffffffffff167f6d794d38d52c34db77f62adcae8c890dc87664e863643cb6363a6ad4d1fc5fd0856040016020810190612abf9190613d1d565b866060016020810190612ad29190613d1d565b8760e0013587604051612ae89493929190614ae9565b60405180910390a4612af86131a2565b5f600960146101000a81548160ff0219169083151502179055505050565b600a5481565b5f60045f8381526020019081526020015f205f9054906101000a900460ff169050919050565b60025f9054906101000a900473ffffffffffffffffffffffffffffffffffffffff1673ffffffffffffffffffffffffffffffffffffffff163373ffffffffffffffffffffffffffffffffffffffff1614612bd1576040517f08c379a0000000000000000000000000000000000000000000000000000000008152600401612bc8906144c8565b60405180910390fd5b8060025f6101000a81548173ffffffffffffffffffffffffffffffffffffffff021916908373ffffffffffffffffffffffffffffffffffffffff16021790555050565b5f81604051602001612c2691906155e4565b604051602081830303815290604052805190602001209050919050565b5f60025f9054906101000a900473ffffffffffffffffffffffffffffffffffffffff16905090565b6040518060400160405280600581526020017f312e302e3000000000000000000000000000000000000000000000000000000081525081565b5f60035f8473ffffffffffffffffffffffffffffffffffffffff1673ffffffffffffffffffffffffffffffffffffffff1681526020019081526020015f205f8381526020019081526020015f2054905092915050565b600960149054906101000a900460ff16612d49576040517f08c379a0000000000000000000000000000000000000000000000000000000008152600401612d409061464c565b60405180910390fd5b8060035f8573ffffffffffffffffffffffffffffffffffffffff1673ffffffffffffffffffffffffffffffffffffffff1681526020019081526020015f205f8481526020019081526020015f20819055505f600960146101000a81548160ff021916908315150217905550505050565b5f4285108015612dfc5750612dcd84612759565b73ffffffffffffffffffffffffffffffffffffffff163373ffffffffffffffffffffffffffffffffffffffff16145b80612e0d5750612e0c83836137ab565b5b9050949350505050565b5f6001811115612e2a57612e2961466a565b5b866001811115612e3d57612e3c61466a565b5b03612ed45760085f9054906101000a900473ffffffffffffffffffffffffffffffffffffffff1673ffffffffffffffffffffffffffffffffffffffff1663ef0dfaaf868686866040518563ffffffff1660e01b8152600401612ea29493929190614c7d565b5f604051808303815f87803b158015612eb9575f80fd5b505af1158015612ecb573d5f803e3d5ffd5b50505050612f90565b600180811115612ee757612ee661466a565b5b866001811115612efa57612ef961466a565b5b03612f8f5760085f9054906101000a900473ffffffffffffffffffffffffffffffffffffffff1673ffffffffffffffffffffffffffffffffffffffff16634282f5d386868686866040518663ffffffff1660e01b8152600401612f619594939291906155fe565b5f604051808303815f87803b158015612f78575f80fd5b505af1158015612f8a573d5f803e3d5ffd5b505050505b5b505050505050565b5f612fd16064612fc3600960159054906101000a900460ff1660ff16856131bb90919063ffffffff16565b6131d090919063ffffffff16565b90505f73ffffffffffffffffffffffffffffffffffffffff168473ffffffffffffffffffffffffffffffffffffffff16146131545760085f9054906101000a900473ffffffffffffffffffffffffffffffffffffffff1673ffffffffffffffffffffffffffffffffffffffff1663b97be865858561305885876133f690919063ffffffff16565b6040518463ffffffff1660e01b815260040161307693929190614c48565b5f604051808303815f87803b15801561308d575f80fd5b505af115801561309f573d5f803e3d5ffd5b5050505060085f9054906101000a900473ffffffffffffffffffffffffffffffffffffffff1673ffffffffffffffffffffffffffffffffffffffff1663b97be8658560095f9054906101000a900473ffffffffffffffffffffffffffffffffffffffff16846040518463ffffffff1660e01b815260040161312293929190614c48565b5f604051808303815f87803b158015613139575f80fd5b505af115801561314b573d5f803e3d5ffd5b5050505061319c565b6131708361316b83856133f690919063ffffffff16565b6134d7565b61319b60095f9054906101000a900473ffffffffffffffffffffffffffffffffffffffff16826134d7565b5b50505050565b600a5f8154809291906131b49061567c565b9190505550565b5f81836131c891906156c3565b905092915050565b5f81836131dd9190615731565b905092915050565b5f804290505f62015180826131fa9190615761565b9050809250505090565b60025f5403613248576040517f08c379a000000000000000000000000000000000000000000000000000000000815260040161323f906157de565b60405180910390fd5b60025f81905550565b5f8061325c8561385a565b90505f613272858361388d90919063ffffffff16565b90508373ffffffffffffffffffffffffffffffffffffffff168173ffffffffffffffffffffffffffffffffffffffff1614925050509392505050565b5f8073ffffffffffffffffffffffffffffffffffffffff168360800160208101906132d99190613d1d565b73ffffffffffffffffffffffffffffffffffffffff161415801561334d57508260a001602081019061330b9190613d1d565b73ffffffffffffffffffffffffffffffffffffffff168360800160208101906133349190613d1d565b73ffffffffffffffffffffffffffffffffffffffff1614155b801561335d575042836101000135115b8015613387575061338483604001602081019061337a9190613d1d565b8460c00135612ca4565b82145b8015613397575042836101000135115b80156133c057506133be8360400160208101906133b49190613d1d565b8460c001356137ab565b155b905092915050565b60015f81905550565b5f6133dc83836138b2565b80156133ee57506133ed83836137ab565b5b905092915050565b5f818361340391906157fc565b905092915050565b5f8073ffffffffffffffffffffffffffffffffffffffff16836080015173ffffffffffffffffffffffffffffffffffffffff161415801561348057508260a0015173ffffffffffffffffffffffffffffffffffffffff16836080015173ffffffffffffffffffffffffffffffffffffffff1614155b801561349c575061349983604001518460c00151612ca4565b82145b80156134b457506134ac82612082565b836101400151145b80156134cf57506134cd83604001518460c001516137ab565b155b905092915050565b8047101561351a576040517f08c379a00000000000000000000000000000000000000000000000000000000081526004016135119061589f565b60405180910390fd5b5f8273ffffffffffffffffffffffffffffffffffffffff168260405161353f906158ea565b5f6040518083038185875af1925050503d805f8114613579576040519150601f19603f3d011682016040523d82523d5f602084013e61357e565b606091505b50509050806135c2576040517f08c379a00000000000000000000000000000000000000000000000000000000081526004016135b99061596e565b60405180910390fd5b505050565b5f61360060646135f2600960159054906101000a900460ff1660ff16856131bb90919063ffffffff16565b6131d090919063ffffffff16565b905060085f9054906101000a900473ffffffffffffffffffffffffffffffffffffffff1673ffffffffffffffffffffffffffffffffffffffff16638e1976e986868661365586886133f690919063ffffffff16565b6040518563ffffffff1660e01b81526004016136749493929190614c7d565b5f604051808303815f87803b15801561368b575f80fd5b505af115801561369d573d5f803e3d5ffd5b505050505f73ffffffffffffffffffffffffffffffffffffffff1660095f9054906101000a900473ffffffffffffffffffffffffffffffffffffffff1673ffffffffffffffffffffffffffffffffffffffff16146137a45760085f9054906101000a900473ffffffffffffffffffffffffffffffffffffffff1673ffffffffffffffffffffffffffffffffffffffff16638e1976e9868660095f9054906101000a900473ffffffffffffffffffffffffffffffffffffffff16856040518563ffffffff1660e01b81526004016137769493929190614c7d565b5f604051808303815f87803b15801561378d575f80fd5b505af115801561379f573d5f803e3d5ffd5b505050505b5050505050565b5f3373ffffffffffffffffffffffffffffffffffffffff168373ffffffffffffffffffffffffffffffffffffffff16636352211e846040518263ffffffff1660e01b81526004016137fc9190614216565b602060405180830381865afa158015613817573d5f803e3d5ffd5b505050506040513d601f19601f8201168201806040525081019061383b91906159a0565b73ffffffffffffffffffffffffffffffffffffffff1614905092915050565b5f7f19457468657265756d205369676e6564204d6573736167653a0a3332000000005f5281601c52603c5f209050919050565b5f805f61389a8585613a29565b915091506138a781613a75565b819250505092915050565b5f8083905060085f9054906101000a900473ffffffffffffffffffffffffffffffffffffffff1673ffffffffffffffffffffffffffffffffffffffff168173ffffffffffffffffffffffffffffffffffffffff1663081812fc856040518263ffffffff1660e01b81526004016139289190614216565b602060405180830381865afa158015613943573d5f803e3d5ffd5b505050506040513d601f19601f8201168201806040525081019061396791906159a0565b73ffffffffffffffffffffffffffffffffffffffff161480613a2057508073ffffffffffffffffffffffffffffffffffffffff1663e985e9c53360085f9054906101000a900473ffffffffffffffffffffffffffffffffffffffff166040518363ffffffff1660e01b81526004016139e09291906159cb565b602060405180830381865afa1580156139fb573d5f803e3d5ffd5b505050506040513d601f19601f82011682018060405250810190613a1f9190615a1c565b5b91505092915050565b5f806041835103613a66575f805f602086015192506040860151915060608601515f1a9050613a5a87828585613bda565b94509450505050613a6e565b5f6002915091505b9250929050565b5f6004811115613a8857613a8761466a565b5b816004811115613a9b57613a9a61466a565b5b0315613bd75760016004811115613ab557613ab461466a565b5b816004811115613ac857613ac761466a565b5b03613b08576040517f08c379a0000000000000000000000000000000000000000000000000000000008152600401613aff90615a91565b60405180910390fd5b60026004811115613b1c57613b1b61466a565b5b816004811115613b2f57613b2e61466a565b5b03613b6f576040517f08c379a0000000000000000000000000000000000000000000000000000000008152600401613b6690615af9565b60405180910390fd5b60036004811115613b8357613b8261466a565b5b816004811115613b9657613b9561466a565b5b03613bd6576040517f08c379a0000000000000000000000000000000000000000000000000000000008152600401613bcd90615b87565b60405180910390fd5b5b50565b5f807f7fffffffffffffffffffffffffffffff5d576e7357a4501ddfe92f46681b20a0835f1c1115613c12575f600391509150613ca9565b5f6001878787876040515f8152602001604052604051613c359493929190615ba5565b6020604051602081039080840390855afa158015613c55573d5f803e3d5ffd5b5050506020604051035190505f73ffffffffffffffffffffffffffffffffffffffff168173ffffffffffffffffffffffffffffffffffffffff1603613ca1575f60019250925050613ca9565b805f92509250505b94509492505050565b5f604051905090565b5f80fd5b5f80fd5b5f73ffffffffffffffffffffffffffffffffffffffff82169050919050565b5f613cec82613cc3565b9050919050565b613cfc81613ce2565b8114613d06575f80fd5b50565b5f81359050613d1781613cf3565b92915050565b5f60208284031215613d3257613d31613cbb565b5b5f613d3f84828501613d09565b91505092915050565b5f80fd5b5f6101808284031215613d6257613d61613d48565b5b81905092915050565b5f819050919050565b613d7d81613d6b565b8114613d87575f80fd5b50565b5f81359050613d9881613d74565b92915050565b5f806101a08385031215613db557613db4613cbb565b5b5f613dc285828601613d4c565b925050610180613dd485828601613d8a565b9150509250929050565b5f6101408284031215613df457613df3613d48565b5b81905092915050565b5f80fd5b5f80fd5b5f601f19601f8301169050919050565b7f4e487b71000000000000000000000000000000000000000000000000000000005f52604160045260245ffd5b613e4b82613e05565b810181811067ffffffffffffffff82111715613e6a57613e69613e15565b5b80604052505050565b5f613e7c613cb2565b9050613e888282613e42565b919050565b5f67ffffffffffffffff821115613ea757613ea6613e15565b5b613eb082613e05565b9050602081019050919050565b828183375f83830152505050565b5f613edd613ed884613e8d565b613e73565b905082815260208101848484011115613ef957613ef8613e01565b5b613f04848285613ebd565b509392505050565b5f82601f830112613f2057613f1f613dfd565b5b8135613f30848260208601613ecb565b91505092915050565b5f805f6101808486031215613f5157613f50613cbb565b5b5f613f5e86828701613dde565b935050610140613f7086828701613d8a565b92505061016084013567ffffffffffffffff811115613f9257613f91613cbf565b5b613f9e86828701613f0c565b9150509250925092565b5f806101a08385031215613fbf57613fbe613cbb565b5b5f613fcc85828601613d4c565b92505061018083013567ffffffffffffffff811115613fee57613fed613cbf565b5b613ffa85828601613f0c565b9150509250929050565b5f80610160838503121561401b5761401a613cbb565b5b5f61402885828601613dde565b92505061014083013567ffffffffffffffff81111561404a57614049613cbf565b5b61405685828601613f0c565b9150509250929050565b5f819050919050565b61407281614060565b811461407c575f80fd5b50565b5f8135905061408d81614069565b92915050565b5f80604083850312156140a9576140a8613cbb565b5b5f6140b685828601613d09565b92505060206140c78582860161407f565b9150509250929050565b5f60ff82169050919050565b6140e6816140d1565b81146140f0575f80fd5b50565b5f81359050614101816140dd565b92915050565b5f806040838503121561411d5761411c613cbb565b5b5f61412a85828601613d09565b925050602061413b858286016140f3565b9150509250929050565b61414e81613ce2565b82525050565b5f6020820190506141675f830184614145565b92915050565b5f805f6101c0848603121561418557614184613cbb565b5b5f61419286828701613d4c565b9350506101806141a486828701613d8a565b9250506101a084013567ffffffffffffffff8111156141c6576141c5613cbf565b5b6141d286828701613f0c565b9150509250925092565b5f602082840312156141f1576141f0613cbb565b5b5f6141fe84828501613d8a565b91505092915050565b61421081614060565b82525050565b5f6020820190506142295f830184614207565b92915050565b5f80610160838503121561424657614245613cbb565b5b5f61425385828601613dde565b92505061014061426585828601613d8a565b9150509250929050565b614278816140d1565b82525050565b5f6020820190506142915f83018461426f565b92915050565b5f81519050919050565b5f82825260208201905092915050565b5f5b838110156142ce5780820151818401526020810190506142b3565b5f8484015250505050565b5f6142e382614297565b6142ed81856142a1565b93506142fd8185602086016142b1565b61430681613e05565b840191505092915050565b5f6020820190508181035f83015261432981846142d9565b905092915050565b5f610180828403121561434757614346613cbb565b5b5f61435484828501613d4c565b91505092915050565b61436681613d6b565b82525050565b5f60208201905061437f5f83018461435d565b92915050565b5f819050919050565b5f6143a86143a361439e84613cc3565b614385565b613cc3565b9050919050565b5f6143b98261438e565b9050919050565b5f6143ca826143af565b9050919050565b6143da816143c0565b82525050565b5f6020820190506143f35f8301846143d1565b92915050565b5f8115159050919050565b61440d816143f9565b82525050565b5f6020820190506144265f830184614404565b92915050565b5f610140828403121561444257614441613cbb565b5b5f61444f84828501613dde565b91505092915050565b7f4f6e6c792061646d696e2063616e20706572666f726d207468697320616374695f8201527f6f6e000000000000000000000000000000000000000000000000000000000000602082015250565b5f6144b26022836142a1565b91506144bd82614458565b604082019050919050565b5f6020820190508181035f8301526144df816144a6565b9050919050565b7f496e76616c6964206e657720696d706c656d656e746174696f6e2061646472655f8201527f7373000000000000000000000000000000000000000000000000000000000000602082015250565b5f6145406022836142a1565b915061454b826144e6565b604082019050919050565b5f6020820190508181035f83015261456d81614534565b9050919050565b7f4e657720696d706c656d656e746174696f6e2061646472657373206d757374205f8201527f626520646966666572656e740000000000000000000000000000000000000000602082015250565b5f6145ce602c836142a1565b91506145d982614574565b604082019050919050565b5f6020820190508181035f8301526145fb816145c2565b9050919050565b7f696e7365637572652063616c6c000000000000000000000000000000000000005f82015250565b5f614636600d836142a1565b915061464182614602565b602082019050919050565b5f6020820190508181035f8301526146638161462a565b9050919050565b7f4e487b71000000000000000000000000000000000000000000000000000000005f52602160045260245ffd5b600681106146a3575f80fd5b50565b5f813590506146b481614697565b92915050565b5f602082840312156146cf576146ce613cbb565b5b5f6146dc848285016146a6565b91505092915050565b7f506f6c617279732045786368616e67653a20746f6b656e20616c7265616479205f8201527f6f6e2073616c6500000000000000000000000000000000000000000000000000602082015250565b5f61473f6027836142a1565b915061474a826146e5565b604082019050919050565b5f6020820190508181035f83015261476c81614733565b9050919050565b6002811061477f575f80fd5b50565b5f8135905061479081614773565b92915050565b5f6147a46020840184614782565b905092915050565b600281106147bd576147bc61466a565b5b50565b5f8190506147cd826147ac565b919050565b5f6147dc826147c0565b9050919050565b6147ec816147d2565b82525050565b5f61480060208401846146a6565b905092915050565b600681106148195761481861466a565b5b50565b5f81905061482982614808565b919050565b5f6148388261481c565b9050919050565b6148488161482e565b82525050565b5f61485c6020840184613d09565b905092915050565b61486d81613ce2565b82525050565b5f614881602084018461407f565b905092915050565b61489281614060565b82525050565b61018082016148a95f830183614796565b6148b55f8501826147e3565b506148c360208301836147f2565b6148d0602085018261483f565b506148de604083018361484e565b6148eb6040850182614864565b506148f9606083018361484e565b6149066060850182614864565b50614914608083018361484e565b6149216080850182614864565b5061492f60a083018361484e565b61493c60a0850182614864565b5061494a60c0830183614873565b61495760c0850182614889565b5061496560e0830183614873565b61497260e0850182614889565b50614981610100830183614873565b61498f610100850182614889565b5061499e610120830183614873565b6149ac610120850182614889565b506149bb610140830183614873565b6149c9610140850182614889565b506149d8610160830183614873565b6149e6610160850182614889565b50505050565b5f6101e082019050614a005f830187614145565b614a0d6020830186614145565b614a1a604083018561435d565b614a276060830184614898565b95945050505050565b7f506f6c617279732045786368616e67653a2041756374696f6e20686173206e6f5f8201527f7420656e646564206f7220696e76616c69642063616c6c657200000000000000602082015250565b5f614a8a6039836142a1565b9150614a9582614a30565b604082019050919050565b5f6020820190508181035f830152614ab781614a7e565b9050919050565b5f60208284031215614ad357614ad2613cbb565b5b5f614ae084828501614782565b91505092915050565b5f608082019050614afc5f830187614145565b614b096020830186614145565b614b166040830185614207565b614b23606083018461435d565b95945050505050565b7f506f6c617279732045786368616e67653a2041756374696f6e206861732073745f8201527f6172746564000000000000000000000000000000000000000000000000000000602082015250565b5f614b866025836142a1565b9150614b9182614b2c565b604082019050919050565b5f6020820190508181035f830152614bb381614b7a565b9050919050565b7f506f6c617279732045786368616e67653a204d696e696d756d207265717569725f8201527f6564203225206d6f7265207468616e2063757272656e74204269640000000000602082015250565b5f614c14603b836142a1565b9150614c1f82614bba565b604082019050919050565b5f6020820190508181035f830152614c4181614c08565b9050919050565b5f606082019050614c5b5f830186614145565b614c686020830185614145565b614c756040830184614207565b949350505050565b5f608082019050614c905f830187614145565b614c9d6020830186614145565b614caa6040830185614145565b614cb76060830184614207565b95945050505050565b5f608082019050614cd35f830187614145565b614ce06020830186614207565b614ced6040830185614145565b614cfa606083018461435d565b95945050505050565b7f506f6c617279732045786368616e67653a20496e76616c6964207369676e61745f8201527f75726520666f72206f7264657220657865637574696f6e000000000000000000602082015250565b5f614d5d6037836142a1565b9150614d6882614d03565b604082019050919050565b5f6020820190508181035f830152614d8a81614d51565b9050919050565b7f506f6c617279732045786368616e67653a20496e76616c6964206f72646572205f8201527f706172656d657465727300000000000000000000000000000000000000000000602082015250565b5f614deb602a836142a1565b9150614df682614d91565b604082019050919050565b5f6020820190508181035f830152614e1881614ddf565b9050919050565b7f506f6c617279732045786368616e67653a20596f7520617265206e6f742074685f8201527f65206f776e6572206f7220746f6b656e206e6f7420617070726f766564000000602082015250565b5f614e79603d836142a1565b9150614e8482614e1f565b604082019050919050565b5f6020820190508181035f830152614ea681614e6d565b9050919050565b7f506f6c617279732045786368616e67653a20496e76616c6964204552433230005f82015250565b5f614ee1601f836142a1565b9150614eec82614ead565b602082019050919050565b5f6020820190508181035f830152614f0e81614ed5565b9050919050565b5f80fd5b5f6101808284031215614f2f57614f2e614f15565b5b614f3a610180613e73565b90505f614f4984828501614782565b5f830152506020614f5c848285016146a6565b6020830152506040614f7084828501613d09565b6040830152506060614f8484828501613d09565b6060830152506080614f9884828501613d09565b60808301525060a0614fac84828501613d09565b60a08301525060c0614fc08482850161407f565b60c08301525060e0614fd48482850161407f565b60e083015250610100614fe98482850161407f565b61010083015250610120614fff8482850161407f565b610120830152506101406150158482850161407f565b6101408301525061016061502b8482850161407f565b6101608301525092915050565b5f610180828403121561504e5761504d613cbb565b5b5f61505b84828501614f19565b91505092915050565b7f506f6c617279732045786368616e67653a204f726465722063616e63656c65645f8201527f206f722066696c6c656400000000000000000000000000000000000000000000602082015250565b5f6150be602a836142a1565b91506150c982615064565b604082019050919050565b5f6020820190508181035f8301526150eb816150b2565b9050919050565b7f506f6c617279732045786368616e67653a2041756374696f6e206578706972655f8201527f6400000000000000000000000000000000000000000000000000000000000000602082015250565b5f61514c6021836142a1565b9150615157826150f2565b604082019050919050565b5f6020820190508181035f83015261517981615140565b9050919050565b7f506f6c617279732045786368616e67653a204d696e696d756d207265717569725f8201527f6564203225206d6f7265207468616e2063757272656e7420686967686573742060208201527f6269640000000000000000000000000000000000000000000000000000000000604082015250565b5f6152006043836142a1565b915061520b82615180565b606082019050919050565b5f6020820190508181035f83015261522d816151f4565b9050919050565b7f506f6c617279732045786368616e67653a20496e76616c6964207061796d656e5f8201527f7420746f6b656e00000000000000000000000000000000000000000000000000602082015250565b5f61528e6027836142a1565b915061529982615234565b604082019050919050565b5f6020820190508181035f8301526152bb81615282565b9050919050565b7f506f6c617279732045786368616e67653a20496e76616c6964206f72646572205f8201527f706172616d657465727300000000000000000000000000000000000000000000602082015250565b5f61531c602a836142a1565b9150615327826152c2565b604082019050919050565b5f6020820190508181035f83015261534981615310565b9050919050565b61014082016153615f830183614796565b61536d5f8501826147e3565b5061537b60208301836147f2565b615388602085018261483f565b50615396604083018361484e565b6153a36040850182614864565b506153b1606083018361484e565b6153be6060850182614864565b506153cc608083018361484e565b6153d96080850182614864565b506153e760a083018361484e565b6153f460a0850182614864565b5061540260c0830183614873565b61540f60c0850182614889565b5061541d60e0830183614873565b61542a60e0850182614889565b50615439610100830183614873565b615447610100850182614889565b50615456610120830183614873565b615464610120850182614889565b50505050565b5f6101a08201905061547e5f830187614145565b61548b6020830186614145565b615498604083018561435d565b6154a56060830184615350565b95945050505050565b5f610180820190506154c25f830184614898565b92915050565b7f506f6c617279732045786368616e67653a20496e76616c6964207369676e61745f8201527f75726520666f722061756374696f6e20657865637574696f6e00000000000000602082015250565b5f6155226039836142a1565b915061552d826154c8565b604082019050919050565b5f6020820190508181035f83015261554f81615516565b9050919050565b7f506f6c617279732045786368616e67653a20496e76616c69642061756374696f5f8201527f6e20706172616d65746572730000000000000000000000000000000000000000602082015250565b5f6155b0602c836142a1565b91506155bb82615556565b604082019050919050565b5f6020820190508181035f8301526155dd816155a4565b9050919050565b5f610140820190506155f85f830184615350565b92915050565b5f60a0820190506156115f830188614145565b61561e6020830187614145565b61562b6040830186614145565b6156386060830185614207565b6156456080830184614207565b9695505050505050565b7f4e487b71000000000000000000000000000000000000000000000000000000005f52601160045260245ffd5b5f61568682614060565b91507fffffffffffffffffffffffffffffffffffffffffffffffffffffffffffffffff82036156b8576156b761564f565b5b600182019050919050565b5f6156cd82614060565b91506156d883614060565b92508282026156e681614060565b915082820484148315176156fd576156fc61564f565b5b5092915050565b7f4e487b71000000000000000000000000000000000000000000000000000000005f52601260045260245ffd5b5f61573b82614060565b915061574683614060565b92508261575657615755615704565b5b828204905092915050565b5f61576b82614060565b915061577683614060565b925082820190508082111561578e5761578d61564f565b5b92915050565b7f5265656e7472616e637947756172643a207265656e7472616e742063616c6c005f82015250565b5f6157c8601f836142a1565b91506157d382615794565b602082019050919050565b5f6020820190508181035f8301526157f5816157bc565b9050919050565b5f61580682614060565b915061581183614060565b92508282039050818111156158295761582861564f565b5b92915050565b7f506f6c617279732045786368616e67653a20496e73756666696369656e7420635f8201527f6f6e74726163742062616c616e63650000000000000000000000000000000000602082015250565b5f615889602f836142a1565b91506158948261582f565b604082019050919050565b5f6020820190508181035f8301526158b68161587d565b9050919050565b5f81905092915050565b50565b5f6158d55f836158bd565b91506158e0826158c7565b5f82019050919050565b5f6158f4826158ca565b9150819050919050565b7f506f6c617279732045786368616e67653a204661696c656420746f2073656e645f8201527f2045544800000000000000000000000000000000000000000000000000000000602082015250565b5f6159586024836142a1565b9150615963826158fe565b604082019050919050565b5f6020820190508181035f8301526159858161594c565b9050919050565b5f8151905061599a81613cf3565b92915050565b5f602082840312156159b5576159b4613cbb565b5b5f6159c28482850161598c565b91505092915050565b5f6040820190506159de5f830185614145565b6159eb6020830184614145565b9392505050565b6159fb816143f9565b8114615a05575f80fd5b50565b5f81519050615a16816159f2565b92915050565b5f60208284031215615a3157615a30613cbb565b5b5f615a3e84828501615a08565b91505092915050565b7f45434453413a20696e76616c6964207369676e617475726500000000000000005f82015250565b5f615a7b6018836142a1565b9150615a8682615a47565b602082019050919050565b5f6020820190508181035f830152615aa881615a6f565b9050919050565b7f45434453413a20696e76616c6964207369676e6174757265206c656e677468005f82015250565b5f615ae3601f836142a1565b9150615aee82615aaf565b602082019050919050565b5f6020820190508181035f830152615b1081615ad7565b9050919050565b7f45434453413a20696e76616c6964207369676e6174757265202773272076616c5f8201527f7565000000000000000000000000000000000000000000000000000000000000602082015250565b5f615b716022836142a1565b9150615b7c82615b17565b604082019050919050565b5f6020820190508181035f830152615b9e81615b65565b9050919050565b5f608082019050615bb85f83018761435d565b615bc5602083018661426f565b615bd2604083018561435d565b615bdf606083018461435d565b9594505050505056fea264697066735822122089419a5d74d6d7a554ef48603becfd8da726c20d77360219a8b4adcbcc61301164736f6c63430008160033",
			"opcodes": "PUSH1 0x80 PUSH1 0x40 MSTORE CALLVALUE DUP1 ISZERO PUSH3 0x10 JUMPI PUSH0 DUP1 REVERT JUMPDEST POP ADDRESS CALLER PUSH1 0x1 PUSH0 DUP2 SWAP1 SSTORE POP PUSH0 PUSH20 0xFFFFFFFFFFFFFFFFFFFFFFFFFFFFFFFFFFFFFFFF AND DUP3 PUSH20 0xFFFFFFFFFFFFFFFFFFFFFFFFFFFFFFFFFFFFFFFF AND SUB PUSH3 0x8B JUMPI PUSH1 0x40 MLOAD PUSH32 0x8C379A000000000000000000000000000000000000000000000000000000000 DUP2 MSTORE PUSH1 0x4 ADD PUSH3 0x82 SWAP1 PUSH3 0x1E2 JUMP JUMPDEST PUSH1 0x40 MLOAD DUP1 SWAP2 SUB SWAP1 REVERT JUMPDEST PUSH0 PUSH20 0xFFFFFFFFFFFFFFFFFFFFFFFFFFFFFFFFFFFFFFFF AND DUP2 PUSH20 0xFFFFFFFFFFFFFFFFFFFFFFFFFFFFFFFFFFFFFFFF AND SUB PUSH3 0xFC JUMPI PUSH1 0x40 MLOAD PUSH32 0x8C379A000000000000000000000000000000000000000000000000000000000 DUP2 MSTORE PUSH1 0x4 ADD PUSH3 0xF3 SWAP1 PUSH3 0x250 JUMP JUMPDEST PUSH1 0x40 MLOAD DUP1 SWAP2 SUB SWAP1 REVERT JUMPDEST DUP2 PUSH1 0x1 PUSH0 PUSH2 0x100 EXP DUP2 SLOAD DUP2 PUSH20 0xFFFFFFFFFFFFFFFFFFFFFFFFFFFFFFFFFFFFFFFF MUL NOT AND SWAP1 DUP4 PUSH20 0xFFFFFFFFFFFFFFFFFFFFFFFFFFFFFFFFFFFFFFFF AND MUL OR SWAP1 SSTORE POP DUP1 PUSH1 0x2 PUSH0 PUSH2 0x100 EXP DUP2 SLOAD DUP2 PUSH20 0xFFFFFFFFFFFFFFFFFFFFFFFFFFFFFFFFFFFFFFFF MUL NOT AND SWAP1 DUP4 PUSH20 0xFFFFFFFFFFFFFFFFFFFFFFFFFFFFFFFFFFFFFFFF AND MUL OR SWAP1 SSTORE POP POP POP PUSH3 0x270 JUMP JUMPDEST PUSH0 DUP3 DUP3 MSTORE PUSH1 0x20 DUP3 ADD SWAP1 POP SWAP3 SWAP2 POP POP JUMP JUMPDEST PUSH32 0x496E76616C696420696D706C656D656E746174696F6E20616464726573730000 PUSH0 DUP3 ADD MSTORE POP JUMP JUMPDEST PUSH0 PUSH3 0x1CA PUSH1 0x1E DUP4 PUSH3 0x184 JUMP JUMPDEST SWAP2 POP PUSH3 0x1D7 DUP3 PUSH3 0x194 JUMP JUMPDEST PUSH1 0x20 DUP3 ADD SWAP1 POP SWAP2 SWAP1 POP JUMP JUMPDEST PUSH0 PUSH1 0x20 DUP3 ADD SWAP1 POP DUP2 DUP2 SUB PUSH0 DUP4 ADD MSTORE PUSH3 0x1FB DUP2 PUSH3 0x1BC JUMP JUMPDEST SWAP1 POP SWAP2 SWAP1 POP JUMP JUMPDEST PUSH32 0x496E76616C69642061646D696E20616464726573730000000000000000000000 PUSH0 DUP3 ADD MSTORE POP JUMP JUMPDEST PUSH0 PUSH3 0x238 PUSH1 0x15 DUP4 PUSH3 0x184 JUMP JUMPDEST SWAP2 POP PUSH3 0x245 DUP3 PUSH3 0x202 JUMP JUMPDEST PUSH1 0x20 DUP3 ADD SWAP1 POP SWAP2 SWAP1 POP JUMP JUMPDEST PUSH0 PUSH1 0x20 DUP3 ADD SWAP1 POP DUP2 DUP2 SUB PUSH0 DUP4 ADD MSTORE PUSH3 0x269 DUP2 PUSH3 0x22A JUMP JUMPDEST SWAP1 POP SWAP2 SWAP1 POP JUMP JUMPDEST PUSH2 0x5C1E DUP1 PUSH3 0x27E PUSH0 CODECOPY PUSH0 RETURN INVALID PUSH1 0x80 PUSH1 0x40 MSTORE PUSH1 0x4 CALLDATASIZE LT PUSH2 0x1DB JUMPI PUSH0 CALLDATALOAD PUSH1 0xE0 SHR DUP1 PUSH4 0x8231F5DF GT PUSH2 0x101 JUMPI DUP1 PUSH4 0xC68FADE0 GT PUSH2 0x94 JUMPI DUP1 PUSH4 0xE2F273BD GT PUSH2 0x63 JUMPI DUP1 PUSH4 0xE2F273BD EQ PUSH2 0x696 JUMPI DUP1 PUSH4 0xEC58F41F EQ PUSH2 0x6BE JUMPI DUP1 PUSH4 0xF851A440 EQ PUSH2 0x6FA JUMPI DUP1 PUSH4 0xFFA1AD74 EQ PUSH2 0x724 JUMPI PUSH2 0x1E2 JUMP JUMPDEST DUP1 PUSH4 0xC68FADE0 EQ PUSH2 0x5EC JUMPI DUP1 PUSH4 0xD89B9525 EQ PUSH2 0x608 JUMPI DUP1 PUSH4 0xD8CF5ED9 EQ PUSH2 0x630 JUMPI DUP1 PUSH4 0xDF5AA262 EQ PUSH2 0x65A JUMPI PUSH2 0x1E2 JUMP JUMPDEST DUP1 PUSH4 0x9F81A3B3 GT PUSH2 0xD0 JUMPI DUP1 PUSH4 0x9F81A3B3 EQ PUSH2 0x520 JUMPI DUP1 PUSH4 0xAEBDDE50 EQ PUSH2 0x54A JUMPI DUP1 PUSH4 0xB7A501A7 EQ PUSH2 0x586 JUMPI DUP1 PUSH4 0xBB660784 EQ PUSH2 0x5B0 JUMPI PUSH2 0x1E2 JUMP JUMPDEST DUP1 PUSH4 0x8231F5DF EQ PUSH2 0x476 JUMPI DUP1 PUSH4 0x8E7569D0 EQ PUSH2 0x492 JUMPI DUP1 PUSH4 0x8F919650 EQ PUSH2 0x4CE JUMPI DUP1 PUSH4 0x978BBDB9 EQ PUSH2 0x4F6 JUMPI PUSH2 0x1E2 JUMP JUMPDEST DUP1 PUSH4 0x3FAD53F0 GT PUSH2 0x179 JUMPI DUP1 PUSH4 0x585D53D0 GT PUSH2 0x148 JUMPI DUP1 PUSH4 0x585D53D0 EQ PUSH2 0x3CC JUMPI DUP1 PUSH4 0x5C60DA1B EQ PUSH2 0x3E8 JUMPI DUP1 PUSH4 0x73DB3CB4 EQ PUSH2 0x412 JUMPI DUP1 PUSH4 0x7F358469 EQ PUSH2 0x44E JUMPI PUSH2 0x1E2 JUMP JUMPDEST DUP1 PUSH4 0x3FAD53F0 EQ PUSH2 0x32A JUMPI DUP1 PUSH4 0x46904840 EQ PUSH2 0x352 JUMPI DUP1 PUSH4 0x4F17D2AF EQ PUSH2 0x37C JUMPI DUP1 PUSH4 0x548EB8E1 EQ PUSH2 0x3A4 JUMPI PUSH2 0x1E2 JUMP JUMPDEST DUP1 PUSH4 0x21C0C856 GT PUSH2 0x1B5 JUMPI DUP1 PUSH4 0x21C0C856 EQ PUSH2 0x2A2 JUMPI DUP1 PUSH4 0x258B7F22 EQ PUSH2 0x2BE JUMPI DUP1 PUSH4 0x26977E64 EQ PUSH2 0x2E6 JUMPI DUP1 PUSH4 0x3B1EBB62 EQ PUSH2 0x30E JUMPI PUSH2 0x1E2 JUMP JUMPDEST DUP1 PUSH4 0x900F010 EQ PUSH2 0x22A JUMPI DUP1 PUSH4 0x1A2522D0 EQ PUSH2 0x252 JUMPI DUP1 PUSH4 0x1EE9BCAA EQ PUSH2 0x27A JUMPI PUSH2 0x1E2 JUMP JUMPDEST CALLDATASIZE PUSH2 0x1E2 JUMPI STOP JUMPDEST PUSH0 PUSH1 0x1 PUSH0 SWAP1 SLOAD SWAP1 PUSH2 0x100 EXP SWAP1 DIV PUSH20 0xFFFFFFFFFFFFFFFFFFFFFFFFFFFFFFFFFFFFFFFF AND SWAP1 POP PUSH1 0x40 MLOAD CALLDATASIZE PUSH0 DUP3 CALLDATACOPY PUSH0 DUP1 CALLDATASIZE DUP4 DUP6 GAS DELEGATECALL RETURNDATASIZE DUP1 PUSH0 DUP5 RETURNDATACOPY DUP2 PUSH0 DUP2 EQ PUSH2 0x226 JUMPI DUP2 DUP5 RETURN JUMPDEST DUP2 DUP5 REVERT JUMPDEST CALLVALUE DUP1 ISZERO PUSH2 0x235 JUMPI PUSH0 DUP1 REVERT JUMPDEST POP PUSH2 0x250 PUSH1 0x4 DUP1 CALLDATASIZE SUB DUP2 ADD SWAP1 PUSH2 0x24B SWAP2 SWAP1 PUSH2 0x3D1D JUMP JUMPDEST PUSH2 0x74E JUMP JUMPDEST STOP JUMPDEST CALLVALUE DUP1 ISZERO PUSH2 0x25D JUMPI PUSH0 DUP1 REVERT JUMPDEST POP PUSH2 0x278 PUSH1 0x4 DUP1 CALLDATASIZE SUB DUP2 ADD SWAP1 PUSH2 0x273 SWAP2 SWAP1 PUSH2 0x3D9E JUMP JUMPDEST PUSH2 0x960 JUMP JUMPDEST STOP JUMPDEST CALLVALUE DUP1 ISZERO PUSH2 0x285 JUMPI PUSH0 DUP1 REVERT JUMPDEST POP PUSH2 0x2A0 PUSH1 0x4 DUP1 CALLDATASIZE SUB DUP2 ADD SWAP1 PUSH2 0x29B SWAP2 SWAP1 PUSH2 0x3D9E JUMP JUMPDEST PUSH2 0x1021 JUMP JUMPDEST STOP JUMPDEST PUSH2 0x2BC PUSH1 0x4 DUP1 CALLDATASIZE SUB DUP2 ADD SWAP1 PUSH2 0x2B7 SWAP2 SWAP1 PUSH2 0x3F39 JUMP JUMPDEST PUSH2 0x144E JUMP JUMPDEST STOP JUMPDEST CALLVALUE DUP1 ISZERO PUSH2 0x2C9 JUMPI PUSH0 DUP1 REVERT JUMPDEST POP PUSH2 0x2E4 PUSH1 0x4 DUP1 CALLDATASIZE SUB DUP2 ADD SWAP1 PUSH2 0x2DF SWAP2 SWAP1 PUSH2 0x3FA8 JUMP JUMPDEST PUSH2 0x1526 JUMP JUMPDEST STOP JUMPDEST CALLVALUE DUP1 ISZERO PUSH2 0x2F1 JUMPI PUSH0 DUP1 REVERT JUMPDEST POP PUSH2 0x30C PUSH1 0x4 DUP1 CALLDATASIZE SUB DUP2 ADD SWAP1 PUSH2 0x307 SWAP2 SWAP1 PUSH2 0x4004 JUMP JUMPDEST PUSH2 0x16B9 JUMP JUMPDEST STOP JUMPDEST PUSH2 0x328 PUSH1 0x4 DUP1 CALLDATASIZE SUB DUP2 ADD SWAP1 PUSH2 0x323 SWAP2 SWAP1 PUSH2 0x4093 JUMP JUMPDEST PUSH2 0x184B JUMP JUMPDEST STOP JUMPDEST CALLVALUE DUP1 ISZERO PUSH2 0x335 JUMPI PUSH0 DUP1 REVERT JUMPDEST POP PUSH2 0x350 PUSH1 0x4 DUP1 CALLDATASIZE SUB DUP2 ADD SWAP1 PUSH2 0x34B SWAP2 SWAP1 PUSH2 0x4107 JUMP JUMPDEST PUSH2 0x199B JUMP JUMPDEST STOP JUMPDEST CALLVALUE DUP1 ISZERO PUSH2 0x35D JUMPI PUSH0 DUP1 REVERT JUMPDEST POP PUSH2 0x366 PUSH2 0x1A89 JUMP JUMPDEST PUSH1 0x40 MLOAD PUSH2 0x373 SWAP2 SWAP1 PUSH2 0x4154 JUMP JUMPDEST PUSH1 0x40 MLOAD DUP1 SWAP2 SUB SWAP1 RETURN JUMPDEST CALLVALUE DUP1 ISZERO PUSH2 0x387 JUMPI PUSH0 DUP1 REVERT JUMPDEST POP PUSH2 0x3A2 PUSH1 0x4 DUP1 CALLDATASIZE SUB DUP2 ADD SWAP1 PUSH2 0x39D SWAP2 SWAP1 PUSH2 0x3D1D JUMP JUMPDEST PUSH2 0x1AAE JUMP JUMPDEST STOP JUMPDEST CALLVALUE DUP1 ISZERO PUSH2 0x3AF JUMPI PUSH0 DUP1 REVERT JUMPDEST POP PUSH2 0x3CA PUSH1 0x4 DUP1 CALLDATASIZE SUB DUP2 ADD SWAP1 PUSH2 0x3C5 SWAP2 SWAP1 PUSH2 0x416D JUMP JUMPDEST PUSH2 0x1B80 JUMP JUMPDEST STOP JUMPDEST PUSH2 0x3E6 PUSH1 0x4 DUP1 CALLDATASIZE SUB DUP2 ADD SWAP1 PUSH2 0x3E1 SWAP2 SWAP1 PUSH2 0x3D9E JUMP JUMPDEST PUSH2 0x1D63 JUMP JUMPDEST STOP JUMPDEST CALLVALUE DUP1 ISZERO PUSH2 0x3F3 JUMPI PUSH0 DUP1 REVERT JUMPDEST POP PUSH2 0x3FC PUSH2 0x205A JUMP JUMPDEST PUSH1 0x40 MLOAD PUSH2 0x409 SWAP2 SWAP1 PUSH2 0x4154 JUMP JUMPDEST PUSH1 0x40 MLOAD DUP1 SWAP2 SUB SWAP1 RETURN JUMPDEST CALLVALUE DUP1 ISZERO PUSH2 0x41D JUMPI PUSH0 DUP1 REVERT JUMPDEST POP PUSH2 0x438 PUSH1 0x4 DUP1 CALLDATASIZE SUB DUP2 ADD SWAP1 PUSH2 0x433 SWAP2 SWAP1 PUSH2 0x41DC JUMP JUMPDEST PUSH2 0x2082 JUMP JUMPDEST PUSH1 0x40 MLOAD PUSH2 0x445 SWAP2 SWAP1 PUSH2 0x4216 JUMP JUMPDEST PUSH1 0x40 MLOAD DUP1 SWAP2 SUB SWAP1 RETURN JUMPDEST CALLVALUE DUP1 ISZERO PUSH2 0x459 JUMPI PUSH0 DUP1 REVERT JUMPDEST POP PUSH2 0x474 PUSH1 0x4 DUP1 CALLDATASIZE SUB DUP2 ADD SWAP1 PUSH2 0x46F SWAP2 SWAP1 PUSH2 0x3F39 JUMP JUMPDEST PUSH2 0x209C JUMP JUMPDEST STOP JUMPDEST PUSH2 0x490 PUSH1 0x4 DUP1 CALLDATASIZE SUB DUP2 ADD SWAP1 PUSH2 0x48B SWAP2 SWAP1 PUSH2 0x422F JUMP JUMPDEST PUSH2 0x21E9 JUMP JUMPDEST STOP JUMPDEST CALLVALUE DUP1 ISZERO PUSH2 0x49D JUMPI PUSH0 DUP1 REVERT JUMPDEST POP PUSH2 0x4B8 PUSH1 0x4 DUP1 CALLDATASIZE SUB DUP2 ADD SWAP1 PUSH2 0x4B3 SWAP2 SWAP1 PUSH2 0x41DC JUMP JUMPDEST PUSH2 0x2414 JUMP JUMPDEST PUSH1 0x40 MLOAD PUSH2 0x4C5 SWAP2 SWAP1 PUSH2 0x4216 JUMP JUMPDEST PUSH1 0x40 MLOAD DUP1 SWAP2 SUB SWAP1 RETURN JUMPDEST CALLVALUE DUP1 ISZERO PUSH2 0x4D9 JUMPI PUSH0 DUP1 REVERT JUMPDEST POP PUSH2 0x4F4 PUSH1 0x4 DUP1 CALLDATASIZE SUB DUP2 ADD SWAP1 PUSH2 0x4EF SWAP2 SWAP1 PUSH2 0x422F JUMP JUMPDEST PUSH2 0x242E JUMP JUMPDEST STOP JUMPDEST CALLVALUE DUP1 ISZERO PUSH2 0x501 JUMPI PUSH0 DUP1 REVERT JUMPDEST POP PUSH2 0x50A PUSH2 0x26B9 JUMP JUMPDEST PUSH1 0x40 MLOAD PUSH2 0x517 SWAP2 SWAP1 PUSH2 0x427E JUMP JUMPDEST PUSH1 0x40 MLOAD DUP1 SWAP2 SUB SWAP1 RETURN JUMPDEST CALLVALUE DUP1 ISZERO PUSH2 0x52B JUMPI PUSH0 DUP1 REVERT JUMPDEST POP PUSH2 0x534 PUSH2 0x26CC JUMP JUMPDEST PUSH1 0x40 MLOAD PUSH2 0x541 SWAP2 SWAP1 PUSH2 0x4311 JUMP JUMPDEST PUSH1 0x40 MLOAD DUP1 SWAP2 SUB SWAP1 RETURN JUMPDEST CALLVALUE DUP1 ISZERO PUSH2 0x555 JUMPI PUSH0 DUP1 REVERT JUMPDEST POP PUSH2 0x570 PUSH1 0x4 DUP1 CALLDATASIZE SUB DUP2 ADD SWAP1 PUSH2 0x56B SWAP2 SWAP1 PUSH2 0x4331 JUMP JUMPDEST PUSH2 0x2705 JUMP JUMPDEST PUSH1 0x40 MLOAD PUSH2 0x57D SWAP2 SWAP1 PUSH2 0x436C JUMP JUMPDEST PUSH1 0x40 MLOAD DUP1 SWAP2 SUB SWAP1 RETURN JUMPDEST CALLVALUE DUP1 ISZERO PUSH2 0x591 JUMPI PUSH0 DUP1 REVERT JUMPDEST POP PUSH2 0x59A PUSH2 0x2734 JUMP JUMPDEST PUSH1 0x40 MLOAD PUSH2 0x5A7 SWAP2 SWAP1 PUSH2 0x43E0 JUMP JUMPDEST PUSH1 0x40 MLOAD DUP1 SWAP2 SUB SWAP1 RETURN JUMPDEST CALLVALUE DUP1 ISZERO PUSH2 0x5BB JUMPI PUSH0 DUP1 REVERT JUMPDEST POP PUSH2 0x5D6 PUSH1 0x4 DUP1 CALLDATASIZE SUB DUP2 ADD SWAP1 PUSH2 0x5D1 SWAP2 SWAP1 PUSH2 0x41DC JUMP JUMPDEST PUSH2 0x2759 JUMP JUMPDEST PUSH1 0x40 MLOAD PUSH2 0x5E3 SWAP2 SWAP1 PUSH2 0x4154 JUMP JUMPDEST PUSH1 0x40 MLOAD DUP1 SWAP2 SUB SWAP1 RETURN JUMPDEST PUSH2 0x606 PUSH1 0x4 DUP1 CALLDATASIZE SUB DUP2 ADD SWAP1 PUSH2 0x601 SWAP2 SWAP1 PUSH2 0x416D JUMP JUMPDEST PUSH2 0x2792 JUMP JUMPDEST STOP JUMPDEST CALLVALUE DUP1 ISZERO PUSH2 0x613 JUMPI PUSH0 DUP1 REVERT JUMPDEST POP PUSH2 0x62E PUSH1 0x4 DUP1 CALLDATASIZE SUB DUP2 ADD SWAP1 PUSH2 0x629 SWAP2 SWAP1 PUSH2 0x422F JUMP JUMPDEST PUSH2 0x2900 JUMP JUMPDEST STOP JUMPDEST CALLVALUE DUP1 ISZERO PUSH2 0x63B JUMPI PUSH0 DUP1 REVERT JUMPDEST POP PUSH2 0x644 PUSH2 0x2B16 JUMP JUMPDEST PUSH1 0x40 MLOAD PUSH2 0x651 SWAP2 SWAP1 PUSH2 0x4216 JUMP JUMPDEST PUSH1 0x40 MLOAD DUP1 SWAP2 SUB SWAP1 RETURN JUMPDEST CALLVALUE DUP1 ISZERO PUSH2 0x665 JUMPI PUSH0 DUP1 REVERT JUMPDEST POP PUSH2 0x680 PUSH1 0x4 DUP1 CALLDATASIZE SUB DUP2 ADD SWAP1 PUSH2 0x67B SWAP2 SWAP1 PUSH2 0x41DC JUMP JUMPDEST PUSH2 0x2B1C JUMP JUMPDEST PUSH1 0x40 MLOAD PUSH2 0x68D SWAP2 SWAP1 PUSH2 0x4413 JUMP JUMPDEST PUSH1 0x40 MLOAD DUP1 SWAP2 SUB SWAP1 RETURN JUMPDEST CALLVALUE DUP1 ISZERO PUSH2 0x6A1 JUMPI PUSH0 DUP1 REVERT JUMPDEST POP PUSH2 0x6BC PUSH1 0x4 DUP1 CALLDATASIZE SUB DUP2 ADD SWAP1 PUSH2 0x6B7 SWAP2 SWAP1 PUSH2 0x3D1D JUMP JUMPDEST PUSH2 0x2B42 JUMP JUMPDEST STOP JUMPDEST CALLVALUE DUP1 ISZERO PUSH2 0x6C9 JUMPI PUSH0 DUP1 REVERT JUMPDEST POP PUSH2 0x6E4 PUSH1 0x4 DUP1 CALLDATASIZE SUB DUP2 ADD SWAP1 PUSH2 0x6DF SWAP2 SWAP1 PUSH2 0x442C JUMP JUMPDEST PUSH2 0x2C14 JUMP JUMPDEST PUSH1 0x40 MLOAD PUSH2 0x6F1 SWAP2 SWAP1 PUSH2 0x436C JUMP JUMPDEST PUSH1 0x40 MLOAD DUP1 SWAP2 SUB SWAP1 RETURN JUMPDEST CALLVALUE DUP1 ISZERO PUSH2 0x705 JUMPI PUSH0 DUP1 REVERT JUMPDEST POP PUSH2 0x70E PUSH2 0x2C43 JUMP JUMPDEST PUSH1 0x40 MLOAD PUSH2 0x71B SWAP2 SWAP1 PUSH2 0x4154 JUMP JUMPDEST PUSH1 0x40 MLOAD DUP1 SWAP2 SUB SWAP1 RETURN JUMPDEST CALLVALUE DUP1 ISZERO PUSH2 0x72F JUMPI PUSH0 DUP1 REVERT JUMPDEST POP PUSH2 0x738 PUSH2 0x2C6B JUMP JUMPDEST PUSH1 0x40 MLOAD PUSH2 0x745 SWAP2 SWAP1 PUSH2 0x4311 JUMP JUMPDEST PUSH1 0x40 MLOAD DUP1 SWAP2 SUB SWAP1 RETURN JUMPDEST PUSH1 0x2 PUSH0 SWAP1 SLOAD SWAP1 PUSH2 0x100 EXP SWAP1 DIV PUSH20 0xFFFFFFFFFFFFFFFFFFFFFFFFFFFFFFFFFFFFFFFF AND PUSH20 0xFFFFFFFFFFFFFFFFFFFFFFFFFFFFFFFFFFFFFFFF AND CALLER PUSH20 0xFFFFFFFFFFFFFFFFFFFFFFFFFFFFFFFFFFFFFFFF AND EQ PUSH2 0x7DD JUMPI PUSH1 0x40 MLOAD PUSH32 0x8C379A000000000000000000000000000000000000000000000000000000000 DUP2 MSTORE PUSH1 0x4 ADD PUSH2 0x7D4 SWAP1 PUSH2 0x44C8 JUMP JUMPDEST PUSH1 0x40 MLOAD DUP1 SWAP2 SUB SWAP1 REVERT JUMPDEST PUSH0 PUSH20 0xFFFFFFFFFFFFFFFFFFFFFFFFFFFFFFFFFFFFFFFF AND DUP2 PUSH20 0xFFFFFFFFFFFFFFFFFFFFFFFFFFFFFFFFFFFFFFFF AND SUB PUSH2 0x84B JUMPI PUSH1 0x40 MLOAD PUSH32 0x8C379A000000000000000000000000000000000000000000000000000000000 DUP2 MSTORE PUSH1 0x4 ADD PUSH2 0x842 SWAP1 PUSH2 0x4556 JUMP JUMPDEST PUSH1 0x40 MLOAD DUP1 SWAP2 SUB SWAP1 REVERT JUMPDEST PUSH1 0x1 PUSH0 SWAP1 SLOAD SWAP1 PUSH2 0x100 EXP SWAP1 DIV PUSH20 0xFFFFFFFFFFFFFFFFFFFFFFFFFFFFFFFFFFFFFFFF AND PUSH20 0xFFFFFFFFFFFFFFFFFFFFFFFFFFFFFFFFFFFFFFFF AND DUP2 PUSH20 0xFFFFFFFFFFFFFFFFFFFFFFFFFFFFFFFFFFFFFFFF AND SUB PUSH2 0x8DA JUMPI PUSH1 0x40 MLOAD PUSH32 0x8C379A000000000000000000000000000000000000000000000000000000000 DUP2 MSTORE PUSH1 0x4 ADD PUSH2 0x8D1 SWAP1 PUSH2 0x45E4 JUMP JUMPDEST PUSH1 0x40 MLOAD DUP1 SWAP2 SUB SWAP1 REVERT JUMPDEST DUP1 PUSH1 0x1 PUSH0 PUSH2 0x100 EXP DUP2 SLOAD DUP2 PUSH20 0xFFFFFFFFFFFFFFFFFFFFFFFFFFFFFFFFFFFFFFFF MUL NOT AND SWAP1 DUP4 PUSH20 0xFFFFFFFFFFFFFFFFFFFFFFFFFFFFFFFFFFFFFFFF AND MUL OR SWAP1 SSTORE POP DUP1 PUSH20 0xFFFFFFFFFFFFFFFFFFFFFFFFFFFFFFFFFFFFFFFF AND PUSH32 0xBC7CD75A20EE27FD9ADEBAB32041F755214DBC6BFFA90CC0225B39DA2E5C2D3B PUSH1 0x40 MLOAD PUSH1 0x40 MLOAD DUP1 SWAP2 SUB SWAP1 LOG2 POP JUMP JUMPDEST PUSH1 0x9 PUSH1 0x14 SWAP1 SLOAD SWAP1 PUSH2 0x100 EXP SWAP1 DIV PUSH1 0xFF AND PUSH2 0x9AF JUMPI PUSH1 0x40 MLOAD PUSH32 0x8C379A000000000000000000000000000000000000000000000000000000000 DUP2 MSTORE PUSH1 0x4 ADD PUSH2 0x9A6 SWAP1 PUSH2 0x464C JUMP JUMPDEST PUSH1 0x40 MLOAD DUP1 SWAP2 SUB SWAP1 REVERT JUMPDEST PUSH1 0x2 PUSH1 0x5 DUP2 GT ISZERO PUSH2 0x9C3 JUMPI PUSH2 0x9C2 PUSH2 0x466A JUMP JUMPDEST JUMPDEST DUP3 PUSH1 0x20 ADD PUSH1 0x20 DUP2 ADD SWAP1 PUSH2 0x9D6 SWAP2 SWAP1 PUSH2 0x46BA JUMP JUMPDEST PUSH1 0x5 DUP2 GT ISZERO PUSH2 0x9E8 JUMPI PUSH2 0x9E7 PUSH2 0x466A JUMP JUMPDEST JUMPDEST SUB PUSH2 0xB03 JUMPI PUSH0 DUP1 SHL PUSH2 0xA10 DUP4 PUSH1 0x40 ADD PUSH1 0x20 DUP2 ADD SWAP1 PUSH2 0xA06 SWAP2 SWAP1 PUSH2 0x3D1D JUMP JUMPDEST DUP5 PUSH1 0xC0 ADD CALLDATALOAD PUSH2 0x2CA4 JUMP JUMPDEST EQ DUP1 ISZERO PUSH2 0xA21 JUMPI POP PUSH0 DUP3 PUSH2 0x140 ADD CALLDATALOAD EQ JUMPDEST PUSH2 0xA60 JUMPI PUSH1 0x40 MLOAD PUSH32 0x8C379A000000000000000000000000000000000000000000000000000000000 DUP2 MSTORE PUSH1 0x4 ADD PUSH2 0xA57 SWAP1 PUSH2 0x4755 JUMP JUMPDEST PUSH1 0x40 MLOAD DUP1 SWAP2 SUB SWAP1 REVERT JUMPDEST PUSH2 0xA81 DUP3 PUSH1 0x40 ADD PUSH1 0x20 DUP2 ADD SWAP1 PUSH2 0xA76 SWAP2 SWAP1 PUSH2 0x3D1D JUMP JUMPDEST DUP4 PUSH1 0xC0 ADD CALLDATALOAD DUP4 PUSH2 0x2CFA JUMP JUMPDEST DUP2 PUSH1 0xC0 ADD CALLDATALOAD CALLER PUSH20 0xFFFFFFFFFFFFFFFFFFFFFFFFFFFFFFFFFFFFFFFF AND PUSH32 0x35AC9EAC59B8C3168F5E4447CD7AFC6434CE47B273A2E2E2D04CE743B899DE7D DUP5 PUSH1 0x60 ADD PUSH1 0x20 DUP2 ADD SWAP1 PUSH2 0xAD1 SWAP2 SWAP1 PUSH2 0x3D1D JUMP JUMPDEST DUP6 PUSH1 0x40 ADD PUSH1 0x20 DUP2 ADD SWAP1 PUSH2 0xAE4 SWAP2 SWAP1 PUSH2 0x3D1D JUMP JUMPDEST DUP6 DUP8 PUSH1 0x40 MLOAD PUSH2 0xAF6 SWAP5 SWAP4 SWAP3 SWAP2 SWAP1 PUSH2 0x49EC JUMP JUMPDEST PUSH1 0x40 MLOAD DUP1 SWAP2 SUB SWAP1 LOG3 PUSH2 0x1003 JUMP JUMPDEST PUSH1 0x4 PUSH1 0x5 DUP2 GT ISZERO PUSH2 0xB17 JUMPI PUSH2 0xB16 PUSH2 0x466A JUMP JUMPDEST JUMPDEST DUP3 PUSH1 0x20 ADD PUSH1 0x20 DUP2 ADD SWAP1 PUSH2 0xB2A SWAP2 SWAP1 PUSH2 0x46BA JUMP JUMPDEST PUSH1 0x5 DUP2 GT ISZERO PUSH2 0xB3C JUMPI PUSH2 0xB3B PUSH2 0x466A JUMP JUMPDEST JUMPDEST SUB PUSH2 0xEB8 JUMPI PUSH0 PUSH2 0xB62 DUP4 PUSH1 0x40 ADD PUSH1 0x20 DUP2 ADD SWAP1 PUSH2 0xB58 SWAP2 SWAP1 PUSH2 0x3D1D JUMP JUMPDEST DUP5 PUSH1 0xC0 ADD CALLDATALOAD PUSH2 0x2CA4 JUMP JUMPDEST SWAP1 POP PUSH2 0xB8B DUP4 PUSH2 0x140 ADD CALLDATALOAD DUP4 DUP6 PUSH1 0x40 ADD PUSH1 0x20 DUP2 ADD SWAP1 PUSH2 0xB81 SWAP2 SWAP1 PUSH2 0x3D1D JUMP JUMPDEST DUP7 PUSH1 0xC0 ADD CALLDATALOAD PUSH2 0x2DB9 JUMP JUMPDEST PUSH2 0xBCA JUMPI PUSH1 0x40 MLOAD PUSH32 0x8C379A000000000000000000000000000000000000000000000000000000000 DUP2 MSTORE PUSH1 0x4 ADD PUSH2 0xBC1 SWAP1 PUSH2 0x4AA0 JUMP JUMPDEST PUSH1 0x40 MLOAD DUP1 SWAP2 SUB SWAP1 REVERT JUMPDEST PUSH2 0xC1E DUP4 PUSH0 ADD PUSH1 0x20 DUP2 ADD SWAP1 PUSH2 0xBDF SWAP2 SWAP1 PUSH2 0x4ABE JUMP JUMPDEST DUP5 PUSH1 0x40 ADD PUSH1 0x20 DUP2 ADD SWAP1 PUSH2 0xBF2 SWAP2 SWAP1 PUSH2 0x3D1D JUMP JUMPDEST DUP6 PUSH1 0x80 ADD PUSH1 0x20 DUP2 ADD SWAP1 PUSH2 0xC05 SWAP2 SWAP1 PUSH2 0x3D1D JUMP JUMPDEST PUSH2 0xC0E DUP6 PUSH2 0x2759 JUMP JUMPDEST DUP8 PUSH1 0xC0 ADD CALLDATALOAD DUP9 PUSH2 0x160 ADD CALLDATALOAD PUSH2 0x2E17 JUMP JUMPDEST PUSH2 0xC55 DUP4 PUSH1 0x60 ADD PUSH1 0x20 DUP2 ADD SWAP1 PUSH2 0xC34 SWAP2 SWAP1 PUSH2 0x3D1D JUMP JUMPDEST DUP5 PUSH1 0x80 ADD PUSH1 0x20 DUP2 ADD SWAP1 PUSH2 0xC47 SWAP2 SWAP1 PUSH2 0x3D1D JUMP JUMPDEST PUSH2 0xC50 DUP5 PUSH2 0x2414 JUMP JUMPDEST PUSH2 0x2F98 JUMP JUMPDEST PUSH1 0x3 PUSH0 DUP5 PUSH1 0x40 ADD PUSH1 0x20 DUP2 ADD SWAP1 PUSH2 0xC6B SWAP2 SWAP1 PUSH2 0x3D1D JUMP JUMPDEST PUSH20 0xFFFFFFFFFFFFFFFFFFFFFFFFFFFFFFFFFFFFFFFF AND PUSH20 0xFFFFFFFFFFFFFFFFFFFFFFFFFFFFFFFFFFFFFFFF AND DUP2 MSTORE PUSH1 0x20 ADD SWAP1 DUP2 MSTORE PUSH1 0x20 ADD PUSH0 KECCAK256 PUSH0 DUP5 PUSH1 0xC0 ADD CALLDATALOAD DUP2 MSTORE PUSH1 0x20 ADD SWAP1 DUP2 MSTORE PUSH1 0x20 ADD PUSH0 KECCAK256 PUSH0 SWAP1 SSTORE PUSH1 0x5 PUSH0 DUP3 DUP2 MSTORE PUSH1 0x20 ADD SWAP1 DUP2 MSTORE PUSH1 0x20 ADD PUSH0 KECCAK256 PUSH0 PUSH2 0x100 EXP DUP2 SLOAD SWAP1 PUSH20 0xFFFFFFFFFFFFFFFFFFFFFFFFFFFFFFFFFFFFFFFF MUL NOT AND SWAP1 SSTORE PUSH1 0x6 PUSH0 DUP3 DUP2 MSTORE PUSH1 0x20 ADD SWAP1 DUP2 MSTORE PUSH1 0x20 ADD PUSH0 KECCAK256 PUSH0 SWAP1 SSTORE PUSH1 0x7 PUSH0 DUP3 DUP2 MSTORE PUSH1 0x20 ADD SWAP1 DUP2 MSTORE PUSH1 0x20 ADD PUSH0 KECCAK256 PUSH0 SWAP1 SSTORE PUSH1 0x1 PUSH1 0x4 PUSH0 DUP4 DUP2 MSTORE PUSH1 0x20 ADD SWAP1 DUP2 MSTORE PUSH1 0x20 ADD PUSH0 KECCAK256 PUSH0 PUSH2 0x100 EXP DUP2 SLOAD DUP2 PUSH1 0xFF MUL NOT AND SWAP1 DUP4 ISZERO ISZERO MUL OR SWAP1 SSTORE POP DUP3 PUSH1 0xC0 ADD CALLDATALOAD PUSH2 0xD4C DUP3 PUSH2 0x2759 JUMP JUMPDEST PUSH20 0xFFFFFFFFFFFFFFFFFFFFFFFFFFFFFFFFFFFFFFFF AND DUP5 PUSH1 0x80 ADD PUSH1 0x20 DUP2 ADD SWAP1 PUSH2 0xD75 SWAP2 SWAP1 PUSH2 0x3D1D JUMP JUMPDEST PUSH20 0xFFFFFFFFFFFFFFFFFFFFFFFFFFFFFFFFFFFFFFFF AND PUSH32 0x6BE48AFE3D3198771D849C4FEDAFCE4823B0FEFB75D8726E35E9805A3F211086 DUP7 PUSH1 0x40 ADD PUSH1 0x20 DUP2 ADD SWAP1 PUSH2 0xDBF SWAP2 SWAP1 PUSH2 0x3D1D JUMP JUMPDEST DUP8 PUSH1 0x60 ADD PUSH1 0x20 DUP2 ADD SWAP1 PUSH2 0xDD2 SWAP2 SWAP1 PUSH2 0x3D1D JUMP JUMPDEST PUSH2 0xDDB DUP8 PUSH2 0x2414 JUMP JUMPDEST DUP8 PUSH1 0x40 MLOAD PUSH2 0xDEC SWAP5 SWAP4 SWAP3 SWAP2 SWAP1 PUSH2 0x4AE9 JUMP JUMPDEST PUSH1 0x40 MLOAD DUP1 SWAP2 SUB SWAP1 LOG4 DUP3 PUSH1 0xC0 ADD CALLDATALOAD PUSH2 0xE02 DUP3 PUSH2 0x2759 JUMP JUMPDEST PUSH20 0xFFFFFFFFFFFFFFFFFFFFFFFFFFFFFFFFFFFFFFFF AND DUP5 PUSH1 0x80 ADD PUSH1 0x20 DUP2 ADD SWAP1 PUSH2 0xE2B SWAP2 SWAP1 PUSH2 0x3D1D JUMP JUMPDEST PUSH20 0xFFFFFFFFFFFFFFFFFFFFFFFFFFFFFFFFFFFFFFFF AND PUSH32 0x6D794D38D52C34DB77F62ADCAE8C890DC87664E863643CB6363A6AD4D1FC5FD0 DUP7 PUSH1 0x40 ADD PUSH1 0x20 DUP2 ADD SWAP1 PUSH2 0xE75 SWAP2 SWAP1 PUSH2 0x3D1D JUMP JUMPDEST DUP8 PUSH1 0x60 ADD PUSH1 0x20 DUP2 ADD SWAP1 PUSH2 0xE88 SWAP2 SWAP1 PUSH2 0x3D1D JUMP JUMPDEST PUSH2 0xE91 DUP8 PUSH2 0x2414 JUMP JUMPDEST DUP8 PUSH1 0x40 MLOAD PUSH2 0xEA2 SWAP5 SWAP4 SWAP3 SWAP2 SWAP1 PUSH2 0x4AE9 JUMP JUMPDEST PUSH1 0x40 MLOAD DUP1 SWAP2 SUB SWAP1 LOG4 PUSH2 0xEB2 PUSH2 0x31A2 JUMP JUMPDEST POP PUSH2 0x1002 JUMP JUMPDEST PUSH0 PUSH2 0xED9 DUP4 PUSH1 0x40 ADD PUSH1 0x20 DUP2 ADD SWAP1 PUSH2 0xECF SWAP2 SWAP1 PUSH2 0x3D1D JUMP JUMPDEST DUP5 PUSH1 0xC0 ADD CALLDATALOAD PUSH2 0x2CA4 JUMP JUMPDEST SWAP1 POP PUSH0 PUSH20 0xFFFFFFFFFFFFFFFFFFFFFFFFFFFFFFFFFFFFFFFF AND PUSH2 0xEFB DUP3 PUSH2 0x2759 JUMP JUMPDEST PUSH20 0xFFFFFFFFFFFFFFFFFFFFFFFFFFFFFFFFFFFFFFFF AND EQ DUP1 ISZERO PUSH2 0xF25 JUMPI POP PUSH0 PUSH2 0xF23 DUP3 PUSH2 0x2414 JUMP JUMPDEST EQ JUMPDEST PUSH2 0xF64 JUMPI PUSH1 0x40 MLOAD PUSH32 0x8C379A000000000000000000000000000000000000000000000000000000000 DUP2 MSTORE PUSH1 0x4 ADD PUSH2 0xF5B SWAP1 PUSH2 0x4B9C JUMP JUMPDEST PUSH1 0x40 MLOAD DUP1 SWAP2 SUB SWAP1 REVERT JUMPDEST PUSH1 0x3 PUSH0 DUP5 PUSH1 0x40 ADD PUSH1 0x20 DUP2 ADD SWAP1 PUSH2 0xF7A SWAP2 SWAP1 PUSH2 0x3D1D JUMP JUMPDEST PUSH20 0xFFFFFFFFFFFFFFFFFFFFFFFFFFFFFFFFFFFFFFFF AND PUSH20 0xFFFFFFFFFFFFFFFFFFFFFFFFFFFFFFFFFFFFFFFF AND DUP2 MSTORE PUSH1 0x20 ADD SWAP1 DUP2 MSTORE PUSH1 0x20 ADD PUSH0 KECCAK256 PUSH0 DUP5 PUSH1 0xC0 ADD CALLDATALOAD DUP2 MSTORE PUSH1 0x20 ADD SWAP1 DUP2 MSTORE PUSH1 0x20 ADD PUSH0 KECCAK256 PUSH0 SWAP1 SSTORE PUSH32 0x5F8F216FD2E5BDC47DEB48C822665830695F90B549772AE028D6FC3C4832C5B1 DUP3 PUSH1 0x40 MLOAD PUSH2 0xFF8 SWAP2 SWAP1 PUSH2 0x436C JUMP JUMPDEST PUSH1 0x40 MLOAD DUP1 SWAP2 SUB SWAP1 LOG1 POP JUMPDEST JUMPDEST PUSH0 PUSH1 0x9 PUSH1 0x14 PUSH2 0x100 EXP DUP2 SLOAD DUP2 PUSH1 0xFF MUL NOT AND SWAP1 DUP4 ISZERO ISZERO MUL OR SWAP1 SSTORE POP POP POP JUMP JUMPDEST PUSH1 0x9 PUSH1 0x14 SWAP1 SLOAD SWAP1 PUSH2 0x100 EXP SWAP1 DIV PUSH1 0xFF AND PUSH2 0x1070 JUMPI PUSH1 0x40 MLOAD PUSH32 0x8C379A000000000000000000000000000000000000000000000000000000000 DUP2 MSTORE PUSH1 0x4 ADD PUSH2 0x1067 SWAP1 PUSH2 0x464C JUMP JUMPDEST PUSH1 0x40 MLOAD DUP1 SWAP2 SUB SWAP1 REVERT JUMPDEST PUSH0 PUSH20 0xFFFFFFFFFFFFFFFFFFFFFFFFFFFFFFFFFFFFFFFF AND PUSH2 0x1090 DUP3 PUSH2 0x2759 JUMP JUMPDEST PUSH20 0xFFFFFFFFFFFFFFFFFFFFFFFFFFFFFFFFFFFFFFFF AND EQ ISZERO DUP1 ISZERO PUSH2 0x10BC JUMPI POP PUSH0 PUSH2 0x10B9 DUP3 PUSH2 0x2414 JUMP JUMPDEST EQ ISZERO JUMPDEST ISZERO PUSH2 0x1259 JUMPI PUSH0 PUSH2 0x10CB DUP3 PUSH2 0x2759 JUMP JUMPDEST SWAP1 POP PUSH0 PUSH2 0x10D7 DUP4 PUSH2 0x2414 JUMP JUMPDEST SWAP1 POP PUSH0 PUSH2 0x1101 PUSH1 0x64 PUSH2 0x10F3 PUSH1 0x2 DUP6 PUSH2 0x31BB SWAP1 SWAP2 SWAP1 PUSH4 0xFFFFFFFF AND JUMP JUMPDEST PUSH2 0x31D0 SWAP1 SWAP2 SWAP1 PUSH4 0xFFFFFFFF AND JUMP JUMPDEST SWAP1 POP DUP1 DUP6 PUSH2 0x100 ADD CALLDATALOAD GT PUSH2 0x114A JUMPI PUSH1 0x40 MLOAD PUSH32 0x8C379A000000000000000000000000000000000000000000000000000000000 DUP2 MSTORE PUSH1 0x4 ADD PUSH2 0x1141 SWAP1 PUSH2 0x4C2A JUMP JUMPDEST PUSH1 0x40 MLOAD DUP1 SWAP2 SUB SWAP1 REVERT JUMPDEST PUSH1 0x8 PUSH0 SWAP1 SLOAD SWAP1 PUSH2 0x100 EXP SWAP1 DIV PUSH20 0xFFFFFFFFFFFFFFFFFFFFFFFFFFFFFFFFFFFFFFFF AND PUSH20 0xFFFFFFFFFFFFFFFFFFFFFFFFFFFFFFFFFFFFFFFF AND PUSH4 0xB97BE865 DUP7 PUSH1 0x60 ADD PUSH1 0x20 DUP2 ADD SWAP1 PUSH2 0x119A SWAP2 SWAP1 PUSH2 0x3D1D JUMP JUMPDEST DUP6 DUP6 PUSH1 0x40 MLOAD DUP5 PUSH4 0xFFFFFFFF AND PUSH1 0xE0 SHL DUP2 MSTORE PUSH1 0x4 ADD PUSH2 0x11BA SWAP4 SWAP3 SWAP2 SWAP1 PUSH2 0x4C48 JUMP JUMPDEST PUSH0 PUSH1 0x40 MLOAD DUP1 DUP4 SUB DUP2 PUSH0 DUP8 DUP1 EXTCODESIZE ISZERO DUP1 ISZERO PUSH2 0x11D1 JUMPI PUSH0 DUP1 REVERT JUMPDEST POP GAS CALL ISZERO DUP1 ISZERO PUSH2 0x11E3 JUMPI RETURNDATASIZE PUSH0 DUP1 RETURNDATACOPY RETURNDATASIZE PUSH0 REVERT JUMPDEST POP POP POP POP CALLER PUSH1 0x5 PUSH0 DUP7 DUP2 MSTORE PUSH1 0x20 ADD SWAP1 DUP2 MSTORE PUSH1 0x20 ADD PUSH0 KECCAK256 PUSH0 PUSH2 0x100 EXP DUP2 SLOAD DUP2 PUSH20 0xFFFFFFFFFFFFFFFFFFFFFFFFFFFFFFFFFFFFFFFF MUL NOT AND SWAP1 DUP4 PUSH20 0xFFFFFFFFFFFFFFFFFFFFFFFFFFFFFFFFFFFFFFFF AND MUL OR SWAP1 SSTORE POP DUP5 PUSH2 0x100 ADD CALLDATALOAD PUSH1 0x6 PUSH0 DUP7 DUP2 MSTORE PUSH1 0x20 ADD SWAP1 DUP2 MSTORE PUSH1 0x20 ADD PUSH0 KECCAK256 DUP2 SWAP1 SSTORE POP POP POP POP PUSH2 0x1385 JUMP JUMPDEST PUSH1 0x8 PUSH0 SWAP1 SLOAD SWAP1 PUSH2 0x100 EXP SWAP1 DIV PUSH20 0xFFFFFFFFFFFFFFFFFFFFFFFFFFFFFFFFFFFFFFFF AND PUSH20 0xFFFFFFFFFFFFFFFFFFFFFFFFFFFFFFFFFFFFFFFF AND PUSH4 0x8E1976E9 DUP4 PUSH1 0x60 ADD PUSH1 0x20 DUP2 ADD SWAP1 PUSH2 0x12A9 SWAP2 SWAP1 PUSH2 0x3D1D JUMP JUMPDEST CALLER ADDRESS DUP7 PUSH2 0x100 ADD CALLDATALOAD PUSH1 0x40 MLOAD DUP6 PUSH4 0xFFFFFFFF AND PUSH1 0xE0 SHL DUP2 MSTORE PUSH1 0x4 ADD PUSH2 0x12D0 SWAP5 SWAP4 SWAP3 SWAP2 SWAP1 PUSH2 0x4C7D JUMP JUMPDEST PUSH0 PUSH1 0x40 MLOAD DUP1 DUP4 SUB DUP2 PUSH0 DUP8 DUP1 EXTCODESIZE ISZERO DUP1 ISZERO PUSH2 0x12E7 JUMPI PUSH0 DUP1 REVERT JUMPDEST POP GAS CALL ISZERO DUP1 ISZERO PUSH2 0x12F9 JUMPI RETURNDATASIZE PUSH0 DUP1 RETURNDATACOPY RETURNDATASIZE PUSH0 REVERT JUMPDEST POP POP POP POP PUSH2 0x1305 PUSH2 0x31E5 JUMP JUMPDEST PUSH1 0x7 PUSH0 DUP4 DUP2 MSTORE PUSH1 0x20 ADD SWAP1 DUP2 MSTORE PUSH1 0x20 ADD PUSH0 KECCAK256 DUP2 SWAP1 SSTORE POP CALLER PUSH1 0x5 PUSH0 DUP4 DUP2 MSTORE PUSH1 0x20 ADD SWAP1 DUP2 MSTORE PUSH1 0x20 ADD PUSH0 KECCAK256 PUSH0 PUSH2 0x100 EXP DUP2 SLOAD DUP2 PUSH20 0xFFFFFFFFFFFFFFFFFFFFFFFFFFFFFFFFFFFFFFFF MUL NOT AND SWAP1 DUP4 PUSH20 0xFFFFFFFFFFFFFFFFFFFFFFFFFFFFFFFFFFFFFFFF AND MUL OR SWAP1 SSTORE POP DUP2 PUSH2 0x100 ADD CALLDATALOAD PUSH1 0x6 PUSH0 DUP4 DUP2 MSTORE PUSH1 0x20 ADD SWAP1 DUP2 MSTORE PUSH1 0x20 ADD PUSH0 KECCAK256 DUP2 SWAP1 SSTORE POP JUMPDEST DUP2 PUSH1 0xC0 ADD CALLDATALOAD CALLER PUSH20 0xFFFFFFFFFFFFFFFFFFFFFFFFFFFFFFFFFFFFFFFF AND DUP4 PUSH1 0x80 ADD PUSH1 0x20 DUP2 ADD SWAP1 PUSH2 0x13B4 SWAP2 SWAP1 PUSH2 0x3D1D JUMP JUMPDEST PUSH20 0xFFFFFFFFFFFFFFFFFFFFFFFFFFFFFFFFFFFFFFFF AND PUSH32 0x8276EFB7A040B9314C89F6444F0D221AC94F714076FC6B3F5CE718841E1A03EA DUP6 PUSH1 0x60 ADD PUSH1 0x20 DUP2 ADD SWAP1 PUSH2 0x13FE SWAP2 SWAP1 PUSH2 0x3D1D JUMP JUMPDEST DUP7 PUSH2 0x100 ADD CALLDATALOAD DUP8 PUSH1 0x40 ADD PUSH1 0x20 DUP2 ADD SWAP1 PUSH2 0x1417 SWAP2 SWAP1 PUSH2 0x3D1D JUMP JUMPDEST DUP8 PUSH1 0x40 MLOAD PUSH2 0x1428 SWAP5 SWAP4 SWAP3 SWAP2 SWAP1 PUSH2 0x4CC0 JUMP JUMPDEST PUSH1 0x40 MLOAD DUP1 SWAP2 SUB SWAP1 LOG4 PUSH0 PUSH1 0x9 PUSH1 0x14 PUSH2 0x100 EXP DUP2 SLOAD DUP2 PUSH1 0xFF MUL NOT AND SWAP1 DUP4 ISZERO ISZERO MUL OR SWAP1 SSTORE POP POP POP JUMP JUMPDEST PUSH0 CALLVALUE SUB PUSH2 0x1459 JUMPI PUSH0 DUP1 REVERT JUMPDEST PUSH2 0x1461 PUSH2 0x3204 JUMP JUMPDEST PUSH2 0x146C DUP3 DUP3 CALLER PUSH2 0x3251 JUMP JUMPDEST PUSH2 0x14AB JUMPI PUSH1 0x40 MLOAD PUSH32 0x8C379A000000000000000000000000000000000000000000000000000000000 DUP2 MSTORE PUSH1 0x4 ADD PUSH2 0x14A2 SWAP1 PUSH2 0x4D73 JUMP JUMPDEST PUSH1 0x40 MLOAD DUP1 SWAP2 SUB SWAP1 REVERT JUMPDEST PUSH2 0x14B5 DUP4 DUP4 PUSH2 0x32AE JUMP JUMPDEST PUSH2 0x14F4 JUMPI PUSH1 0x40 MLOAD PUSH32 0x8C379A000000000000000000000000000000000000000000000000000000000 DUP2 MSTORE PUSH1 0x4 ADD PUSH2 0x14EB SWAP1 PUSH2 0x4E01 JUMP JUMPDEST PUSH1 0x40 MLOAD DUP1 SWAP2 SUB SWAP1 REVERT JUMPDEST PUSH1 0x1 PUSH1 0x9 PUSH1 0x14 PUSH2 0x100 EXP DUP2 SLOAD DUP2 PUSH1 0xFF MUL NOT AND SWAP1 DUP4 ISZERO ISZERO MUL OR SWAP1 SSTORE POP PUSH2 0x1519 DUP4 DUP4 PUSH2 0x21E9 JUMP JUMPDEST PUSH2 0x1521 PUSH2 0x33C8 JUMP JUMPDEST POP POP POP JUMP JUMPDEST PUSH2 0x152E PUSH2 0x3204 JUMP JUMPDEST PUSH0 PUSH1 0x4 PUSH1 0x5 DUP2 GT ISZERO PUSH2 0x1543 JUMPI PUSH2 0x1542 PUSH2 0x466A JUMP JUMPDEST JUMPDEST DUP4 PUSH1 0x20 ADD PUSH1 0x20 DUP2 ADD SWAP1 PUSH2 0x1556 SWAP2 SWAP1 PUSH2 0x46BA JUMP JUMPDEST PUSH1 0x5 DUP2 GT ISZERO PUSH2 0x1568 JUMPI PUSH2 0x1567 PUSH2 0x466A JUMP JUMPDEST JUMPDEST SUB PUSH2 0x1594 JUMPI PUSH2 0x158D DUP4 PUSH1 0x40 ADD PUSH1 0x20 DUP2 ADD SWAP1 PUSH2 0x1583 SWAP2 SWAP1 PUSH2 0x3D1D JUMP JUMPDEST DUP5 PUSH1 0xC0 ADD CALLDATALOAD PUSH2 0x2CA4 JUMP JUMPDEST SWAP1 POP PUSH2 0x15A0 JUMP JUMPDEST PUSH2 0x159D DUP4 PUSH2 0x2705 JUMP JUMPDEST SWAP1 POP JUMPDEST PUSH2 0x15AB DUP2 DUP4 CALLER PUSH2 0x3251 JUMP JUMPDEST PUSH2 0x15EA JUMPI PUSH1 0x40 MLOAD PUSH32 0x8C379A000000000000000000000000000000000000000000000000000000000 DUP2 MSTORE PUSH1 0x4 ADD PUSH2 0x15E1 SWAP1 PUSH2 0x4D73 JUMP JUMPDEST PUSH1 0x40 MLOAD DUP1 SWAP2 SUB SWAP1 REVERT JUMPDEST PUSH2 0x160A DUP4 PUSH1 0x40 ADD PUSH1 0x20 DUP2 ADD SWAP1 PUSH2 0x1600 SWAP2 SWAP1 PUSH2 0x3D1D JUMP JUMPDEST DUP5 PUSH1 0xC0 ADD CALLDATALOAD PUSH2 0x33D1 JUMP JUMPDEST DUP1 PUSH2 0x1648 JUMPI POP PUSH2 0x1619 DUP2 PUSH2 0x2759 JUMP JUMPDEST PUSH20 0xFFFFFFFFFFFFFFFFFFFFFFFFFFFFFFFFFFFFFFFF AND CALLER PUSH20 0xFFFFFFFFFFFFFFFFFFFFFFFFFFFFFFFFFFFFFFFF AND EQ JUMPDEST PUSH2 0x1687 JUMPI PUSH1 0x40 MLOAD PUSH32 0x8C379A000000000000000000000000000000000000000000000000000000000 DUP2 MSTORE PUSH1 0x4 ADD PUSH2 0x167E SWAP1 PUSH2 0x4E8F JUMP JUMPDEST PUSH1 0x40 MLOAD DUP1 SWAP2 SUB SWAP1 REVERT JUMPDEST PUSH1 0x1 PUSH1 0x9 PUSH1 0x14 PUSH2 0x100 EXP DUP2 SLOAD DUP2 PUSH1 0xFF MUL NOT AND SWAP1 DUP4 ISZERO ISZERO MUL OR SWAP1 SSTORE POP PUSH2 0x16AC DUP4 DUP3 PUSH2 0x960 JUMP JUMPDEST POP PUSH2 0x16B5 PUSH2 0x33C8 JUMP JUMPDEST POP POP JUMP JUMPDEST PUSH2 0x16C1 PUSH2 0x3204 JUMP JUMPDEST PUSH0 DUP1 PUSH1 0x5 DUP2 GT ISZERO PUSH2 0x16D5 JUMPI PUSH2 0x16D4 PUSH2 0x466A JUMP JUMPDEST JUMPDEST DUP4 PUSH1 0x20 ADD PUSH1 0x20 DUP2 ADD SWAP1 PUSH2 0x16E8 SWAP2 SWAP1 PUSH2 0x46BA JUMP JUMPDEST PUSH1 0x5 DUP2 GT ISZERO PUSH2 0x16FA JUMPI PUSH2 0x16F9 PUSH2 0x466A JUMP JUMPDEST JUMPDEST SUB PUSH2 0x170F JUMPI PUSH2 0x1708 DUP4 PUSH2 0x2C14 JUMP JUMPDEST SWAP1 POP PUSH2 0x1770 JUMP JUMPDEST PUSH1 0x5 DUP1 DUP2 GT ISZERO PUSH2 0x1722 JUMPI PUSH2 0x1721 PUSH2 0x466A JUMP JUMPDEST JUMPDEST DUP4 PUSH1 0x20 ADD PUSH1 0x20 DUP2 ADD SWAP1 PUSH2 0x1735 SWAP2 SWAP1 PUSH2 0x46BA JUMP JUMPDEST PUSH1 0x5 DUP2 GT ISZERO PUSH2 0x1747 JUMPI PUSH2 0x1746 PUSH2 0x466A JUMP JUMPDEST JUMPDEST SUB PUSH2 0x176F JUMPI PUSH2 0x176C DUP4 PUSH1 0x40 ADD PUSH1 0x20 DUP2 ADD SWAP1 PUSH2 0x1762 SWAP2 SWAP1 PUSH2 0x3D1D JUMP JUMPDEST DUP5 PUSH1 0xC0 ADD CALLDATALOAD PUSH2 0x2CA4 JUMP JUMPDEST SWAP1 POP JUMPDEST JUMPDEST PUSH2 0x177B DUP2 DUP4 CALLER PUSH2 0x3251 JUMP JUMPDEST PUSH2 0x17BA JUMPI PUSH1 0x40 MLOAD PUSH32 0x8C379A000000000000000000000000000000000000000000000000000000000 DUP2 MSTORE PUSH1 0x4 ADD PUSH2 0x17B1 SWAP1 PUSH2 0x4D73 JUMP JUMPDEST PUSH1 0x40 MLOAD DUP1 SWAP2 SUB SWAP1 REVERT JUMPDEST PUSH2 0x17DA DUP4 PUSH1 0x40 ADD PUSH1 0x20 DUP2 ADD SWAP1 PUSH2 0x17D0 SWAP2 SWAP1 PUSH2 0x3D1D JUMP JUMPDEST DUP5 PUSH1 0xC0 ADD CALLDATALOAD PUSH2 0x33D1 JUMP JUMPDEST PUSH2 0x1819 JUMPI PUSH1 0x40 MLOAD PUSH32 0x8C379A000000000000000000000000000000000000000000000000000000000 DUP2 MSTORE PUSH1 0x4 ADD PUSH2 0x1810 SWAP1 PUSH2 0x4E8F JUMP JUMPDEST PUSH1 0x40 MLOAD DUP1 SWAP2 SUB SWAP1 REVERT JUMPDEST PUSH1 0x1 PUSH1 0x9 PUSH1 0x14 PUSH2 0x100 EXP DUP2 SLOAD DUP2 PUSH1 0xFF MUL NOT AND SWAP1 DUP4 ISZERO ISZERO MUL OR SWAP1 SSTORE POP PUSH2 0x183E DUP4 DUP3 PUSH2 0x242E JUMP JUMPDEST POP PUSH2 0x1847 PUSH2 0x33C8 JUMP JUMPDEST POP POP JUMP JUMPDEST PUSH0 PUSH2 0x1884 PUSH1 0x64 PUSH2 0x1876 PUSH1 0x9 PUSH1 0x15 SWAP1 SLOAD SWAP1 PUSH2 0x100 EXP SWAP1 DIV PUSH1 0xFF AND PUSH1 0xFF AND DUP6 PUSH2 0x31BB SWAP1 SWAP2 SWAP1 PUSH4 0xFFFFFFFF AND JUMP JUMPDEST PUSH2 0x31D0 SWAP1 SWAP2 SWAP1 PUSH4 0xFFFFFFFF AND JUMP JUMPDEST SWAP1 POP DUP3 PUSH20 0xFFFFFFFFFFFFFFFFFFFFFFFFFFFFFFFFFFFFFFFF AND PUSH2 0x8FC PUSH2 0x18B3 DUP4 DUP6 PUSH2 0x33F6 SWAP1 SWAP2 SWAP1 PUSH4 0xFFFFFFFF AND JUMP JUMPDEST SWAP1 DUP2 ISZERO MUL SWAP1 PUSH1 0x40 MLOAD PUSH0 PUSH1 0x40 MLOAD DUP1 DUP4 SUB DUP2 DUP6 DUP9 DUP9 CALL SWAP4 POP POP POP POP ISZERO DUP1 ISZERO PUSH2 0x18DB JUMPI RETURNDATASIZE PUSH0 DUP1 RETURNDATACOPY RETURNDATASIZE PUSH0 REVERT JUMPDEST POP PUSH0 PUSH20 0xFFFFFFFFFFFFFFFFFFFFFFFFFFFFFFFFFFFFFFFF AND PUSH1 0x9 PUSH0 SWAP1 SLOAD SWAP1 PUSH2 0x100 EXP SWAP1 DIV PUSH20 0xFFFFFFFFFFFFFFFFFFFFFFFFFFFFFFFFFFFFFFFF AND PUSH20 0xFFFFFFFFFFFFFFFFFFFFFFFFFFFFFFFFFFFFFFFF AND EQ PUSH2 0x1996 JUMPI PUSH1 0x9 PUSH0 SWAP1 SLOAD SWAP1 PUSH2 0x100 EXP SWAP1 DIV PUSH20 0xFFFFFFFFFFFFFFFFFFFFFFFFFFFFFFFFFFFFFFFF AND PUSH20 0xFFFFFFFFFFFFFFFFFFFFFFFFFFFFFFFFFFFFFFFF AND PUSH2 0x8FC DUP3 SWAP1 DUP2 ISZERO MUL SWAP1 PUSH1 0x40 MLOAD PUSH0 PUSH1 0x40 MLOAD DUP1 DUP4 SUB DUP2 DUP6 DUP9 DUP9 CALL SWAP4 POP POP POP POP ISZERO DUP1 ISZERO PUSH2 0x1994 JUMPI RETURNDATASIZE PUSH0 DUP1 RETURNDATACOPY RETURNDATASIZE PUSH0 REVERT JUMPDEST POP JUMPDEST POP POP POP JUMP JUMPDEST PUSH1 0x2 PUSH0 SWAP1 SLOAD SWAP1 PUSH2 0x100 EXP SWAP1 DIV PUSH20 0xFFFFFFFFFFFFFFFFFFFFFFFFFFFFFFFFFFFFFFFF AND PUSH20 0xFFFFFFFFFFFFFFFFFFFFFFFFFFFFFFFFFFFFFFFF AND CALLER PUSH20 0xFFFFFFFFFFFFFFFFFFFFFFFFFFFFFFFFFFFFFFFF AND EQ PUSH2 0x1A2A JUMPI PUSH1 0x40 MLOAD PUSH32 0x8C379A000000000000000000000000000000000000000000000000000000000 DUP2 MSTORE PUSH1 0x4 ADD PUSH2 0x1A21 SWAP1 PUSH2 0x44C8 JUMP JUMPDEST PUSH1 0x40 MLOAD DUP1 SWAP2 SUB SWAP1 REVERT JUMPDEST DUP1 PUSH1 0x9 PUSH1 0x15 PUSH2 0x100 EXP DUP2 SLOAD DUP2 PUSH1 0xFF MUL NOT AND SWAP1 DUP4 PUSH1 0xFF AND MUL OR SWAP1 SSTORE POP DUP2 PUSH1 0x9 PUSH0 PUSH2 0x100 EXP DUP2 SLOAD DUP2 PUSH20 0xFFFFFFFFFFFFFFFFFFFFFFFFFFFFFFFFFFFFFFFF MUL NOT AND SWAP1 DUP4 PUSH20 0xFFFFFFFFFFFFFFFFFFFFFFFFFFFFFFFFFFFFFFFF AND MUL OR SWAP1 SSTORE POP POP POP JUMP JUMPDEST PUSH1 0x9 PUSH0 SWAP1 SLOAD SWAP1 PUSH2 0x100 EXP SWAP1 DIV PUSH20 0xFFFFFFFFFFFFFFFFFFFFFFFFFFFFFFFFFFFFFFFF AND DUP2 JUMP JUMPDEST PUSH1 0x2 PUSH0 SWAP1 SLOAD SWAP1 PUSH2 0x100 EXP SWAP1 DIV PUSH20 0xFFFFFFFFFFFFFFFFFFFFFFFFFFFFFFFFFFFFFFFF AND PUSH20 0xFFFFFFFFFFFFFFFFFFFFFFFFFFFFFFFFFFFFFFFF AND CALLER PUSH20 0xFFFFFFFFFFFFFFFFFFFFFFFFFFFFFFFFFFFFFFFF AND EQ PUSH2 0x1B3D JUMPI PUSH1 0x40 MLOAD PUSH32 0x8C379A000000000000000000000000000000000000000000000000000000000 DUP2 MSTORE PUSH1 0x4 ADD PUSH2 0x1B34 SWAP1 PUSH2 0x44C8 JUMP JUMPDEST PUSH1 0x40 MLOAD DUP1 SWAP2 SUB SWAP1 REVERT JUMPDEST DUP1 PUSH1 0x8 PUSH0 PUSH2 0x100 EXP DUP2 SLOAD DUP2 PUSH20 0xFFFFFFFFFFFFFFFFFFFFFFFFFFFFFFFFFFFFFFFF MUL NOT AND SWAP1 DUP4 PUSH20 0xFFFFFFFFFFFFFFFFFFFFFFFFFFFFFFFFFFFFFFFF AND MUL OR SWAP1 SSTORE POP POP JUMP JUMPDEST PUSH2 0x1B88 PUSH2 0x3204 JUMP JUMPDEST PUSH0 PUSH20 0xFFFFFFFFFFFFFFFFFFFFFFFFFFFFFFFFFFFFFFFF AND DUP4 PUSH1 0x60 ADD PUSH1 0x20 DUP2 ADD SWAP1 PUSH2 0x1BB2 SWAP2 SWAP1 PUSH2 0x3D1D JUMP JUMPDEST PUSH20 0xFFFFFFFFFFFFFFFFFFFFFFFFFFFFFFFFFFFFFFFF AND SUB PUSH2 0x1C08 JUMPI PUSH1 0x40 MLOAD PUSH32 0x8C379A000000000000000000000000000000000000000000000000000000000 DUP2 MSTORE PUSH1 0x4 ADD PUSH2 0x1BFF SWAP1 PUSH2 0x4EF7 JUMP JUMPDEST PUSH1 0x40 MLOAD DUP1 SWAP2 SUB SWAP1 REVERT JUMPDEST PUSH2 0x1C13 DUP3 DUP3 CALLER PUSH2 0x3251 JUMP JUMPDEST PUSH2 0x1C52 JUMPI PUSH1 0x40 MLOAD PUSH32 0x8C379A000000000000000000000000000000000000000000000000000000000 DUP2 MSTORE PUSH1 0x4 ADD PUSH2 0x1C49 SWAP1 PUSH2 0x4D73 JUMP JUMPDEST PUSH1 0x40 MLOAD DUP1 SWAP2 SUB SWAP1 REVERT JUMPDEST PUSH2 0x1C6C DUP4 DUP1 CALLDATASIZE SUB DUP2 ADD SWAP1 PUSH2 0x1C66 SWAP2 SWAP1 PUSH2 0x5038 JUMP JUMPDEST DUP4 PUSH2 0x340B JUMP JUMPDEST PUSH2 0x1CAB JUMPI PUSH1 0x40 MLOAD PUSH32 0x8C379A000000000000000000000000000000000000000000000000000000000 DUP2 MSTORE PUSH1 0x4 ADD PUSH2 0x1CA2 SWAP1 PUSH2 0x50D4 JUMP JUMPDEST PUSH1 0x40 MLOAD DUP1 SWAP2 SUB SWAP1 REVERT JUMPDEST PUSH0 PUSH20 0xFFFFFFFFFFFFFFFFFFFFFFFFFFFFFFFFFFFFFFFF AND PUSH2 0x1CCB DUP4 PUSH2 0x2759 JUMP JUMPDEST PUSH20 0xFFFFFFFFFFFFFFFFFFFFFFFFFFFFFFFFFFFFFFFF AND EQ PUSH2 0x1D31 JUMPI TIMESTAMP PUSH2 0x1CF0 DUP4 PUSH2 0x2082 JUMP JUMPDEST GT PUSH2 0x1D30 JUMPI PUSH1 0x40 MLOAD PUSH32 0x8C379A000000000000000000000000000000000000000000000000000000000 DUP2 MSTORE PUSH1 0x4 ADD PUSH2 0x1D27 SWAP1 PUSH2 0x5162 JUMP JUMPDEST PUSH1 0x40 MLOAD DUP1 SWAP2 SUB SWAP1 REVERT JUMPDEST JUMPDEST PUSH1 0x1 PUSH1 0x9 PUSH1 0x14 PUSH2 0x100 EXP DUP2 SLOAD DUP2 PUSH1 0xFF MUL NOT AND SWAP1 DUP4 ISZERO ISZERO MUL OR SWAP1 SSTORE POP PUSH2 0x1D56 DUP4 DUP4 PUSH2 0x1021 JUMP JUMPDEST PUSH2 0x1D5E PUSH2 0x33C8 JUMP JUMPDEST POP POP POP JUMP JUMPDEST PUSH1 0x9 PUSH1 0x14 SWAP1 SLOAD SWAP1 PUSH2 0x100 EXP SWAP1 DIV PUSH1 0xFF AND PUSH2 0x1DB2 JUMPI PUSH1 0x40 MLOAD PUSH32 0x8C379A000000000000000000000000000000000000000000000000000000000 DUP2 MSTORE PUSH1 0x4 ADD PUSH2 0x1DA9 SWAP1 PUSH2 0x464C JUMP JUMPDEST PUSH1 0x40 MLOAD DUP1 SWAP2 SUB SWAP1 REVERT JUMPDEST PUSH0 PUSH20 0xFFFFFFFFFFFFFFFFFFFFFFFFFFFFFFFFFFFFFFFF AND PUSH2 0x1DD2 DUP3 PUSH2 0x2759 JUMP JUMPDEST PUSH20 0xFFFFFFFFFFFFFFFFFFFFFFFFFFFFFFFFFFFFFFFF AND EQ ISZERO DUP1 ISZERO PUSH2 0x1DFE JUMPI POP PUSH0 PUSH2 0x1DFB DUP3 PUSH2 0x2414 JUMP JUMPDEST EQ ISZERO JUMPDEST ISZERO PUSH2 0x1F0E JUMPI PUSH0 PUSH2 0x1E0D DUP3 PUSH2 0x2759 JUMP JUMPDEST SWAP1 POP PUSH0 PUSH2 0x1E19 DUP4 PUSH2 0x2414 JUMP JUMPDEST SWAP1 POP PUSH0 PUSH2 0x1E43 PUSH1 0x64 PUSH2 0x1E35 PUSH1 0x2 DUP6 PUSH2 0x31BB SWAP1 SWAP2 SWAP1 PUSH4 0xFFFFFFFF AND JUMP JUMPDEST PUSH2 0x31D0 SWAP1 SWAP2 SWAP1 PUSH4 0xFFFFFFFF AND JUMP JUMPDEST SWAP1 POP DUP1 CALLVALUE GT DUP1 ISZERO PUSH2 0x1E58 JUMPI POP DUP1 DUP6 PUSH2 0x100 ADD CALLDATALOAD GT JUMPDEST PUSH2 0x1E97 JUMPI PUSH1 0x40 MLOAD PUSH32 0x8C379A000000000000000000000000000000000000000000000000000000000 DUP2 MSTORE PUSH1 0x4 ADD PUSH2 0x1E8E SWAP1 PUSH2 0x5216 JUMP JUMPDEST PUSH1 0x40 MLOAD DUP1 SWAP2 SUB SWAP1 REVERT JUMPDEST PUSH2 0x1EA1 DUP4 DUP4 PUSH2 0x34D7 JUMP JUMPDEST CALLER PUSH1 0x5 PUSH0 DUP7 DUP2 MSTORE PUSH1 0x20 ADD SWAP1 DUP2 MSTORE PUSH1 0x20 ADD PUSH0 KECCAK256 PUSH0 PUSH2 0x100 EXP DUP2 SLOAD DUP2 PUSH20 0xFFFFFFFFFFFFFFFFFFFFFFFFFFFFFFFFFFFFFFFF MUL NOT AND SWAP1 DUP4 PUSH20 0xFFFFFFFFFFFFFFFFFFFFFFFFFFFFFFFFFFFFFFFF AND MUL OR SWAP1 SSTORE POP CALLVALUE PUSH1 0x6 PUSH0 DUP7 DUP2 MSTORE PUSH1 0x20 ADD SWAP1 DUP2 MSTORE PUSH1 0x20 ADD PUSH0 KECCAK256 DUP2 SWAP1 SSTORE POP POP POP POP PUSH2 0x1F91 JUMP JUMPDEST PUSH2 0x1F16 PUSH2 0x31E5 JUMP JUMPDEST PUSH1 0x7 PUSH0 DUP4 DUP2 MSTORE PUSH1 0x20 ADD SWAP1 DUP2 MSTORE PUSH1 0x20 ADD PUSH0 KECCAK256 DUP2 SWAP1 SSTORE POP CALLER PUSH1 0x5 PUSH0 DUP4 DUP2 MSTORE PUSH1 0x20 ADD SWAP1 DUP2 MSTORE PUSH1 0x20 ADD PUSH0 KECCAK256 PUSH0 PUSH2 0x100 EXP DUP2 SLOAD DUP2 PUSH20 0xFFFFFFFFFFFFFFFFFFFFFFFFFFFFFFFFFFFFFFFF MUL NOT AND SWAP1 DUP4 PUSH20 0xFFFFFFFFFFFFFFFFFFFFFFFFFFFFFFFFFFFFFFFF AND MUL OR SWAP1 SSTORE POP CALLVALUE PUSH1 0x6 PUSH0 DUP4 DUP2 MSTORE PUSH1 0x20 ADD SWAP1 DUP2 MSTORE PUSH1 0x20 ADD PUSH0 KECCAK256 DUP2 SWAP1 SSTORE POP JUMPDEST DUP2 PUSH1 0xC0 ADD CALLDATALOAD CALLER PUSH20 0xFFFFFFFFFFFFFFFFFFFFFFFFFFFFFFFFFFFFFFFF AND DUP4 PUSH1 0x80 ADD PUSH1 0x20 DUP2 ADD SWAP1 PUSH2 0x1FC0 SWAP2 SWAP1 PUSH2 0x3D1D JUMP JUMPDEST PUSH20 0xFFFFFFFFFFFFFFFFFFFFFFFFFFFFFFFFFFFFFFFF AND PUSH32 0x8276EFB7A040B9314C89F6444F0D221AC94F714076FC6B3F5CE718841E1A03EA DUP6 PUSH1 0x60 ADD PUSH1 0x20 DUP2 ADD SWAP1 PUSH2 0x200A SWAP2 SWAP1 PUSH2 0x3D1D JUMP JUMPDEST DUP7 PUSH2 0x100 ADD CALLDATALOAD DUP8 PUSH1 0x40 ADD PUSH1 0x20 DUP2 ADD SWAP1 PUSH2 0x2023 SWAP2 SWAP1 PUSH2 0x3D1D JUMP JUMPDEST DUP8 PUSH1 0x40 MLOAD PUSH2 0x2034 SWAP5 SWAP4 SWAP3 SWAP2 SWAP1 PUSH2 0x4CC0 JUMP JUMPDEST PUSH1 0x40 MLOAD DUP1 SWAP2 SUB SWAP1 LOG4 PUSH0 PUSH1 0x9 PUSH1 0x14 PUSH2 0x100 EXP DUP2 SLOAD DUP2 PUSH1 0xFF MUL NOT AND SWAP1 DUP4 ISZERO ISZERO MUL OR SWAP1 SSTORE POP POP POP JUMP JUMPDEST PUSH0 PUSH1 0x1 PUSH0 SWAP1 SLOAD SWAP1 PUSH2 0x100 EXP SWAP1 DIV PUSH20 0xFFFFFFFFFFFFFFFFFFFFFFFFFFFFFFFFFFFFFFFF AND SWAP1 POP SWAP1 JUMP JUMPDEST PUSH0 PUSH1 0x7 PUSH0 DUP4 DUP2 MSTORE PUSH1 0x20 ADD SWAP1 DUP2 MSTORE PUSH1 0x20 ADD PUSH0 KECCAK256 SLOAD SWAP1 POP SWAP2 SWAP1 POP JUMP JUMPDEST PUSH2 0x20A4 PUSH2 0x3204 JUMP JUMPDEST PUSH0 PUSH20 0xFFFFFFFFFFFFFFFFFFFFFFFFFFFFFFFFFFFFFFFF AND DUP4 PUSH1 0x60 ADD PUSH1 0x20 DUP2 ADD SWAP1 PUSH2 0x20CE SWAP2 SWAP1 PUSH2 0x3D1D JUMP JUMPDEST PUSH20 0xFFFFFFFFFFFFFFFFFFFFFFFFFFFFFFFFFFFFFFFF AND SUB PUSH2 0x2124 JUMPI PUSH1 0x40 MLOAD PUSH32 0x8C379A000000000000000000000000000000000000000000000000000000000 DUP2 MSTORE PUSH1 0x4 ADD PUSH2 0x211B SWAP1 PUSH2 0x52A4 JUMP JUMPDEST PUSH1 0x40 MLOAD DUP1 SWAP2 SUB SWAP1 REVERT JUMPDEST PUSH2 0x212F DUP3 DUP3 CALLER PUSH2 0x3251 JUMP JUMPDEST PUSH2 0x216E JUMPI PUSH1 0x40 MLOAD PUSH32 0x8C379A000000000000000000000000000000000000000000000000000000000 DUP2 MSTORE PUSH1 0x4 ADD PUSH2 0x2165 SWAP1 PUSH2 0x4D73 JUMP JUMPDEST PUSH1 0x40 MLOAD DUP1 SWAP2 SUB SWAP1 REVERT JUMPDEST PUSH2 0x2178 DUP4 DUP4 PUSH2 0x32AE JUMP JUMPDEST PUSH2 0x21B7 JUMPI PUSH1 0x40 MLOAD PUSH32 0x8C379A000000000000000000000000000000000000000000000000000000000 DUP2 MSTORE PUSH1 0x4 ADD PUSH2 0x21AE SWAP1 PUSH2 0x5332 JUMP JUMPDEST PUSH1 0x40 MLOAD DUP1 SWAP2 SUB SWAP1 REVERT JUMPDEST PUSH1 0x1 PUSH1 0x9 PUSH1 0x14 PUSH2 0x100 EXP DUP2 SLOAD DUP2 PUSH1 0xFF MUL NOT AND SWAP1 DUP4 ISZERO ISZERO MUL OR SWAP1 SSTORE POP PUSH2 0x21DC DUP4 DUP4 PUSH2 0x2900 JUMP JUMPDEST PUSH2 0x21E4 PUSH2 0x33C8 JUMP JUMPDEST POP POP POP JUMP JUMPDEST PUSH1 0x9 PUSH1 0x14 SWAP1 SLOAD SWAP1 PUSH2 0x100 EXP SWAP1 DIV PUSH1 0xFF AND PUSH2 0x2238 JUMPI PUSH1 0x40 MLOAD PUSH32 0x8C379A000000000000000000000000000000000000000000000000000000000 DUP2 MSTORE PUSH1 0x4 ADD PUSH2 0x222F SWAP1 PUSH2 0x464C JUMP JUMPDEST PUSH1 0x40 MLOAD DUP1 SWAP2 SUB SWAP1 REVERT JUMPDEST PUSH2 0x2296 DUP3 PUSH0 ADD PUSH1 0x20 DUP2 ADD SWAP1 PUSH2 0x224D SWAP2 SWAP1 PUSH2 0x4ABE JUMP JUMPDEST DUP4 PUSH1 0x40 ADD PUSH1 0x20 DUP2 ADD SWAP1 PUSH2 0x2260 SWAP2 SWAP1 PUSH2 0x3D1D JUMP JUMPDEST DUP5 PUSH1 0x80 ADD PUSH1 0x20 DUP2 ADD SWAP1 PUSH2 0x2273 SWAP2 SWAP1 PUSH2 0x3D1D JUMP JUMPDEST DUP6 PUSH1 0xA0 ADD PUSH1 0x20 DUP2 ADD SWAP1 PUSH2 0x2286 SWAP2 SWAP1 PUSH2 0x3D1D JUMP JUMPDEST DUP7 PUSH1 0xC0 ADD CALLDATALOAD DUP8 PUSH2 0x120 ADD CALLDATALOAD PUSH2 0x2E17 JUMP JUMPDEST PUSH2 0x22B6 DUP3 PUSH1 0x80 ADD PUSH1 0x20 DUP2 ADD SWAP1 PUSH2 0x22AC SWAP2 SWAP1 PUSH2 0x3D1D JUMP JUMPDEST DUP4 PUSH1 0xE0 ADD CALLDATALOAD PUSH2 0x184B JUMP JUMPDEST PUSH1 0x3 PUSH0 DUP4 PUSH1 0x40 ADD PUSH1 0x20 DUP2 ADD SWAP1 PUSH2 0x22CC SWAP2 SWAP1 PUSH2 0x3D1D JUMP JUMPDEST PUSH20 0xFFFFFFFFFFFFFFFFFFFFFFFFFFFFFFFFFFFFFFFF AND PUSH20 0xFFFFFFFFFFFFFFFFFFFFFFFFFFFFFFFFFFFFFFFF AND DUP2 MSTORE PUSH1 0x20 ADD SWAP1 DUP2 MSTORE PUSH1 0x20 ADD PUSH0 KECCAK256 PUSH0 DUP4 PUSH1 0xC0 ADD CALLDATALOAD DUP2 MSTORE PUSH1 0x20 ADD SWAP1 DUP2 MSTORE PUSH1 0x20 ADD PUSH0 KECCAK256 PUSH0 SWAP1 SSTORE PUSH1 0x1 PUSH1 0x4 PUSH0 DUP4 DUP2 MSTORE PUSH1 0x20 ADD SWAP1 DUP2 MSTORE PUSH1 0x20 ADD PUSH0 KECCAK256 PUSH0 PUSH2 0x100 EXP DUP2 SLOAD DUP2 PUSH1 0xFF MUL NOT AND SWAP1 DUP4 ISZERO ISZERO MUL OR SWAP1 SSTORE POP DUP2 PUSH1 0xC0 ADD CALLDATALOAD CALLER PUSH20 0xFFFFFFFFFFFFFFFFFFFFFFFFFFFFFFFFFFFFFFFF AND DUP4 PUSH1 0x80 ADD PUSH1 0x20 DUP2 ADD SWAP1 PUSH2 0x2373 SWAP2 SWAP1 PUSH2 0x3D1D JUMP JUMPDEST PUSH20 0xFFFFFFFFFFFFFFFFFFFFFFFFFFFFFFFFFFFFFFFF AND PUSH32 0x6D794D38D52C34DB77F62ADCAE8C890DC87664E863643CB6363A6AD4D1FC5FD0 DUP6 PUSH1 0x40 ADD PUSH1 0x20 DUP2 ADD SWAP1 PUSH2 0x23BD SWAP2 SWAP1 PUSH2 0x3D1D JUMP JUMPDEST DUP7 PUSH1 0x60 ADD PUSH1 0x20 DUP2 ADD SWAP1 PUSH2 0x23D0 SWAP2 SWAP1 PUSH2 0x3D1D JUMP JUMPDEST DUP8 PUSH1 0xE0 ADD CALLDATALOAD DUP8 PUSH1 0x40 MLOAD PUSH2 0x23E6 SWAP5 SWAP4 SWAP3 SWAP2 SWAP1 PUSH2 0x4AE9 JUMP JUMPDEST PUSH1 0x40 MLOAD DUP1 SWAP2 SUB SWAP1 LOG4 PUSH2 0x23F6 PUSH2 0x31A2 JUMP JUMPDEST PUSH0 PUSH1 0x9 PUSH1 0x14 PUSH2 0x100 EXP DUP2 SLOAD DUP2 PUSH1 0xFF MUL NOT AND SWAP1 DUP4 ISZERO ISZERO MUL OR SWAP1 SSTORE POP POP POP JUMP JUMPDEST PUSH0 PUSH1 0x6 PUSH0 DUP4 DUP2 MSTORE PUSH1 0x20 ADD SWAP1 DUP2 MSTORE PUSH1 0x20 ADD PUSH0 KECCAK256 SLOAD SWAP1 POP SWAP2 SWAP1 POP JUMP JUMPDEST PUSH1 0x9 PUSH1 0x14 SWAP1 SLOAD SWAP1 PUSH2 0x100 EXP SWAP1 DIV PUSH1 0xFF AND PUSH2 0x247D JUMPI PUSH1 0x40 MLOAD PUSH32 0x8C379A000000000000000000000000000000000000000000000000000000000 DUP2 MSTORE PUSH1 0x4 ADD PUSH2 0x2474 SWAP1 PUSH2 0x464C JUMP JUMPDEST PUSH1 0x40 MLOAD DUP1 SWAP2 SUB SWAP1 REVERT JUMPDEST PUSH0 PUSH1 0x5 DUP2 GT ISZERO PUSH2 0x2490 JUMPI PUSH2 0x248F PUSH2 0x466A JUMP JUMPDEST JUMPDEST DUP3 PUSH1 0x20 ADD PUSH1 0x20 DUP2 ADD SWAP1 PUSH2 0x24A3 SWAP2 SWAP1 PUSH2 0x46BA JUMP JUMPDEST PUSH1 0x5 DUP2 GT ISZERO PUSH2 0x24B5 JUMPI PUSH2 0x24B4 PUSH2 0x466A JUMP JUMPDEST JUMPDEST SUB PUSH2 0x25C0 JUMPI PUSH0 DUP1 SHL PUSH2 0x24DD DUP4 PUSH1 0x40 ADD PUSH1 0x20 DUP2 ADD SWAP1 PUSH2 0x24D3 SWAP2 SWAP1 PUSH2 0x3D1D JUMP JUMPDEST DUP5 PUSH1 0xC0 ADD CALLDATALOAD PUSH2 0x2CA4 JUMP JUMPDEST EQ PUSH2 0x251D JUMPI PUSH1 0x40 MLOAD PUSH32 0x8C379A000000000000000000000000000000000000000000000000000000000 DUP2 MSTORE PUSH1 0x4 ADD PUSH2 0x2514 SWAP1 PUSH2 0x4755 JUMP JUMPDEST PUSH1 0x40 MLOAD DUP1 SWAP2 SUB SWAP1 REVERT JUMPDEST PUSH2 0x253E DUP3 PUSH1 0x40 ADD PUSH1 0x20 DUP2 ADD SWAP1 PUSH2 0x2533 SWAP2 SWAP1 PUSH2 0x3D1D JUMP JUMPDEST DUP4 PUSH1 0xC0 ADD CALLDATALOAD DUP4 PUSH2 0x2CFA JUMP JUMPDEST DUP2 PUSH1 0xC0 ADD CALLDATALOAD CALLER PUSH20 0xFFFFFFFFFFFFFFFFFFFFFFFFFFFFFFFFFFFFFFFF AND PUSH32 0x3AF7E15C36E0552067E803A0D3E9A1A90B6D95F5BE49BB25A9642B7F43E06F41 DUP5 PUSH1 0x60 ADD PUSH1 0x20 DUP2 ADD SWAP1 PUSH2 0x258E SWAP2 SWAP1 PUSH2 0x3D1D JUMP JUMPDEST DUP6 PUSH1 0x40 ADD PUSH1 0x20 DUP2 ADD SWAP1 PUSH2 0x25A1 SWAP2 SWAP1 PUSH2 0x3D1D JUMP JUMPDEST DUP6 DUP8 PUSH1 0x40 MLOAD PUSH2 0x25B3 SWAP5 SWAP4 SWAP3 SWAP2 SWAP1 PUSH2 0x546A JUMP JUMPDEST PUSH1 0x40 MLOAD DUP1 SWAP2 SUB SWAP1 LOG3 PUSH2 0x269B JUMP JUMPDEST PUSH1 0x5 DUP1 DUP2 GT ISZERO PUSH2 0x25D3 JUMPI PUSH2 0x25D2 PUSH2 0x466A JUMP JUMPDEST JUMPDEST DUP3 PUSH1 0x20 ADD PUSH1 0x20 DUP2 ADD SWAP1 PUSH2 0x25E6 SWAP2 SWAP1 PUSH2 0x46BA JUMP JUMPDEST PUSH1 0x5 DUP2 GT ISZERO PUSH2 0x25F8 JUMPI PUSH2 0x25F7 PUSH2 0x466A JUMP JUMPDEST JUMPDEST SUB PUSH2 0x269A JUMPI PUSH1 0x3 PUSH0 DUP4 PUSH1 0x40 ADD PUSH1 0x20 DUP2 ADD SWAP1 PUSH2 0x2613 SWAP2 SWAP1 PUSH2 0x3D1D JUMP JUMPDEST PUSH20 0xFFFFFFFFFFFFFFFFFFFFFFFFFFFFFFFFFFFFFFFF AND PUSH20 0xFFFFFFFFFFFFFFFFFFFFFFFFFFFFFFFFFFFFFFFF AND DUP2 MSTORE PUSH1 0x20 ADD SWAP1 DUP2 MSTORE PUSH1 0x20 ADD PUSH0 KECCAK256 PUSH0 DUP4 PUSH1 0xC0 ADD CALLDATALOAD DUP2 MSTORE PUSH1 0x20 ADD SWAP1 DUP2 MSTORE PUSH1 0x20 ADD PUSH0 KECCAK256 PUSH0 SWAP1 SSTORE PUSH32 0x30AD15C39984AA59D60D4089CBBBAA503C4C9E0FA0E3BDF62A5BAB180FCB974D DUP2 PUSH1 0x40 MLOAD PUSH2 0x2691 SWAP2 SWAP1 PUSH2 0x436C JUMP JUMPDEST PUSH1 0x40 MLOAD DUP1 SWAP2 SUB SWAP1 LOG1 JUMPDEST JUMPDEST PUSH0 PUSH1 0x9 PUSH1 0x14 PUSH2 0x100 EXP DUP2 SLOAD DUP2 PUSH1 0xFF MUL NOT AND SWAP1 DUP4 ISZERO ISZERO MUL OR SWAP1 SSTORE POP POP POP JUMP JUMPDEST PUSH1 0x9 PUSH1 0x15 SWAP1 SLOAD SWAP1 PUSH2 0x100 EXP SWAP1 DIV PUSH1 0xFF AND DUP2 JUMP JUMPDEST PUSH1 0x40 MLOAD DUP1 PUSH1 0x40 ADD PUSH1 0x40 MSTORE DUP1 PUSH1 0x7 DUP2 MSTORE PUSH1 0x20 ADD PUSH32 0x5441475745423300000000000000000000000000000000000000000000000000 DUP2 MSTORE POP DUP2 JUMP JUMPDEST PUSH0 DUP2 PUSH1 0x40 MLOAD PUSH1 0x20 ADD PUSH2 0x2717 SWAP2 SWAP1 PUSH2 0x54AE JUMP JUMPDEST PUSH1 0x40 MLOAD PUSH1 0x20 DUP2 DUP4 SUB SUB DUP2 MSTORE SWAP1 PUSH1 0x40 MSTORE DUP1 MLOAD SWAP1 PUSH1 0x20 ADD KECCAK256 SWAP1 POP SWAP2 SWAP1 POP JUMP JUMPDEST PUSH1 0x8 PUSH0 SWAP1 SLOAD SWAP1 PUSH2 0x100 EXP SWAP1 DIV PUSH20 0xFFFFFFFFFFFFFFFFFFFFFFFFFFFFFFFFFFFFFFFF AND DUP2 JUMP JUMPDEST PUSH0 PUSH1 0x5 PUSH0 DUP4 DUP2 MSTORE PUSH1 0x20 ADD SWAP1 DUP2 MSTORE PUSH1 0x20 ADD PUSH0 KECCAK256 PUSH0 SWAP1 SLOAD SWAP1 PUSH2 0x100 EXP SWAP1 DIV PUSH20 0xFFFFFFFFFFFFFFFFFFFFFFFFFFFFFFFFFFFFFFFF AND SWAP1 POP SWAP2 SWAP1 POP JUMP JUMPDEST PUSH0 CALLVALUE SUB PUSH2 0x279D JUMPI PUSH0 DUP1 REVERT JUMPDEST PUSH2 0x27A5 PUSH2 0x3204 JUMP JUMPDEST PUSH2 0x27B0 DUP3 DUP3 CALLER PUSH2 0x3251 JUMP JUMPDEST PUSH2 0x27EF JUMPI PUSH1 0x40 MLOAD PUSH32 0x8C379A000000000000000000000000000000000000000000000000000000000 DUP2 MSTORE PUSH1 0x4 ADD PUSH2 0x27E6 SWAP1 PUSH2 0x5538 JUMP JUMPDEST PUSH1 0x40 MLOAD DUP1 SWAP2 SUB SWAP1 REVERT JUMPDEST PUSH2 0x2809 DUP4 DUP1 CALLDATASIZE SUB DUP2 ADD SWAP1 PUSH2 0x2803 SWAP2 SWAP1 PUSH2 0x5038 JUMP JUMPDEST DUP4 PUSH2 0x340B JUMP JUMPDEST PUSH2 0x2848 JUMPI PUSH1 0x40 MLOAD PUSH32 0x8C379A000000000000000000000000000000000000000000000000000000000 DUP2 MSTORE PUSH1 0x4 ADD PUSH2 0x283F SWAP1 PUSH2 0x55C6 JUMP JUMPDEST PUSH1 0x40 MLOAD DUP1 SWAP2 SUB SWAP1 REVERT JUMPDEST PUSH0 PUSH20 0xFFFFFFFFFFFFFFFFFFFFFFFFFFFFFFFFFFFFFFFF AND PUSH2 0x2868 DUP4 PUSH2 0x2759 JUMP JUMPDEST PUSH20 0xFFFFFFFFFFFFFFFFFFFFFFFFFFFFFFFFFFFFFFFF AND EQ PUSH2 0x28CE JUMPI TIMESTAMP PUSH2 0x288D DUP4 PUSH2 0x2082 JUMP JUMPDEST GT PUSH2 0x28CD JUMPI PUSH1 0x40 MLOAD PUSH32 0x8C379A000000000000000000000000000000000000000000000000000000000 DUP2 MSTORE PUSH1 0x4 ADD PUSH2 0x28C4 SWAP1 PUSH2 0x5162 JUMP JUMPDEST PUSH1 0x40 MLOAD DUP1 SWAP2 SUB SWAP1 REVERT JUMPDEST JUMPDEST PUSH1 0x1 PUSH1 0x9 PUSH1 0x14 PUSH2 0x100 EXP DUP2 SLOAD DUP2 PUSH1 0xFF MUL NOT AND SWAP1 DUP4 ISZERO ISZERO MUL OR SWAP1 SSTORE POP PUSH2 0x28F3 DUP4 DUP4 PUSH2 0x1D63 JUMP JUMPDEST PUSH2 0x28FB PUSH2 0x33C8 JUMP JUMPDEST POP POP POP JUMP JUMPDEST PUSH1 0x9 PUSH1 0x14 SWAP1 SLOAD SWAP1 PUSH2 0x100 EXP SWAP1 DIV PUSH1 0xFF AND PUSH2 0x294F JUMPI PUSH1 0x40 MLOAD PUSH32 0x8C379A000000000000000000000000000000000000000000000000000000000 DUP2 MSTORE PUSH1 0x4 ADD PUSH2 0x2946 SWAP1 PUSH2 0x464C JUMP JUMPDEST PUSH1 0x40 MLOAD DUP1 SWAP2 SUB SWAP1 REVERT JUMPDEST PUSH2 0x29AD DUP3 PUSH0 ADD PUSH1 0x20 DUP2 ADD SWAP1 PUSH2 0x2964 SWAP2 SWAP1 PUSH2 0x4ABE JUMP JUMPDEST DUP4 PUSH1 0x40 ADD PUSH1 0x20 DUP2 ADD SWAP1 PUSH2 0x2977 SWAP2 SWAP1 PUSH2 0x3D1D JUMP JUMPDEST DUP5 PUSH1 0x80 ADD PUSH1 0x20 DUP2 ADD SWAP1 PUSH2 0x298A SWAP2 SWAP1 PUSH2 0x3D1D JUMP JUMPDEST DUP6 PUSH1 0xA0 ADD PUSH1 0x20 DUP2 ADD SWAP1 PUSH2 0x299D SWAP2 SWAP1 PUSH2 0x3D1D JUMP JUMPDEST DUP7 PUSH1 0xC0 ADD CALLDATALOAD DUP8 PUSH2 0x120 ADD CALLDATALOAD PUSH2 0x2E17 JUMP JUMPDEST PUSH2 0x29E1 DUP3 PUSH1 0x60 ADD PUSH1 0x20 DUP2 ADD SWAP1 PUSH2 0x29C3 SWAP2 SWAP1 PUSH2 0x3D1D JUMP JUMPDEST CALLER DUP5 PUSH1 0x80 ADD PUSH1 0x20 DUP2 ADD SWAP1 PUSH2 0x29D7 SWAP2 SWAP1 PUSH2 0x3D1D JUMP JUMPDEST DUP6 PUSH1 0xE0 ADD CALLDATALOAD PUSH2 0x35C7 JUMP JUMPDEST PUSH1 0x3 PUSH0 DUP4 PUSH1 0x40 ADD PUSH1 0x20 DUP2 ADD SWAP1 PUSH2 0x29F7 SWAP2 SWAP1 PUSH2 0x3D1D JUMP JUMPDEST PUSH20 0xFFFFFFFFFFFFFFFFFFFFFFFFFFFFFFFFFFFFFFFF AND PUSH20 0xFFFFFFFFFFFFFFFFFFFFFFFFFFFFFFFFFFFFFFFF AND DUP2 MSTORE PUSH1 0x20 ADD SWAP1 DUP2 MSTORE PUSH1 0x20 ADD PUSH0 KECCAK256 PUSH0 DUP4 PUSH1 0xC0 ADD CALLDATALOAD DUP2 MSTORE PUSH1 0x20 ADD SWAP1 DUP2 MSTORE PUSH1 0x20 ADD PUSH0 KECCAK256 PUSH0 SWAP1 SSTORE DUP2 PUSH1 0xC0 ADD CALLDATALOAD CALLER PUSH20 0xFFFFFFFFFFFFFFFFFFFFFFFFFFFFFFFFFFFFFFFF AND DUP4 PUSH1 0x80 ADD PUSH1 0x20 DUP2 ADD SWAP1 PUSH2 0x2A75 SWAP2 SWAP1 PUSH2 0x3D1D JUMP JUMPDEST PUSH20 0xFFFFFFFFFFFFFFFFFFFFFFFFFFFFFFFFFFFFFFFF AND PUSH32 0x6D794D38D52C34DB77F62ADCAE8C890DC87664E863643CB6363A6AD4D1FC5FD0 DUP6 PUSH1 0x40 ADD PUSH1 0x20 DUP2 ADD SWAP1 PUSH2 0x2ABF SWAP2 SWAP1 PUSH2 0x3D1D JUMP JUMPDEST DUP7 PUSH1 0x60 ADD PUSH1 0x20 DUP2 ADD SWAP1 PUSH2 0x2AD2 SWAP2 SWAP1 PUSH2 0x3D1D JUMP JUMPDEST DUP8 PUSH1 0xE0 ADD CALLDATALOAD DUP8 PUSH1 0x40 MLOAD PUSH2 0x2AE8 SWAP5 SWAP4 SWAP3 SWAP2 SWAP1 PUSH2 0x4AE9 JUMP JUMPDEST PUSH1 0x40 MLOAD DUP1 SWAP2 SUB SWAP1 LOG4 PUSH2 0x2AF8 PUSH2 0x31A2 JUMP JUMPDEST PUSH0 PUSH1 0x9 PUSH1 0x14 PUSH2 0x100 EXP DUP2 SLOAD DUP2 PUSH1 0xFF MUL NOT AND SWAP1 DUP4 ISZERO ISZERO MUL OR SWAP1 SSTORE POP POP POP JUMP JUMPDEST PUSH1 0xA SLOAD DUP2 JUMP JUMPDEST PUSH0 PUSH1 0x4 PUSH0 DUP4 DUP2 MSTORE PUSH1 0x20 ADD SWAP1 DUP2 MSTORE PUSH1 0x20 ADD PUSH0 KECCAK256 PUSH0 SWAP1 SLOAD SWAP1 PUSH2 0x100 EXP SWAP1 DIV PUSH1 0xFF AND SWAP1 POP SWAP2 SWAP1 POP JUMP JUMPDEST PUSH1 0x2 PUSH0 SWAP1 SLOAD SWAP1 PUSH2 0x100 EXP SWAP1 DIV PUSH20 0xFFFFFFFFFFFFFFFFFFFFFFFFFFFFFFFFFFFFFFFF AND PUSH20 0xFFFFFFFFFFFFFFFFFFFFFFFFFFFFFFFFFFFFFFFF AND CALLER PUSH20 0xFFFFFFFFFFFFFFFFFFFFFFFFFFFFFFFFFFFFFFFF AND EQ PUSH2 0x2BD1 JUMPI PUSH1 0x40 MLOAD PUSH32 0x8C379A000000000000000000000000000000000000000000000000000000000 DUP2 MSTORE PUSH1 0x4 ADD PUSH2 0x2BC8 SWAP1 PUSH2 0x44C8 JUMP JUMPDEST PUSH1 0x40 MLOAD DUP1 SWAP2 SUB SWAP1 REVERT JUMPDEST DUP1 PUSH1 0x2 PUSH0 PUSH2 0x100 EXP DUP2 SLOAD DUP2 PUSH20 0xFFFFFFFFFFFFFFFFFFFFFFFFFFFFFFFFFFFFFFFF MUL NOT AND SWAP1 DUP4 PUSH20 0xFFFFFFFFFFFFFFFFFFFFFFFFFFFFFFFFFFFFFFFF AND MUL OR SWAP1 SSTORE POP POP JUMP JUMPDEST PUSH0 DUP2 PUSH1 0x40 MLOAD PUSH1 0x20 ADD PUSH2 0x2C26 SWAP2 SWAP1 PUSH2 0x55E4 JUMP JUMPDEST PUSH1 0x40 MLOAD PUSH1 0x20 DUP2 DUP4 SUB SUB DUP2 MSTORE SWAP1 PUSH1 0x40 MSTORE DUP1 MLOAD SWAP1 PUSH1 0x20 ADD KECCAK256 SWAP1 POP SWAP2 SWAP1 POP JUMP JUMPDEST PUSH0 PUSH1 0x2 PUSH0 SWAP1 SLOAD SWAP1 PUSH2 0x100 EXP SWAP1 DIV PUSH20 0xFFFFFFFFFFFFFFFFFFFFFFFFFFFFFFFFFFFFFFFF AND SWAP1 POP SWAP1 JUMP JUMPDEST PUSH1 0x40 MLOAD DUP1 PUSH1 0x40 ADD PUSH1 0x40 MSTORE DUP1 PUSH1 0x5 DUP2 MSTORE PUSH1 0x20 ADD PUSH32 0x312E302E30000000000000000000000000000000000000000000000000000000 DUP2 MSTORE POP DUP2 JUMP JUMPDEST PUSH0 PUSH1 0x3 PUSH0 DUP5 PUSH20 0xFFFFFFFFFFFFFFFFFFFFFFFFFFFFFFFFFFFFFFFF AND PUSH20 0xFFFFFFFFFFFFFFFFFFFFFFFFFFFFFFFFFFFFFFFF AND DUP2 MSTORE PUSH1 0x20 ADD SWAP1 DUP2 MSTORE PUSH1 0x20 ADD PUSH0 KECCAK256 PUSH0 DUP4 DUP2 MSTORE PUSH1 0x20 ADD SWAP1 DUP2 MSTORE PUSH1 0x20 ADD PUSH0 KECCAK256 SLOAD SWAP1 POP SWAP3 SWAP2 POP POP JUMP JUMPDEST PUSH1 0x9 PUSH1 0x14 SWAP1 SLOAD SWAP1 PUSH2 0x100 EXP SWAP1 DIV PUSH1 0xFF AND PUSH2 0x2D49 JUMPI PUSH1 0x40 MLOAD PUSH32 0x8C379A000000000000000000000000000000000000000000000000000000000 DUP2 MSTORE PUSH1 0x4 ADD PUSH2 0x2D40 SWAP1 PUSH2 0x464C JUMP JUMPDEST PUSH1 0x40 MLOAD DUP1 SWAP2 SUB SWAP1 REVERT JUMPDEST DUP1 PUSH1 0x3 PUSH0 DUP6 PUSH20 0xFFFFFFFFFFFFFFFFFFFFFFFFFFFFFFFFFFFFFFFF AND PUSH20 0xFFFFFFFFFFFFFFFFFFFFFFFFFFFFFFFFFFFFFFFF AND DUP2 MSTORE PUSH1 0x20 ADD SWAP1 DUP2 MSTORE PUSH1 0x20 ADD PUSH0 KECCAK256 PUSH0 DUP5 DUP2 MSTORE PUSH1 0x20 ADD SWAP1 DUP2 MSTORE PUSH1 0x20 ADD PUSH0 KECCAK256 DUP2 SWAP1 SSTORE POP PUSH0 PUSH1 0x9 PUSH1 0x14 PUSH2 0x100 EXP DUP2 SLOAD DUP2 PUSH1 0xFF MUL NOT AND SWAP1 DUP4 ISZERO ISZERO MUL OR SWAP1 SSTORE POP POP POP POP JUMP JUMPDEST PUSH0 TIMESTAMP DUP6 LT DUP1 ISZERO PUSH2 0x2DFC JUMPI POP PUSH2 0x2DCD DUP5 PUSH2 0x2759 JUMP JUMPDEST PUSH20 0xFFFFFFFFFFFFFFFFFFFFFFFFFFFFFFFFFFFFFFFF AND CALLER PUSH20 0xFFFFFFFFFFFFFFFFFFFFFFFFFFFFFFFFFFFFFFFF AND EQ JUMPDEST DUP1 PUSH2 0x2E0D JUMPI POP PUSH2 0x2E0C DUP4 DUP4 PUSH2 0x37AB JUMP JUMPDEST JUMPDEST SWAP1 POP SWAP5 SWAP4 POP POP POP POP JUMP JUMPDEST PUSH0 PUSH1 0x1 DUP2 GT ISZERO PUSH2 0x2E2A JUMPI PUSH2 0x2E29 PUSH2 0x466A JUMP JUMPDEST JUMPDEST DUP7 PUSH1 0x1 DUP2 GT ISZERO PUSH2 0x2E3D JUMPI PUSH2 0x2E3C PUSH2 0x466A JUMP JUMPDEST JUMPDEST SUB PUSH2 0x2ED4 JUMPI PUSH1 0x8 PUSH0 SWAP1 SLOAD SWAP1 PUSH2 0x100 EXP SWAP1 DIV PUSH20 0xFFFFFFFFFFFFFFFFFFFFFFFFFFFFFFFFFFFFFFFF AND PUSH20 0xFFFFFFFFFFFFFFFFFFFFFFFFFFFFFFFFFFFFFFFF AND PUSH4 0xEF0DFAAF DUP7 DUP7 DUP7 DUP7 PUSH1 0x40 MLOAD DUP6 PUSH4 0xFFFFFFFF AND PUSH1 0xE0 SHL DUP2 MSTORE PUSH1 0x4 ADD PUSH2 0x2EA2 SWAP5 SWAP4 SWAP3 SWAP2 SWAP1 PUSH2 0x4C7D JUMP JUMPDEST PUSH0 PUSH1 0x40 MLOAD DUP1 DUP4 SUB DUP2 PUSH0 DUP8 DUP1 EXTCODESIZE ISZERO DUP1 ISZERO PUSH2 0x2EB9 JUMPI PUSH0 DUP1 REVERT JUMPDEST POP GAS CALL ISZERO DUP1 ISZERO PUSH2 0x2ECB JUMPI RETURNDATASIZE PUSH0 DUP1 RETURNDATACOPY RETURNDATASIZE PUSH0 REVERT JUMPDEST POP POP POP POP PUSH2 0x2F90 JUMP JUMPDEST PUSH1 0x1 DUP1 DUP2 GT ISZERO PUSH2 0x2EE7 JUMPI PUSH2 0x2EE6 PUSH2 0x466A JUMP JUMPDEST JUMPDEST DUP7 PUSH1 0x1 DUP2 GT ISZERO PUSH2 0x2EFA JUMPI PUSH2 0x2EF9 PUSH2 0x466A JUMP JUMPDEST JUMPDEST SUB PUSH2 0x2F8F JUMPI PUSH1 0x8 PUSH0 SWAP1 SLOAD SWAP1 PUSH2 0x100 EXP SWAP1 DIV PUSH20 0xFFFFFFFFFFFFFFFFFFFFFFFFFFFFFFFFFFFFFFFF AND PUSH20 0xFFFFFFFFFFFFFFFFFFFFFFFFFFFFFFFFFFFFFFFF AND PUSH4 0x4282F5D3 DUP7 DUP7 DUP7 DUP7 DUP7 PUSH1 0x40 MLOAD DUP7 PUSH4 0xFFFFFFFF AND PUSH1 0xE0 SHL DUP2 MSTORE PUSH1 0x4 ADD PUSH2 0x2F61 SWAP6 SWAP5 SWAP4 SWAP3 SWAP2 SWAP1 PUSH2 0x55FE JUMP JUMPDEST PUSH0 PUSH1 0x40 MLOAD DUP1 DUP4 SUB DUP2 PUSH0 DUP8 DUP1 EXTCODESIZE ISZERO DUP1 ISZERO PUSH2 0x2F78 JUMPI PUSH0 DUP1 REVERT JUMPDEST POP GAS CALL ISZERO DUP1 ISZERO PUSH2 0x2F8A JUMPI RETURNDATASIZE PUSH0 DUP1 RETURNDATACOPY RETURNDATASIZE PUSH0 REVERT JUMPDEST POP POP POP POP JUMPDEST JUMPDEST POP POP POP POP POP POP JUMP JUMPDEST PUSH0 PUSH2 0x2FD1 PUSH1 0x64 PUSH2 0x2FC3 PUSH1 0x9 PUSH1 0x15 SWAP1 SLOAD SWAP1 PUSH2 0x100 EXP SWAP1 DIV PUSH1 0xFF AND PUSH1 0xFF AND DUP6 PUSH2 0x31BB SWAP1 SWAP2 SWAP1 PUSH4 0xFFFFFFFF AND JUMP JUMPDEST PUSH2 0x31D0 SWAP1 SWAP2 SWAP1 PUSH4 0xFFFFFFFF AND JUMP JUMPDEST SWAP1 POP PUSH0 PUSH20 0xFFFFFFFFFFFFFFFFFFFFFFFFFFFFFFFFFFFFFFFF AND DUP5 PUSH20 0xFFFFFFFFFFFFFFFFFFFFFFFFFFFFFFFFFFFFFFFF AND EQ PUSH2 0x3154 JUMPI PUSH1 0x8 PUSH0 SWAP1 SLOAD SWAP1 PUSH2 0x100 EXP SWAP1 DIV PUSH20 0xFFFFFFFFFFFFFFFFFFFFFFFFFFFFFFFFFFFFFFFF AND PUSH20 0xFFFFFFFFFFFFFFFFFFFFFFFFFFFFFFFFFFFFFFFF AND PUSH4 0xB97BE865 DUP6 DUP6 PUSH2 0x3058 DUP6 DUP8 PUSH2 0x33F6 SWAP1 SWAP2 SWAP1 PUSH4 0xFFFFFFFF AND JUMP JUMPDEST PUSH1 0x40 MLOAD DUP5 PUSH4 0xFFFFFFFF AND PUSH1 0xE0 SHL DUP2 MSTORE PUSH1 0x4 ADD PUSH2 0x3076 SWAP4 SWAP3 SWAP2 SWAP1 PUSH2 0x4C48 JUMP JUMPDEST PUSH0 PUSH1 0x40 MLOAD DUP1 DUP4 SUB DUP2 PUSH0 DUP8 DUP1 EXTCODESIZE ISZERO DUP1 ISZERO PUSH2 0x308D JUMPI PUSH0 DUP1 REVERT JUMPDEST POP GAS CALL ISZERO DUP1 ISZERO PUSH2 0x309F JUMPI RETURNDATASIZE PUSH0 DUP1 RETURNDATACOPY RETURNDATASIZE PUSH0 REVERT JUMPDEST POP POP POP POP PUSH1 0x8 PUSH0 SWAP1 SLOAD SWAP1 PUSH2 0x100 EXP SWAP1 DIV PUSH20 0xFFFFFFFFFFFFFFFFFFFFFFFFFFFFFFFFFFFFFFFF AND PUSH20 0xFFFFFFFFFFFFFFFFFFFFFFFFFFFFFFFFFFFFFFFF AND PUSH4 0xB97BE865 DUP6 PUSH1 0x9 PUSH0 SWAP1 SLOAD SWAP1 PUSH2 0x100 EXP SWAP1 DIV PUSH20 0xFFFFFFFFFFFFFFFFFFFFFFFFFFFFFFFFFFFFFFFF AND DUP5 PUSH1 0x40 MLOAD DUP5 PUSH4 0xFFFFFFFF AND PUSH1 0xE0 SHL DUP2 MSTORE PUSH1 0x4 ADD PUSH2 0x3122 SWAP4 SWAP3 SWAP2 SWAP1 PUSH2 0x4C48 JUMP JUMPDEST PUSH0 PUSH1 0x40 MLOAD DUP1 DUP4 SUB DUP2 PUSH0 DUP8 DUP1 EXTCODESIZE ISZERO DUP1 ISZERO PUSH2 0x3139 JUMPI PUSH0 DUP1 REVERT JUMPDEST POP GAS CALL ISZERO DUP1 ISZERO PUSH2 0x314B JUMPI RETURNDATASIZE PUSH0 DUP1 RETURNDATACOPY RETURNDATASIZE PUSH0 REVERT JUMPDEST POP POP POP POP PUSH2 0x319C JUMP JUMPDEST PUSH2 0x3170 DUP4 PUSH2 0x316B DUP4 DUP6 PUSH2 0x33F6 SWAP1 SWAP2 SWAP1 PUSH4 0xFFFFFFFF AND JUMP JUMPDEST PUSH2 0x34D7 JUMP JUMPDEST PUSH2 0x319B PUSH1 0x9 PUSH0 SWAP1 SLOAD SWAP1 PUSH2 0x100 EXP SWAP1 DIV PUSH20 0xFFFFFFFFFFFFFFFFFFFFFFFFFFFFFFFFFFFFFFFF AND DUP3 PUSH2 0x34D7 JUMP JUMPDEST JUMPDEST POP POP POP POP JUMP JUMPDEST PUSH1 0xA PUSH0 DUP2 SLOAD DUP1 SWAP3 SWAP2 SWAP1 PUSH2 0x31B4 SWAP1 PUSH2 0x567C JUMP JUMPDEST SWAP2 SWAP1 POP SSTORE POP JUMP JUMPDEST PUSH0 DUP2 DUP4 PUSH2 0x31C8 SWAP2 SWAP1 PUSH2 0x56C3 JUMP JUMPDEST SWAP1 POP SWAP3 SWAP2 POP POP JUMP JUMPDEST PUSH0 DUP2 DUP4 PUSH2 0x31DD SWAP2 SWAP1 PUSH2 0x5731 JUMP JUMPDEST SWAP1 POP SWAP3 SWAP2 POP POP JUMP JUMPDEST PUSH0 DUP1 TIMESTAMP SWAP1 POP PUSH0 PUSH3 0x15180 DUP3 PUSH2 0x31FA SWAP2 SWAP1 PUSH2 0x5761 JUMP JUMPDEST SWAP1 POP DUP1 SWAP3 POP POP POP SWAP1 JUMP JUMPDEST PUSH1 0x2 PUSH0 SLOAD SUB PUSH2 0x3248 JUMPI PUSH1 0x40 MLOAD PUSH32 0x8C379A000000000000000000000000000000000000000000000000000000000 DUP2 MSTORE PUSH1 0x4 ADD PUSH2 0x323F SWAP1 PUSH2 0x57DE JUMP JUMPDEST PUSH1 0x40 MLOAD DUP1 SWAP2 SUB SWAP1 REVERT JUMPDEST PUSH1 0x2 PUSH0 DUP2 SWAP1 SSTORE POP JUMP JUMPDEST PUSH0 DUP1 PUSH2 0x325C DUP6 PUSH2 0x385A JUMP JUMPDEST SWAP1 POP PUSH0 PUSH2 0x3272 DUP6 DUP4 PUSH2 0x388D SWAP1 SWAP2 SWAP1 PUSH4 0xFFFFFFFF AND JUMP JUMPDEST SWAP1 POP DUP4 PUSH20 0xFFFFFFFFFFFFFFFFFFFFFFFFFFFFFFFFFFFFFFFF AND DUP2 PUSH20 0xFFFFFFFFFFFFFFFFFFFFFFFFFFFFFFFFFFFFFFFF AND EQ SWAP3 POP POP POP SWAP4 SWAP3 POP POP POP JUMP JUMPDEST PUSH0 DUP1 PUSH20 0xFFFFFFFFFFFFFFFFFFFFFFFFFFFFFFFFFFFFFFFF AND DUP4 PUSH1 0x80 ADD PUSH1 0x20 DUP2 ADD SWAP1 PUSH2 0x32D9 SWAP2 SWAP1 PUSH2 0x3D1D JUMP JUMPDEST PUSH20 0xFFFFFFFFFFFFFFFFFFFFFFFFFFFFFFFFFFFFFFFF AND EQ ISZERO DUP1 ISZERO PUSH2 0x334D JUMPI POP DUP3 PUSH1 0xA0 ADD PUSH1 0x20 DUP2 ADD SWAP1 PUSH2 0x330B SWAP2 SWAP1 PUSH2 0x3D1D JUMP JUMPDEST PUSH20 0xFFFFFFFFFFFFFFFFFFFFFFFFFFFFFFFFFFFFFFFF AND DUP4 PUSH1 0x80 ADD PUSH1 0x20 DUP2 ADD SWAP1 PUSH2 0x3334 SWAP2 SWAP1 PUSH2 0x3D1D JUMP JUMPDEST PUSH20 0xFFFFFFFFFFFFFFFFFFFFFFFFFFFFFFFFFFFFFFFF AND EQ ISZERO JUMPDEST DUP1 ISZERO PUSH2 0x335D JUMPI POP TIMESTAMP DUP4 PUSH2 0x100 ADD CALLDATALOAD GT JUMPDEST DUP1 ISZERO PUSH2 0x3387 JUMPI POP PUSH2 0x3384 DUP4 PUSH1 0x40 ADD PUSH1 0x20 DUP2 ADD SWAP1 PUSH2 0x337A SWAP2 SWAP1 PUSH2 0x3D1D JUMP JUMPDEST DUP5 PUSH1 0xC0 ADD CALLDATALOAD PUSH2 0x2CA4 JUMP JUMPDEST DUP3 EQ JUMPDEST DUP1 ISZERO PUSH2 0x3397 JUMPI POP TIMESTAMP DUP4 PUSH2 0x100 ADD CALLDATALOAD GT JUMPDEST DUP1 ISZERO PUSH2 0x33C0 JUMPI POP PUSH2 0x33BE DUP4 PUSH1 0x40 ADD PUSH1 0x20 DUP2 ADD SWAP1 PUSH2 0x33B4 SWAP2 SWAP1 PUSH2 0x3D1D JUMP JUMPDEST DUP5 PUSH1 0xC0 ADD CALLDATALOAD PUSH2 0x37AB JUMP JUMPDEST ISZERO JUMPDEST SWAP1 POP SWAP3 SWAP2 POP POP JUMP JUMPDEST PUSH1 0x1 PUSH0 DUP2 SWAP1 SSTORE POP JUMP JUMPDEST PUSH0 PUSH2 0x33DC DUP4 DUP4 PUSH2 0x38B2 JUMP JUMPDEST DUP1 ISZERO PUSH2 0x33EE JUMPI POP PUSH2 0x33ED DUP4 DUP4 PUSH2 0x37AB JUMP JUMPDEST JUMPDEST SWAP1 POP SWAP3 SWAP2 POP POP JUMP JUMPDEST PUSH0 DUP2 DUP4 PUSH2 0x3403 SWAP2 SWAP1 PUSH2 0x57FC JUMP JUMPDEST SWAP1 POP SWAP3 SWAP2 POP POP JUMP JUMPDEST PUSH0 DUP1 PUSH20 0xFFFFFFFFFFFFFFFFFFFFFFFFFFFFFFFFFFFFFFFF AND DUP4 PUSH1 0x80 ADD MLOAD PUSH20 0xFFFFFFFFFFFFFFFFFFFFFFFFFFFFFFFFFFFFFFFF AND EQ ISZERO DUP1 ISZERO PUSH2 0x3480 JUMPI POP DUP3 PUSH1 0xA0 ADD MLOAD PUSH20 0xFFFFFFFFFFFFFFFFFFFFFFFFFFFFFFFFFFFFFFFF AND DUP4 PUSH1 0x80 ADD MLOAD PUSH20 0xFFFFFFFFFFFFFFFFFFFFFFFFFFFFFFFFFFFFFFFF AND EQ ISZERO JUMPDEST DUP1 ISZERO PUSH2 0x349C JUMPI POP PUSH2 0x3499 DUP4 PUSH1 0x40 ADD MLOAD DUP5 PUSH1 0xC0 ADD MLOAD PUSH2 0x2CA4 JUMP JUMPDEST DUP3 EQ JUMPDEST DUP1 ISZERO PUSH2 0x34B4 JUMPI POP PUSH2 0x34AC DUP3 PUSH2 0x2082 JUMP JUMPDEST DUP4 PUSH2 0x140 ADD MLOAD EQ JUMPDEST DUP1 ISZERO PUSH2 0x34CF JUMPI POP PUSH2 0x34CD DUP4 PUSH1 0x40 ADD MLOAD DUP5 PUSH1 0xC0 ADD MLOAD PUSH2 0x37AB JUMP JUMPDEST ISZERO JUMPDEST SWAP1 POP SWAP3 SWAP2 POP POP JUMP JUMPDEST DUP1 SELFBALANCE LT ISZERO PUSH2 0x351A JUMPI PUSH1 0x40 MLOAD PUSH32 0x8C379A000000000000000000000000000000000000000000000000000000000 DUP2 MSTORE PUSH1 0x4 ADD PUSH2 0x3511 SWAP1 PUSH2 0x589F JUMP JUMPDEST PUSH1 0x40 MLOAD DUP1 SWAP2 SUB SWAP1 REVERT JUMPDEST PUSH0 DUP3 PUSH20 0xFFFFFFFFFFFFFFFFFFFFFFFFFFFFFFFFFFFFFFFF AND DUP3 PUSH1 0x40 MLOAD PUSH2 0x353F SWAP1 PUSH2 0x58EA JUMP JUMPDEST PUSH0 PUSH1 0x40 MLOAD DUP1 DUP4 SUB DUP2 DUP6 DUP8 GAS CALL SWAP3 POP POP POP RETURNDATASIZE DUP1 PUSH0 DUP2 EQ PUSH2 0x3579 JUMPI PUSH1 0x40 MLOAD SWAP2 POP PUSH1 0x1F NOT PUSH1 0x3F RETURNDATASIZE ADD AND DUP3 ADD PUSH1 0x40 MSTORE RETURNDATASIZE DUP3 MSTORE RETURNDATASIZE PUSH0 PUSH1 0x20 DUP5 ADD RETURNDATACOPY PUSH2 0x357E JUMP JUMPDEST PUSH1 0x60 SWAP2 POP JUMPDEST POP POP SWAP1 POP DUP1 PUSH2 0x35C2 JUMPI PUSH1 0x40 MLOAD PUSH32 0x8C379A000000000000000000000000000000000000000000000000000000000 DUP2 MSTORE PUSH1 0x4 ADD PUSH2 0x35B9 SWAP1 PUSH2 0x596E JUMP JUMPDEST PUSH1 0x40 MLOAD DUP1 SWAP2 SUB SWAP1 REVERT JUMPDEST POP POP POP JUMP JUMPDEST PUSH0 PUSH2 0x3600 PUSH1 0x64 PUSH2 0x35F2 PUSH1 0x9 PUSH1 0x15 SWAP1 SLOAD SWAP1 PUSH2 0x100 EXP SWAP1 DIV PUSH1 0xFF AND PUSH1 0xFF AND DUP6 PUSH2 0x31BB SWAP1 SWAP2 SWAP1 PUSH4 0xFFFFFFFF AND JUMP JUMPDEST PUSH2 0x31D0 SWAP1 SWAP2 SWAP1 PUSH4 0xFFFFFFFF AND JUMP JUMPDEST SWAP1 POP PUSH1 0x8 PUSH0 SWAP1 SLOAD SWAP1 PUSH2 0x100 EXP SWAP1 DIV PUSH20 0xFFFFFFFFFFFFFFFFFFFFFFFFFFFFFFFFFFFFFFFF AND PUSH20 0xFFFFFFFFFFFFFFFFFFFFFFFFFFFFFFFFFFFFFFFF AND PUSH4 0x8E1976E9 DUP7 DUP7 DUP7 PUSH2 0x3655 DUP7 DUP9 PUSH2 0x33F6 SWAP1 SWAP2 SWAP1 PUSH4 0xFFFFFFFF AND JUMP JUMPDEST PUSH1 0x40 MLOAD DUP6 PUSH4 0xFFFFFFFF AND PUSH1 0xE0 SHL DUP2 MSTORE PUSH1 0x4 ADD PUSH2 0x3674 SWAP5 SWAP4 SWAP3 SWAP2 SWAP1 PUSH2 0x4C7D JUMP JUMPDEST PUSH0 PUSH1 0x40 MLOAD DUP1 DUP4 SUB DUP2 PUSH0 DUP8 DUP1 EXTCODESIZE ISZERO DUP1 ISZERO PUSH2 0x368B JUMPI PUSH0 DUP1 REVERT JUMPDEST POP GAS CALL ISZERO DUP1 ISZERO PUSH2 0x369D JUMPI RETURNDATASIZE PUSH0 DUP1 RETURNDATACOPY RETURNDATASIZE PUSH0 REVERT JUMPDEST POP POP POP POP PUSH0 PUSH20 0xFFFFFFFFFFFFFFFFFFFFFFFFFFFFFFFFFFFFFFFF AND PUSH1 0x9 PUSH0 SWAP1 SLOAD SWAP1 PUSH2 0x100 EXP SWAP1 DIV PUSH20 0xFFFFFFFFFFFFFFFFFFFFFFFFFFFFFFFFFFFFFFFF AND PUSH20 0xFFFFFFFFFFFFFFFFFFFFFFFFFFFFFFFFFFFFFFFF AND EQ PUSH2 0x37A4 JUMPI PUSH1 0x8 PUSH0 SWAP1 SLOAD SWAP1 PUSH2 0x100 EXP SWAP1 DIV PUSH20 0xFFFFFFFFFFFFFFFFFFFFFFFFFFFFFFFFFFFFFFFF AND PUSH20 0xFFFFFFFFFFFFFFFFFFFFFFFFFFFFFFFFFFFFFFFF AND PUSH4 0x8E1976E9 DUP7 DUP7 PUSH1 0x9 PUSH0 SWAP1 SLOAD SWAP1 PUSH2 0x100 EXP SWAP1 DIV PUSH20 0xFFFFFFFFFFFFFFFFFFFFFFFFFFFFFFFFFFFFFFFF AND DUP6 PUSH1 0x40 MLOAD DUP6 PUSH4 0xFFFFFFFF AND PUSH1 0xE0 SHL DUP2 MSTORE PUSH1 0x4 ADD PUSH2 0x3776 SWAP5 SWAP4 SWAP3 SWAP2 SWAP1 PUSH2 0x4C7D JUMP JUMPDEST PUSH0 PUSH1 0x40 MLOAD DUP1 DUP4 SUB DUP2 PUSH0 DUP8 DUP1 EXTCODESIZE ISZERO DUP1 ISZERO PUSH2 0x378D JUMPI PUSH0 DUP1 REVERT JUMPDEST POP GAS CALL ISZERO DUP1 ISZERO PUSH2 0x379F JUMPI RETURNDATASIZE PUSH0 DUP1 RETURNDATACOPY RETURNDATASIZE PUSH0 REVERT JUMPDEST POP POP POP POP JUMPDEST POP POP POP POP POP JUMP JUMPDEST PUSH0 CALLER PUSH20 0xFFFFFFFFFFFFFFFFFFFFFFFFFFFFFFFFFFFFFFFF AND DUP4 PUSH20 0xFFFFFFFFFFFFFFFFFFFFFFFFFFFFFFFFFFFFFFFF AND PUSH4 0x6352211E DUP5 PUSH1 0x40 MLOAD DUP3 PUSH4 0xFFFFFFFF AND PUSH1 0xE0 SHL DUP2 MSTORE PUSH1 0x4 ADD PUSH2 0x37FC SWAP2 SWAP1 PUSH2 0x4216 JUMP JUMPDEST PUSH1 0x20 PUSH1 0x40 MLOAD DUP1 DUP4 SUB DUP2 DUP7 GAS STATICCALL ISZERO DUP1 ISZERO PUSH2 0x3817 JUMPI RETURNDATASIZE PUSH0 DUP1 RETURNDATACOPY RETURNDATASIZE PUSH0 REVERT JUMPDEST POP POP POP POP PUSH1 0x40 MLOAD RETURNDATASIZE PUSH1 0x1F NOT PUSH1 0x1F DUP3 ADD AND DUP3 ADD DUP1 PUSH1 0x40 MSTORE POP DUP2 ADD SWAP1 PUSH2 0x383B SWAP2 SWAP1 PUSH2 0x59A0 JUMP JUMPDEST PUSH20 0xFFFFFFFFFFFFFFFFFFFFFFFFFFFFFFFFFFFFFFFF AND EQ SWAP1 POP SWAP3 SWAP2 POP POP JUMP JUMPDEST PUSH0 PUSH32 0x19457468657265756D205369676E6564204D6573736167653A0A333200000000 PUSH0 MSTORE DUP2 PUSH1 0x1C MSTORE PUSH1 0x3C PUSH0 KECCAK256 SWAP1 POP SWAP2 SWAP1 POP JUMP JUMPDEST PUSH0 DUP1 PUSH0 PUSH2 0x389A DUP6 DUP6 PUSH2 0x3A29 JUMP JUMPDEST SWAP2 POP SWAP2 POP PUSH2 0x38A7 DUP2 PUSH2 0x3A75 JUMP JUMPDEST DUP2 SWAP3 POP POP POP SWAP3 SWAP2 POP POP JUMP JUMPDEST PUSH0 DUP1 DUP4 SWAP1 POP PUSH1 0x8 PUSH0 SWAP1 SLOAD SWAP1 PUSH2 0x100 EXP SWAP1 DIV PUSH20 0xFFFFFFFFFFFFFFFFFFFFFFFFFFFFFFFFFFFFFFFF AND PUSH20 0xFFFFFFFFFFFFFFFFFFFFFFFFFFFFFFFFFFFFFFFF AND DUP2 PUSH20 0xFFFFFFFFFFFFFFFFFFFFFFFFFFFFFFFFFFFFFFFF AND PUSH4 0x81812FC DUP6 PUSH1 0x40 MLOAD DUP3 PUSH4 0xFFFFFFFF AND PUSH1 0xE0 SHL DUP2 MSTORE PUSH1 0x4 ADD PUSH2 0x3928 SWAP2 SWAP1 PUSH2 0x4216 JUMP JUMPDEST PUSH1 0x20 PUSH1 0x40 MLOAD DUP1 DUP4 SUB DUP2 DUP7 GAS STATICCALL ISZERO DUP1 ISZERO PUSH2 0x3943 JUMPI RETURNDATASIZE PUSH0 DUP1 RETURNDATACOPY RETURNDATASIZE PUSH0 REVERT JUMPDEST POP POP POP POP PUSH1 0x40 MLOAD RETURNDATASIZE PUSH1 0x1F NOT PUSH1 0x1F DUP3 ADD AND DUP3 ADD DUP1 PUSH1 0x40 MSTORE POP DUP2 ADD SWAP1 PUSH2 0x3967 SWAP2 SWAP1 PUSH2 0x59A0 JUMP JUMPDEST PUSH20 0xFFFFFFFFFFFFFFFFFFFFFFFFFFFFFFFFFFFFFFFF AND EQ DUP1 PUSH2 0x3A20 JUMPI POP DUP1 PUSH20 0xFFFFFFFFFFFFFFFFFFFFFFFFFFFFFFFFFFFFFFFF AND PUSH4 0xE985E9C5 CALLER PUSH1 0x8 PUSH0 SWAP1 SLOAD SWAP1 PUSH2 0x100 EXP SWAP1 DIV PUSH20 0xFFFFFFFFFFFFFFFFFFFFFFFFFFFFFFFFFFFFFFFF AND PUSH1 0x40 MLOAD DUP4 PUSH4 0xFFFFFFFF AND PUSH1 0xE0 SHL DUP2 MSTORE PUSH1 0x4 ADD PUSH2 0x39E0 SWAP3 SWAP2 SWAP1 PUSH2 0x59CB JUMP JUMPDEST PUSH1 0x20 PUSH1 0x40 MLOAD DUP1 DUP4 SUB DUP2 DUP7 GAS STATICCALL ISZERO DUP1 ISZERO PUSH2 0x39FB JUMPI RETURNDATASIZE PUSH0 DUP1 RETURNDATACOPY RETURNDATASIZE PUSH0 REVERT JUMPDEST POP POP POP POP PUSH1 0x40 MLOAD RETURNDATASIZE PUSH1 0x1F NOT PUSH1 0x1F DUP3 ADD AND DUP3 ADD DUP1 PUSH1 0x40 MSTORE POP DUP2 ADD SWAP1 PUSH2 0x3A1F SWAP2 SWAP1 PUSH2 0x5A1C JUMP JUMPDEST JUMPDEST SWAP2 POP POP SWAP3 SWAP2 POP POP JUMP JUMPDEST PUSH0 DUP1 PUSH1 0x41 DUP4 MLOAD SUB PUSH2 0x3A66 JUMPI PUSH0 DUP1 PUSH0 PUSH1 0x20 DUP7 ADD MLOAD SWAP3 POP PUSH1 0x40 DUP7 ADD MLOAD SWAP2 POP PUSH1 0x60 DUP7 ADD MLOAD PUSH0 BYTE SWAP1 POP PUSH2 0x3A5A DUP8 DUP3 DUP6 DUP6 PUSH2 0x3BDA JUMP JUMPDEST SWAP5 POP SWAP5 POP POP POP POP PUSH2 0x3A6E JUMP JUMPDEST PUSH0 PUSH1 0x2 SWAP2 POP SWAP2 POP JUMPDEST SWAP3 POP SWAP3 SWAP1 POP JUMP JUMPDEST PUSH0 PUSH1 0x4 DUP2 GT ISZERO PUSH2 0x3A88 JUMPI PUSH2 0x3A87 PUSH2 0x466A JUMP JUMPDEST JUMPDEST DUP2 PUSH1 0x4 DUP2 GT ISZERO PUSH2 0x3A9B JUMPI PUSH2 0x3A9A PUSH2 0x466A JUMP JUMPDEST JUMPDEST SUB ISZERO PUSH2 0x3BD7 JUMPI PUSH1 0x1 PUSH1 0x4 DUP2 GT ISZERO PUSH2 0x3AB5 JUMPI PUSH2 0x3AB4 PUSH2 0x466A JUMP JUMPDEST JUMPDEST DUP2 PUSH1 0x4 DUP2 GT ISZERO PUSH2 0x3AC8 JUMPI PUSH2 0x3AC7 PUSH2 0x466A JUMP JUMPDEST JUMPDEST SUB PUSH2 0x3B08 JUMPI PUSH1 0x40 MLOAD PUSH32 0x8C379A000000000000000000000000000000000000000000000000000000000 DUP2 MSTORE PUSH1 0x4 ADD PUSH2 0x3AFF SWAP1 PUSH2 0x5A91 JUMP JUMPDEST PUSH1 0x40 MLOAD DUP1 SWAP2 SUB SWAP1 REVERT JUMPDEST PUSH1 0x2 PUSH1 0x4 DUP2 GT ISZERO PUSH2 0x3B1C JUMPI PUSH2 0x3B1B PUSH2 0x466A JUMP JUMPDEST JUMPDEST DUP2 PUSH1 0x4 DUP2 GT ISZERO PUSH2 0x3B2F JUMPI PUSH2 0x3B2E PUSH2 0x466A JUMP JUMPDEST JUMPDEST SUB PUSH2 0x3B6F JUMPI PUSH1 0x40 MLOAD PUSH32 0x8C379A000000000000000000000000000000000000000000000000000000000 DUP2 MSTORE PUSH1 0x4 ADD PUSH2 0x3B66 SWAP1 PUSH2 0x5AF9 JUMP JUMPDEST PUSH1 0x40 MLOAD DUP1 SWAP2 SUB SWAP1 REVERT JUMPDEST PUSH1 0x3 PUSH1 0x4 DUP2 GT ISZERO PUSH2 0x3B83 JUMPI PUSH2 0x3B82 PUSH2 0x466A JUMP JUMPDEST JUMPDEST DUP2 PUSH1 0x4 DUP2 GT ISZERO PUSH2 0x3B96 JUMPI PUSH2 0x3B95 PUSH2 0x466A JUMP JUMPDEST JUMPDEST SUB PUSH2 0x3BD6 JUMPI PUSH1 0x40 MLOAD PUSH32 0x8C379A000000000000000000000000000000000000000000000000000000000 DUP2 MSTORE PUSH1 0x4 ADD PUSH2 0x3BCD SWAP1 PUSH2 0x5B87 JUMP JUMPDEST PUSH1 0x40 MLOAD DUP1 SWAP2 SUB SWAP1 REVERT JUMPDEST JUMPDEST POP JUMP JUMPDEST PUSH0 DUP1 PUSH32 0x7FFFFFFFFFFFFFFFFFFFFFFFFFFFFFFF5D576E7357A4501DDFE92F46681B20A0 DUP4 PUSH0 SHR GT ISZERO PUSH2 0x3C12 JUMPI PUSH0 PUSH1 0x3 SWAP2 POP SWAP2 POP PUSH2 0x3CA9 JUMP JUMPDEST PUSH0 PUSH1 0x1 DUP8 DUP8 DUP8 DUP8 PUSH1 0x40 MLOAD PUSH0 DUP2 MSTORE PUSH1 0x20 ADD PUSH1 0x40 MSTORE PUSH1 0x40 MLOAD PUSH2 0x3C35 SWAP5 SWAP4 SWAP3 SWAP2 SWAP1 PUSH2 0x5BA5 JUMP JUMPDEST PUSH1 0x20 PUSH1 0x40 MLOAD PUSH1 0x20 DUP2 SUB SWAP1 DUP1 DUP5 SUB SWAP1 DUP6 GAS STATICCALL ISZERO DUP1 ISZERO PUSH2 0x3C55 JUMPI RETURNDATASIZE PUSH0 DUP1 RETURNDATACOPY RETURNDATASIZE PUSH0 REVERT JUMPDEST POP POP POP PUSH1 0x20 PUSH1 0x40 MLOAD SUB MLOAD SWAP1 POP PUSH0 PUSH20 0xFFFFFFFFFFFFFFFFFFFFFFFFFFFFFFFFFFFFFFFF AND DUP2 PUSH20 0xFFFFFFFFFFFFFFFFFFFFFFFFFFFFFFFFFFFFFFFF AND SUB PUSH2 0x3CA1 JUMPI PUSH0 PUSH1 0x1 SWAP3 POP SWAP3 POP POP PUSH2 0x3CA9 JUMP JUMPDEST DUP1 PUSH0 SWAP3 POP SWAP3 POP POP JUMPDEST SWAP5 POP SWAP5 SWAP3 POP POP POP JUMP JUMPDEST PUSH0 PUSH1 0x40 MLOAD SWAP1 POP SWAP1 JUMP JUMPDEST PUSH0 DUP1 REVERT JUMPDEST PUSH0 DUP1 REVERT JUMPDEST PUSH0 PUSH20 0xFFFFFFFFFFFFFFFFFFFFFFFFFFFFFFFFFFFFFFFF DUP3 AND SWAP1 POP SWAP2 SWAP1 POP JUMP JUMPDEST PUSH0 PUSH2 0x3CEC DUP3 PUSH2 0x3CC3 JUMP JUMPDEST SWAP1 POP SWAP2 SWAP1 POP JUMP JUMPDEST PUSH2 0x3CFC DUP2 PUSH2 0x3CE2 JUMP JUMPDEST DUP2 EQ PUSH2 0x3D06 JUMPI PUSH0 DUP1 REVERT JUMPDEST POP JUMP JUMPDEST PUSH0 DUP2 CALLDATALOAD SWAP1 POP PUSH2 0x3D17 DUP2 PUSH2 0x3CF3 JUMP JUMPDEST SWAP3 SWAP2 POP POP JUMP JUMPDEST PUSH0 PUSH1 0x20 DUP3 DUP5 SUB SLT ISZERO PUSH2 0x3D32 JUMPI PUSH2 0x3D31 PUSH2 0x3CBB JUMP JUMPDEST JUMPDEST PUSH0 PUSH2 0x3D3F DUP5 DUP3 DUP6 ADD PUSH2 0x3D09 JUMP JUMPDEST SWAP2 POP POP SWAP3 SWAP2 POP POP JUMP JUMPDEST PUSH0 DUP1 REVERT JUMPDEST PUSH0 PUSH2 0x180 DUP3 DUP5 SUB SLT ISZERO PUSH2 0x3D62 JUMPI PUSH2 0x3D61 PUSH2 0x3D48 JUMP JUMPDEST JUMPDEST DUP2 SWAP1 POP SWAP3 SWAP2 POP POP JUMP JUMPDEST PUSH0 DUP2 SWAP1 POP SWAP2 SWAP1 POP JUMP JUMPDEST PUSH2 0x3D7D DUP2 PUSH2 0x3D6B JUMP JUMPDEST DUP2 EQ PUSH2 0x3D87 JUMPI PUSH0 DUP1 REVERT JUMPDEST POP JUMP JUMPDEST PUSH0 DUP2 CALLDATALOAD SWAP1 POP PUSH2 0x3D98 DUP2 PUSH2 0x3D74 JUMP JUMPDEST SWAP3 SWAP2 POP POP JUMP JUMPDEST PUSH0 DUP1 PUSH2 0x1A0 DUP4 DUP6 SUB SLT ISZERO PUSH2 0x3DB5 JUMPI PUSH2 0x3DB4 PUSH2 0x3CBB JUMP JUMPDEST JUMPDEST PUSH0 PUSH2 0x3DC2 DUP6 DUP3 DUP7 ADD PUSH2 0x3D4C JUMP JUMPDEST SWAP3 POP POP PUSH2 0x180 PUSH2 0x3DD4 DUP6 DUP3 DUP7 ADD PUSH2 0x3D8A JUMP JUMPDEST SWAP2 POP POP SWAP3 POP SWAP3 SWAP1 POP JUMP JUMPDEST PUSH0 PUSH2 0x140 DUP3 DUP5 SUB SLT ISZERO PUSH2 0x3DF4 JUMPI PUSH2 0x3DF3 PUSH2 0x3D48 JUMP JUMPDEST JUMPDEST DUP2 SWAP1 POP SWAP3 SWAP2 POP POP JUMP JUMPDEST PUSH0 DUP1 REVERT JUMPDEST PUSH0 DUP1 REVERT JUMPDEST PUSH0 PUSH1 0x1F NOT PUSH1 0x1F DUP4 ADD AND SWAP1 POP SWAP2 SWAP1 POP JUMP JUMPDEST PUSH32 0x4E487B7100000000000000000000000000000000000000000000000000000000 PUSH0 MSTORE PUSH1 0x41 PUSH1 0x4 MSTORE PUSH1 0x24 PUSH0 REVERT JUMPDEST PUSH2 0x3E4B DUP3 PUSH2 0x3E05 JUMP JUMPDEST DUP2 ADD DUP2 DUP2 LT PUSH8 0xFFFFFFFFFFFFFFFF DUP3 GT OR ISZERO PUSH2 0x3E6A JUMPI PUSH2 0x3E69 PUSH2 0x3E15 JUMP JUMPDEST JUMPDEST DUP1 PUSH1 0x40 MSTORE POP POP POP JUMP JUMPDEST PUSH0 PUSH2 0x3E7C PUSH2 0x3CB2 JUMP JUMPDEST SWAP1 POP PUSH2 0x3E88 DUP3 DUP3 PUSH2 0x3E42 JUMP JUMPDEST SWAP2 SWAP1 POP JUMP JUMPDEST PUSH0 PUSH8 0xFFFFFFFFFFFFFFFF DUP3 GT ISZERO PUSH2 0x3EA7 JUMPI PUSH2 0x3EA6 PUSH2 0x3E15 JUMP JUMPDEST JUMPDEST PUSH2 0x3EB0 DUP3 PUSH2 0x3E05 JUMP JUMPDEST SWAP1 POP PUSH1 0x20 DUP2 ADD SWAP1 POP SWAP2 SWAP1 POP JUMP JUMPDEST DUP3 DUP2 DUP4 CALLDATACOPY PUSH0 DUP4 DUP4 ADD MSTORE POP POP POP JUMP JUMPDEST PUSH0 PUSH2 0x3EDD PUSH2 0x3ED8 DUP5 PUSH2 0x3E8D JUMP JUMPDEST PUSH2 0x3E73 JUMP JUMPDEST SWAP1 POP DUP3 DUP2 MSTORE PUSH1 0x20 DUP2 ADD DUP5 DUP5 DUP5 ADD GT ISZERO PUSH2 0x3EF9 JUMPI PUSH2 0x3EF8 PUSH2 0x3E01 JUMP JUMPDEST JUMPDEST PUSH2 0x3F04 DUP5 DUP3 DUP6 PUSH2 0x3EBD JUMP JUMPDEST POP SWAP4 SWAP3 POP POP POP JUMP JUMPDEST PUSH0 DUP3 PUSH1 0x1F DUP4 ADD SLT PUSH2 0x3F20 JUMPI PUSH2 0x3F1F PUSH2 0x3DFD JUMP JUMPDEST JUMPDEST DUP2 CALLDATALOAD PUSH2 0x3F30 DUP5 DUP3 PUSH1 0x20 DUP7 ADD PUSH2 0x3ECB JUMP JUMPDEST SWAP2 POP POP SWAP3 SWAP2 POP POP JUMP JUMPDEST PUSH0 DUP1 PUSH0 PUSH2 0x180 DUP5 DUP7 SUB SLT ISZERO PUSH2 0x3F51 JUMPI PUSH2 0x3F50 PUSH2 0x3CBB JUMP JUMPDEST JUMPDEST PUSH0 PUSH2 0x3F5E DUP7 DUP3 DUP8 ADD PUSH2 0x3DDE JUMP JUMPDEST SWAP4 POP POP PUSH2 0x140 PUSH2 0x3F70 DUP7 DUP3 DUP8 ADD PUSH2 0x3D8A JUMP JUMPDEST SWAP3 POP POP PUSH2 0x160 DUP5 ADD CALLDATALOAD PUSH8 0xFFFFFFFFFFFFFFFF DUP2 GT ISZERO PUSH2 0x3F92 JUMPI PUSH2 0x3F91 PUSH2 0x3CBF JUMP JUMPDEST JUMPDEST PUSH2 0x3F9E DUP7 DUP3 DUP8 ADD PUSH2 0x3F0C JUMP JUMPDEST SWAP2 POP POP SWAP3 POP SWAP3 POP SWAP3 JUMP JUMPDEST PUSH0 DUP1 PUSH2 0x1A0 DUP4 DUP6 SUB SLT ISZERO PUSH2 0x3FBF JUMPI PUSH2 0x3FBE PUSH2 0x3CBB JUMP JUMPDEST JUMPDEST PUSH0 PUSH2 0x3FCC DUP6 DUP3 DUP7 ADD PUSH2 0x3D4C JUMP JUMPDEST SWAP3 POP POP PUSH2 0x180 DUP4 ADD CALLDATALOAD PUSH8 0xFFFFFFFFFFFFFFFF DUP2 GT ISZERO PUSH2 0x3FEE JUMPI PUSH2 0x3FED PUSH2 0x3CBF JUMP JUMPDEST JUMPDEST PUSH2 0x3FFA DUP6 DUP3 DUP7 ADD PUSH2 0x3F0C JUMP JUMPDEST SWAP2 POP POP SWAP3 POP SWAP3 SWAP1 POP JUMP JUMPDEST PUSH0 DUP1 PUSH2 0x160 DUP4 DUP6 SUB SLT ISZERO PUSH2 0x401B JUMPI PUSH2 0x401A PUSH2 0x3CBB JUMP JUMPDEST JUMPDEST PUSH0 PUSH2 0x4028 DUP6 DUP3 DUP7 ADD PUSH2 0x3DDE JUMP JUMPDEST SWAP3 POP POP PUSH2 0x140 DUP4 ADD CALLDATALOAD PUSH8 0xFFFFFFFFFFFFFFFF DUP2 GT ISZERO PUSH2 0x404A JUMPI PUSH2 0x4049 PUSH2 0x3CBF JUMP JUMPDEST JUMPDEST PUSH2 0x4056 DUP6 DUP3 DUP7 ADD PUSH2 0x3F0C JUMP JUMPDEST SWAP2 POP POP SWAP3 POP SWAP3 SWAP1 POP JUMP JUMPDEST PUSH0 DUP2 SWAP1 POP SWAP2 SWAP1 POP JUMP JUMPDEST PUSH2 0x4072 DUP2 PUSH2 0x4060 JUMP JUMPDEST DUP2 EQ PUSH2 0x407C JUMPI PUSH0 DUP1 REVERT JUMPDEST POP JUMP JUMPDEST PUSH0 DUP2 CALLDATALOAD SWAP1 POP PUSH2 0x408D DUP2 PUSH2 0x4069 JUMP JUMPDEST SWAP3 SWAP2 POP POP JUMP JUMPDEST PUSH0 DUP1 PUSH1 0x40 DUP4 DUP6 SUB SLT ISZERO PUSH2 0x40A9 JUMPI PUSH2 0x40A8 PUSH2 0x3CBB JUMP JUMPDEST JUMPDEST PUSH0 PUSH2 0x40B6 DUP6 DUP3 DUP7 ADD PUSH2 0x3D09 JUMP JUMPDEST SWAP3 POP POP PUSH1 0x20 PUSH2 0x40C7 DUP6 DUP3 DUP7 ADD PUSH2 0x407F JUMP JUMPDEST SWAP2 POP POP SWAP3 POP SWAP3 SWAP1 POP JUMP JUMPDEST PUSH0 PUSH1 0xFF DUP3 AND SWAP1 POP SWAP2 SWAP1 POP JUMP JUMPDEST PUSH2 0x40E6 DUP2 PUSH2 0x40D1 JUMP JUMPDEST DUP2 EQ PUSH2 0x40F0 JUMPI PUSH0 DUP1 REVERT JUMPDEST POP JUMP JUMPDEST PUSH0 DUP2 CALLDATALOAD SWAP1 POP PUSH2 0x4101 DUP2 PUSH2 0x40DD JUMP JUMPDEST SWAP3 SWAP2 POP POP JUMP JUMPDEST PUSH0 DUP1 PUSH1 0x40 DUP4 DUP6 SUB SLT ISZERO PUSH2 0x411D JUMPI PUSH2 0x411C PUSH2 0x3CBB JUMP JUMPDEST JUMPDEST PUSH0 PUSH2 0x412A DUP6 DUP3 DUP7 ADD PUSH2 0x3D09 JUMP JUMPDEST SWAP3 POP POP PUSH1 0x20 PUSH2 0x413B DUP6 DUP3 DUP7 ADD PUSH2 0x40F3 JUMP JUMPDEST SWAP2 POP POP SWAP3 POP SWAP3 SWAP1 POP JUMP JUMPDEST PUSH2 0x414E DUP2 PUSH2 0x3CE2 JUMP JUMPDEST DUP3 MSTORE POP POP JUMP JUMPDEST PUSH0 PUSH1 0x20 DUP3 ADD SWAP1 POP PUSH2 0x4167 PUSH0 DUP4 ADD DUP5 PUSH2 0x4145 JUMP JUMPDEST SWAP3 SWAP2 POP POP JUMP JUMPDEST PUSH0 DUP1 PUSH0 PUSH2 0x1C0 DUP5 DUP7 SUB SLT ISZERO PUSH2 0x4185 JUMPI PUSH2 0x4184 PUSH2 0x3CBB JUMP JUMPDEST JUMPDEST PUSH0 PUSH2 0x4192 DUP7 DUP3 DUP8 ADD PUSH2 0x3D4C JUMP JUMPDEST SWAP4 POP POP PUSH2 0x180 PUSH2 0x41A4 DUP7 DUP3 DUP8 ADD PUSH2 0x3D8A JUMP JUMPDEST SWAP3 POP POP PUSH2 0x1A0 DUP5 ADD CALLDATALOAD PUSH8 0xFFFFFFFFFFFFFFFF DUP2 GT ISZERO PUSH2 0x41C6 JUMPI PUSH2 0x41C5 PUSH2 0x3CBF JUMP JUMPDEST JUMPDEST PUSH2 0x41D2 DUP7 DUP3 DUP8 ADD PUSH2 0x3F0C JUMP JUMPDEST SWAP2 POP POP SWAP3 POP SWAP3 POP SWAP3 JUMP JUMPDEST PUSH0 PUSH1 0x20 DUP3 DUP5 SUB SLT ISZERO PUSH2 0x41F1 JUMPI PUSH2 0x41F0 PUSH2 0x3CBB JUMP JUMPDEST JUMPDEST PUSH0 PUSH2 0x41FE DUP5 DUP3 DUP6 ADD PUSH2 0x3D8A JUMP JUMPDEST SWAP2 POP POP SWAP3 SWAP2 POP POP JUMP JUMPDEST PUSH2 0x4210 DUP2 PUSH2 0x4060 JUMP JUMPDEST DUP3 MSTORE POP POP JUMP JUMPDEST PUSH0 PUSH1 0x20 DUP3 ADD SWAP1 POP PUSH2 0x4229 PUSH0 DUP4 ADD DUP5 PUSH2 0x4207 JUMP JUMPDEST SWAP3 SWAP2 POP POP JUMP JUMPDEST PUSH0 DUP1 PUSH2 0x160 DUP4 DUP6 SUB SLT ISZERO PUSH2 0x4246 JUMPI PUSH2 0x4245 PUSH2 0x3CBB JUMP JUMPDEST JUMPDEST PUSH0 PUSH2 0x4253 DUP6 DUP3 DUP7 ADD PUSH2 0x3DDE JUMP JUMPDEST SWAP3 POP POP PUSH2 0x140 PUSH2 0x4265 DUP6 DUP3 DUP7 ADD PUSH2 0x3D8A JUMP JUMPDEST SWAP2 POP POP SWAP3 POP SWAP3 SWAP1 POP JUMP JUMPDEST PUSH2 0x4278 DUP2 PUSH2 0x40D1 JUMP JUMPDEST DUP3 MSTORE POP POP JUMP JUMPDEST PUSH0 PUSH1 0x20 DUP3 ADD SWAP1 POP PUSH2 0x4291 PUSH0 DUP4 ADD DUP5 PUSH2 0x426F JUMP JUMPDEST SWAP3 SWAP2 POP POP JUMP JUMPDEST PUSH0 DUP2 MLOAD SWAP1 POP SWAP2 SWAP1 POP JUMP JUMPDEST PUSH0 DUP3 DUP3 MSTORE PUSH1 0x20 DUP3 ADD SWAP1 POP SWAP3 SWAP2 POP POP JUMP JUMPDEST PUSH0 JUMPDEST DUP4 DUP2 LT ISZERO PUSH2 0x42CE JUMPI DUP1 DUP3 ADD MLOAD DUP2 DUP5 ADD MSTORE PUSH1 0x20 DUP2 ADD SWAP1 POP PUSH2 0x42B3 JUMP JUMPDEST PUSH0 DUP5 DUP5 ADD MSTORE POP POP POP POP JUMP JUMPDEST PUSH0 PUSH2 0x42E3 DUP3 PUSH2 0x4297 JUMP JUMPDEST PUSH2 0x42ED DUP2 DUP6 PUSH2 0x42A1 JUMP JUMPDEST SWAP4 POP PUSH2 0x42FD DUP2 DUP6 PUSH1 0x20 DUP7 ADD PUSH2 0x42B1 JUMP JUMPDEST PUSH2 0x4306 DUP2 PUSH2 0x3E05 JUMP JUMPDEST DUP5 ADD SWAP2 POP POP SWAP3 SWAP2 POP POP JUMP JUMPDEST PUSH0 PUSH1 0x20 DUP3 ADD SWAP1 POP DUP2 DUP2 SUB PUSH0 DUP4 ADD MSTORE PUSH2 0x4329 DUP2 DUP5 PUSH2 0x42D9 JUMP JUMPDEST SWAP1 POP SWAP3 SWAP2 POP POP JUMP JUMPDEST PUSH0 PUSH2 0x180 DUP3 DUP5 SUB SLT ISZERO PUSH2 0x4347 JUMPI PUSH2 0x4346 PUSH2 0x3CBB JUMP JUMPDEST JUMPDEST PUSH0 PUSH2 0x4354 DUP5 DUP3 DUP6 ADD PUSH2 0x3D4C JUMP JUMPDEST SWAP2 POP POP SWAP3 SWAP2 POP POP JUMP JUMPDEST PUSH2 0x4366 DUP2 PUSH2 0x3D6B JUMP JUMPDEST DUP3 MSTORE POP POP JUMP JUMPDEST PUSH0 PUSH1 0x20 DUP3 ADD SWAP1 POP PUSH2 0x437F PUSH0 DUP4 ADD DUP5 PUSH2 0x435D JUMP JUMPDEST SWAP3 SWAP2 POP POP JUMP JUMPDEST PUSH0 DUP2 SWAP1 POP SWAP2 SWAP1 POP JUMP JUMPDEST PUSH0 PUSH2 0x43A8 PUSH2 0x43A3 PUSH2 0x439E DUP5 PUSH2 0x3CC3 JUMP JUMPDEST PUSH2 0x4385 JUMP JUMPDEST PUSH2 0x3CC3 JUMP JUMPDEST SWAP1 POP SWAP2 SWAP1 POP JUMP JUMPDEST PUSH0 PUSH2 0x43B9 DUP3 PUSH2 0x438E JUMP JUMPDEST SWAP1 POP SWAP2 SWAP1 POP JUMP JUMPDEST PUSH0 PUSH2 0x43CA DUP3 PUSH2 0x43AF JUMP JUMPDEST SWAP1 POP SWAP2 SWAP1 POP JUMP JUMPDEST PUSH2 0x43DA DUP2 PUSH2 0x43C0 JUMP JUMPDEST DUP3 MSTORE POP POP JUMP JUMPDEST PUSH0 PUSH1 0x20 DUP3 ADD SWAP1 POP PUSH2 0x43F3 PUSH0 DUP4 ADD DUP5 PUSH2 0x43D1 JUMP JUMPDEST SWAP3 SWAP2 POP POP JUMP JUMPDEST PUSH0 DUP2 ISZERO ISZERO SWAP1 POP SWAP2 SWAP1 POP JUMP JUMPDEST PUSH2 0x440D DUP2 PUSH2 0x43F9 JUMP JUMPDEST DUP3 MSTORE POP POP JUMP JUMPDEST PUSH0 PUSH1 0x20 DUP3 ADD SWAP1 POP PUSH2 0x4426 PUSH0 DUP4 ADD DUP5 PUSH2 0x4404 JUMP JUMPDEST SWAP3 SWAP2 POP POP JUMP JUMPDEST PUSH0 PUSH2 0x140 DUP3 DUP5 SUB SLT ISZERO PUSH2 0x4442 JUMPI PUSH2 0x4441 PUSH2 0x3CBB JUMP JUMPDEST JUMPDEST PUSH0 PUSH2 0x444F DUP5 DUP3 DUP6 ADD PUSH2 0x3DDE JUMP JUMPDEST SWAP2 POP POP SWAP3 SWAP2 POP POP JUMP JUMPDEST PUSH32 0x4F6E6C792061646D696E2063616E20706572666F726D20746869732061637469 PUSH0 DUP3 ADD MSTORE PUSH32 0x6F6E000000000000000000000000000000000000000000000000000000000000 PUSH1 0x20 DUP3 ADD MSTORE POP JUMP JUMPDEST PUSH0 PUSH2 0x44B2 PUSH1 0x22 DUP4 PUSH2 0x42A1 JUMP JUMPDEST SWAP2 POP PUSH2 0x44BD DUP3 PUSH2 0x4458 JUMP JUMPDEST PUSH1 0x40 DUP3 ADD SWAP1 POP SWAP2 SWAP1 POP JUMP JUMPDEST PUSH0 PUSH1 0x20 DUP3 ADD SWAP1 POP DUP2 DUP2 SUB PUSH0 DUP4 ADD MSTORE PUSH2 0x44DF DUP2 PUSH2 0x44A6 JUMP JUMPDEST SWAP1 POP SWAP2 SWAP1 POP JUMP JUMPDEST PUSH32 0x496E76616C6964206E657720696D706C656D656E746174696F6E206164647265 PUSH0 DUP3 ADD MSTORE PUSH32 0x7373000000000000000000000000000000000000000000000000000000000000 PUSH1 0x20 DUP3 ADD MSTORE POP JUMP JUMPDEST PUSH0 PUSH2 0x4540 PUSH1 0x22 DUP4 PUSH2 0x42A1 JUMP JUMPDEST SWAP2 POP PUSH2 0x454B DUP3 PUSH2 0x44E6 JUMP JUMPDEST PUSH1 0x40 DUP3 ADD SWAP1 POP SWAP2 SWAP1 POP JUMP JUMPDEST PUSH0 PUSH1 0x20 DUP3 ADD SWAP1 POP DUP2 DUP2 SUB PUSH0 DUP4 ADD MSTORE PUSH2 0x456D DUP2 PUSH2 0x4534 JUMP JUMPDEST SWAP1 POP SWAP2 SWAP1 POP JUMP JUMPDEST PUSH32 0x4E657720696D706C656D656E746174696F6E2061646472657373206D75737420 PUSH0 DUP3 ADD MSTORE PUSH32 0x626520646966666572656E740000000000000000000000000000000000000000 PUSH1 0x20 DUP3 ADD MSTORE POP JUMP JUMPDEST PUSH0 PUSH2 0x45CE PUSH1 0x2C DUP4 PUSH2 0x42A1 JUMP JUMPDEST SWAP2 POP PUSH2 0x45D9 DUP3 PUSH2 0x4574 JUMP JUMPDEST PUSH1 0x40 DUP3 ADD SWAP1 POP SWAP2 SWAP1 POP JUMP JUMPDEST PUSH0 PUSH1 0x20 DUP3 ADD SWAP1 POP DUP2 DUP2 SUB PUSH0 DUP4 ADD MSTORE PUSH2 0x45FB DUP2 PUSH2 0x45C2 JUMP JUMPDEST SWAP1 POP SWAP2 SWAP1 POP JUMP JUMPDEST PUSH32 0x696E7365637572652063616C6C00000000000000000000000000000000000000 PUSH0 DUP3 ADD MSTORE POP JUMP JUMPDEST PUSH0 PUSH2 0x4636 PUSH1 0xD DUP4 PUSH2 0x42A1 JUMP JUMPDEST SWAP2 POP PUSH2 0x4641 DUP3 PUSH2 0x4602 JUMP JUMPDEST PUSH1 0x20 DUP3 ADD SWAP1 POP SWAP2 SWAP1 POP JUMP JUMPDEST PUSH0 PUSH1 0x20 DUP3 ADD SWAP1 POP DUP2 DUP2 SUB PUSH0 DUP4 ADD MSTORE PUSH2 0x4663 DUP2 PUSH2 0x462A JUMP JUMPDEST SWAP1 POP SWAP2 SWAP1 POP JUMP JUMPDEST PUSH32 0x4E487B7100000000000000000000000000000000000000000000000000000000 PUSH0 MSTORE PUSH1 0x21 PUSH1 0x4 MSTORE PUSH1 0x24 PUSH0 REVERT JUMPDEST PUSH1 0x6 DUP2 LT PUSH2 0x46A3 JUMPI PUSH0 DUP1 REVERT JUMPDEST POP JUMP JUMPDEST PUSH0 DUP2 CALLDATALOAD SWAP1 POP PUSH2 0x46B4 DUP2 PUSH2 0x4697 JUMP JUMPDEST SWAP3 SWAP2 POP POP JUMP JUMPDEST PUSH0 PUSH1 0x20 DUP3 DUP5 SUB SLT ISZERO PUSH2 0x46CF JUMPI PUSH2 0x46CE PUSH2 0x3CBB JUMP JUMPDEST JUMPDEST PUSH0 PUSH2 0x46DC DUP5 DUP3 DUP6 ADD PUSH2 0x46A6 JUMP JUMPDEST SWAP2 POP POP SWAP3 SWAP2 POP POP JUMP JUMPDEST PUSH32 0x506F6C617279732045786368616E67653A20746F6B656E20616C726561647920 PUSH0 DUP3 ADD MSTORE PUSH32 0x6F6E2073616C6500000000000000000000000000000000000000000000000000 PUSH1 0x20 DUP3 ADD MSTORE POP JUMP JUMPDEST PUSH0 PUSH2 0x473F PUSH1 0x27 DUP4 PUSH2 0x42A1 JUMP JUMPDEST SWAP2 POP PUSH2 0x474A DUP3 PUSH2 0x46E5 JUMP JUMPDEST PUSH1 0x40 DUP3 ADD SWAP1 POP SWAP2 SWAP1 POP JUMP JUMPDEST PUSH0 PUSH1 0x20 DUP3 ADD SWAP1 POP DUP2 DUP2 SUB PUSH0 DUP4 ADD MSTORE PUSH2 0x476C DUP2 PUSH2 0x4733 JUMP JUMPDEST SWAP1 POP SWAP2 SWAP1 POP JUMP JUMPDEST PUSH1 0x2 DUP2 LT PUSH2 0x477F JUMPI PUSH0 DUP1 REVERT JUMPDEST POP JUMP JUMPDEST PUSH0 DUP2 CALLDATALOAD SWAP1 POP PUSH2 0x4790 DUP2 PUSH2 0x4773 JUMP JUMPDEST SWAP3 SWAP2 POP POP JUMP JUMPDEST PUSH0 PUSH2 0x47A4 PUSH1 0x20 DUP5 ADD DUP5 PUSH2 0x4782 JUMP JUMPDEST SWAP1 POP SWAP3 SWAP2 POP POP JUMP JUMPDEST PUSH1 0x2 DUP2 LT PUSH2 0x47BD JUMPI PUSH2 0x47BC PUSH2 0x466A JUMP JUMPDEST JUMPDEST POP JUMP JUMPDEST PUSH0 DUP2 SWAP1 POP PUSH2 0x47CD DUP3 PUSH2 0x47AC JUMP JUMPDEST SWAP2 SWAP1 POP JUMP JUMPDEST PUSH0 PUSH2 0x47DC DUP3 PUSH2 0x47C0 JUMP JUMPDEST SWAP1 POP SWAP2 SWAP1 POP JUMP JUMPDEST PUSH2 0x47EC DUP2 PUSH2 0x47D2 JUMP JUMPDEST DUP3 MSTORE POP POP JUMP JUMPDEST PUSH0 PUSH2 0x4800 PUSH1 0x20 DUP5 ADD DUP5 PUSH2 0x46A6 JUMP JUMPDEST SWAP1 POP SWAP3 SWAP2 POP POP JUMP JUMPDEST PUSH1 0x6 DUP2 LT PUSH2 0x4819 JUMPI PUSH2 0x4818 PUSH2 0x466A JUMP JUMPDEST JUMPDEST POP JUMP JUMPDEST PUSH0 DUP2 SWAP1 POP PUSH2 0x4829 DUP3 PUSH2 0x4808 JUMP JUMPDEST SWAP2 SWAP1 POP JUMP JUMPDEST PUSH0 PUSH2 0x4838 DUP3 PUSH2 0x481C JUMP JUMPDEST SWAP1 POP SWAP2 SWAP1 POP JUMP JUMPDEST PUSH2 0x4848 DUP2 PUSH2 0x482E JUMP JUMPDEST DUP3 MSTORE POP POP JUMP JUMPDEST PUSH0 PUSH2 0x485C PUSH1 0x20 DUP5 ADD DUP5 PUSH2 0x3D09 JUMP JUMPDEST SWAP1 POP SWAP3 SWAP2 POP POP JUMP JUMPDEST PUSH2 0x486D DUP2 PUSH2 0x3CE2 JUMP JUMPDEST DUP3 MSTORE POP POP JUMP JUMPDEST PUSH0 PUSH2 0x4881 PUSH1 0x20 DUP5 ADD DUP5 PUSH2 0x407F JUMP JUMPDEST SWAP1 POP SWAP3 SWAP2 POP POP JUMP JUMPDEST PUSH2 0x4892 DUP2 PUSH2 0x4060 JUMP JUMPDEST DUP3 MSTORE POP POP JUMP JUMPDEST PUSH2 0x180 DUP3 ADD PUSH2 0x48A9 PUSH0 DUP4 ADD DUP4 PUSH2 0x4796 JUMP JUMPDEST PUSH2 0x48B5 PUSH0 DUP6 ADD DUP3 PUSH2 0x47E3 JUMP JUMPDEST POP PUSH2 0x48C3 PUSH1 0x20 DUP4 ADD DUP4 PUSH2 0x47F2 JUMP JUMPDEST PUSH2 0x48D0 PUSH1 0x20 DUP6 ADD DUP3 PUSH2 0x483F JUMP JUMPDEST POP PUSH2 0x48DE PUSH1 0x40 DUP4 ADD DUP4 PUSH2 0x484E JUMP JUMPDEST PUSH2 0x48EB PUSH1 0x40 DUP6 ADD DUP3 PUSH2 0x4864 JUMP JUMPDEST POP PUSH2 0x48F9 PUSH1 0x60 DUP4 ADD DUP4 PUSH2 0x484E JUMP JUMPDEST PUSH2 0x4906 PUSH1 0x60 DUP6 ADD DUP3 PUSH2 0x4864 JUMP JUMPDEST POP PUSH2 0x4914 PUSH1 0x80 DUP4 ADD DUP4 PUSH2 0x484E JUMP JUMPDEST PUSH2 0x4921 PUSH1 0x80 DUP6 ADD DUP3 PUSH2 0x4864 JUMP JUMPDEST POP PUSH2 0x492F PUSH1 0xA0 DUP4 ADD DUP4 PUSH2 0x484E JUMP JUMPDEST PUSH2 0x493C PUSH1 0xA0 DUP6 ADD DUP3 PUSH2 0x4864 JUMP JUMPDEST POP PUSH2 0x494A PUSH1 0xC0 DUP4 ADD DUP4 PUSH2 0x4873 JUMP JUMPDEST PUSH2 0x4957 PUSH1 0xC0 DUP6 ADD DUP3 PUSH2 0x4889 JUMP JUMPDEST POP PUSH2 0x4965 PUSH1 0xE0 DUP4 ADD DUP4 PUSH2 0x4873 JUMP JUMPDEST PUSH2 0x4972 PUSH1 0xE0 DUP6 ADD DUP3 PUSH2 0x4889 JUMP JUMPDEST POP PUSH2 0x4981 PUSH2 0x100 DUP4 ADD DUP4 PUSH2 0x4873 JUMP JUMPDEST PUSH2 0x498F PUSH2 0x100 DUP6 ADD DUP3 PUSH2 0x4889 JUMP JUMPDEST POP PUSH2 0x499E PUSH2 0x120 DUP4 ADD DUP4 PUSH2 0x4873 JUMP JUMPDEST PUSH2 0x49AC PUSH2 0x120 DUP6 ADD DUP3 PUSH2 0x4889 JUMP JUMPDEST POP PUSH2 0x49BB PUSH2 0x140 DUP4 ADD DUP4 PUSH2 0x4873 JUMP JUMPDEST PUSH2 0x49C9 PUSH2 0x140 DUP6 ADD DUP3 PUSH2 0x4889 JUMP JUMPDEST POP PUSH2 0x49D8 PUSH2 0x160 DUP4 ADD DUP4 PUSH2 0x4873 JUMP JUMPDEST PUSH2 0x49E6 PUSH2 0x160 DUP6 ADD DUP3 PUSH2 0x4889 JUMP JUMPDEST POP POP POP POP JUMP JUMPDEST PUSH0 PUSH2 0x1E0 DUP3 ADD SWAP1 POP PUSH2 0x4A00 PUSH0 DUP4 ADD DUP8 PUSH2 0x4145 JUMP JUMPDEST PUSH2 0x4A0D PUSH1 0x20 DUP4 ADD DUP7 PUSH2 0x4145 JUMP JUMPDEST PUSH2 0x4A1A PUSH1 0x40 DUP4 ADD DUP6 PUSH2 0x435D JUMP JUMPDEST PUSH2 0x4A27 PUSH1 0x60 DUP4 ADD DUP5 PUSH2 0x4898 JUMP JUMPDEST SWAP6 SWAP5 POP POP POP POP POP JUMP JUMPDEST PUSH32 0x506F6C617279732045786368616E67653A2041756374696F6E20686173206E6F PUSH0 DUP3 ADD MSTORE PUSH32 0x7420656E646564206F7220696E76616C69642063616C6C657200000000000000 PUSH1 0x20 DUP3 ADD MSTORE POP JUMP JUMPDEST PUSH0 PUSH2 0x4A8A PUSH1 0x39 DUP4 PUSH2 0x42A1 JUMP JUMPDEST SWAP2 POP PUSH2 0x4A95 DUP3 PUSH2 0x4A30 JUMP JUMPDEST PUSH1 0x40 DUP3 ADD SWAP1 POP SWAP2 SWAP1 POP JUMP JUMPDEST PUSH0 PUSH1 0x20 DUP3 ADD SWAP1 POP DUP2 DUP2 SUB PUSH0 DUP4 ADD MSTORE PUSH2 0x4AB7 DUP2 PUSH2 0x4A7E JUMP JUMPDEST SWAP1 POP SWAP2 SWAP1 POP JUMP JUMPDEST PUSH0 PUSH1 0x20 DUP3 DUP5 SUB SLT ISZERO PUSH2 0x4AD3 JUMPI PUSH2 0x4AD2 PUSH2 0x3CBB JUMP JUMPDEST JUMPDEST PUSH0 PUSH2 0x4AE0 DUP5 DUP3 DUP6 ADD PUSH2 0x4782 JUMP JUMPDEST SWAP2 POP POP SWAP3 SWAP2 POP POP JUMP JUMPDEST PUSH0 PUSH1 0x80 DUP3 ADD SWAP1 POP PUSH2 0x4AFC PUSH0 DUP4 ADD DUP8 PUSH2 0x4145 JUMP JUMPDEST PUSH2 0x4B09 PUSH1 0x20 DUP4 ADD DUP7 PUSH2 0x4145 JUMP JUMPDEST PUSH2 0x4B16 PUSH1 0x40 DUP4 ADD DUP6 PUSH2 0x4207 JUMP JUMPDEST PUSH2 0x4B23 PUSH1 0x60 DUP4 ADD DUP5 PUSH2 0x435D JUMP JUMPDEST SWAP6 SWAP5 POP POP POP POP POP JUMP JUMPDEST PUSH32 0x506F6C617279732045786368616E67653A2041756374696F6E20686173207374 PUSH0 DUP3 ADD MSTORE PUSH32 0x6172746564000000000000000000000000000000000000000000000000000000 PUSH1 0x20 DUP3 ADD MSTORE POP JUMP JUMPDEST PUSH0 PUSH2 0x4B86 PUSH1 0x25 DUP4 PUSH2 0x42A1 JUMP JUMPDEST SWAP2 POP PUSH2 0x4B91 DUP3 PUSH2 0x4B2C JUMP JUMPDEST PUSH1 0x40 DUP3 ADD SWAP1 POP SWAP2 SWAP1 POP JUMP JUMPDEST PUSH0 PUSH1 0x20 DUP3 ADD SWAP1 POP DUP2 DUP2 SUB PUSH0 DUP4 ADD MSTORE PUSH2 0x4BB3 DUP2 PUSH2 0x4B7A JUMP JUMPDEST SWAP1 POP SWAP2 SWAP1 POP JUMP JUMPDEST PUSH32 0x506F6C617279732045786368616E67653A204D696E696D756D20726571756972 PUSH0 DUP3 ADD MSTORE PUSH32 0x6564203225206D6F7265207468616E2063757272656E74204269640000000000 PUSH1 0x20 DUP3 ADD MSTORE POP JUMP JUMPDEST PUSH0 PUSH2 0x4C14 PUSH1 0x3B DUP4 PUSH2 0x42A1 JUMP JUMPDEST SWAP2 POP PUSH2 0x4C1F DUP3 PUSH2 0x4BBA JUMP JUMPDEST PUSH1 0x40 DUP3 ADD SWAP1 POP SWAP2 SWAP1 POP JUMP JUMPDEST PUSH0 PUSH1 0x20 DUP3 ADD SWAP1 POP DUP2 DUP2 SUB PUSH0 DUP4 ADD MSTORE PUSH2 0x4C41 DUP2 PUSH2 0x4C08 JUMP JUMPDEST SWAP1 POP SWAP2 SWAP1 POP JUMP JUMPDEST PUSH0 PUSH1 0x60 DUP3 ADD SWAP1 POP PUSH2 0x4C5B PUSH0 DUP4 ADD DUP7 PUSH2 0x4145 JUMP JUMPDEST PUSH2 0x4C68 PUSH1 0x20 DUP4 ADD DUP6 PUSH2 0x4145 JUMP JUMPDEST PUSH2 0x4C75 PUSH1 0x40 DUP4 ADD DUP5 PUSH2 0x4207 JUMP JUMPDEST SWAP5 SWAP4 POP POP POP POP JUMP JUMPDEST PUSH0 PUSH1 0x80 DUP3 ADD SWAP1 POP PUSH2 0x4C90 PUSH0 DUP4 ADD DUP8 PUSH2 0x4145 JUMP JUMPDEST PUSH2 0x4C9D PUSH1 0x20 DUP4 ADD DUP7 PUSH2 0x4145 JUMP JUMPDEST PUSH2 0x4CAA PUSH1 0x40 DUP4 ADD DUP6 PUSH2 0x4145 JUMP JUMPDEST PUSH2 0x4CB7 PUSH1 0x60 DUP4 ADD DUP5 PUSH2 0x4207 JUMP JUMPDEST SWAP6 SWAP5 POP POP POP POP POP JUMP JUMPDEST PUSH0 PUSH1 0x80 DUP3 ADD SWAP1 POP PUSH2 0x4CD3 PUSH0 DUP4 ADD DUP8 PUSH2 0x4145 JUMP JUMPDEST PUSH2 0x4CE0 PUSH1 0x20 DUP4 ADD DUP7 PUSH2 0x4207 JUMP JUMPDEST PUSH2 0x4CED PUSH1 0x40 DUP4 ADD DUP6 PUSH2 0x4145 JUMP JUMPDEST PUSH2 0x4CFA PUSH1 0x60 DUP4 ADD DUP5 PUSH2 0x435D JUMP JUMPDEST SWAP6 SWAP5 POP POP POP POP POP JUMP JUMPDEST PUSH32 0x506F6C617279732045786368616E67653A20496E76616C6964207369676E6174 PUSH0 DUP3 ADD MSTORE PUSH32 0x75726520666F72206F7264657220657865637574696F6E000000000000000000 PUSH1 0x20 DUP3 ADD MSTORE POP JUMP JUMPDEST PUSH0 PUSH2 0x4D5D PUSH1 0x37 DUP4 PUSH2 0x42A1 JUMP JUMPDEST SWAP2 POP PUSH2 0x4D68 DUP3 PUSH2 0x4D03 JUMP JUMPDEST PUSH1 0x40 DUP3 ADD SWAP1 POP SWAP2 SWAP1 POP JUMP JUMPDEST PUSH0 PUSH1 0x20 DUP3 ADD SWAP1 POP DUP2 DUP2 SUB PUSH0 DUP4 ADD MSTORE PUSH2 0x4D8A DUP2 PUSH2 0x4D51 JUMP JUMPDEST SWAP1 POP SWAP2 SWAP1 POP JUMP JUMPDEST PUSH32 0x506F6C617279732045786368616E67653A20496E76616C6964206F7264657220 PUSH0 DUP3 ADD MSTORE PUSH32 0x706172656D657465727300000000000000000000000000000000000000000000 PUSH1 0x20 DUP3 ADD MSTORE POP JUMP JUMPDEST PUSH0 PUSH2 0x4DEB PUSH1 0x2A DUP4 PUSH2 0x42A1 JUMP JUMPDEST SWAP2 POP PUSH2 0x4DF6 DUP3 PUSH2 0x4D91 JUMP JUMPDEST PUSH1 0x40 DUP3 ADD SWAP1 POP SWAP2 SWAP1 POP JUMP JUMPDEST PUSH0 PUSH1 0x20 DUP3 ADD SWAP1 POP DUP2 DUP2 SUB PUSH0 DUP4 ADD MSTORE PUSH2 0x4E18 DUP2 PUSH2 0x4DDF JUMP JUMPDEST SWAP1 POP SWAP2 SWAP1 POP JUMP JUMPDEST PUSH32 0x506F6C617279732045786368616E67653A20596F7520617265206E6F74207468 PUSH0 DUP3 ADD MSTORE PUSH32 0x65206F776E6572206F7220746F6B656E206E6F7420617070726F766564000000 PUSH1 0x20 DUP3 ADD MSTORE POP JUMP JUMPDEST PUSH0 PUSH2 0x4E79 PUSH1 0x3D DUP4 PUSH2 0x42A1 JUMP JUMPDEST SWAP2 POP PUSH2 0x4E84 DUP3 PUSH2 0x4E1F JUMP JUMPDEST PUSH1 0x40 DUP3 ADD SWAP1 POP SWAP2 SWAP1 POP JUMP JUMPDEST PUSH0 PUSH1 0x20 DUP3 ADD SWAP1 POP DUP2 DUP2 SUB PUSH0 DUP4 ADD MSTORE PUSH2 0x4EA6 DUP2 PUSH2 0x4E6D JUMP JUMPDEST SWAP1 POP SWAP2 SWAP1 POP JUMP JUMPDEST PUSH32 0x506F6C617279732045786368616E67653A20496E76616C696420455243323000 PUSH0 DUP3 ADD MSTORE POP JUMP JUMPDEST PUSH0 PUSH2 0x4EE1 PUSH1 0x1F DUP4 PUSH2 0x42A1 JUMP JUMPDEST SWAP2 POP PUSH2 0x4EEC DUP3 PUSH2 0x4EAD JUMP JUMPDEST PUSH1 0x20 DUP3 ADD SWAP1 POP SWAP2 SWAP1 POP JUMP JUMPDEST PUSH0 PUSH1 0x20 DUP3 ADD SWAP1 POP DUP2 DUP2 SUB PUSH0 DUP4 ADD MSTORE PUSH2 0x4F0E DUP2 PUSH2 0x4ED5 JUMP JUMPDEST SWAP1 POP SWAP2 SWAP1 POP JUMP JUMPDEST PUSH0 DUP1 REVERT JUMPDEST PUSH0 PUSH2 0x180 DUP3 DUP5 SUB SLT ISZERO PUSH2 0x4F2F JUMPI PUSH2 0x4F2E PUSH2 0x4F15 JUMP JUMPDEST JUMPDEST PUSH2 0x4F3A PUSH2 0x180 PUSH2 0x3E73 JUMP JUMPDEST SWAP1 POP PUSH0 PUSH2 0x4F49 DUP5 DUP3 DUP6 ADD PUSH2 0x4782 JUMP JUMPDEST PUSH0 DUP4 ADD MSTORE POP PUSH1 0x20 PUSH2 0x4F5C DUP5 DUP3 DUP6 ADD PUSH2 0x46A6 JUMP JUMPDEST PUSH1 0x20 DUP4 ADD MSTORE POP PUSH1 0x40 PUSH2 0x4F70 DUP5 DUP3 DUP6 ADD PUSH2 0x3D09 JUMP JUMPDEST PUSH1 0x40 DUP4 ADD MSTORE POP PUSH1 0x60 PUSH2 0x4F84 DUP5 DUP3 DUP6 ADD PUSH2 0x3D09 JUMP JUMPDEST PUSH1 0x60 DUP4 ADD MSTORE POP PUSH1 0x80 PUSH2 0x4F98 DUP5 DUP3 DUP6 ADD PUSH2 0x3D09 JUMP JUMPDEST PUSH1 0x80 DUP4 ADD MSTORE POP PUSH1 0xA0 PUSH2 0x4FAC DUP5 DUP3 DUP6 ADD PUSH2 0x3D09 JUMP JUMPDEST PUSH1 0xA0 DUP4 ADD MSTORE POP PUSH1 0xC0 PUSH2 0x4FC0 DUP5 DUP3 DUP6 ADD PUSH2 0x407F JUMP JUMPDEST PUSH1 0xC0 DUP4 ADD MSTORE POP PUSH1 0xE0 PUSH2 0x4FD4 DUP5 DUP3 DUP6 ADD PUSH2 0x407F JUMP JUMPDEST PUSH1 0xE0 DUP4 ADD MSTORE POP PUSH2 0x100 PUSH2 0x4FE9 DUP5 DUP3 DUP6 ADD PUSH2 0x407F JUMP JUMPDEST PUSH2 0x100 DUP4 ADD MSTORE POP PUSH2 0x120 PUSH2 0x4FFF DUP5 DUP3 DUP6 ADD PUSH2 0x407F JUMP JUMPDEST PUSH2 0x120 DUP4 ADD MSTORE POP PUSH2 0x140 PUSH2 0x5015 DUP5 DUP3 DUP6 ADD PUSH2 0x407F JUMP JUMPDEST PUSH2 0x140 DUP4 ADD MSTORE POP PUSH2 0x160 PUSH2 0x502B DUP5 DUP3 DUP6 ADD PUSH2 0x407F JUMP JUMPDEST PUSH2 0x160 DUP4 ADD MSTORE POP SWAP3 SWAP2 POP POP JUMP JUMPDEST PUSH0 PUSH2 0x180 DUP3 DUP5 SUB SLT ISZERO PUSH2 0x504E JUMPI PUSH2 0x504D PUSH2 0x3CBB JUMP JUMPDEST JUMPDEST PUSH0 PUSH2 0x505B DUP5 DUP3 DUP6 ADD PUSH2 0x4F19 JUMP JUMPDEST SWAP2 POP POP SWAP3 SWAP2 POP POP JUMP JUMPDEST PUSH32 0x506F6C617279732045786368616E67653A204F726465722063616E63656C6564 PUSH0 DUP3 ADD MSTORE PUSH32 0x206F722066696C6C656400000000000000000000000000000000000000000000 PUSH1 0x20 DUP3 ADD MSTORE POP JUMP JUMPDEST PUSH0 PUSH2 0x50BE PUSH1 0x2A DUP4 PUSH2 0x42A1 JUMP JUMPDEST SWAP2 POP PUSH2 0x50C9 DUP3 PUSH2 0x5064 JUMP JUMPDEST PUSH1 0x40 DUP3 ADD SWAP1 POP SWAP2 SWAP1 POP JUMP JUMPDEST PUSH0 PUSH1 0x20 DUP3 ADD SWAP1 POP DUP2 DUP2 SUB PUSH0 DUP4 ADD MSTORE PUSH2 0x50EB DUP2 PUSH2 0x50B2 JUMP JUMPDEST SWAP1 POP SWAP2 SWAP1 POP JUMP JUMPDEST PUSH32 0x506F6C617279732045786368616E67653A2041756374696F6E20657870697265 PUSH0 DUP3 ADD MSTORE PUSH32 0x6400000000000000000000000000000000000000000000000000000000000000 PUSH1 0x20 DUP3 ADD MSTORE POP JUMP JUMPDEST PUSH0 PUSH2 0x514C PUSH1 0x21 DUP4 PUSH2 0x42A1 JUMP JUMPDEST SWAP2 POP PUSH2 0x5157 DUP3 PUSH2 0x50F2 JUMP JUMPDEST PUSH1 0x40 DUP3 ADD SWAP1 POP SWAP2 SWAP1 POP JUMP JUMPDEST PUSH0 PUSH1 0x20 DUP3 ADD SWAP1 POP DUP2 DUP2 SUB PUSH0 DUP4 ADD MSTORE PUSH2 0x5179 DUP2 PUSH2 0x5140 JUMP JUMPDEST SWAP1 POP SWAP2 SWAP1 POP JUMP JUMPDEST PUSH32 0x506F6C617279732045786368616E67653A204D696E696D756D20726571756972 PUSH0 DUP3 ADD MSTORE PUSH32 0x6564203225206D6F7265207468616E2063757272656E74206869676865737420 PUSH1 0x20 DUP3 ADD MSTORE PUSH32 0x6269640000000000000000000000000000000000000000000000000000000000 PUSH1 0x40 DUP3 ADD MSTORE POP JUMP JUMPDEST PUSH0 PUSH2 0x5200 PUSH1 0x43 DUP4 PUSH2 0x42A1 JUMP JUMPDEST SWAP2 POP PUSH2 0x520B DUP3 PUSH2 0x5180 JUMP JUMPDEST PUSH1 0x60 DUP3 ADD SWAP1 POP SWAP2 SWAP1 POP JUMP JUMPDEST PUSH0 PUSH1 0x20 DUP3 ADD SWAP1 POP DUP2 DUP2 SUB PUSH0 DUP4 ADD MSTORE PUSH2 0x522D DUP2 PUSH2 0x51F4 JUMP JUMPDEST SWAP1 POP SWAP2 SWAP1 POP JUMP JUMPDEST PUSH32 0x506F6C617279732045786368616E67653A20496E76616C6964207061796D656E PUSH0 DUP3 ADD MSTORE PUSH32 0x7420746F6B656E00000000000000000000000000000000000000000000000000 PUSH1 0x20 DUP3 ADD MSTORE POP JUMP JUMPDEST PUSH0 PUSH2 0x528E PUSH1 0x27 DUP4 PUSH2 0x42A1 JUMP JUMPDEST SWAP2 POP PUSH2 0x5299 DUP3 PUSH2 0x5234 JUMP JUMPDEST PUSH1 0x40 DUP3 ADD SWAP1 POP SWAP2 SWAP1 POP JUMP JUMPDEST PUSH0 PUSH1 0x20 DUP3 ADD SWAP1 POP DUP2 DUP2 SUB PUSH0 DUP4 ADD MSTORE PUSH2 0x52BB DUP2 PUSH2 0x5282 JUMP JUMPDEST SWAP1 POP SWAP2 SWAP1 POP JUMP JUMPDEST PUSH32 0x506F6C617279732045786368616E67653A20496E76616C6964206F7264657220 PUSH0 DUP3 ADD MSTORE PUSH32 0x706172616D657465727300000000000000000000000000000000000000000000 PUSH1 0x20 DUP3 ADD MSTORE POP JUMP JUMPDEST PUSH0 PUSH2 0x531C PUSH1 0x2A DUP4 PUSH2 0x42A1 JUMP JUMPDEST SWAP2 POP PUSH2 0x5327 DUP3 PUSH2 0x52C2 JUMP JUMPDEST PUSH1 0x40 DUP3 ADD SWAP1 POP SWAP2 SWAP1 POP JUMP JUMPDEST PUSH0 PUSH1 0x20 DUP3 ADD SWAP1 POP DUP2 DUP2 SUB PUSH0 DUP4 ADD MSTORE PUSH2 0x5349 DUP2 PUSH2 0x5310 JUMP JUMPDEST SWAP1 POP SWAP2 SWAP1 POP JUMP JUMPDEST PUSH2 0x140 DUP3 ADD PUSH2 0x5361 PUSH0 DUP4 ADD DUP4 PUSH2 0x4796 JUMP JUMPDEST PUSH2 0x536D PUSH0 DUP6 ADD DUP3 PUSH2 0x47E3 JUMP JUMPDEST POP PUSH2 0x537B PUSH1 0x20 DUP4 ADD DUP4 PUSH2 0x47F2 JUMP JUMPDEST PUSH2 0x5388 PUSH1 0x20 DUP6 ADD DUP3 PUSH2 0x483F JUMP JUMPDEST POP PUSH2 0x5396 PUSH1 0x40 DUP4 ADD DUP4 PUSH2 0x484E JUMP JUMPDEST PUSH2 0x53A3 PUSH1 0x40 DUP6 ADD DUP3 PUSH2 0x4864 JUMP JUMPDEST POP PUSH2 0x53B1 PUSH1 0x60 DUP4 ADD DUP4 PUSH2 0x484E JUMP JUMPDEST PUSH2 0x53BE PUSH1 0x60 DUP6 ADD DUP3 PUSH2 0x4864 JUMP JUMPDEST POP PUSH2 0x53CC PUSH1 0x80 DUP4 ADD DUP4 PUSH2 0x484E JUMP JUMPDEST PUSH2 0x53D9 PUSH1 0x80 DUP6 ADD DUP3 PUSH2 0x4864 JUMP JUMPDEST POP PUSH2 0x53E7 PUSH1 0xA0 DUP4 ADD DUP4 PUSH2 0x484E JUMP JUMPDEST PUSH2 0x53F4 PUSH1 0xA0 DUP6 ADD DUP3 PUSH2 0x4864 JUMP JUMPDEST POP PUSH2 0x5402 PUSH1 0xC0 DUP4 ADD DUP4 PUSH2 0x4873 JUMP JUMPDEST PUSH2 0x540F PUSH1 0xC0 DUP6 ADD DUP3 PUSH2 0x4889 JUMP JUMPDEST POP PUSH2 0x541D PUSH1 0xE0 DUP4 ADD DUP4 PUSH2 0x4873 JUMP JUMPDEST PUSH2 0x542A PUSH1 0xE0 DUP6 ADD DUP3 PUSH2 0x4889 JUMP JUMPDEST POP PUSH2 0x5439 PUSH2 0x100 DUP4 ADD DUP4 PUSH2 0x4873 JUMP JUMPDEST PUSH2 0x5447 PUSH2 0x100 DUP6 ADD DUP3 PUSH2 0x4889 JUMP JUMPDEST POP PUSH2 0x5456 PUSH2 0x120 DUP4 ADD DUP4 PUSH2 0x4873 JUMP JUMPDEST PUSH2 0x5464 PUSH2 0x120 DUP6 ADD DUP3 PUSH2 0x4889 JUMP JUMPDEST POP POP POP POP JUMP JUMPDEST PUSH0 PUSH2 0x1A0 DUP3 ADD SWAP1 POP PUSH2 0x547E PUSH0 DUP4 ADD DUP8 PUSH2 0x4145 JUMP JUMPDEST PUSH2 0x548B PUSH1 0x20 DUP4 ADD DUP7 PUSH2 0x4145 JUMP JUMPDEST PUSH2 0x5498 PUSH1 0x40 DUP4 ADD DUP6 PUSH2 0x435D JUMP JUMPDEST PUSH2 0x54A5 PUSH1 0x60 DUP4 ADD DUP5 PUSH2 0x5350 JUMP JUMPDEST SWAP6 SWAP5 POP POP POP POP POP JUMP JUMPDEST PUSH0 PUSH2 0x180 DUP3 ADD SWAP1 POP PUSH2 0x54C2 PUSH0 DUP4 ADD DUP5 PUSH2 0x4898 JUMP JUMPDEST SWAP3 SWAP2 POP POP JUMP JUMPDEST PUSH32 0x506F6C617279732045786368616E67653A20496E76616C6964207369676E6174 PUSH0 DUP3 ADD MSTORE PUSH32 0x75726520666F722061756374696F6E20657865637574696F6E00000000000000 PUSH1 0x20 DUP3 ADD MSTORE POP JUMP JUMPDEST PUSH0 PUSH2 0x5522 PUSH1 0x39 DUP4 PUSH2 0x42A1 JUMP JUMPDEST SWAP2 POP PUSH2 0x552D DUP3 PUSH2 0x54C8 JUMP JUMPDEST PUSH1 0x40 DUP3 ADD SWAP1 POP SWAP2 SWAP1 POP JUMP JUMPDEST PUSH0 PUSH1 0x20 DUP3 ADD SWAP1 POP DUP2 DUP2 SUB PUSH0 DUP4 ADD MSTORE PUSH2 0x554F DUP2 PUSH2 0x5516 JUMP JUMPDEST SWAP1 POP SWAP2 SWAP1 POP JUMP JUMPDEST PUSH32 0x506F6C617279732045786368616E67653A20496E76616C69642061756374696F PUSH0 DUP3 ADD MSTORE PUSH32 0x6E20706172616D65746572730000000000000000000000000000000000000000 PUSH1 0x20 DUP3 ADD MSTORE POP JUMP JUMPDEST PUSH0 PUSH2 0x55B0 PUSH1 0x2C DUP4 PUSH2 0x42A1 JUMP JUMPDEST SWAP2 POP PUSH2 0x55BB DUP3 PUSH2 0x5556 JUMP JUMPDEST PUSH1 0x40 DUP3 ADD SWAP1 POP SWAP2 SWAP1 POP JUMP JUMPDEST PUSH0 PUSH1 0x20 DUP3 ADD SWAP1 POP DUP2 DUP2 SUB PUSH0 DUP4 ADD MSTORE PUSH2 0x55DD DUP2 PUSH2 0x55A4 JUMP JUMPDEST SWAP1 POP SWAP2 SWAP1 POP JUMP JUMPDEST PUSH0 PUSH2 0x140 DUP3 ADD SWAP1 POP PUSH2 0x55F8 PUSH0 DUP4 ADD DUP5 PUSH2 0x5350 JUMP JUMPDEST SWAP3 SWAP2 POP POP JUMP JUMPDEST PUSH0 PUSH1 0xA0 DUP3 ADD SWAP1 POP PUSH2 0x5611 PUSH0 DUP4 ADD DUP9 PUSH2 0x4145 JUMP JUMPDEST PUSH2 0x561E PUSH1 0x20 DUP4 ADD DUP8 PUSH2 0x4145 JUMP JUMPDEST PUSH2 0x562B PUSH1 0x40 DUP4 ADD DUP7 PUSH2 0x4145 JUMP JUMPDEST PUSH2 0x5638 PUSH1 0x60 DUP4 ADD DUP6 PUSH2 0x4207 JUMP JUMPDEST PUSH2 0x5645 PUSH1 0x80 DUP4 ADD DUP5 PUSH2 0x4207 JUMP JUMPDEST SWAP7 SWAP6 POP POP POP POP POP POP JUMP JUMPDEST PUSH32 0x4E487B7100000000000000000000000000000000000000000000000000000000 PUSH0 MSTORE PUSH1 0x11 PUSH1 0x4 MSTORE PUSH1 0x24 PUSH0 REVERT JUMPDEST PUSH0 PUSH2 0x5686 DUP3 PUSH2 0x4060 JUMP JUMPDEST SWAP2 POP PUSH32 0xFFFFFFFFFFFFFFFFFFFFFFFFFFFFFFFFFFFFFFFFFFFFFFFFFFFFFFFFFFFFFFFF DUP3 SUB PUSH2 0x56B8 JUMPI PUSH2 0x56B7 PUSH2 0x564F JUMP JUMPDEST JUMPDEST PUSH1 0x1 DUP3 ADD SWAP1 POP SWAP2 SWAP1 POP JUMP JUMPDEST PUSH0 PUSH2 0x56CD DUP3 PUSH2 0x4060 JUMP JUMPDEST SWAP2 POP PUSH2 0x56D8 DUP4 PUSH2 0x4060 JUMP JUMPDEST SWAP3 POP DUP3 DUP3 MUL PUSH2 0x56E6 DUP2 PUSH2 0x4060 JUMP JUMPDEST SWAP2 POP DUP3 DUP3 DIV DUP5 EQ DUP4 ISZERO OR PUSH2 0x56FD JUMPI PUSH2 0x56FC PUSH2 0x564F JUMP JUMPDEST JUMPDEST POP SWAP3 SWAP2 POP POP JUMP JUMPDEST PUSH32 0x4E487B7100000000000000000000000000000000000000000000000000000000 PUSH0 MSTORE PUSH1 0x12 PUSH1 0x4 MSTORE PUSH1 0x24 PUSH0 REVERT JUMPDEST PUSH0 PUSH2 0x573B DUP3 PUSH2 0x4060 JUMP JUMPDEST SWAP2 POP PUSH2 0x5746 DUP4 PUSH2 0x4060 JUMP JUMPDEST SWAP3 POP DUP3 PUSH2 0x5756 JUMPI PUSH2 0x5755 PUSH2 0x5704 JUMP JUMPDEST JUMPDEST DUP3 DUP3 DIV SWAP1 POP SWAP3 SWAP2 POP POP JUMP JUMPDEST PUSH0 PUSH2 0x576B DUP3 PUSH2 0x4060 JUMP JUMPDEST SWAP2 POP PUSH2 0x5776 DUP4 PUSH2 0x4060 JUMP JUMPDEST SWAP3 POP DUP3 DUP3 ADD SWAP1 POP DUP1 DUP3 GT ISZERO PUSH2 0x578E JUMPI PUSH2 0x578D PUSH2 0x564F JUMP JUMPDEST JUMPDEST SWAP3 SWAP2 POP POP JUMP JUMPDEST PUSH32 0x5265656E7472616E637947756172643A207265656E7472616E742063616C6C00 PUSH0 DUP3 ADD MSTORE POP JUMP JUMPDEST PUSH0 PUSH2 0x57C8 PUSH1 0x1F DUP4 PUSH2 0x42A1 JUMP JUMPDEST SWAP2 POP PUSH2 0x57D3 DUP3 PUSH2 0x5794 JUMP JUMPDEST PUSH1 0x20 DUP3 ADD SWAP1 POP SWAP2 SWAP1 POP JUMP JUMPDEST PUSH0 PUSH1 0x20 DUP3 ADD SWAP1 POP DUP2 DUP2 SUB PUSH0 DUP4 ADD MSTORE PUSH2 0x57F5 DUP2 PUSH2 0x57BC JUMP JUMPDEST SWAP1 POP SWAP2 SWAP1 POP JUMP JUMPDEST PUSH0 PUSH2 0x5806 DUP3 PUSH2 0x4060 JUMP JUMPDEST SWAP2 POP PUSH2 0x5811 DUP4 PUSH2 0x4060 JUMP JUMPDEST SWAP3 POP DUP3 DUP3 SUB SWAP1 POP DUP2 DUP2 GT ISZERO PUSH2 0x5829 JUMPI PUSH2 0x5828 PUSH2 0x564F JUMP JUMPDEST JUMPDEST SWAP3 SWAP2 POP POP JUMP JUMPDEST PUSH32 0x506F6C617279732045786368616E67653A20496E73756666696369656E742063 PUSH0 DUP3 ADD MSTORE PUSH32 0x6F6E74726163742062616C616E63650000000000000000000000000000000000 PUSH1 0x20 DUP3 ADD MSTORE POP JUMP JUMPDEST PUSH0 PUSH2 0x5889 PUSH1 0x2F DUP4 PUSH2 0x42A1 JUMP JUMPDEST SWAP2 POP PUSH2 0x5894 DUP3 PUSH2 0x582F JUMP JUMPDEST PUSH1 0x40 DUP3 ADD SWAP1 POP SWAP2 SWAP1 POP JUMP JUMPDEST PUSH0 PUSH1 0x20 DUP3 ADD SWAP1 POP DUP2 DUP2 SUB PUSH0 DUP4 ADD MSTORE PUSH2 0x58B6 DUP2 PUSH2 0x587D JUMP JUMPDEST SWAP1 POP SWAP2 SWAP1 POP JUMP JUMPDEST PUSH0 DUP2 SWAP1 POP SWAP3 SWAP2 POP POP JUMP JUMPDEST POP JUMP JUMPDEST PUSH0 PUSH2 0x58D5 PUSH0 DUP4 PUSH2 0x58BD JUMP JUMPDEST SWAP2 POP PUSH2 0x58E0 DUP3 PUSH2 0x58C7 JUMP JUMPDEST PUSH0 DUP3 ADD SWAP1 POP SWAP2 SWAP1 POP JUMP JUMPDEST PUSH0 PUSH2 0x58F4 DUP3 PUSH2 0x58CA JUMP JUMPDEST SWAP2 POP DUP2 SWAP1 POP SWAP2 SWAP1 POP JUMP JUMPDEST PUSH32 0x506F6C617279732045786368616E67653A204661696C656420746F2073656E64 PUSH0 DUP3 ADD MSTORE PUSH32 0x2045544800000000000000000000000000000000000000000000000000000000 PUSH1 0x20 DUP3 ADD MSTORE POP JUMP JUMPDEST PUSH0 PUSH2 0x5958 PUSH1 0x24 DUP4 PUSH2 0x42A1 JUMP JUMPDEST SWAP2 POP PUSH2 0x5963 DUP3 PUSH2 0x58FE JUMP JUMPDEST PUSH1 0x40 DUP3 ADD SWAP1 POP SWAP2 SWAP1 POP JUMP JUMPDEST PUSH0 PUSH1 0x20 DUP3 ADD SWAP1 POP DUP2 DUP2 SUB PUSH0 DUP4 ADD MSTORE PUSH2 0x5985 DUP2 PUSH2 0x594C JUMP JUMPDEST SWAP1 POP SWAP2 SWAP1 POP JUMP JUMPDEST PUSH0 DUP2 MLOAD SWAP1 POP PUSH2 0x599A DUP2 PUSH2 0x3CF3 JUMP JUMPDEST SWAP3 SWAP2 POP POP JUMP JUMPDEST PUSH0 PUSH1 0x20 DUP3 DUP5 SUB SLT ISZERO PUSH2 0x59B5 JUMPI PUSH2 0x59B4 PUSH2 0x3CBB JUMP JUMPDEST JUMPDEST PUSH0 PUSH2 0x59C2 DUP5 DUP3 DUP6 ADD PUSH2 0x598C JUMP JUMPDEST SWAP2 POP POP SWAP3 SWAP2 POP POP JUMP JUMPDEST PUSH0 PUSH1 0x40 DUP3 ADD SWAP1 POP PUSH2 0x59DE PUSH0 DUP4 ADD DUP6 PUSH2 0x4145 JUMP JUMPDEST PUSH2 0x59EB PUSH1 0x20 DUP4 ADD DUP5 PUSH2 0x4145 JUMP JUMPDEST SWAP4 SWAP3 POP POP POP JUMP JUMPDEST PUSH2 0x59FB DUP2 PUSH2 0x43F9 JUMP JUMPDEST DUP2 EQ PUSH2 0x5A05 JUMPI PUSH0 DUP1 REVERT JUMPDEST POP JUMP JUMPDEST PUSH0 DUP2 MLOAD SWAP1 POP PUSH2 0x5A16 DUP2 PUSH2 0x59F2 JUMP JUMPDEST SWAP3 SWAP2 POP POP JUMP JUMPDEST PUSH0 PUSH1 0x20 DUP3 DUP5 SUB SLT ISZERO PUSH2 0x5A31 JUMPI PUSH2 0x5A30 PUSH2 0x3CBB JUMP JUMPDEST JUMPDEST PUSH0 PUSH2 0x5A3E DUP5 DUP3 DUP6 ADD PUSH2 0x5A08 JUMP JUMPDEST SWAP2 POP POP SWAP3 SWAP2 POP POP JUMP JUMPDEST PUSH32 0x45434453413A20696E76616C6964207369676E61747572650000000000000000 PUSH0 DUP3 ADD MSTORE POP JUMP JUMPDEST PUSH0 PUSH2 0x5A7B PUSH1 0x18 DUP4 PUSH2 0x42A1 JUMP JUMPDEST SWAP2 POP PUSH2 0x5A86 DUP3 PUSH2 0x5A47 JUMP JUMPDEST PUSH1 0x20 DUP3 ADD SWAP1 POP SWAP2 SWAP1 POP JUMP JUMPDEST PUSH0 PUSH1 0x20 DUP3 ADD SWAP1 POP DUP2 DUP2 SUB PUSH0 DUP4 ADD MSTORE PUSH2 0x5AA8 DUP2 PUSH2 0x5A6F JUMP JUMPDEST SWAP1 POP SWAP2 SWAP1 POP JUMP JUMPDEST PUSH32 0x45434453413A20696E76616C6964207369676E6174757265206C656E67746800 PUSH0 DUP3 ADD MSTORE POP JUMP JUMPDEST PUSH0 PUSH2 0x5AE3 PUSH1 0x1F DUP4 PUSH2 0x42A1 JUMP JUMPDEST SWAP2 POP PUSH2 0x5AEE DUP3 PUSH2 0x5AAF JUMP JUMPDEST PUSH1 0x20 DUP3 ADD SWAP1 POP SWAP2 SWAP1 POP JUMP JUMPDEST PUSH0 PUSH1 0x20 DUP3 ADD SWAP1 POP DUP2 DUP2 SUB PUSH0 DUP4 ADD MSTORE PUSH2 0x5B10 DUP2 PUSH2 0x5AD7 JUMP JUMPDEST SWAP1 POP SWAP2 SWAP1 POP JUMP JUMPDEST PUSH32 0x45434453413A20696E76616C6964207369676E6174757265202773272076616C PUSH0 DUP3 ADD MSTORE PUSH32 0x7565000000000000000000000000000000000000000000000000000000000000 PUSH1 0x20 DUP3 ADD MSTORE POP JUMP JUMPDEST PUSH0 PUSH2 0x5B71 PUSH1 0x22 DUP4 PUSH2 0x42A1 JUMP JUMPDEST SWAP2 POP PUSH2 0x5B7C DUP3 PUSH2 0x5B17 JUMP JUMPDEST PUSH1 0x40 DUP3 ADD SWAP1 POP SWAP2 SWAP1 POP JUMP JUMPDEST PUSH0 PUSH1 0x20 DUP3 ADD SWAP1 POP DUP2 DUP2 SUB PUSH0 DUP4 ADD MSTORE PUSH2 0x5B9E DUP2 PUSH2 0x5B65 JUMP JUMPDEST SWAP1 POP SWAP2 SWAP1 POP JUMP JUMPDEST PUSH0 PUSH1 0x80 DUP3 ADD SWAP1 POP PUSH2 0x5BB8 PUSH0 DUP4 ADD DUP8 PUSH2 0x435D JUMP JUMPDEST PUSH2 0x5BC5 PUSH1 0x20 DUP4 ADD DUP7 PUSH2 0x426F JUMP JUMPDEST PUSH2 0x5BD2 PUSH1 0x40 DUP4 ADD DUP6 PUSH2 0x435D JUMP JUMPDEST PUSH2 0x5BDF PUSH1 0x60 DUP4 ADD DUP5 PUSH2 0x435D JUMP JUMPDEST SWAP6 SWAP5 POP POP POP POP POP JUMP INVALID LOG2 PUSH5 0x6970667358 0x22 SLT KECCAK256 DUP10 COINBASE SWAP11 0x5D PUSH21 0xD6D7A554EF48603BECFD8DA726C20D77360219A8B4 0xAD 0xCB 0xCC PUSH2 0x3011 PUSH5 0x736F6C6343 STOP ADDMOD AND STOP CALLER "
		},
		"gasEstimates": {
			"creation": {
				"codeDepositCost": "4716400",
				"executionCost": "76264",
				"totalCost": "4792664"
			},
			"external": {
				"": "infinite",
				"EXCHANGE_NAME()": "infinite",
				"TransferHelper()": "infinite",
				"VERSION()": "infinite",
				"_executeAuction((uint8,uint8,address,address,address,address,uint256,uint256,uint256,uint256,uint256,uint256),bytes32)": "infinite",
				"_executeBid((uint8,uint8,address,address,address,address,uint256,uint256,uint256,uint256,uint256,uint256),bytes32)": "infinite",
				"_executeBidWithERC20((uint8,uint8,address,address,address,address,uint256,uint256,uint256,uint256,uint256,uint256),bytes32)": "infinite",
				"_executeBuy((uint8,uint8,address,address,address,address,uint256,uint256,uint256,uint256),bytes32)": "infinite",
				"_executeBuyWithERC20((uint8,uint8,address,address,address,address,uint256,uint256,uint256,uint256),bytes32)": "infinite",
				"_executeSellOrCancel((uint8,uint8,address,address,address,address,uint256,uint256,uint256,uint256),bytes32)": "infinite",
				"_expirationTime(bytes32)": "2858",
				"_hashAuction((uint8,uint8,address,address,address,address,uint256,uint256,uint256,uint256,uint256,uint256))": "infinite",
				"_hashOrder((uint8,uint8,address,address,address,address,uint256,uint256,uint256,uint256))": "infinite",
				"_highestBid(bytes32)": "2837",
				"_highestBidder(bytes32)": "2963",
				"_ordersFilled(bytes32)": "2921",
				"_transferFunds(address,uint256)": "infinite",
				"admin()": "2603",
				"executeAuction((uint8,uint8,address,address,address,address,uint256,uint256,uint256,uint256,uint256,uint256),bytes)": "infinite",
				"executeBid((uint8,uint8,address,address,address,address,uint256,uint256,uint256,uint256,uint256,uint256),bytes32,bytes)": "infinite",
				"executeBidWithERC20((uint8,uint8,address,address,address,address,uint256,uint256,uint256,uint256,uint256,uint256),bytes32,bytes)": "infinite",
				"executeBuy((uint8,uint8,address,address,address,address,uint256,uint256,uint256,uint256),bytes32,bytes)": "infinite",
				"executeBuyWithERC20((uint8,uint8,address,address,address,address,uint256,uint256,uint256,uint256),bytes32,bytes)": "infinite",
				"executeSellOrCancel((uint8,uint8,address,address,address,address,uint256,uint256,uint256,uint256),bytes)": "infinite",
				"feeRate()": "2629",
				"feeRecipient()": "2576",
				"implementation()": "2582",
				"ordersFilled()": "2514",
				"updateAdmin(address)": "26928",
				"updateFeeRateAndFeeRecipient(address,uint8)": "51424",
				"updateTransferHelper(address)": "26974",
				"upgrade(address)": "30296"
			},
			"internal": {
				"_addFilledOrders()": "24363",
				"_calculateAuctionEndTime()": "infinite",
				"_orderActive(address,uint256)": "2299",
				"_ownerAndApprovalVerify(address,uint256)": "infinite",
				"_storeData(address,uint256,bytes32)": "infinite",
				"_transferAssets(enum AssetType,address,address,address,uint256,uint256)": "infinite",
				"_transferBack(address,address,uint256)": "infinite",
				"_transferERC20(address,address,address,uint256)": "infinite",
				"_validateOwnership(address,uint256)": "infinite",
				"_verifyAuction(uint256,bytes32,address,uint256)": "infinite",
				"_verifyAuctionsByTokenId(struct Auction memory,bytes32)": "infinite",
				"_verifyOrdersByTokenId(struct Order calldata,bytes32)": "infinite",
				"_verifyTokenApproval(address,uint256)": "infinite",
				"safeSendETH(address,uint256)": "infinite"
			}
		},
		"methodIdentifiers": {
			"EXCHANGE_NAME()": "9f81a3b3",
			"TransferHelper()": "b7a501a7",
			"VERSION()": "ffa1ad74",
			"_executeAuction((uint8,uint8,address,address,address,address,uint256,uint256,uint256,uint256,uint256,uint256),bytes32)": "1a2522d0",
			"_executeBid((uint8,uint8,address,address,address,address,uint256,uint256,uint256,uint256,uint256,uint256),bytes32)": "585d53d0",
			"_executeBidWithERC20((uint8,uint8,address,address,address,address,uint256,uint256,uint256,uint256,uint256,uint256),bytes32)": "1ee9bcaa",
			"_executeBuy((uint8,uint8,address,address,address,address,uint256,uint256,uint256,uint256),bytes32)": "8231f5df",
			"_executeBuyWithERC20((uint8,uint8,address,address,address,address,uint256,uint256,uint256,uint256),bytes32)": "d89b9525",
			"_executeSellOrCancel((uint8,uint8,address,address,address,address,uint256,uint256,uint256,uint256),bytes32)": "8f919650",
			"_expirationTime(bytes32)": "73db3cb4",
			"_hashAuction((uint8,uint8,address,address,address,address,uint256,uint256,uint256,uint256,uint256,uint256))": "aebdde50",
			"_hashOrder((uint8,uint8,address,address,address,address,uint256,uint256,uint256,uint256))": "ec58f41f",
			"_highestBid(bytes32)": "8e7569d0",
			"_highestBidder(bytes32)": "bb660784",
			"_ordersFilled(bytes32)": "df5aa262",
			"_transferFunds(address,uint256)": "3b1ebb62",
			"admin()": "f851a440",
			"executeAuction((uint8,uint8,address,address,address,address,uint256,uint256,uint256,uint256,uint256,uint256),bytes)": "258b7f22",
			"executeBid((uint8,uint8,address,address,address,address,uint256,uint256,uint256,uint256,uint256,uint256),bytes32,bytes)": "c68fade0",
			"executeBidWithERC20((uint8,uint8,address,address,address,address,uint256,uint256,uint256,uint256,uint256,uint256),bytes32,bytes)": "548eb8e1",
			"executeBuy((uint8,uint8,address,address,address,address,uint256,uint256,uint256,uint256),bytes32,bytes)": "21c0c856",
			"executeBuyWithERC20((uint8,uint8,address,address,address,address,uint256,uint256,uint256,uint256),bytes32,bytes)": "7f358469",
			"executeSellOrCancel((uint8,uint8,address,address,address,address,uint256,uint256,uint256,uint256),bytes)": "26977e64",
			"feeRate()": "978bbdb9",
			"feeRecipient()": "46904840",
			"implementation()": "5c60da1b",
			"ordersFilled()": "d8cf5ed9",
			"updateAdmin(address)": "e2f273bd",
			"updateFeeRateAndFeeRecipient(address,uint8)": "3fad53f0",
			"updateTransferHelper(address)": "4f17d2af",
			"upgrade(address)": "0900f010"
		}
	},
	"abi": [
		{
			"inputs": [],
			"stateMutability": "nonpayable",
			"type": "constructor"
		},
		{
			"anonymous": false,
			"inputs": [
				{
					"indexed": false,
					"internalType": "bytes32",
					"name": "orderHash",
					"type": "bytes32"
				}
			],
			"name": "AuctionCanceled",
			"type": "event"
		},
		{
			"anonymous": false,
			"inputs": [
				{
					"indexed": true,
					"internalType": "address",
					"name": "seller",
					"type": "address"
				},
				{
					"indexed": true,
					"internalType": "address",
					"name": "highestBidder",
					"type": "address"
				},
				{
					"indexed": false,
					"internalType": "address",
					"name": "collection",
					"type": "address"
				},
				{
					"indexed": true,
					"internalType": "uint256",
					"name": "tokenId",
					"type": "uint256"
				},
				{
					"indexed": false,
					"internalType": "address",
					"name": "paymentToken",
					"type": "address"
				},
				{
					"indexed": false,
					"internalType": "uint256",
					"name": "highestBid",
					"type": "uint256"
				},
				{
					"indexed": false,
					"internalType": "bytes32",
					"name": "orderHash",
					"type": "bytes32"
				}
			],
			"name": "AuctionCompleted",
			"type": "event"
		},
		{
			"anonymous": false,
			"inputs": [
				{
					"indexed": true,
					"internalType": "address",
					"name": "seller",
					"type": "address"
				},
				{
					"indexed": false,
					"internalType": "address",
					"name": "paymentToken",
					"type": "address"
				},
				{
					"indexed": false,
					"internalType": "address",
					"name": "collection",
					"type": "address"
				},
				{
					"indexed": true,
					"internalType": "uint256",
					"name": "tokenId",
					"type": "uint256"
				},
				{
					"indexed": false,
					"internalType": "bytes32",
					"name": "orderHash",
					"type": "bytes32"
				},
				{
					"components": [
						{
							"internalType": "enum AssetType",
							"name": "asset",
							"type": "uint8"
						},
						{
							"internalType": "enum Action",
							"name": "action",
							"type": "uint8"
						},
						{
							"internalType": "address",
							"name": "collection",
							"type": "address"
						},
						{
							"internalType": "address",
							"name": "paymentToken",
							"type": "address"
						},
						{
							"internalType": "address",
							"name": "seller",
							"type": "address"
						},
						{
							"internalType": "address",
							"name": "highestBidder",
							"type": "address"
						},
						{
							"internalType": "uint256",
							"name": "tokenId",
							"type": "uint256"
						},
						{
							"internalType": "uint256",
							"name": "reservedPrice",
							"type": "uint256"
						},
						{
							"internalType": "uint256",
							"name": "highestBid",
							"type": "uint256"
						},
						{
							"internalType": "uint256",
							"name": "startTime",
							"type": "uint256"
						},
						{
							"internalType": "uint256",
							"name": "expirationTime",
							"type": "uint256"
						},
						{
							"internalType": "uint256",
							"name": "tokenAmount",
							"type": "uint256"
						}
					],
					"indexed": false,
					"internalType": "struct Auction",
					"name": "auction",
					"type": "tuple"
				}
			],
			"name": "AuctionCreated",
			"type": "event"
		},
		{
			"anonymous": false,
			"inputs": [
				{
					"indexed": true,
					"internalType": "address",
					"name": "seller",
					"type": "address"
				},
				{
					"indexed": true,
					"internalType": "address",
					"name": "bidder",
					"type": "address"
				},
				{
					"indexed": false,
					"internalType": "address",
					"name": "paymentToken",
					"type": "address"
				},
				{
					"indexed": false,
					"internalType": "uint256",
					"name": "highestBid",
					"type": "uint256"
				},
				{
					"indexed": false,
					"internalType": "address",
					"name": "collection",
					"type": "address"
				},
				{
					"indexed": true,
					"internalType": "uint256",
					"name": "tokenId",
					"type": "uint256"
				},
				{
					"indexed": false,
					"internalType": "bytes32",
					"name": "orderHash",
					"type": "bytes32"
				}
			],
			"name": "NewBidPlaced",
			"type": "event"
		},
		{
			"anonymous": false,
			"inputs": [
				{
					"indexed": false,
					"internalType": "bytes32",
					"name": "orderHash",
					"type": "bytes32"
				}
			],
			"name": "OrderCanceled",
			"type": "event"
		},
		{
			"anonymous": false,
			"inputs": [
				{
					"indexed": true,
					"internalType": "address",
					"name": "seller",
					"type": "address"
				},
				{
					"indexed": false,
					"internalType": "address",
					"name": "paymentToken",
					"type": "address"
				},
				{
					"indexed": false,
					"internalType": "address",
					"name": "collection",
					"type": "address"
				},
				{
					"indexed": true,
					"internalType": "uint256",
					"name": "tokenId",
					"type": "uint256"
				},
				{
					"indexed": false,
					"internalType": "bytes32",
					"name": "orderHash",
					"type": "bytes32"
				},
				{
					"components": [
						{
							"internalType": "enum AssetType",
							"name": "asset",
							"type": "uint8"
						},
						{
							"internalType": "enum Action",
							"name": "action",
							"type": "uint8"
						},
						{
							"internalType": "address",
							"name": "collection",
							"type": "address"
						},
						{
							"internalType": "address",
							"name": "paymentToken",
							"type": "address"
						},
						{
							"internalType": "address",
							"name": "seller",
							"type": "address"
						},
						{
							"internalType": "address",
							"name": "buyer",
							"type": "address"
						},
						{
							"internalType": "uint256",
							"name": "tokenId",
							"type": "uint256"
						},
						{
							"internalType": "uint256",
							"name": "price",
							"type": "uint256"
						},
						{
							"internalType": "uint256",
							"name": "expirationTime",
							"type": "uint256"
						},
						{
							"internalType": "uint256",
							"name": "tokenAmount",
							"type": "uint256"
						}
					],
					"indexed": false,
					"internalType": "struct Order",
					"name": "order",
					"type": "tuple"
				}
			],
			"name": "OrderCreated",
			"type": "event"
		},
		{
			"anonymous": false,
			"inputs": [
				{
					"indexed": true,
					"internalType": "address",
					"name": "seller",
					"type": "address"
				},
				{
					"indexed": true,
					"internalType": "address",
					"name": "buyer",
					"type": "address"
				},
				{
					"indexed": false,
					"internalType": "address",
					"name": "collection",
					"type": "address"
				},
				{
					"indexed": true,
					"internalType": "uint256",
					"name": "tokenId",
					"type": "uint256"
				},
				{
					"indexed": false,
					"internalType": "address",
					"name": "paymentToken",
					"type": "address"
				},
				{
					"indexed": false,
					"internalType": "uint256",
					"name": "price",
					"type": "uint256"
				},
				{
					"indexed": false,
					"internalType": "bytes32",
					"name": "orderHash",
					"type": "bytes32"
				}
			],
			"name": "OrderFilled",
			"type": "event"
		},
		{
			"anonymous": false,
			"inputs": [
				{
					"indexed": true,
					"internalType": "address",
					"name": "implementation",
					"type": "address"
				}
			],
			"name": "Upgraded",
			"type": "event"
		},
		{
			"stateMutability": "payable",
			"type": "fallback"
		},
		{
			"inputs": [],
			"name": "EXCHANGE_NAME",
			"outputs": [
				{
					"internalType": "string",
					"name": "",
					"type": "string"
				}
			],
			"stateMutability": "view",
			"type": "function"
		},
		{
			"inputs": [],
			"name": "TransferHelper",
			"outputs": [
				{
					"internalType": "contract ITransferHelper",
					"name": "",
					"type": "address"
				}
			],
			"stateMutability": "view",
			"type": "function"
		},
		{
			"inputs": [],
			"name": "VERSION",
			"outputs": [
				{
					"internalType": "string",
					"name": "",
					"type": "string"
				}
			],
			"stateMutability": "view",
			"type": "function"
		},
		{
			"inputs": [
				{
					"components": [
						{
							"internalType": "enum AssetType",
							"name": "asset",
							"type": "uint8"
						},
						{
							"internalType": "enum Action",
							"name": "action",
							"type": "uint8"
						},
						{
							"internalType": "address",
							"name": "collection",
							"type": "address"
						},
						{
							"internalType": "address",
							"name": "paymentToken",
							"type": "address"
						},
						{
							"internalType": "address",
							"name": "seller",
							"type": "address"
						},
						{
							"internalType": "address",
							"name": "highestBidder",
							"type": "address"
						},
						{
							"internalType": "uint256",
							"name": "tokenId",
							"type": "uint256"
						},
						{
							"internalType": "uint256",
							"name": "reservedPrice",
							"type": "uint256"
						},
						{
							"internalType": "uint256",
							"name": "highestBid",
							"type": "uint256"
						},
						{
							"internalType": "uint256",
							"name": "startTime",
							"type": "uint256"
						},
						{
							"internalType": "uint256",
							"name": "expirationTime",
							"type": "uint256"
						},
						{
							"internalType": "uint256",
							"name": "tokenAmount",
							"type": "uint256"
						}
					],
					"internalType": "struct Auction",
					"name": "auction",
					"type": "tuple"
				},
				{
					"internalType": "bytes32",
					"name": "orderHash",
					"type": "bytes32"
				}
			],
			"name": "_executeAuction",
			"outputs": [],
			"stateMutability": "nonpayable",
			"type": "function"
		},
		{
			"inputs": [
				{
					"components": [
						{
							"internalType": "enum AssetType",
							"name": "asset",
							"type": "uint8"
						},
						{
							"internalType": "enum Action",
							"name": "action",
							"type": "uint8"
						},
						{
							"internalType": "address",
							"name": "collection",
							"type": "address"
						},
						{
							"internalType": "address",
							"name": "paymentToken",
							"type": "address"
						},
						{
							"internalType": "address",
							"name": "seller",
							"type": "address"
						},
						{
							"internalType": "address",
							"name": "highestBidder",
							"type": "address"
						},
						{
							"internalType": "uint256",
							"name": "tokenId",
							"type": "uint256"
						},
						{
							"internalType": "uint256",
							"name": "reservedPrice",
							"type": "uint256"
						},
						{
							"internalType": "uint256",
							"name": "highestBid",
							"type": "uint256"
						},
						{
							"internalType": "uint256",
							"name": "startTime",
							"type": "uint256"
						},
						{
							"internalType": "uint256",
							"name": "expirationTime",
							"type": "uint256"
						},
						{
							"internalType": "uint256",
							"name": "tokenAmount",
							"type": "uint256"
						}
					],
					"internalType": "struct Auction",
					"name": "auction",
					"type": "tuple"
				},
				{
					"internalType": "bytes32",
					"name": "orderHash",
					"type": "bytes32"
				}
			],
			"name": "_executeBid",
			"outputs": [],
			"stateMutability": "payable",
			"type": "function"
		},
		{
			"inputs": [
				{
					"components": [
						{
							"internalType": "enum AssetType",
							"name": "asset",
							"type": "uint8"
						},
						{
							"internalType": "enum Action",
							"name": "action",
							"type": "uint8"
						},
						{
							"internalType": "address",
							"name": "collection",
							"type": "address"
						},
						{
							"internalType": "address",
							"name": "paymentToken",
							"type": "address"
						},
						{
							"internalType": "address",
							"name": "seller",
							"type": "address"
						},
						{
							"internalType": "address",
							"name": "highestBidder",
							"type": "address"
						},
						{
							"internalType": "uint256",
							"name": "tokenId",
							"type": "uint256"
						},
						{
							"internalType": "uint256",
							"name": "reservedPrice",
							"type": "uint256"
						},
						{
							"internalType": "uint256",
							"name": "highestBid",
							"type": "uint256"
						},
						{
							"internalType": "uint256",
							"name": "startTime",
							"type": "uint256"
						},
						{
							"internalType": "uint256",
							"name": "expirationTime",
							"type": "uint256"
						},
						{
							"internalType": "uint256",
							"name": "tokenAmount",
							"type": "uint256"
						}
					],
					"internalType": "struct Auction",
					"name": "auction",
					"type": "tuple"
				},
				{
					"internalType": "bytes32",
					"name": "orderHash",
					"type": "bytes32"
				}
			],
			"name": "_executeBidWithERC20",
			"outputs": [],
			"stateMutability": "nonpayable",
			"type": "function"
		},
		{
			"inputs": [
				{
					"components": [
						{
							"internalType": "enum AssetType",
							"name": "asset",
							"type": "uint8"
						},
						{
							"internalType": "enum Action",
							"name": "action",
							"type": "uint8"
						},
						{
							"internalType": "address",
							"name": "collection",
							"type": "address"
						},
						{
							"internalType": "address",
							"name": "paymentToken",
							"type": "address"
						},
						{
							"internalType": "address",
							"name": "seller",
							"type": "address"
						},
						{
							"internalType": "address",
							"name": "buyer",
							"type": "address"
						},
						{
							"internalType": "uint256",
							"name": "tokenId",
							"type": "uint256"
						},
						{
							"internalType": "uint256",
							"name": "price",
							"type": "uint256"
						},
						{
							"internalType": "uint256",
							"name": "expirationTime",
							"type": "uint256"
						},
						{
							"internalType": "uint256",
							"name": "tokenAmount",
							"type": "uint256"
						}
					],
					"internalType": "struct Order",
					"name": "order",
					"type": "tuple"
				},
				{
					"internalType": "bytes32",
					"name": "orderHash",
					"type": "bytes32"
				}
			],
			"name": "_executeBuy",
			"outputs": [],
			"stateMutability": "payable",
			"type": "function"
		},
		{
			"inputs": [
				{
					"components": [
						{
							"internalType": "enum AssetType",
							"name": "asset",
							"type": "uint8"
						},
						{
							"internalType": "enum Action",
							"name": "action",
							"type": "uint8"
						},
						{
							"internalType": "address",
							"name": "collection",
							"type": "address"
						},
						{
							"internalType": "address",
							"name": "paymentToken",
							"type": "address"
						},
						{
							"internalType": "address",
							"name": "seller",
							"type": "address"
						},
						{
							"internalType": "address",
							"name": "buyer",
							"type": "address"
						},
						{
							"internalType": "uint256",
							"name": "tokenId",
							"type": "uint256"
						},
						{
							"internalType": "uint256",
							"name": "price",
							"type": "uint256"
						},
						{
							"internalType": "uint256",
							"name": "expirationTime",
							"type": "uint256"
						},
						{
							"internalType": "uint256",
							"name": "tokenAmount",
							"type": "uint256"
						}
					],
					"internalType": "struct Order",
					"name": "order",
					"type": "tuple"
				},
				{
					"internalType": "bytes32",
					"name": "orderHash",
					"type": "bytes32"
				}
			],
			"name": "_executeBuyWithERC20",
			"outputs": [],
			"stateMutability": "nonpayable",
			"type": "function"
		},
		{
			"inputs": [
				{
					"components": [
						{
							"internalType": "enum AssetType",
							"name": "asset",
							"type": "uint8"
						},
						{
							"internalType": "enum Action",
							"name": "action",
							"type": "uint8"
						},
						{
							"internalType": "address",
							"name": "collection",
							"type": "address"
						},
						{
							"internalType": "address",
							"name": "paymentToken",
							"type": "address"
						},
						{
							"internalType": "address",
							"name": "seller",
							"type": "address"
						},
						{
							"internalType": "address",
							"name": "buyer",
							"type": "address"
						},
						{
							"internalType": "uint256",
							"name": "tokenId",
							"type": "uint256"
						},
						{
							"internalType": "uint256",
							"name": "price",
							"type": "uint256"
						},
						{
							"internalType": "uint256",
							"name": "expirationTime",
							"type": "uint256"
						},
						{
							"internalType": "uint256",
							"name": "tokenAmount",
							"type": "uint256"
						}
					],
					"internalType": "struct Order",
					"name": "order",
					"type": "tuple"
				},
				{
					"internalType": "bytes32",
					"name": "orderHash",
					"type": "bytes32"
				}
			],
			"name": "_executeSellOrCancel",
			"outputs": [],
			"stateMutability": "nonpayable",
			"type": "function"
		},
		{
			"inputs": [
				{
					"internalType": "bytes32",
					"name": "orderHash",
					"type": "bytes32"
				}
			],
			"name": "_expirationTime",
			"outputs": [
				{
					"internalType": "uint256",
					"name": "",
					"type": "uint256"
				}
			],
			"stateMutability": "view",
			"type": "function"
		},
		{
			"inputs": [
				{
					"components": [
						{
							"internalType": "enum AssetType",
							"name": "asset",
							"type": "uint8"
						},
						{
							"internalType": "enum Action",
							"name": "action",
							"type": "uint8"
						},
						{
							"internalType": "address",
							"name": "collection",
							"type": "address"
						},
						{
							"internalType": "address",
							"name": "paymentToken",
							"type": "address"
						},
						{
							"internalType": "address",
							"name": "seller",
							"type": "address"
						},
						{
							"internalType": "address",
							"name": "highestBidder",
							"type": "address"
						},
						{
							"internalType": "uint256",
							"name": "tokenId",
							"type": "uint256"
						},
						{
							"internalType": "uint256",
							"name": "reservedPrice",
							"type": "uint256"
						},
						{
							"internalType": "uint256",
							"name": "highestBid",
							"type": "uint256"
						},
						{
							"internalType": "uint256",
							"name": "startTime",
							"type": "uint256"
						},
						{
							"internalType": "uint256",
							"name": "expirationTime",
							"type": "uint256"
						},
						{
							"internalType": "uint256",
							"name": "tokenAmount",
							"type": "uint256"
						}
					],
					"internalType": "struct Auction",
					"name": "auction",
					"type": "tuple"
				}
			],
			"name": "_hashAuction",
			"outputs": [
				{
					"internalType": "bytes32",
					"name": "",
					"type": "bytes32"
				}
			],
			"stateMutability": "pure",
			"type": "function"
		},
		{
			"inputs": [
				{
					"components": [
						{
							"internalType": "enum AssetType",
							"name": "asset",
							"type": "uint8"
						},
						{
							"internalType": "enum Action",
							"name": "action",
							"type": "uint8"
						},
						{
							"internalType": "address",
							"name": "collection",
							"type": "address"
						},
						{
							"internalType": "address",
							"name": "paymentToken",
							"type": "address"
						},
						{
							"internalType": "address",
							"name": "seller",
							"type": "address"
						},
						{
							"internalType": "address",
							"name": "buyer",
							"type": "address"
						},
						{
							"internalType": "uint256",
							"name": "tokenId",
							"type": "uint256"
						},
						{
							"internalType": "uint256",
							"name": "price",
							"type": "uint256"
						},
						{
							"internalType": "uint256",
							"name": "expirationTime",
							"type": "uint256"
						},
						{
							"internalType": "uint256",
							"name": "tokenAmount",
							"type": "uint256"
						}
					],
					"internalType": "struct Order",
					"name": "order",
					"type": "tuple"
				}
			],
			"name": "_hashOrder",
			"outputs": [
				{
					"internalType": "bytes32",
					"name": "",
					"type": "bytes32"
				}
			],
			"stateMutability": "pure",
			"type": "function"
		},
		{
			"inputs": [
				{
					"internalType": "bytes32",
					"name": "orderHash",
					"type": "bytes32"
				}
			],
			"name": "_highestBid",
			"outputs": [
				{
					"internalType": "uint256",
					"name": "",
					"type": "uint256"
				}
			],
			"stateMutability": "view",
			"type": "function"
		},
		{
			"inputs": [
				{
					"internalType": "bytes32",
					"name": "orderHash",
					"type": "bytes32"
				}
			],
			"name": "_highestBidder",
			"outputs": [
				{
					"internalType": "address",
					"name": "",
					"type": "address"
				}
			],
			"stateMutability": "view",
			"type": "function"
		},
		{
			"inputs": [
				{
					"internalType": "bytes32",
					"name": "orderHash",
					"type": "bytes32"
				}
			],
			"name": "_ordersFilled",
			"outputs": [
				{
					"internalType": "bool",
					"name": "",
					"type": "bool"
				}
			],
			"stateMutability": "view",
			"type": "function"
		},
		{
			"inputs": [
				{
					"internalType": "address",
					"name": "seller",
					"type": "address"
				},
				{
					"internalType": "uint256",
					"name": "amount",
					"type": "uint256"
				}
			],
			"name": "_transferFunds",
			"outputs": [],
			"stateMutability": "payable",
			"type": "function"
		},
		{
			"inputs": [],
			"name": "admin",
			"outputs": [
				{
					"internalType": "address",
					"name": "",
					"type": "address"
				}
			],
			"stateMutability": "view",
			"type": "function"
		},
		{
			"inputs": [
				{
					"components": [
						{
							"internalType": "enum AssetType",
							"name": "asset",
							"type": "uint8"
						},
						{
							"internalType": "enum Action",
							"name": "action",
							"type": "uint8"
						},
						{
							"internalType": "address",
							"name": "collection",
							"type": "address"
						},
						{
							"internalType": "address",
							"name": "paymentToken",
							"type": "address"
						},
						{
							"internalType": "address",
							"name": "seller",
							"type": "address"
						},
						{
							"internalType": "address",
							"name": "highestBidder",
							"type": "address"
						},
						{
							"internalType": "uint256",
							"name": "tokenId",
							"type": "uint256"
						},
						{
							"internalType": "uint256",
							"name": "reservedPrice",
							"type": "uint256"
						},
						{
							"internalType": "uint256",
							"name": "highestBid",
							"type": "uint256"
						},
						{
							"internalType": "uint256",
							"name": "startTime",
							"type": "uint256"
						},
						{
							"internalType": "uint256",
							"name": "expirationTime",
							"type": "uint256"
						},
						{
							"internalType": "uint256",
							"name": "tokenAmount",
							"type": "uint256"
						}
					],
					"internalType": "struct Auction",
					"name": "auction",
					"type": "tuple"
				},
				{
					"internalType": "bytes",
					"name": "_signature",
					"type": "bytes"
				}
			],
			"name": "executeAuction",
			"outputs": [],
			"stateMutability": "nonpayable",
			"type": "function"
		},
		{
			"inputs": [
				{
					"components": [
						{
							"internalType": "enum AssetType",
							"name": "asset",
							"type": "uint8"
						},
						{
							"internalType": "enum Action",
							"name": "action",
							"type": "uint8"
						},
						{
							"internalType": "address",
							"name": "collection",
							"type": "address"
						},
						{
							"internalType": "address",
							"name": "paymentToken",
							"type": "address"
						},
						{
							"internalType": "address",
							"name": "seller",
							"type": "address"
						},
						{
							"internalType": "address",
							"name": "highestBidder",
							"type": "address"
						},
						{
							"internalType": "uint256",
							"name": "tokenId",
							"type": "uint256"
						},
						{
							"internalType": "uint256",
							"name": "reservedPrice",
							"type": "uint256"
						},
						{
							"internalType": "uint256",
							"name": "highestBid",
							"type": "uint256"
						},
						{
							"internalType": "uint256",
							"name": "startTime",
							"type": "uint256"
						},
						{
							"internalType": "uint256",
							"name": "expirationTime",
							"type": "uint256"
						},
						{
							"internalType": "uint256",
							"name": "tokenAmount",
							"type": "uint256"
						}
					],
					"internalType": "struct Auction",
					"name": "auction",
					"type": "tuple"
				},
				{
					"internalType": "bytes32",
					"name": "orderHash",
					"type": "bytes32"
				},
				{
					"internalType": "bytes",
					"name": "_signature",
					"type": "bytes"
				}
			],
			"name": "executeBid",
			"outputs": [],
			"stateMutability": "payable",
			"type": "function"
		},
		{
			"inputs": [
				{
					"components": [
						{
							"internalType": "enum AssetType",
							"name": "asset",
							"type": "uint8"
						},
						{
							"internalType": "enum Action",
							"name": "action",
							"type": "uint8"
						},
						{
							"internalType": "address",
							"name": "collection",
							"type": "address"
						},
						{
							"internalType": "address",
							"name": "paymentToken",
							"type": "address"
						},
						{
							"internalType": "address",
							"name": "seller",
							"type": "address"
						},
						{
							"internalType": "address",
							"name": "highestBidder",
							"type": "address"
						},
						{
							"internalType": "uint256",
							"name": "tokenId",
							"type": "uint256"
						},
						{
							"internalType": "uint256",
							"name": "reservedPrice",
							"type": "uint256"
						},
						{
							"internalType": "uint256",
							"name": "highestBid",
							"type": "uint256"
						},
						{
							"internalType": "uint256",
							"name": "startTime",
							"type": "uint256"
						},
						{
							"internalType": "uint256",
							"name": "expirationTime",
							"type": "uint256"
						},
						{
							"internalType": "uint256",
							"name": "tokenAmount",
							"type": "uint256"
						}
					],
					"internalType": "struct Auction",
					"name": "auction",
					"type": "tuple"
				},
				{
					"internalType": "bytes32",
					"name": "orderHash",
					"type": "bytes32"
				},
				{
					"internalType": "bytes",
					"name": "_signature",
					"type": "bytes"
				}
			],
			"name": "executeBidWithERC20",
			"outputs": [],
			"stateMutability": "nonpayable",
			"type": "function"
		},
		{
			"inputs": [
				{
					"components": [
						{
							"internalType": "enum AssetType",
							"name": "asset",
							"type": "uint8"
						},
						{
							"internalType": "enum Action",
							"name": "action",
							"type": "uint8"
						},
						{
							"internalType": "address",
							"name": "collection",
							"type": "address"
						},
						{
							"internalType": "address",
							"name": "paymentToken",
							"type": "address"
						},
						{
							"internalType": "address",
							"name": "seller",
							"type": "address"
						},
						{
							"internalType": "address",
							"name": "buyer",
							"type": "address"
						},
						{
							"internalType": "uint256",
							"name": "tokenId",
							"type": "uint256"
						},
						{
							"internalType": "uint256",
							"name": "price",
							"type": "uint256"
						},
						{
							"internalType": "uint256",
							"name": "expirationTime",
							"type": "uint256"
						},
						{
							"internalType": "uint256",
							"name": "tokenAmount",
							"type": "uint256"
						}
					],
					"internalType": "struct Order",
					"name": "order",
					"type": "tuple"
				},
				{
					"internalType": "bytes32",
					"name": "orderHash",
					"type": "bytes32"
				},
				{
					"internalType": "bytes",
					"name": "_signature",
					"type": "bytes"
				}
			],
			"name": "executeBuy",
			"outputs": [],
			"stateMutability": "payable",
			"type": "function"
		},
		{
			"inputs": [
				{
					"components": [
						{
							"internalType": "enum AssetType",
							"name": "asset",
							"type": "uint8"
						},
						{
							"internalType": "enum Action",
							"name": "action",
							"type": "uint8"
						},
						{
							"internalType": "address",
							"name": "collection",
							"type": "address"
						},
						{
							"internalType": "address",
							"name": "paymentToken",
							"type": "address"
						},
						{
							"internalType": "address",
							"name": "seller",
							"type": "address"
						},
						{
							"internalType": "address",
							"name": "buyer",
							"type": "address"
						},
						{
							"internalType": "uint256",
							"name": "tokenId",
							"type": "uint256"
						},
						{
							"internalType": "uint256",
							"name": "price",
							"type": "uint256"
						},
						{
							"internalType": "uint256",
							"name": "expirationTime",
							"type": "uint256"
						},
						{
							"internalType": "uint256",
							"name": "tokenAmount",
							"type": "uint256"
						}
					],
					"internalType": "struct Order",
					"name": "order",
					"type": "tuple"
				},
				{
					"internalType": "bytes32",
					"name": "orderHash",
					"type": "bytes32"
				},
				{
					"internalType": "bytes",
					"name": "_signature",
					"type": "bytes"
				}
			],
			"name": "executeBuyWithERC20",
			"outputs": [],
			"stateMutability": "nonpayable",
			"type": "function"
		},
		{
			"inputs": [
				{
					"components": [
						{
							"internalType": "enum AssetType",
							"name": "asset",
							"type": "uint8"
						},
						{
							"internalType": "enum Action",
							"name": "action",
							"type": "uint8"
						},
						{
							"internalType": "address",
							"name": "collection",
							"type": "address"
						},
						{
							"internalType": "address",
							"name": "paymentToken",
							"type": "address"
						},
						{
							"internalType": "address",
							"name": "seller",
							"type": "address"
						},
						{
							"internalType": "address",
							"name": "buyer",
							"type": "address"
						},
						{
							"internalType": "uint256",
							"name": "tokenId",
							"type": "uint256"
						},
						{
							"internalType": "uint256",
							"name": "price",
							"type": "uint256"
						},
						{
							"internalType": "uint256",
							"name": "expirationTime",
							"type": "uint256"
						},
						{
							"internalType": "uint256",
							"name": "tokenAmount",
							"type": "uint256"
						}
					],
					"internalType": "struct Order",
					"name": "order",
					"type": "tuple"
				},
				{
					"internalType": "bytes",
					"name": "_signature",
					"type": "bytes"
				}
			],
			"name": "executeSellOrCancel",
			"outputs": [],
			"stateMutability": "nonpayable",
			"type": "function"
		},
		{
			"inputs": [],
			"name": "feeRate",
			"outputs": [
				{
					"internalType": "uint8",
					"name": "",
					"type": "uint8"
				}
			],
			"stateMutability": "view",
			"type": "function"
		},
		{
			"inputs": [],
			"name": "feeRecipient",
			"outputs": [
				{
					"internalType": "address",
					"name": "",
					"type": "address"
				}
			],
			"stateMutability": "view",
			"type": "function"
		},
		{
			"inputs": [],
			"name": "implementation",
			"outputs": [
				{
					"internalType": "address",
					"name": "",
					"type": "address"
				}
			],
			"stateMutability": "view",
			"type": "function"
		},
		{
			"inputs": [],
			"name": "ordersFilled",
			"outputs": [
				{
					"internalType": "uint256",
					"name": "",
					"type": "uint256"
				}
			],
			"stateMutability": "view",
			"type": "function"
		},
		{
			"inputs": [
				{
					"internalType": "address",
					"name": "newAdmin",
					"type": "address"
				}
			],
			"name": "updateAdmin",
			"outputs": [],
			"stateMutability": "nonpayable",
			"type": "function"
		},
		{
			"inputs": [
				{
					"internalType": "address",
					"name": "newAddr",
					"type": "address"
				},
				{
					"internalType": "uint8",
					"name": "newRate",
					"type": "uint8"
				}
			],
			"name": "updateFeeRateAndFeeRecipient",
			"outputs": [],
			"stateMutability": "nonpayable",
			"type": "function"
		},
		{
			"inputs": [
				{
					"internalType": "address",
					"name": "_transferHelper",
					"type": "address"
				}
			],
			"name": "updateTransferHelper",
			"outputs": [],
			"stateMutability": "nonpayable",
			"type": "function"
		},
		{
			"inputs": [
				{
					"internalType": "address",
					"name": "newImplementation",
					"type": "address"
				}
			],
			"name": "upgrade",
			"outputs": [],
			"stateMutability": "nonpayable",
			"type": "function"
		},
		{
			"stateMutability": "payable",
			"type": "receive"
		}
	]
}