{
	"data": {
		"bytecode": {
			"linkReferences": {},
			"object": "608060405234801562000010575f80fd5b5060015f553033816200006a5760405162461bcd60e51b815260206004820152601e60248201527f496e76616c696420696d706c656d656e746174696f6e2061646472657373000060448201526064015b60405180910390fd5b6001600160a01b038116620000c25760405162461bcd60e51b815260206004820152601560248201527f496e76616c69642061646d696e20616464726573730000000000000000000000604482015260640162000061565b600180546001600160a01b039384166001600160a01b0319918216179091556002805492909316911617905561338b80620000fc5f395ff3fe6080604052600436106101db575f3560e01c80638231f5df11610101578063c68fade011610094578063e2f273bd11610063578063e2f273bd146105a7578063ec58f41f146105c6578063f851a440146105e5578063ffa1ad7414610602576101e2565b8063c68fade014610522578063d89b952514610535578063d8cf5ed914610554578063df5aa26214610569576101e2565b80639f81a3b3116100d05780639f81a3b314610486578063aebdde50146104c5578063b7a501a7146104e4578063bb66078414610503576101e2565b80638231f5df146103f75780638e7569d01461040a5780638f91965014610435578063978bbdb914610454576101e2565b80633fad53f011610179578063585d53d011610148578063585d53d01461036f5780635c60da1b1461038257806373db3cb41461039f5780637f358469146103d8576101e2565b80633fad53f0146102d657806346904840146102f55780634f17d2af14610331578063548eb8e114610350576101e2565b806321c0c856116101b557806321c0c85614610272578063258b7f221461028557806326977e64146102a45780633b1ebb62146102c3576101e2565b80630900f010146102155780631a2522d0146102345780631ee9bcaa14610253576101e2565b366101e257005b6001546040516001600160a01b0390911690365f82375f803683855af43d805f843e81801561020f578184f35b8184fd5b005b348015610220575f80fd5b5061021361022f3660046129ca565b610632565b34801561023f575f80fd5b5061021361024e3660046129fc565b610782565b34801561025e575f80fd5b5061021361026d3660046129fc565b610cce565b610213610280366004612aff565b610ff0565b348015610290575f80fd5b5061021361029f366004612b56565b6110be565b3480156102af575f80fd5b506102136102be366004612ba4565b6111c4565b6102136102d1366004612bdc565b6112b5565b3480156102e1575f80fd5b506102136102f0366004612c06565b611363565b348015610300575f80fd5b50600954610314906001600160a01b031681565b6040516001600160a01b0390911681526020015b60405180910390f35b34801561033c575f80fd5b5061021361034b3660046129ca565b6113ca565b34801561035b575f80fd5b5061021361036a366004612c42565b611416565b61021361037d3660046129fc565b611584565b34801561038d575f80fd5b506001546001600160a01b0316610314565b3480156103aa575f80fd5b506103ca6103b9366004612c83565b5f9081526007602052604090205490565b604051908152602001610328565b3480156103e3575f80fd5b506102136103f2366004612aff565b61172a565b610213610405366004612c9a565b611856565b348015610415575f80fd5b506103ca610424366004612c83565b5f9081526006602052604090205490565b348015610440575f80fd5b5061021361044f366004612c9a565b6119c2565b34801561045f575f80fd5b5060095461047490600160a81b900460ff1681565b60405160ff9091168152602001610328565b348015610491575f80fd5b506104b8604051806040016040528060078152602001665441475745423360c81b81525081565b6040516103289190612cc5565b3480156104d0575f80fd5b506103ca6104df366004612d10565b611b53565b3480156104ef575f80fd5b50600854610314906001600160a01b031681565b34801561050e575f80fd5b5061031461051d366004612c83565b611b82565b610213610530366004612c42565b611b9c565b348015610540575f80fd5b5061021361054f366004612c9a565b611d00565b34801561055f575f80fd5b506103ca600a5481565b348015610574575f80fd5b50610597610583366004612c83565b5f9081526004602052604090205460ff1690565b6040519015158152602001610328565b3480156105b2575f80fd5b506102136105c13660046129ca565b611db6565b3480156105d1575f80fd5b506103ca6105e0366004612d2b565b611e02565b3480156105f0575f80fd5b506002546001600160a01b0316610314565b34801561060d575f80fd5b506104b8604051806040016040528060058152602001640312e302e360dc1b81525081565b6002546001600160a01b031633146106655760405162461bcd60e51b815260040161065c90612d46565b60405180910390fd5b6001600160a01b0381166106c65760405162461bcd60e51b815260206004820152602260248201527f496e76616c6964206e657720696d706c656d656e746174696f6e206164647265604482015261737360f01b606482015260840161065c565b6001546001600160a01b03908116908216036107395760405162461bcd60e51b815260206004820152602c60248201527f4e657720696d706c656d656e746174696f6e2061646472657373206d7573742060448201526b189948191a5999995c995b9d60a21b606482015260840161065c565b600180546001600160a01b0319166001600160a01b0383169081179091556040517fbc7cd75a20ee27fd9adebab32041f755214dbc6bffa90cc0225b39da2e5c2d3b905f90a250565b600954600160a01b900460ff166107ab5760405162461bcd60e51b815260040161065c90612d88565b60026107bd6040840160208501612dd1565b60058111156107ce576107ce612daf565b036108a0576107f06107e660608401604085016129ca565b8360c00135611e14565b1580156108005750610140820135155b61081c5760405162461bcd60e51b815260040161065c90612dea565b61083a61082f60608401604085016129ca565b8360c0013583611e3e565b60c0820135337f35ac9eac59b8c3168f5e4447cd7afc6434ce47b273a2e2e2d04ce743b899de7d61087160808601606087016129ca565b61088160608701604088016129ca565b85876040516108939493929190612f38565b60405180910390a3610cbd565b60046108b26040840160208501612dd1565b60058111156108c3576108c3612daf565b03610bb4575f6108e66108dc60608501604086016129ca565b8460c00135611e14565b905061090c6101408401358361090260608701604088016129ca565b8660c00135611e99565b61097e5760405162461bcd60e51b815260206004820152603960248201527f506f6c617279732045786368616e67653a2041756374696f6e20686173206e6f60448201527f7420656e646564206f7220696e76616c69642063616c6c657200000000000000606482015260840161065c565b6109c761098e6020850185612f65565b61099e60608601604087016129ca565b6109ae60a08701608088016129ca565b6109b785611b82565b8760c00135886101600135611edb565b6109fd6109da60808501606086016129ca565b6109ea60a08601608087016129ca565b5f84815260066020526040902054611ff5565b60035f610a1060608601604087016129ca565b6001600160a01b0316815260208082019290925260409081015f90812060c08701358083529084528282208290558482526005845282822080546001600160a01b03191690556006845282822082905560078452828220829055600490935220805460ff19166001179055610a8482611b82565b6001600160a01b0316610a9d60a08601608087016129ca565b6001600160a01b03167f6be48afe3d3198771d849c4fedafce4823b0fefb75d8726e35e9805a3f211086610ad760608801604089016129ca565b610ae76080890160608a016129ca565b5f8781526006602052604090205487604051610b069493929190612f7e565b60405180910390a48260c00135610b1c82611b82565b6001600160a01b0316610b3560a08601608087016129ca565b6001600160a01b03167f6d794d38d52c34db77f62adcae8c890dc87664e863643cb6363a6ad4d1fc5fd0610b6f60608801604089016129ca565b610b7f6080890160608a016129ca565b5f8781526006602052604090205487604051610b9e9493929190612f7e565b60405180910390a4610bae61213f565b50610cbd565b5f610bc86108dc60608501604086016129ca565b90505f610bd482611b82565b6001600160a01b0316148015610bf557505f81815260066020526040902054155b610c4f5760405162461bcd60e51b815260206004820152602560248201527f506f6c617279732045786368616e67653a2041756374696f6e20686173207374604482015264185c9d195960da1b606482015260840161065c565b60035f610c6260608601604087016129ca565b6001600160a01b0316815260208082019290925260409081015f90812060c08701358252835281812055518381527f5f8f216fd2e5bdc47deb48c822665830695f90b549772ae028d6fc3c4832c5b1910160405180910390a1505b50506009805460ff60a01b19169055565b600954600160a01b900460ff16610cf75760405162461bcd60e51b815260040161065c90612d88565b5f610d0182611b82565b6001600160a01b031614158015610d2457505f8181526006602052604090205415155b15610e92575f610d3382611b82565b5f83815260066020526040812054919250610d5a6064610d54846002612155565b90612167565b90508085610100013511610dd65760405162461bcd60e51b815260206004820152603b60248201527f506f6c617279732045786368616e67653a204d696e696d756d2072657175697260448201527f6564203225206d6f7265207468616e2063757272656e74204269640000000000606482015260840161065c565b6008546001600160a01b031663b97be865610df760808801606089016129ca565b6040516001600160e01b031960e084901b1681526001600160a01b0391821660048201529086166024820152604481018590526064015f604051808303815f87803b158015610e44575f80fd5b505af1158015610e56573d5f803e3d5ffd5b5050505f85815260056020908152604080832080546001600160a01b0319163317905560069091529020610100870135905550610f4892505050565b6008546001600160a01b0316638e1976e9610eb360808501606086016129ca565b33308661010001356040518563ffffffff1660e01b8152600401610eda9493929190612fa7565b5f604051808303815f87803b158015610ef1575f80fd5b505af1158015610f03573d5f803e3d5ffd5b50505050610f0f612172565b5f828152600760209081526040808320939093556005815282822080546001600160a01b03191633179055600690522061010083013590555b60c082013533610f5e60a08501608086016129ca565b6001600160a01b03167f8276efb7a040b9314c89f6444f0d221ac94f714076fc6b3f5ce718841e1a03ea610f9860808701606088016129ca565b610100870135610fae6060890160408a016129ca565b604080516001600160a01b03948516815260208101939093529216818301526060810187905290519081900360800190a450506009805460ff60a01b19169055565b345f03610ffb575f80fd5b611003612182565b61100e8282336121d9565b61102a5760405162461bcd60e51b815260040161065c90612fd1565b611034838361222c565b6110935760405162461bcd60e51b815260206004820152602a60248201527f506f6c617279732045786368616e67653a20496e76616c6964206f7264657220604482015269706172656d657465727360b01b606482015260840161065c565b6009805460ff60a01b1916600160a01b1790556110b08383611856565b6110b960015f55565b505050565b6110c6612182565b5f60046110d96040850160208601612dd1565b60058111156110ea576110ea612daf565b03611109576111026108dc60608501604086016129ca565b9050611115565b61111283611b53565b90505b6111208183336121d9565b61113c5760405162461bcd60e51b815260040161065c90612fd1565b61115961114f60608501604086016129ca565b8460c001356122ee565b8061117d575061116881611b82565b6001600160a01b0316336001600160a01b0316145b6111995760405162461bcd60e51b815260040161065c9061302e565b6009805460ff60a01b1916600160a01b1790556111b68382610782565b506111c060015f55565b5050565b6111cc612182565b5f806111de6040850160208601612dd1565b60058111156111ef576111ef612daf565b03611204576111fd83611e02565b9050611242565b60056112166040850160208601612dd1565b600581111561122757611227612daf565b036112425761123f6108dc60608501604086016129ca565b90505b61124d8183336121d9565b6112695760405162461bcd60e51b815260040161065c90612fd1565b61127c61114f60608501604086016129ca565b6112985760405162461bcd60e51b815260040161065c9061302e565b6009805460ff60a01b1916600160a01b1790556111b683826119c2565b6009545f906112d690606490610d54908590600160a81b900460ff16612155565b90506001600160a01b0383166108fc6112ef848461230a565b6040518115909202915f818181858888f19350505050158015611314573d5f803e3d5ffd5b506009546001600160a01b0316156110b9576009546040516001600160a01b039091169082156108fc029083905f818181858888f1935050505015801561135d573d5f803e3d5ffd5b50505050565b6002546001600160a01b0316331461138d5760405162461bcd60e51b815260040161065c90612d46565b600980546001600160a01b039093166001600160a01b031960ff909316600160a81b0292909216600161ff0160a01b031990931692909217179055565b6002546001600160a01b031633146113f45760405162461bcd60e51b815260040161065c90612d46565b600880546001600160a01b0319166001600160a01b0392909216919091179055565b61141e612182565b5f61142f60808501606086016129ca565b6001600160a01b0316036114855760405162461bcd60e51b815260206004820152601f60248201527f506f6c617279732045786368616e67653a20496e76616c696420455243323000604482015260640161065c565b6114908282336121d9565b6114ac5760405162461bcd60e51b815260040161065c90612fd1565b6114c46114be3685900385018561308b565b83612315565b6115235760405162461bcd60e51b815260206004820152602a60248201527f506f6c617279732045786368616e67653a204f726465722063616e63656c6564604482015269081bdc88199a5b1b195960b21b606482015260840161065c565b5f61152d83611b82565b6001600160a01b031614611567575f8281526007602052604090205442106115675760405162461bcd60e51b815260040161065c9061314d565b6009805460ff60a01b1916600160a01b1790556110b08383610cce565b600954600160a01b900460ff166115ad5760405162461bcd60e51b815260040161065c90612d88565b5f6115b782611b82565b6001600160a01b0316141580156115da57505f8181526006602052604090205415155b156116d9575f6115e982611b82565b5f8381526006602052604081205491925061160a6064610d54846002612155565b9050803411801561161f575080856101000135115b61169d5760405162461bcd60e51b815260206004820152604360248201527f506f6c617279732045786368616e67653a204d696e696d756d2072657175697260448201527f6564203225206d6f7265207468616e2063757272656e74206869676865737420606482015262189a5960ea1b608482015260a40161065c565b6116a7838361239f565b5050505f81815260056020908152604080832080546001600160a01b0319163317905560069091529020349055610f48565b6116e1612172565b5f828152600760209081526040808320939093556005815282822080546001600160a01b03191633179055600690522034905560c082013533610f5e60a08501608086016129ca565b611732612182565b5f61174360808501606086016129ca565b6001600160a01b0316036117a95760405162461bcd60e51b815260206004820152602760248201527f506f6c617279732045786368616e67653a20496e76616c6964207061796d656e6044820152663a103a37b5b2b760c91b606482015260840161065c565b6117b48282336121d9565b6117d05760405162461bcd60e51b815260040161065c90612fd1565b6117da838361222c565b6118395760405162461bcd60e51b815260206004820152602a60248201527f506f6c617279732045786368616e67653a20496e76616c6964206f7264657220604482015269706172616d657465727360b01b606482015260840161065c565b6009805460ff60a01b1916600160a01b1790556110b08383611d00565b600954600160a01b900460ff1661187f5760405162461bcd60e51b815260040161065c90612d88565b6118cf61188f6020840184612f65565b61189f60608501604086016129ca565b6118af60a08601608087016129ca565b6118bf60c0870160a088016129ca565b8660c00135876101200135611edb565b6118ec6118e260a08401608085016129ca565b8360e001356112b5565b60035f6118ff60608501604086016129ca565b6001600160a01b0316815260208082019290925260409081015f90812060c0860135808352908452828220829055848252600490935220805460ff191660011790553361195260a08501608086016129ca565b6001600160a01b03167f6d794d38d52c34db77f62adcae8c890dc87664e863643cb6363a6ad4d1fc5fd061198c60608701604088016129ca565b61199c60808801606089016129ca565b8760e00135876040516119b29493929190612f7e565b60405180910390a4610cbd61213f565b600954600160a01b900460ff166119eb5760405162461bcd60e51b815260040161065c90612d88565b5f6119fc6040840160208501612dd1565b6005811115611a0d57611a0d612daf565b03611aae57611a256107e660608401604085016129ca565b15611a425760405162461bcd60e51b815260040161065c90612dea565b611a5561082f60608401604085016129ca565b60c0820135337f3af7e15c36e0552067e803a0d3e9a1a90b6d95f5be49bb25a9642b7f43e06f41611a8c60808601606087016129ca565b611a9c60608701604088016129ca565b85876040516108939493929190613248565b6005611ac06040840160208501612dd1565b6005811115611ad157611ad1612daf565b03610cbd5760035f611ae960608501604086016129ca565b6001600160a01b0316815260208082019290925260409081015f90812060c08601358252835281812055518281527f30ad15c39984aa59d60d4089cbbbaa503c4c9e0fa0e3bdf62a5bab180fcb974d910160405180910390a150506009805460ff60a01b19169055565b5f81604051602001611b659190613275565b604051602081830303815290604052805190602001209050919050565b5f908152600560205260409020546001600160a01b031690565b345f03611ba7575f80fd5b611baf612182565b611bba8282336121d9565b611c2c5760405162461bcd60e51b815260206004820152603960248201527f506f6c617279732045786368616e67653a20496e76616c6964207369676e617460448201527f75726520666f722061756374696f6e20657865637574696f6e00000000000000606482015260840161065c565b611c3e6114be3685900385018561308b565b611c9f5760405162461bcd60e51b815260206004820152602c60248201527f506f6c617279732045786368616e67653a20496e76616c69642061756374696f60448201526b6e20706172616d657465727360a01b606482015260840161065c565b5f611ca983611b82565b6001600160a01b031614611ce3575f828152600760205260409020544210611ce35760405162461bcd60e51b815260040161065c9061314d565b6009805460ff60a01b1916600160a01b1790556110b08383611584565b600954600160a01b900460ff16611d295760405162461bcd60e51b815260040161065c90612d88565b611d3961188f6020840184612f65565b611d67611d4c60808401606085016129ca565b33611d5d60a08601608087016129ca565b8560e001356124b2565b60035f611d7a60608501604086016129ca565b6001600160a01b0316815260208082019290925260409081015f90812060c08601358083529352908120553361195260a08501608086016129ca565b6002546001600160a01b03163314611de05760405162461bcd60e51b815260040161065c90612d46565b600280546001600160a01b0319166001600160a01b0392909216919091179055565b5f81604051602001611b659190613284565b6001600160a01b0382165f9081526003602090815260408083208484529091529020545b92915050565b600954600160a01b900460ff16611e675760405162461bcd60e51b815260040161065c90612d88565b6001600160a01b039092165f90815260036020908152604080832093835292905220556009805460ff60a01b19169055565b5f4285108015611ec25750611ead84611b82565b6001600160a01b0316336001600160a01b0316145b80611ed25750611ed283836125c1565b95945050505050565b5f866001811115611eee57611eee612daf565b03611f5b5760085460405163ef0dfaaf60e01b81526001600160a01b039091169063ef0dfaaf90611f29908890889088908890600401612fa7565b5f604051808303815f87803b158015611f40575f80fd5b505af1158015611f52573d5f803e3d5ffd5b50505050611fed565b6001866001811115611f6f57611f6f612daf565b03611fed57600854604051634282f5d360e01b81526001600160a01b03878116600483015286811660248301528581166044830152606482018590526084820184905290911690634282f5d39060a4015f604051808303815f87803b158015611fd6575f80fd5b505af1158015611fe8573d5f803e3d5ffd5b505050505b505050505050565b6009545f9061201690606490610d54908590600160a81b900460ff16612155565b90506001600160a01b03841615612116576008546001600160a01b031663b97be8658585612044868661230a565b6040516001600160e01b031960e086901b1681526001600160a01b03938416600482015292909116602483015260448201526064015f604051808303815f87803b158015612090575f80fd5b505af11580156120a2573d5f803e3d5ffd5b505060085460095460405163b97be86560e01b81526001600160a01b0389811660048301529182166024820152604481018690529116925063b97be86591506064015f604051808303815f87803b1580156120fb575f80fd5b505af115801561210d573d5f803e3d5ffd5b5050505061135d565b61212983612124848461230a565b61239f565b60095461135d906001600160a01b03168261239f565b600a8054905f61214e836132a7565b9190505550565b5f61216082846132bf565b9392505050565b5f61216082846132d6565b5f428161216082620151806132f5565b60025f54036121d35760405162461bcd60e51b815260206004820152601f60248201527f5265656e7472616e637947756172643a207265656e7472616e742063616c6c00604482015260640161065c565b60025f55565b7f19457468657265756d205369676e6564204d6573736167653a0a3332000000005f908152601c849052603c81205f612212828661263d565b6001600160a01b0390811690851614925050509392505050565b5f8061223e60a08501608086016129ca565b6001600160a01b031614158015612285575061226060c0840160a085016129ca565b6001600160a01b031661227960a08501608086016129ca565b6001600160a01b031614155b8015612295575042836101000135115b80156122b257506122af6108dc60608501604086016129ca565b82145b80156122c2575042836101000135115b801561216057506122e66122dc60608501604086016129ca565b8460c001356125c1565b159392505050565b5f6122f9838361265f565b8015612160575061216083836125c1565b5f6121608284613308565b60808201515f906001600160a01b03161580159061234d57508260a001516001600160a01b031683608001516001600160a01b031614155b8015612369575061236683604001518460c00151611e14565b82145b801561238657505f82815260076020526040902054836101400151145b801561216057506122e683604001518460c001516125c1565b804710156124075760405162461bcd60e51b815260206004820152602f60248201527f506f6c617279732045786368616e67653a20496e73756666696369656e74206360448201526e6f6e74726163742062616c616e636560881b606482015260840161065c565b5f826001600160a01b0316826040515f6040518083038185875af1925050503d805f8114612450576040519150601f19603f3d011682016040523d82523d5f602084013e612455565b606091505b50509050806110b95760405162461bcd60e51b8152602060048201526024808201527f506f6c617279732045786368616e67653a204661696c656420746f2073656e646044820152630408aa8960e31b606482015260840161065c565b6009545f906124d390606490610d54908590600160a81b900460ff16612155565b6008549091506001600160a01b0316638e1976e98686866124f4878761230a565b6040518563ffffffff1660e01b81526004016125139493929190612fa7565b5f604051808303815f87803b15801561252a575f80fd5b505af115801561253c573d5f803e3d5ffd5b50506009546001600160a01b03161591506125ba905057600854600954604051638e1976e960e01b81526001600160a01b0392831692638e1976e99261258c928a928a9216908790600401612fa7565b5f604051808303815f87803b1580156125a3575f80fd5b505af11580156125b5573d5f803e3d5ffd5b505050505b5050505050565b6040516331a9108f60e11b8152600481018290525f9033906001600160a01b03851690636352211e90602401602060405180830381865afa158015612608573d5f803e3d5ffd5b505050506040513d601f19601f8201168201806040525081019061262c919061331b565b6001600160a01b0316149392505050565b5f805f61264a858561275b565b915091506126578161279d565b509392505050565b60085460405163020604bf60e21b8152600481018390525f9184916001600160a01b039182169183169063081812fc90602401602060405180830381865afa1580156126ad573d5f803e3d5ffd5b505050506040513d601f19601f820116820180604052508101906126d1919061331b565b6001600160a01b03161480612753575060085460405163e985e9c560e01b81523360048201526001600160a01b0391821660248201529082169063e985e9c590604401602060405180830381865afa15801561272f573d5f803e3d5ffd5b505050506040513d601f19601f820116820180604052508101906127539190613336565b949350505050565b5f80825160410361278f576020830151604084015160608501515f1a612783878285856128e9565b94509450505050612796565b505f905060025b9250929050565b5f8160048111156127b0576127b0612daf565b036127b85750565b60018160048111156127cc576127cc612daf565b036128195760405162461bcd60e51b815260206004820152601860248201527f45434453413a20696e76616c6964207369676e61747572650000000000000000604482015260640161065c565b600281600481111561282d5761282d612daf565b0361287a5760405162461bcd60e51b815260206004820152601f60248201527f45434453413a20696e76616c6964207369676e6174757265206c656e67746800604482015260640161065c565b600381600481111561288e5761288e612daf565b036128e65760405162461bcd60e51b815260206004820152602260248201527f45434453413a20696e76616c6964207369676e6174757265202773272076616c604482015261756560f01b606482015260840161065c565b50565b5f807f7fffffffffffffffffffffffffffffff5d576e7357a4501ddfe92f46681b20a083111561291e57505f9050600361299d565b604080515f8082526020820180845289905260ff881692820192909252606081018690526080810185905260019060a0016020604051602081039080840390855afa15801561296f573d5f803e3d5ffd5b5050604051601f1901519150506001600160a01b038116612997575f6001925092505061299d565b91505f90505b94509492505050565b6001600160a01b03811681146128e6575f80fd5b80356129c5816129a6565b919050565b5f602082840312156129da575f80fd5b8135612160816129a6565b5f61018082840312156129f6575f80fd5b50919050565b5f806101a08385031215612a0e575f80fd5b612a1884846129e5565b94610180939093013593505050565b5f61014082840312156129f6575f80fd5b634e487b7160e01b5f52604160045260245ffd5b604051610180810167ffffffffffffffff81118282101715612a7057612a70612a38565b60405290565b5f82601f830112612a85575f80fd5b813567ffffffffffffffff80821115612aa057612aa0612a38565b604051601f8301601f19908116603f01168101908282118183101715612ac857612ac8612a38565b81604052838152866020858801011115612ae0575f80fd5b836020870160208301375f602085830101528094505050505092915050565b5f805f6101808486031215612b12575f80fd5b612b1c8585612a27565b9250610140840135915061016084013567ffffffffffffffff811115612b40575f80fd5b612b4c86828701612a76565b9150509250925092565b5f806101a08385031215612b68575f80fd5b612b7284846129e5565b915061018083013567ffffffffffffffff811115612b8e575f80fd5b612b9a85828601612a76565b9150509250929050565b5f806101608385031215612bb6575f80fd5b612bc08484612a27565b915061014083013567ffffffffffffffff811115612b8e575f80fd5b5f8060408385031215612bed575f80fd5b8235612bf8816129a6565b946020939093013593505050565b5f8060408385031215612c17575f80fd5b8235612c22816129a6565b9150602083013560ff81168114612c37575f80fd5b809150509250929050565b5f805f6101c08486031215612c55575f80fd5b612c5f85856129e5565b925061018084013591506101a084013567ffffffffffffffff811115612b40575f80fd5b5f60208284031215612c93575f80fd5b5035919050565b5f806101608385031215612cac575f80fd5b612cb68484612a27565b94610140939093013593505050565b5f6020808352835180828501525f5b81811015612cf057858101830151858201604001528201612cd4565b505f604082860101526040601f19601f8301168501019250505092915050565b5f6101808284031215612d21575f80fd5b61216083836129e5565b5f6101408284031215612d3c575f80fd5b6121608383612a27565b60208082526022908201527f4f6e6c792061646d696e2063616e20706572666f726d2074686973206163746960408201526137b760f11b606082015260800190565b6020808252600d908201526c1a5b9cd958dd5c994818d85b1b609a1b604082015260600190565b634e487b7160e01b5f52602160045260245ffd5b8035600681106129c5575f80fd5b5f60208284031215612de1575f80fd5b61216082612dc3565b60208082526027908201527f506f6c617279732045786368616e67653a20746f6b656e20616c7265616479206040820152666f6e2073616c6560c81b606082015260800190565b8035600281106129c5575f80fd5b60028110612e4f57612e4f612daf565b9052565b60068110612e4f57612e4f612daf565b612e7582612e7083612e31565b612e3f565b612e8160208201612dc3565b612e8e6020840182612e53565b50612e9b604082016129ba565b6001600160a01b03166040830152612eb5606082016129ba565b6001600160a01b03166060830152612ecf608082016129ba565b6001600160a01b03166080830152612ee960a082016129ba565b6001600160a01b031660a083015260c0818101359083015260e0808201359083015261010080820135908301526101208082013590830152610140808201359083015261016090810135910152565b6001600160a01b03858116825284166020820152604081018390526101e08101611ed26060830184612e63565b5f60208284031215612f75575f80fd5b61216082612e31565b6001600160a01b0394851681529290931660208301526040820152606081019190915260800190565b6001600160a01b039485168152928416602084015292166040820152606081019190915260800190565b60208082526037908201527f506f6c617279732045786368616e67653a20496e76616c6964207369676e617460408201527f75726520666f72206f7264657220657865637574696f6e000000000000000000606082015260800190565b6020808252603d908201527f506f6c617279732045786368616e67653a20596f7520617265206e6f7420746860408201527f65206f776e6572206f7220746f6b656e206e6f7420617070726f766564000000606082015260800190565b5f610180828403121561309c575f80fd5b6130a4612a4c565b6130ad83612e31565b81526130bb60208401612dc3565b60208201526130cc604084016129ba565b60408201526130dd606084016129ba565b60608201526130ee608084016129ba565b60808201526130ff60a084016129ba565b60a082015260c0838101359082015260e08084013590820152610100808401359082015261012080840135908201526101408084013590820152610160928301359281019290925250919050565b60208082526021908201527f506f6c617279732045786368616e67653a2041756374696f6e206578706972656040820152601960fa1b606082015260800190565b61319b82612e7083612e31565b6131a760208201612dc3565b6131b46020840182612e53565b506131c1604082016129ba565b6001600160a01b031660408301526131db606082016129ba565b6001600160a01b031660608301526131f5608082016129ba565b6001600160a01b0316608083015261320f60a082016129ba565b6001600160a01b031660a083015260c0818101359083015260e08082013590830152610100808201359083015261012090810135910152565b6001600160a01b03858116825284166020820152604081018390526101a08101611ed2606083018461318e565b6101808101611e388284612e63565b6101408101611e38828461318e565b634e487b7160e01b5f52601160045260245ffd5b5f600182016132b8576132b8613293565b5060010190565b8082028115828204841417611e3857611e38613293565b5f826132f057634e487b7160e01b5f52601260045260245ffd5b500490565b80820180821115611e3857611e38613293565b81810381811115611e3857611e38613293565b5f6020828403121561332b575f80fd5b8151612160816129a6565b5f60208284031215613346575f80fd5b81518015158114612160575f80fdfea2646970667358221220badf229e9dd81eff2a427431b0aaafac993921f86d8e25d1cb43c374331fb41264736f6c63430008150033",
			"opcodes": "PUSH1 0x80 PUSH1 0x40 MSTORE CALLVALUE DUP1 ISZERO PUSH3 0x10 JUMPI PUSH0 DUP1 REVERT JUMPDEST POP PUSH1 0x1 PUSH0 SSTORE ADDRESS CALLER DUP2 PUSH3 0x6A JUMPI PUSH1 0x40 MLOAD PUSH3 0x461BCD PUSH1 0xE5 SHL DUP2 MSTORE PUSH1 0x20 PUSH1 0x4 DUP3 ADD MSTORE PUSH1 0x1E PUSH1 0x24 DUP3 ADD MSTORE PUSH32 0x496E76616C696420696D706C656D656E746174696F6E20616464726573730000 PUSH1 0x44 DUP3 ADD MSTORE PUSH1 0x64 ADD JUMPDEST PUSH1 0x40 MLOAD DUP1 SWAP2 SUB SWAP1 REVERT JUMPDEST PUSH1 0x1 PUSH1 0x1 PUSH1 0xA0 SHL SUB DUP2 AND PUSH3 0xC2 JUMPI PUSH1 0x40 MLOAD PUSH3 0x461BCD PUSH1 0xE5 SHL DUP2 MSTORE PUSH1 0x20 PUSH1 0x4 DUP3 ADD MSTORE PUSH1 0x15 PUSH1 0x24 DUP3 ADD MSTORE PUSH32 0x496E76616C69642061646D696E20616464726573730000000000000000000000 PUSH1 0x44 DUP3 ADD MSTORE PUSH1 0x64 ADD PUSH3 0x61 JUMP JUMPDEST PUSH1 0x1 DUP1 SLOAD PUSH1 0x1 PUSH1 0x1 PUSH1 0xA0 SHL SUB SWAP4 DUP5 AND PUSH1 0x1 PUSH1 0x1 PUSH1 0xA0 SHL SUB NOT SWAP2 DUP3 AND OR SWAP1 SWAP2 SSTORE PUSH1 0x2 DUP1 SLOAD SWAP3 SWAP1 SWAP4 AND SWAP2 AND OR SWAP1 SSTORE PUSH2 0x338B DUP1 PUSH3 0xFC PUSH0 CODECOPY PUSH0 RETURN INVALID PUSH1 0x80 PUSH1 0x40 MSTORE PUSH1 0x4 CALLDATASIZE LT PUSH2 0x1DB JUMPI PUSH0 CALLDATALOAD PUSH1 0xE0 SHR DUP1 PUSH4 0x8231F5DF GT PUSH2 0x101 JUMPI DUP1 PUSH4 0xC68FADE0 GT PUSH2 0x94 JUMPI DUP1 PUSH4 0xE2F273BD GT PUSH2 0x63 JUMPI DUP1 PUSH4 0xE2F273BD EQ PUSH2 0x5A7 JUMPI DUP1 PUSH4 0xEC58F41F EQ PUSH2 0x5C6 JUMPI DUP1 PUSH4 0xF851A440 EQ PUSH2 0x5E5 JUMPI DUP1 PUSH4 0xFFA1AD74 EQ PUSH2 0x602 JUMPI PUSH2 0x1E2 JUMP JUMPDEST DUP1 PUSH4 0xC68FADE0 EQ PUSH2 0x522 JUMPI DUP1 PUSH4 0xD89B9525 EQ PUSH2 0x535 JUMPI DUP1 PUSH4 0xD8CF5ED9 EQ PUSH2 0x554 JUMPI DUP1 PUSH4 0xDF5AA262 EQ PUSH2 0x569 JUMPI PUSH2 0x1E2 JUMP JUMPDEST DUP1 PUSH4 0x9F81A3B3 GT PUSH2 0xD0 JUMPI DUP1 PUSH4 0x9F81A3B3 EQ PUSH2 0x486 JUMPI DUP1 PUSH4 0xAEBDDE50 EQ PUSH2 0x4C5 JUMPI DUP1 PUSH4 0xB7A501A7 EQ PUSH2 0x4E4 JUMPI DUP1 PUSH4 0xBB660784 EQ PUSH2 0x503 JUMPI PUSH2 0x1E2 JUMP JUMPDEST DUP1 PUSH4 0x8231F5DF EQ PUSH2 0x3F7 JUMPI DUP1 PUSH4 0x8E7569D0 EQ PUSH2 0x40A JUMPI DUP1 PUSH4 0x8F919650 EQ PUSH2 0x435 JUMPI DUP1 PUSH4 0x978BBDB9 EQ PUSH2 0x454 JUMPI PUSH2 0x1E2 JUMP JUMPDEST DUP1 PUSH4 0x3FAD53F0 GT PUSH2 0x179 JUMPI DUP1 PUSH4 0x585D53D0 GT PUSH2 0x148 JUMPI DUP1 PUSH4 0x585D53D0 EQ PUSH2 0x36F JUMPI DUP1 PUSH4 0x5C60DA1B EQ PUSH2 0x382 JUMPI DUP1 PUSH4 0x73DB3CB4 EQ PUSH2 0x39F JUMPI DUP1 PUSH4 0x7F358469 EQ PUSH2 0x3D8 JUMPI PUSH2 0x1E2 JUMP JUMPDEST DUP1 PUSH4 0x3FAD53F0 EQ PUSH2 0x2D6 JUMPI DUP1 PUSH4 0x46904840 EQ PUSH2 0x2F5 JUMPI DUP1 PUSH4 0x4F17D2AF EQ PUSH2 0x331 JUMPI DUP1 PUSH4 0x548EB8E1 EQ PUSH2 0x350 JUMPI PUSH2 0x1E2 JUMP JUMPDEST DUP1 PUSH4 0x21C0C856 GT PUSH2 0x1B5 JUMPI DUP1 PUSH4 0x21C0C856 EQ PUSH2 0x272 JUMPI DUP1 PUSH4 0x258B7F22 EQ PUSH2 0x285 JUMPI DUP1 PUSH4 0x26977E64 EQ PUSH2 0x2A4 JUMPI DUP1 PUSH4 0x3B1EBB62 EQ PUSH2 0x2C3 JUMPI PUSH2 0x1E2 JUMP JUMPDEST DUP1 PUSH4 0x900F010 EQ PUSH2 0x215 JUMPI DUP1 PUSH4 0x1A2522D0 EQ PUSH2 0x234 JUMPI DUP1 PUSH4 0x1EE9BCAA EQ PUSH2 0x253 JUMPI PUSH2 0x1E2 JUMP JUMPDEST CALLDATASIZE PUSH2 0x1E2 JUMPI STOP JUMPDEST PUSH1 0x1 SLOAD PUSH1 0x40 MLOAD PUSH1 0x1 PUSH1 0x1 PUSH1 0xA0 SHL SUB SWAP1 SWAP2 AND SWAP1 CALLDATASIZE PUSH0 DUP3 CALLDATACOPY PUSH0 DUP1 CALLDATASIZE DUP4 DUP6 GAS DELEGATECALL RETURNDATASIZE DUP1 PUSH0 DUP5 RETURNDATACOPY DUP2 DUP1 ISZERO PUSH2 0x20F JUMPI DUP2 DUP5 RETURN JUMPDEST DUP2 DUP5 REVERT JUMPDEST STOP JUMPDEST CALLVALUE DUP1 ISZERO PUSH2 0x220 JUMPI PUSH0 DUP1 REVERT JUMPDEST POP PUSH2 0x213 PUSH2 0x22F CALLDATASIZE PUSH1 0x4 PUSH2 0x29CA JUMP JUMPDEST PUSH2 0x632 JUMP JUMPDEST CALLVALUE DUP1 ISZERO PUSH2 0x23F JUMPI PUSH0 DUP1 REVERT JUMPDEST POP PUSH2 0x213 PUSH2 0x24E CALLDATASIZE PUSH1 0x4 PUSH2 0x29FC JUMP JUMPDEST PUSH2 0x782 JUMP JUMPDEST CALLVALUE DUP1 ISZERO PUSH2 0x25E JUMPI PUSH0 DUP1 REVERT JUMPDEST POP PUSH2 0x213 PUSH2 0x26D CALLDATASIZE PUSH1 0x4 PUSH2 0x29FC JUMP JUMPDEST PUSH2 0xCCE JUMP JUMPDEST PUSH2 0x213 PUSH2 0x280 CALLDATASIZE PUSH1 0x4 PUSH2 0x2AFF JUMP JUMPDEST PUSH2 0xFF0 JUMP JUMPDEST CALLVALUE DUP1 ISZERO PUSH2 0x290 JUMPI PUSH0 DUP1 REVERT JUMPDEST POP PUSH2 0x213 PUSH2 0x29F CALLDATASIZE PUSH1 0x4 PUSH2 0x2B56 JUMP JUMPDEST PUSH2 0x10BE JUMP JUMPDEST CALLVALUE DUP1 ISZERO PUSH2 0x2AF JUMPI PUSH0 DUP1 REVERT JUMPDEST POP PUSH2 0x213 PUSH2 0x2BE CALLDATASIZE PUSH1 0x4 PUSH2 0x2BA4 JUMP JUMPDEST PUSH2 0x11C4 JUMP JUMPDEST PUSH2 0x213 PUSH2 0x2D1 CALLDATASIZE PUSH1 0x4 PUSH2 0x2BDC JUMP JUMPDEST PUSH2 0x12B5 JUMP JUMPDEST CALLVALUE DUP1 ISZERO PUSH2 0x2E1 JUMPI PUSH0 DUP1 REVERT JUMPDEST POP PUSH2 0x213 PUSH2 0x2F0 CALLDATASIZE PUSH1 0x4 PUSH2 0x2C06 JUMP JUMPDEST PUSH2 0x1363 JUMP JUMPDEST CALLVALUE DUP1 ISZERO PUSH2 0x300 JUMPI PUSH0 DUP1 REVERT JUMPDEST POP PUSH1 0x9 SLOAD PUSH2 0x314 SWAP1 PUSH1 0x1 PUSH1 0x1 PUSH1 0xA0 SHL SUB AND DUP2 JUMP JUMPDEST PUSH1 0x40 MLOAD PUSH1 0x1 PUSH1 0x1 PUSH1 0xA0 SHL SUB SWAP1 SWAP2 AND DUP2 MSTORE PUSH1 0x20 ADD JUMPDEST PUSH1 0x40 MLOAD DUP1 SWAP2 SUB SWAP1 RETURN JUMPDEST CALLVALUE DUP1 ISZERO PUSH2 0x33C JUMPI PUSH0 DUP1 REVERT JUMPDEST POP PUSH2 0x213 PUSH2 0x34B CALLDATASIZE PUSH1 0x4 PUSH2 0x29CA JUMP JUMPDEST PUSH2 0x13CA JUMP JUMPDEST CALLVALUE DUP1 ISZERO PUSH2 0x35B JUMPI PUSH0 DUP1 REVERT JUMPDEST POP PUSH2 0x213 PUSH2 0x36A CALLDATASIZE PUSH1 0x4 PUSH2 0x2C42 JUMP JUMPDEST PUSH2 0x1416 JUMP JUMPDEST PUSH2 0x213 PUSH2 0x37D CALLDATASIZE PUSH1 0x4 PUSH2 0x29FC JUMP JUMPDEST PUSH2 0x1584 JUMP JUMPDEST CALLVALUE DUP1 ISZERO PUSH2 0x38D JUMPI PUSH0 DUP1 REVERT JUMPDEST POP PUSH1 0x1 SLOAD PUSH1 0x1 PUSH1 0x1 PUSH1 0xA0 SHL SUB AND PUSH2 0x314 JUMP JUMPDEST CALLVALUE DUP1 ISZERO PUSH2 0x3AA JUMPI PUSH0 DUP1 REVERT JUMPDEST POP PUSH2 0x3CA PUSH2 0x3B9 CALLDATASIZE PUSH1 0x4 PUSH2 0x2C83 JUMP JUMPDEST PUSH0 SWAP1 DUP2 MSTORE PUSH1 0x7 PUSH1 0x20 MSTORE PUSH1 0x40 SWAP1 KECCAK256 SLOAD SWAP1 JUMP JUMPDEST PUSH1 0x40 MLOAD SWAP1 DUP2 MSTORE PUSH1 0x20 ADD PUSH2 0x328 JUMP JUMPDEST CALLVALUE DUP1 ISZERO PUSH2 0x3E3 JUMPI PUSH0 DUP1 REVERT JUMPDEST POP PUSH2 0x213 PUSH2 0x3F2 CALLDATASIZE PUSH1 0x4 PUSH2 0x2AFF JUMP JUMPDEST PUSH2 0x172A JUMP JUMPDEST PUSH2 0x213 PUSH2 0x405 CALLDATASIZE PUSH1 0x4 PUSH2 0x2C9A JUMP JUMPDEST PUSH2 0x1856 JUMP JUMPDEST CALLVALUE DUP1 ISZERO PUSH2 0x415 JUMPI PUSH0 DUP1 REVERT JUMPDEST POP PUSH2 0x3CA PUSH2 0x424 CALLDATASIZE PUSH1 0x4 PUSH2 0x2C83 JUMP JUMPDEST PUSH0 SWAP1 DUP2 MSTORE PUSH1 0x6 PUSH1 0x20 MSTORE PUSH1 0x40 SWAP1 KECCAK256 SLOAD SWAP1 JUMP JUMPDEST CALLVALUE DUP1 ISZERO PUSH2 0x440 JUMPI PUSH0 DUP1 REVERT JUMPDEST POP PUSH2 0x213 PUSH2 0x44F CALLDATASIZE PUSH1 0x4 PUSH2 0x2C9A JUMP JUMPDEST PUSH2 0x19C2 JUMP JUMPDEST CALLVALUE DUP1 ISZERO PUSH2 0x45F JUMPI PUSH0 DUP1 REVERT JUMPDEST POP PUSH1 0x9 SLOAD PUSH2 0x474 SWAP1 PUSH1 0x1 PUSH1 0xA8 SHL SWAP1 DIV PUSH1 0xFF AND DUP2 JUMP JUMPDEST PUSH1 0x40 MLOAD PUSH1 0xFF SWAP1 SWAP2 AND DUP2 MSTORE PUSH1 0x20 ADD PUSH2 0x328 JUMP JUMPDEST CALLVALUE DUP1 ISZERO PUSH2 0x491 JUMPI PUSH0 DUP1 REVERT JUMPDEST POP PUSH2 0x4B8 PUSH1 0x40 MLOAD DUP1 PUSH1 0x40 ADD PUSH1 0x40 MSTORE DUP1 PUSH1 0x7 DUP2 MSTORE PUSH1 0x20 ADD PUSH7 0x54414757454233 PUSH1 0xC8 SHL DUP2 MSTORE POP DUP2 JUMP JUMPDEST PUSH1 0x40 MLOAD PUSH2 0x328 SWAP2 SWAP1 PUSH2 0x2CC5 JUMP JUMPDEST CALLVALUE DUP1 ISZERO PUSH2 0x4D0 JUMPI PUSH0 DUP1 REVERT JUMPDEST POP PUSH2 0x3CA PUSH2 0x4DF CALLDATASIZE PUSH1 0x4 PUSH2 0x2D10 JUMP JUMPDEST PUSH2 0x1B53 JUMP JUMPDEST CALLVALUE DUP1 ISZERO PUSH2 0x4EF JUMPI PUSH0 DUP1 REVERT JUMPDEST POP PUSH1 0x8 SLOAD PUSH2 0x314 SWAP1 PUSH1 0x1 PUSH1 0x1 PUSH1 0xA0 SHL SUB AND DUP2 JUMP JUMPDEST CALLVALUE DUP1 ISZERO PUSH2 0x50E JUMPI PUSH0 DUP1 REVERT JUMPDEST POP PUSH2 0x314 PUSH2 0x51D CALLDATASIZE PUSH1 0x4 PUSH2 0x2C83 JUMP JUMPDEST PUSH2 0x1B82 JUMP JUMPDEST PUSH2 0x213 PUSH2 0x530 CALLDATASIZE PUSH1 0x4 PUSH2 0x2C42 JUMP JUMPDEST PUSH2 0x1B9C JUMP JUMPDEST CALLVALUE DUP1 ISZERO PUSH2 0x540 JUMPI PUSH0 DUP1 REVERT JUMPDEST POP PUSH2 0x213 PUSH2 0x54F CALLDATASIZE PUSH1 0x4 PUSH2 0x2C9A JUMP JUMPDEST PUSH2 0x1D00 JUMP JUMPDEST CALLVALUE DUP1 ISZERO PUSH2 0x55F JUMPI PUSH0 DUP1 REVERT JUMPDEST POP PUSH2 0x3CA PUSH1 0xA SLOAD DUP2 JUMP JUMPDEST CALLVALUE DUP1 ISZERO PUSH2 0x574 JUMPI PUSH0 DUP1 REVERT JUMPDEST POP PUSH2 0x597 PUSH2 0x583 CALLDATASIZE PUSH1 0x4 PUSH2 0x2C83 JUMP JUMPDEST PUSH0 SWAP1 DUP2 MSTORE PUSH1 0x4 PUSH1 0x20 MSTORE PUSH1 0x40 SWAP1 KECCAK256 SLOAD PUSH1 0xFF AND SWAP1 JUMP JUMPDEST PUSH1 0x40 MLOAD SWAP1 ISZERO ISZERO DUP2 MSTORE PUSH1 0x20 ADD PUSH2 0x328 JUMP JUMPDEST CALLVALUE DUP1 ISZERO PUSH2 0x5B2 JUMPI PUSH0 DUP1 REVERT JUMPDEST POP PUSH2 0x213 PUSH2 0x5C1 CALLDATASIZE PUSH1 0x4 PUSH2 0x29CA JUMP JUMPDEST PUSH2 0x1DB6 JUMP JUMPDEST CALLVALUE DUP1 ISZERO PUSH2 0x5D1 JUMPI PUSH0 DUP1 REVERT JUMPDEST POP PUSH2 0x3CA PUSH2 0x5E0 CALLDATASIZE PUSH1 0x4 PUSH2 0x2D2B JUMP JUMPDEST PUSH2 0x1E02 JUMP JUMPDEST CALLVALUE DUP1 ISZERO PUSH2 0x5F0 JUMPI PUSH0 DUP1 REVERT JUMPDEST POP PUSH1 0x2 SLOAD PUSH1 0x1 PUSH1 0x1 PUSH1 0xA0 SHL SUB AND PUSH2 0x314 JUMP JUMPDEST CALLVALUE DUP1 ISZERO PUSH2 0x60D JUMPI PUSH0 DUP1 REVERT JUMPDEST POP PUSH2 0x4B8 PUSH1 0x40 MLOAD DUP1 PUSH1 0x40 ADD PUSH1 0x40 MSTORE DUP1 PUSH1 0x5 DUP2 MSTORE PUSH1 0x20 ADD PUSH5 0x312E302E3 PUSH1 0xDC SHL DUP2 MSTORE POP DUP2 JUMP JUMPDEST PUSH1 0x2 SLOAD PUSH1 0x1 PUSH1 0x1 PUSH1 0xA0 SHL SUB AND CALLER EQ PUSH2 0x665 JUMPI PUSH1 0x40 MLOAD PUSH3 0x461BCD PUSH1 0xE5 SHL DUP2 MSTORE PUSH1 0x4 ADD PUSH2 0x65C SWAP1 PUSH2 0x2D46 JUMP JUMPDEST PUSH1 0x40 MLOAD DUP1 SWAP2 SUB SWAP1 REVERT JUMPDEST PUSH1 0x1 PUSH1 0x1 PUSH1 0xA0 SHL SUB DUP2 AND PUSH2 0x6C6 JUMPI PUSH1 0x40 MLOAD PUSH3 0x461BCD PUSH1 0xE5 SHL DUP2 MSTORE PUSH1 0x20 PUSH1 0x4 DUP3 ADD MSTORE PUSH1 0x22 PUSH1 0x24 DUP3 ADD MSTORE PUSH32 0x496E76616C6964206E657720696D706C656D656E746174696F6E206164647265 PUSH1 0x44 DUP3 ADD MSTORE PUSH2 0x7373 PUSH1 0xF0 SHL PUSH1 0x64 DUP3 ADD MSTORE PUSH1 0x84 ADD PUSH2 0x65C JUMP JUMPDEST PUSH1 0x1 SLOAD PUSH1 0x1 PUSH1 0x1 PUSH1 0xA0 SHL SUB SWAP1 DUP2 AND SWAP1 DUP3 AND SUB PUSH2 0x739 JUMPI PUSH1 0x40 MLOAD PUSH3 0x461BCD PUSH1 0xE5 SHL DUP2 MSTORE PUSH1 0x20 PUSH1 0x4 DUP3 ADD MSTORE PUSH1 0x2C PUSH1 0x24 DUP3 ADD MSTORE PUSH32 0x4E657720696D706C656D656E746174696F6E2061646472657373206D75737420 PUSH1 0x44 DUP3 ADD MSTORE PUSH12 0x189948191A5999995C995B9D PUSH1 0xA2 SHL PUSH1 0x64 DUP3 ADD MSTORE PUSH1 0x84 ADD PUSH2 0x65C JUMP JUMPDEST PUSH1 0x1 DUP1 SLOAD PUSH1 0x1 PUSH1 0x1 PUSH1 0xA0 SHL SUB NOT AND PUSH1 0x1 PUSH1 0x1 PUSH1 0xA0 SHL SUB DUP4 AND SWAP1 DUP2 OR SWAP1 SWAP2 SSTORE PUSH1 0x40 MLOAD PUSH32 0xBC7CD75A20EE27FD9ADEBAB32041F755214DBC6BFFA90CC0225B39DA2E5C2D3B SWAP1 PUSH0 SWAP1 LOG2 POP JUMP JUMPDEST PUSH1 0x9 SLOAD PUSH1 0x1 PUSH1 0xA0 SHL SWAP1 DIV PUSH1 0xFF AND PUSH2 0x7AB JUMPI PUSH1 0x40 MLOAD PUSH3 0x461BCD PUSH1 0xE5 SHL DUP2 MSTORE PUSH1 0x4 ADD PUSH2 0x65C SWAP1 PUSH2 0x2D88 JUMP JUMPDEST PUSH1 0x2 PUSH2 0x7BD PUSH1 0x40 DUP5 ADD PUSH1 0x20 DUP6 ADD PUSH2 0x2DD1 JUMP JUMPDEST PUSH1 0x5 DUP2 GT ISZERO PUSH2 0x7CE JUMPI PUSH2 0x7CE PUSH2 0x2DAF JUMP JUMPDEST SUB PUSH2 0x8A0 JUMPI PUSH2 0x7F0 PUSH2 0x7E6 PUSH1 0x60 DUP5 ADD PUSH1 0x40 DUP6 ADD PUSH2 0x29CA JUMP JUMPDEST DUP4 PUSH1 0xC0 ADD CALLDATALOAD PUSH2 0x1E14 JUMP JUMPDEST ISZERO DUP1 ISZERO PUSH2 0x800 JUMPI POP PUSH2 0x140 DUP3 ADD CALLDATALOAD ISZERO JUMPDEST PUSH2 0x81C JUMPI PUSH1 0x40 MLOAD PUSH3 0x461BCD PUSH1 0xE5 SHL DUP2 MSTORE PUSH1 0x4 ADD PUSH2 0x65C SWAP1 PUSH2 0x2DEA JUMP JUMPDEST PUSH2 0x83A PUSH2 0x82F PUSH1 0x60 DUP5 ADD PUSH1 0x40 DUP6 ADD PUSH2 0x29CA JUMP JUMPDEST DUP4 PUSH1 0xC0 ADD CALLDATALOAD DUP4 PUSH2 0x1E3E JUMP JUMPDEST PUSH1 0xC0 DUP3 ADD CALLDATALOAD CALLER PUSH32 0x35AC9EAC59B8C3168F5E4447CD7AFC6434CE47B273A2E2E2D04CE743B899DE7D PUSH2 0x871 PUSH1 0x80 DUP7 ADD PUSH1 0x60 DUP8 ADD PUSH2 0x29CA JUMP JUMPDEST PUSH2 0x881 PUSH1 0x60 DUP8 ADD PUSH1 0x40 DUP9 ADD PUSH2 0x29CA JUMP JUMPDEST DUP6 DUP8 PUSH1 0x40 MLOAD PUSH2 0x893 SWAP5 SWAP4 SWAP3 SWAP2 SWAP1 PUSH2 0x2F38 JUMP JUMPDEST PUSH1 0x40 MLOAD DUP1 SWAP2 SUB SWAP1 LOG3 PUSH2 0xCBD JUMP JUMPDEST PUSH1 0x4 PUSH2 0x8B2 PUSH1 0x40 DUP5 ADD PUSH1 0x20 DUP6 ADD PUSH2 0x2DD1 JUMP JUMPDEST PUSH1 0x5 DUP2 GT ISZERO PUSH2 0x8C3 JUMPI PUSH2 0x8C3 PUSH2 0x2DAF JUMP JUMPDEST SUB PUSH2 0xBB4 JUMPI PUSH0 PUSH2 0x8E6 PUSH2 0x8DC PUSH1 0x60 DUP6 ADD PUSH1 0x40 DUP7 ADD PUSH2 0x29CA JUMP JUMPDEST DUP5 PUSH1 0xC0 ADD CALLDATALOAD PUSH2 0x1E14 JUMP JUMPDEST SWAP1 POP PUSH2 0x90C PUSH2 0x140 DUP5 ADD CALLDATALOAD DUP4 PUSH2 0x902 PUSH1 0x60 DUP8 ADD PUSH1 0x40 DUP9 ADD PUSH2 0x29CA JUMP JUMPDEST DUP7 PUSH1 0xC0 ADD CALLDATALOAD PUSH2 0x1E99 JUMP JUMPDEST PUSH2 0x97E JUMPI PUSH1 0x40 MLOAD PUSH3 0x461BCD PUSH1 0xE5 SHL DUP2 MSTORE PUSH1 0x20 PUSH1 0x4 DUP3 ADD MSTORE PUSH1 0x39 PUSH1 0x24 DUP3 ADD MSTORE PUSH32 0x506F6C617279732045786368616E67653A2041756374696F6E20686173206E6F PUSH1 0x44 DUP3 ADD MSTORE PUSH32 0x7420656E646564206F7220696E76616C69642063616C6C657200000000000000 PUSH1 0x64 DUP3 ADD MSTORE PUSH1 0x84 ADD PUSH2 0x65C JUMP JUMPDEST PUSH2 0x9C7 PUSH2 0x98E PUSH1 0x20 DUP6 ADD DUP6 PUSH2 0x2F65 JUMP JUMPDEST PUSH2 0x99E PUSH1 0x60 DUP7 ADD PUSH1 0x40 DUP8 ADD PUSH2 0x29CA JUMP JUMPDEST PUSH2 0x9AE PUSH1 0xA0 DUP8 ADD PUSH1 0x80 DUP9 ADD PUSH2 0x29CA JUMP JUMPDEST PUSH2 0x9B7 DUP6 PUSH2 0x1B82 JUMP JUMPDEST DUP8 PUSH1 0xC0 ADD CALLDATALOAD DUP9 PUSH2 0x160 ADD CALLDATALOAD PUSH2 0x1EDB JUMP JUMPDEST PUSH2 0x9FD PUSH2 0x9DA PUSH1 0x80 DUP6 ADD PUSH1 0x60 DUP7 ADD PUSH2 0x29CA JUMP JUMPDEST PUSH2 0x9EA PUSH1 0xA0 DUP7 ADD PUSH1 0x80 DUP8 ADD PUSH2 0x29CA JUMP JUMPDEST PUSH0 DUP5 DUP2 MSTORE PUSH1 0x6 PUSH1 0x20 MSTORE PUSH1 0x40 SWAP1 KECCAK256 SLOAD PUSH2 0x1FF5 JUMP JUMPDEST PUSH1 0x3 PUSH0 PUSH2 0xA10 PUSH1 0x60 DUP7 ADD PUSH1 0x40 DUP8 ADD PUSH2 0x29CA JUMP JUMPDEST PUSH1 0x1 PUSH1 0x1 PUSH1 0xA0 SHL SUB AND DUP2 MSTORE PUSH1 0x20 DUP1 DUP3 ADD SWAP3 SWAP1 SWAP3 MSTORE PUSH1 0x40 SWAP1 DUP2 ADD PUSH0 SWAP1 DUP2 KECCAK256 PUSH1 0xC0 DUP8 ADD CALLDATALOAD DUP1 DUP4 MSTORE SWAP1 DUP5 MSTORE DUP3 DUP3 KECCAK256 DUP3 SWAP1 SSTORE DUP5 DUP3 MSTORE PUSH1 0x5 DUP5 MSTORE DUP3 DUP3 KECCAK256 DUP1 SLOAD PUSH1 0x1 PUSH1 0x1 PUSH1 0xA0 SHL SUB NOT AND SWAP1 SSTORE PUSH1 0x6 DUP5 MSTORE DUP3 DUP3 KECCAK256 DUP3 SWAP1 SSTORE PUSH1 0x7 DUP5 MSTORE DUP3 DUP3 KECCAK256 DUP3 SWAP1 SSTORE PUSH1 0x4 SWAP1 SWAP4 MSTORE KECCAK256 DUP1 SLOAD PUSH1 0xFF NOT AND PUSH1 0x1 OR SWAP1 SSTORE PUSH2 0xA84 DUP3 PUSH2 0x1B82 JUMP JUMPDEST PUSH1 0x1 PUSH1 0x1 PUSH1 0xA0 SHL SUB AND PUSH2 0xA9D PUSH1 0xA0 DUP7 ADD PUSH1 0x80 DUP8 ADD PUSH2 0x29CA JUMP JUMPDEST PUSH1 0x1 PUSH1 0x1 PUSH1 0xA0 SHL SUB AND PUSH32 0x6BE48AFE3D3198771D849C4FEDAFCE4823B0FEFB75D8726E35E9805A3F211086 PUSH2 0xAD7 PUSH1 0x60 DUP9 ADD PUSH1 0x40 DUP10 ADD PUSH2 0x29CA JUMP JUMPDEST PUSH2 0xAE7 PUSH1 0x80 DUP10 ADD PUSH1 0x60 DUP11 ADD PUSH2 0x29CA JUMP JUMPDEST PUSH0 DUP8 DUP2 MSTORE PUSH1 0x6 PUSH1 0x20 MSTORE PUSH1 0x40 SWAP1 KECCAK256 SLOAD DUP8 PUSH1 0x40 MLOAD PUSH2 0xB06 SWAP5 SWAP4 SWAP3 SWAP2 SWAP1 PUSH2 0x2F7E JUMP JUMPDEST PUSH1 0x40 MLOAD DUP1 SWAP2 SUB SWAP1 LOG4 DUP3 PUSH1 0xC0 ADD CALLDATALOAD PUSH2 0xB1C DUP3 PUSH2 0x1B82 JUMP JUMPDEST PUSH1 0x1 PUSH1 0x1 PUSH1 0xA0 SHL SUB AND PUSH2 0xB35 PUSH1 0xA0 DUP7 ADD PUSH1 0x80 DUP8 ADD PUSH2 0x29CA JUMP JUMPDEST PUSH1 0x1 PUSH1 0x1 PUSH1 0xA0 SHL SUB AND PUSH32 0x6D794D38D52C34DB77F62ADCAE8C890DC87664E863643CB6363A6AD4D1FC5FD0 PUSH2 0xB6F PUSH1 0x60 DUP9 ADD PUSH1 0x40 DUP10 ADD PUSH2 0x29CA JUMP JUMPDEST PUSH2 0xB7F PUSH1 0x80 DUP10 ADD PUSH1 0x60 DUP11 ADD PUSH2 0x29CA JUMP JUMPDEST PUSH0 DUP8 DUP2 MSTORE PUSH1 0x6 PUSH1 0x20 MSTORE PUSH1 0x40 SWAP1 KECCAK256 SLOAD DUP8 PUSH1 0x40 MLOAD PUSH2 0xB9E SWAP5 SWAP4 SWAP3 SWAP2 SWAP1 PUSH2 0x2F7E JUMP JUMPDEST PUSH1 0x40 MLOAD DUP1 SWAP2 SUB SWAP1 LOG4 PUSH2 0xBAE PUSH2 0x213F JUMP JUMPDEST POP PUSH2 0xCBD JUMP JUMPDEST PUSH0 PUSH2 0xBC8 PUSH2 0x8DC PUSH1 0x60 DUP6 ADD PUSH1 0x40 DUP7 ADD PUSH2 0x29CA JUMP JUMPDEST SWAP1 POP PUSH0 PUSH2 0xBD4 DUP3 PUSH2 0x1B82 JUMP JUMPDEST PUSH1 0x1 PUSH1 0x1 PUSH1 0xA0 SHL SUB AND EQ DUP1 ISZERO PUSH2 0xBF5 JUMPI POP PUSH0 DUP2 DUP2 MSTORE PUSH1 0x6 PUSH1 0x20 MSTORE PUSH1 0x40 SWAP1 KECCAK256 SLOAD ISZERO JUMPDEST PUSH2 0xC4F JUMPI PUSH1 0x40 MLOAD PUSH3 0x461BCD PUSH1 0xE5 SHL DUP2 MSTORE PUSH1 0x20 PUSH1 0x4 DUP3 ADD MSTORE PUSH1 0x25 PUSH1 0x24 DUP3 ADD MSTORE PUSH32 0x506F6C617279732045786368616E67653A2041756374696F6E20686173207374 PUSH1 0x44 DUP3 ADD MSTORE PUSH5 0x185C9D1959 PUSH1 0xDA SHL PUSH1 0x64 DUP3 ADD MSTORE PUSH1 0x84 ADD PUSH2 0x65C JUMP JUMPDEST PUSH1 0x3 PUSH0 PUSH2 0xC62 PUSH1 0x60 DUP7 ADD PUSH1 0x40 DUP8 ADD PUSH2 0x29CA JUMP JUMPDEST PUSH1 0x1 PUSH1 0x1 PUSH1 0xA0 SHL SUB AND DUP2 MSTORE PUSH1 0x20 DUP1 DUP3 ADD SWAP3 SWAP1 SWAP3 MSTORE PUSH1 0x40 SWAP1 DUP2 ADD PUSH0 SWAP1 DUP2 KECCAK256 PUSH1 0xC0 DUP8 ADD CALLDATALOAD DUP3 MSTORE DUP4 MSTORE DUP2 DUP2 KECCAK256 SSTORE MLOAD DUP4 DUP2 MSTORE PUSH32 0x5F8F216FD2E5BDC47DEB48C822665830695F90B549772AE028D6FC3C4832C5B1 SWAP2 ADD PUSH1 0x40 MLOAD DUP1 SWAP2 SUB SWAP1 LOG1 POP JUMPDEST POP POP PUSH1 0x9 DUP1 SLOAD PUSH1 0xFF PUSH1 0xA0 SHL NOT AND SWAP1 SSTORE JUMP JUMPDEST PUSH1 0x9 SLOAD PUSH1 0x1 PUSH1 0xA0 SHL SWAP1 DIV PUSH1 0xFF AND PUSH2 0xCF7 JUMPI PUSH1 0x40 MLOAD PUSH3 0x461BCD PUSH1 0xE5 SHL DUP2 MSTORE PUSH1 0x4 ADD PUSH2 0x65C SWAP1 PUSH2 0x2D88 JUMP JUMPDEST PUSH0 PUSH2 0xD01 DUP3 PUSH2 0x1B82 JUMP JUMPDEST PUSH1 0x1 PUSH1 0x1 PUSH1 0xA0 SHL SUB AND EQ ISZERO DUP1 ISZERO PUSH2 0xD24 JUMPI POP PUSH0 DUP2 DUP2 MSTORE PUSH1 0x6 PUSH1 0x20 MSTORE PUSH1 0x40 SWAP1 KECCAK256 SLOAD ISZERO ISZERO JUMPDEST ISZERO PUSH2 0xE92 JUMPI PUSH0 PUSH2 0xD33 DUP3 PUSH2 0x1B82 JUMP JUMPDEST PUSH0 DUP4 DUP2 MSTORE PUSH1 0x6 PUSH1 0x20 MSTORE PUSH1 0x40 DUP2 KECCAK256 SLOAD SWAP2 SWAP3 POP PUSH2 0xD5A PUSH1 0x64 PUSH2 0xD54 DUP5 PUSH1 0x2 PUSH2 0x2155 JUMP JUMPDEST SWAP1 PUSH2 0x2167 JUMP JUMPDEST SWAP1 POP DUP1 DUP6 PUSH2 0x100 ADD CALLDATALOAD GT PUSH2 0xDD6 JUMPI PUSH1 0x40 MLOAD PUSH3 0x461BCD PUSH1 0xE5 SHL DUP2 MSTORE PUSH1 0x20 PUSH1 0x4 DUP3 ADD MSTORE PUSH1 0x3B PUSH1 0x24 DUP3 ADD MSTORE PUSH32 0x506F6C617279732045786368616E67653A204D696E696D756D20726571756972 PUSH1 0x44 DUP3 ADD MSTORE PUSH32 0x6564203225206D6F7265207468616E2063757272656E74204269640000000000 PUSH1 0x64 DUP3 ADD MSTORE PUSH1 0x84 ADD PUSH2 0x65C JUMP JUMPDEST PUSH1 0x8 SLOAD PUSH1 0x1 PUSH1 0x1 PUSH1 0xA0 SHL SUB AND PUSH4 0xB97BE865 PUSH2 0xDF7 PUSH1 0x80 DUP9 ADD PUSH1 0x60 DUP10 ADD PUSH2 0x29CA JUMP JUMPDEST PUSH1 0x40 MLOAD PUSH1 0x1 PUSH1 0x1 PUSH1 0xE0 SHL SUB NOT PUSH1 0xE0 DUP5 SWAP1 SHL AND DUP2 MSTORE PUSH1 0x1 PUSH1 0x1 PUSH1 0xA0 SHL SUB SWAP2 DUP3 AND PUSH1 0x4 DUP3 ADD MSTORE SWAP1 DUP7 AND PUSH1 0x24 DUP3 ADD MSTORE PUSH1 0x44 DUP2 ADD DUP6 SWAP1 MSTORE PUSH1 0x64 ADD PUSH0 PUSH1 0x40 MLOAD DUP1 DUP4 SUB DUP2 PUSH0 DUP8 DUP1 EXTCODESIZE ISZERO DUP1 ISZERO PUSH2 0xE44 JUMPI PUSH0 DUP1 REVERT JUMPDEST POP GAS CALL ISZERO DUP1 ISZERO PUSH2 0xE56 JUMPI RETURNDATASIZE PUSH0 DUP1 RETURNDATACOPY RETURNDATASIZE PUSH0 REVERT JUMPDEST POP POP POP PUSH0 DUP6 DUP2 MSTORE PUSH1 0x5 PUSH1 0x20 SWAP1 DUP2 MSTORE PUSH1 0x40 DUP1 DUP4 KECCAK256 DUP1 SLOAD PUSH1 0x1 PUSH1 0x1 PUSH1 0xA0 SHL SUB NOT AND CALLER OR SWAP1 SSTORE PUSH1 0x6 SWAP1 SWAP2 MSTORE SWAP1 KECCAK256 PUSH2 0x100 DUP8 ADD CALLDATALOAD SWAP1 SSTORE POP PUSH2 0xF48 SWAP3 POP POP POP JUMP JUMPDEST PUSH1 0x8 SLOAD PUSH1 0x1 PUSH1 0x1 PUSH1 0xA0 SHL SUB AND PUSH4 0x8E1976E9 PUSH2 0xEB3 PUSH1 0x80 DUP6 ADD PUSH1 0x60 DUP7 ADD PUSH2 0x29CA JUMP JUMPDEST CALLER ADDRESS DUP7 PUSH2 0x100 ADD CALLDATALOAD PUSH1 0x40 MLOAD DUP6 PUSH4 0xFFFFFFFF AND PUSH1 0xE0 SHL DUP2 MSTORE PUSH1 0x4 ADD PUSH2 0xEDA SWAP5 SWAP4 SWAP3 SWAP2 SWAP1 PUSH2 0x2FA7 JUMP JUMPDEST PUSH0 PUSH1 0x40 MLOAD DUP1 DUP4 SUB DUP2 PUSH0 DUP8 DUP1 EXTCODESIZE ISZERO DUP1 ISZERO PUSH2 0xEF1 JUMPI PUSH0 DUP1 REVERT JUMPDEST POP GAS CALL ISZERO DUP1 ISZERO PUSH2 0xF03 JUMPI RETURNDATASIZE PUSH0 DUP1 RETURNDATACOPY RETURNDATASIZE PUSH0 REVERT JUMPDEST POP POP POP POP PUSH2 0xF0F PUSH2 0x2172 JUMP JUMPDEST PUSH0 DUP3 DUP2 MSTORE PUSH1 0x7 PUSH1 0x20 SWAP1 DUP2 MSTORE PUSH1 0x40 DUP1 DUP4 KECCAK256 SWAP4 SWAP1 SWAP4 SSTORE PUSH1 0x5 DUP2 MSTORE DUP3 DUP3 KECCAK256 DUP1 SLOAD PUSH1 0x1 PUSH1 0x1 PUSH1 0xA0 SHL SUB NOT AND CALLER OR SWAP1 SSTORE PUSH1 0x6 SWAP1 MSTORE KECCAK256 PUSH2 0x100 DUP4 ADD CALLDATALOAD SWAP1 SSTORE JUMPDEST PUSH1 0xC0 DUP3 ADD CALLDATALOAD CALLER PUSH2 0xF5E PUSH1 0xA0 DUP6 ADD PUSH1 0x80 DUP7 ADD PUSH2 0x29CA JUMP JUMPDEST PUSH1 0x1 PUSH1 0x1 PUSH1 0xA0 SHL SUB AND PUSH32 0x8276EFB7A040B9314C89F6444F0D221AC94F714076FC6B3F5CE718841E1A03EA PUSH2 0xF98 PUSH1 0x80 DUP8 ADD PUSH1 0x60 DUP9 ADD PUSH2 0x29CA JUMP JUMPDEST PUSH2 0x100 DUP8 ADD CALLDATALOAD PUSH2 0xFAE PUSH1 0x60 DUP10 ADD PUSH1 0x40 DUP11 ADD PUSH2 0x29CA JUMP JUMPDEST PUSH1 0x40 DUP1 MLOAD PUSH1 0x1 PUSH1 0x1 PUSH1 0xA0 SHL SUB SWAP5 DUP6 AND DUP2 MSTORE PUSH1 0x20 DUP2 ADD SWAP4 SWAP1 SWAP4 MSTORE SWAP3 AND DUP2 DUP4 ADD MSTORE PUSH1 0x60 DUP2 ADD DUP8 SWAP1 MSTORE SWAP1 MLOAD SWAP1 DUP2 SWAP1 SUB PUSH1 0x80 ADD SWAP1 LOG4 POP POP PUSH1 0x9 DUP1 SLOAD PUSH1 0xFF PUSH1 0xA0 SHL NOT AND SWAP1 SSTORE JUMP JUMPDEST CALLVALUE PUSH0 SUB PUSH2 0xFFB JUMPI PUSH0 DUP1 REVERT JUMPDEST PUSH2 0x1003 PUSH2 0x2182 JUMP JUMPDEST PUSH2 0x100E DUP3 DUP3 CALLER PUSH2 0x21D9 JUMP JUMPDEST PUSH2 0x102A JUMPI PUSH1 0x40 MLOAD PUSH3 0x461BCD PUSH1 0xE5 SHL DUP2 MSTORE PUSH1 0x4 ADD PUSH2 0x65C SWAP1 PUSH2 0x2FD1 JUMP JUMPDEST PUSH2 0x1034 DUP4 DUP4 PUSH2 0x222C JUMP JUMPDEST PUSH2 0x1093 JUMPI PUSH1 0x40 MLOAD PUSH3 0x461BCD PUSH1 0xE5 SHL DUP2 MSTORE PUSH1 0x20 PUSH1 0x4 DUP3 ADD MSTORE PUSH1 0x2A PUSH1 0x24 DUP3 ADD MSTORE PUSH32 0x506F6C617279732045786368616E67653A20496E76616C6964206F7264657220 PUSH1 0x44 DUP3 ADD MSTORE PUSH10 0x706172656D6574657273 PUSH1 0xB0 SHL PUSH1 0x64 DUP3 ADD MSTORE PUSH1 0x84 ADD PUSH2 0x65C JUMP JUMPDEST PUSH1 0x9 DUP1 SLOAD PUSH1 0xFF PUSH1 0xA0 SHL NOT AND PUSH1 0x1 PUSH1 0xA0 SHL OR SWAP1 SSTORE PUSH2 0x10B0 DUP4 DUP4 PUSH2 0x1856 JUMP JUMPDEST PUSH2 0x10B9 PUSH1 0x1 PUSH0 SSTORE JUMP JUMPDEST POP POP POP JUMP JUMPDEST PUSH2 0x10C6 PUSH2 0x2182 JUMP JUMPDEST PUSH0 PUSH1 0x4 PUSH2 0x10D9 PUSH1 0x40 DUP6 ADD PUSH1 0x20 DUP7 ADD PUSH2 0x2DD1 JUMP JUMPDEST PUSH1 0x5 DUP2 GT ISZERO PUSH2 0x10EA JUMPI PUSH2 0x10EA PUSH2 0x2DAF JUMP JUMPDEST SUB PUSH2 0x1109 JUMPI PUSH2 0x1102 PUSH2 0x8DC PUSH1 0x60 DUP6 ADD PUSH1 0x40 DUP7 ADD PUSH2 0x29CA JUMP JUMPDEST SWAP1 POP PUSH2 0x1115 JUMP JUMPDEST PUSH2 0x1112 DUP4 PUSH2 0x1B53 JUMP JUMPDEST SWAP1 POP JUMPDEST PUSH2 0x1120 DUP2 DUP4 CALLER PUSH2 0x21D9 JUMP JUMPDEST PUSH2 0x113C JUMPI PUSH1 0x40 MLOAD PUSH3 0x461BCD PUSH1 0xE5 SHL DUP2 MSTORE PUSH1 0x4 ADD PUSH2 0x65C SWAP1 PUSH2 0x2FD1 JUMP JUMPDEST PUSH2 0x1159 PUSH2 0x114F PUSH1 0x60 DUP6 ADD PUSH1 0x40 DUP7 ADD PUSH2 0x29CA JUMP JUMPDEST DUP5 PUSH1 0xC0 ADD CALLDATALOAD PUSH2 0x22EE JUMP JUMPDEST DUP1 PUSH2 0x117D JUMPI POP PUSH2 0x1168 DUP2 PUSH2 0x1B82 JUMP JUMPDEST PUSH1 0x1 PUSH1 0x1 PUSH1 0xA0 SHL SUB AND CALLER PUSH1 0x1 PUSH1 0x1 PUSH1 0xA0 SHL SUB AND EQ JUMPDEST PUSH2 0x1199 JUMPI PUSH1 0x40 MLOAD PUSH3 0x461BCD PUSH1 0xE5 SHL DUP2 MSTORE PUSH1 0x4 ADD PUSH2 0x65C SWAP1 PUSH2 0x302E JUMP JUMPDEST PUSH1 0x9 DUP1 SLOAD PUSH1 0xFF PUSH1 0xA0 SHL NOT AND PUSH1 0x1 PUSH1 0xA0 SHL OR SWAP1 SSTORE PUSH2 0x11B6 DUP4 DUP3 PUSH2 0x782 JUMP JUMPDEST POP PUSH2 0x11C0 PUSH1 0x1 PUSH0 SSTORE JUMP JUMPDEST POP POP JUMP JUMPDEST PUSH2 0x11CC PUSH2 0x2182 JUMP JUMPDEST PUSH0 DUP1 PUSH2 0x11DE PUSH1 0x40 DUP6 ADD PUSH1 0x20 DUP7 ADD PUSH2 0x2DD1 JUMP JUMPDEST PUSH1 0x5 DUP2 GT ISZERO PUSH2 0x11EF JUMPI PUSH2 0x11EF PUSH2 0x2DAF JUMP JUMPDEST SUB PUSH2 0x1204 JUMPI PUSH2 0x11FD DUP4 PUSH2 0x1E02 JUMP JUMPDEST SWAP1 POP PUSH2 0x1242 JUMP JUMPDEST PUSH1 0x5 PUSH2 0x1216 PUSH1 0x40 DUP6 ADD PUSH1 0x20 DUP7 ADD PUSH2 0x2DD1 JUMP JUMPDEST PUSH1 0x5 DUP2 GT ISZERO PUSH2 0x1227 JUMPI PUSH2 0x1227 PUSH2 0x2DAF JUMP JUMPDEST SUB PUSH2 0x1242 JUMPI PUSH2 0x123F PUSH2 0x8DC PUSH1 0x60 DUP6 ADD PUSH1 0x40 DUP7 ADD PUSH2 0x29CA JUMP JUMPDEST SWAP1 POP JUMPDEST PUSH2 0x124D DUP2 DUP4 CALLER PUSH2 0x21D9 JUMP JUMPDEST PUSH2 0x1269 JUMPI PUSH1 0x40 MLOAD PUSH3 0x461BCD PUSH1 0xE5 SHL DUP2 MSTORE PUSH1 0x4 ADD PUSH2 0x65C SWAP1 PUSH2 0x2FD1 JUMP JUMPDEST PUSH2 0x127C PUSH2 0x114F PUSH1 0x60 DUP6 ADD PUSH1 0x40 DUP7 ADD PUSH2 0x29CA JUMP JUMPDEST PUSH2 0x1298 JUMPI PUSH1 0x40 MLOAD PUSH3 0x461BCD PUSH1 0xE5 SHL DUP2 MSTORE PUSH1 0x4 ADD PUSH2 0x65C SWAP1 PUSH2 0x302E JUMP JUMPDEST PUSH1 0x9 DUP1 SLOAD PUSH1 0xFF PUSH1 0xA0 SHL NOT AND PUSH1 0x1 PUSH1 0xA0 SHL OR SWAP1 SSTORE PUSH2 0x11B6 DUP4 DUP3 PUSH2 0x19C2 JUMP JUMPDEST PUSH1 0x9 SLOAD PUSH0 SWAP1 PUSH2 0x12D6 SWAP1 PUSH1 0x64 SWAP1 PUSH2 0xD54 SWAP1 DUP6 SWAP1 PUSH1 0x1 PUSH1 0xA8 SHL SWAP1 DIV PUSH1 0xFF AND PUSH2 0x2155 JUMP JUMPDEST SWAP1 POP PUSH1 0x1 PUSH1 0x1 PUSH1 0xA0 SHL SUB DUP4 AND PUSH2 0x8FC PUSH2 0x12EF DUP5 DUP5 PUSH2 0x230A JUMP JUMPDEST PUSH1 0x40 MLOAD DUP2 ISZERO SWAP1 SWAP3 MUL SWAP2 PUSH0 DUP2 DUP2 DUP2 DUP6 DUP9 DUP9 CALL SWAP4 POP POP POP POP ISZERO DUP1 ISZERO PUSH2 0x1314 JUMPI RETURNDATASIZE PUSH0 DUP1 RETURNDATACOPY RETURNDATASIZE PUSH0 REVERT JUMPDEST POP PUSH1 0x9 SLOAD PUSH1 0x1 PUSH1 0x1 PUSH1 0xA0 SHL SUB AND ISZERO PUSH2 0x10B9 JUMPI PUSH1 0x9 SLOAD PUSH1 0x40 MLOAD PUSH1 0x1 PUSH1 0x1 PUSH1 0xA0 SHL SUB SWAP1 SWAP2 AND SWAP1 DUP3 ISZERO PUSH2 0x8FC MUL SWAP1 DUP4 SWAP1 PUSH0 DUP2 DUP2 DUP2 DUP6 DUP9 DUP9 CALL SWAP4 POP POP POP POP ISZERO DUP1 ISZERO PUSH2 0x135D JUMPI RETURNDATASIZE PUSH0 DUP1 RETURNDATACOPY RETURNDATASIZE PUSH0 REVERT JUMPDEST POP POP POP POP JUMP JUMPDEST PUSH1 0x2 SLOAD PUSH1 0x1 PUSH1 0x1 PUSH1 0xA0 SHL SUB AND CALLER EQ PUSH2 0x138D JUMPI PUSH1 0x40 MLOAD PUSH3 0x461BCD PUSH1 0xE5 SHL DUP2 MSTORE PUSH1 0x4 ADD PUSH2 0x65C SWAP1 PUSH2 0x2D46 JUMP JUMPDEST PUSH1 0x9 DUP1 SLOAD PUSH1 0x1 PUSH1 0x1 PUSH1 0xA0 SHL SUB SWAP1 SWAP4 AND PUSH1 0x1 PUSH1 0x1 PUSH1 0xA0 SHL SUB NOT PUSH1 0xFF SWAP1 SWAP4 AND PUSH1 0x1 PUSH1 0xA8 SHL MUL SWAP3 SWAP1 SWAP3 AND PUSH1 0x1 PUSH2 0xFF01 PUSH1 0xA0 SHL SUB NOT SWAP1 SWAP4 AND SWAP3 SWAP1 SWAP3 OR OR SWAP1 SSTORE JUMP JUMPDEST PUSH1 0x2 SLOAD PUSH1 0x1 PUSH1 0x1 PUSH1 0xA0 SHL SUB AND CALLER EQ PUSH2 0x13F4 JUMPI PUSH1 0x40 MLOAD PUSH3 0x461BCD PUSH1 0xE5 SHL DUP2 MSTORE PUSH1 0x4 ADD PUSH2 0x65C SWAP1 PUSH2 0x2D46 JUMP JUMPDEST PUSH1 0x8 DUP1 SLOAD PUSH1 0x1 PUSH1 0x1 PUSH1 0xA0 SHL SUB NOT AND PUSH1 0x1 PUSH1 0x1 PUSH1 0xA0 SHL SUB SWAP3 SWAP1 SWAP3 AND SWAP2 SWAP1 SWAP2 OR SWAP1 SSTORE JUMP JUMPDEST PUSH2 0x141E PUSH2 0x2182 JUMP JUMPDEST PUSH0 PUSH2 0x142F PUSH1 0x80 DUP6 ADD PUSH1 0x60 DUP7 ADD PUSH2 0x29CA JUMP JUMPDEST PUSH1 0x1 PUSH1 0x1 PUSH1 0xA0 SHL SUB AND SUB PUSH2 0x1485 JUMPI PUSH1 0x40 MLOAD PUSH3 0x461BCD PUSH1 0xE5 SHL DUP2 MSTORE PUSH1 0x20 PUSH1 0x4 DUP3 ADD MSTORE PUSH1 0x1F PUSH1 0x24 DUP3 ADD MSTORE PUSH32 0x506F6C617279732045786368616E67653A20496E76616C696420455243323000 PUSH1 0x44 DUP3 ADD MSTORE PUSH1 0x64 ADD PUSH2 0x65C JUMP JUMPDEST PUSH2 0x1490 DUP3 DUP3 CALLER PUSH2 0x21D9 JUMP JUMPDEST PUSH2 0x14AC JUMPI PUSH1 0x40 MLOAD PUSH3 0x461BCD PUSH1 0xE5 SHL DUP2 MSTORE PUSH1 0x4 ADD PUSH2 0x65C SWAP1 PUSH2 0x2FD1 JUMP JUMPDEST PUSH2 0x14C4 PUSH2 0x14BE CALLDATASIZE DUP6 SWAP1 SUB DUP6 ADD DUP6 PUSH2 0x308B JUMP JUMPDEST DUP4 PUSH2 0x2315 JUMP JUMPDEST PUSH2 0x1523 JUMPI PUSH1 0x40 MLOAD PUSH3 0x461BCD PUSH1 0xE5 SHL DUP2 MSTORE PUSH1 0x20 PUSH1 0x4 DUP3 ADD MSTORE PUSH1 0x2A PUSH1 0x24 DUP3 ADD MSTORE PUSH32 0x506F6C617279732045786368616E67653A204F726465722063616E63656C6564 PUSH1 0x44 DUP3 ADD MSTORE PUSH10 0x81BDC88199A5B1B1959 PUSH1 0xB2 SHL PUSH1 0x64 DUP3 ADD MSTORE PUSH1 0x84 ADD PUSH2 0x65C JUMP JUMPDEST PUSH0 PUSH2 0x152D DUP4 PUSH2 0x1B82 JUMP JUMPDEST PUSH1 0x1 PUSH1 0x1 PUSH1 0xA0 SHL SUB AND EQ PUSH2 0x1567 JUMPI PUSH0 DUP3 DUP2 MSTORE PUSH1 0x7 PUSH1 0x20 MSTORE PUSH1 0x40 SWAP1 KECCAK256 SLOAD TIMESTAMP LT PUSH2 0x1567 JUMPI PUSH1 0x40 MLOAD PUSH3 0x461BCD PUSH1 0xE5 SHL DUP2 MSTORE PUSH1 0x4 ADD PUSH2 0x65C SWAP1 PUSH2 0x314D JUMP JUMPDEST PUSH1 0x9 DUP1 SLOAD PUSH1 0xFF PUSH1 0xA0 SHL NOT AND PUSH1 0x1 PUSH1 0xA0 SHL OR SWAP1 SSTORE PUSH2 0x10B0 DUP4 DUP4 PUSH2 0xCCE JUMP JUMPDEST PUSH1 0x9 SLOAD PUSH1 0x1 PUSH1 0xA0 SHL SWAP1 DIV PUSH1 0xFF AND PUSH2 0x15AD JUMPI PUSH1 0x40 MLOAD PUSH3 0x461BCD PUSH1 0xE5 SHL DUP2 MSTORE PUSH1 0x4 ADD PUSH2 0x65C SWAP1 PUSH2 0x2D88 JUMP JUMPDEST PUSH0 PUSH2 0x15B7 DUP3 PUSH2 0x1B82 JUMP JUMPDEST PUSH1 0x1 PUSH1 0x1 PUSH1 0xA0 SHL SUB AND EQ ISZERO DUP1 ISZERO PUSH2 0x15DA JUMPI POP PUSH0 DUP2 DUP2 MSTORE PUSH1 0x6 PUSH1 0x20 MSTORE PUSH1 0x40 SWAP1 KECCAK256 SLOAD ISZERO ISZERO JUMPDEST ISZERO PUSH2 0x16D9 JUMPI PUSH0 PUSH2 0x15E9 DUP3 PUSH2 0x1B82 JUMP JUMPDEST PUSH0 DUP4 DUP2 MSTORE PUSH1 0x6 PUSH1 0x20 MSTORE PUSH1 0x40 DUP2 KECCAK256 SLOAD SWAP2 SWAP3 POP PUSH2 0x160A PUSH1 0x64 PUSH2 0xD54 DUP5 PUSH1 0x2 PUSH2 0x2155 JUMP JUMPDEST SWAP1 POP DUP1 CALLVALUE GT DUP1 ISZERO PUSH2 0x161F JUMPI POP DUP1 DUP6 PUSH2 0x100 ADD CALLDATALOAD GT JUMPDEST PUSH2 0x169D JUMPI PUSH1 0x40 MLOAD PUSH3 0x461BCD PUSH1 0xE5 SHL DUP2 MSTORE PUSH1 0x20 PUSH1 0x4 DUP3 ADD MSTORE PUSH1 0x43 PUSH1 0x24 DUP3 ADD MSTORE PUSH32 0x506F6C617279732045786368616E67653A204D696E696D756D20726571756972 PUSH1 0x44 DUP3 ADD MSTORE PUSH32 0x6564203225206D6F7265207468616E2063757272656E74206869676865737420 PUSH1 0x64 DUP3 ADD MSTORE PUSH3 0x189A59 PUSH1 0xEA SHL PUSH1 0x84 DUP3 ADD MSTORE PUSH1 0xA4 ADD PUSH2 0x65C JUMP JUMPDEST PUSH2 0x16A7 DUP4 DUP4 PUSH2 0x239F JUMP JUMPDEST POP POP POP PUSH0 DUP2 DUP2 MSTORE PUSH1 0x5 PUSH1 0x20 SWAP1 DUP2 MSTORE PUSH1 0x40 DUP1 DUP4 KECCAK256 DUP1 SLOAD PUSH1 0x1 PUSH1 0x1 PUSH1 0xA0 SHL SUB NOT AND CALLER OR SWAP1 SSTORE PUSH1 0x6 SWAP1 SWAP2 MSTORE SWAP1 KECCAK256 CALLVALUE SWAP1 SSTORE PUSH2 0xF48 JUMP JUMPDEST PUSH2 0x16E1 PUSH2 0x2172 JUMP JUMPDEST PUSH0 DUP3 DUP2 MSTORE PUSH1 0x7 PUSH1 0x20 SWAP1 DUP2 MSTORE PUSH1 0x40 DUP1 DUP4 KECCAK256 SWAP4 SWAP1 SWAP4 SSTORE PUSH1 0x5 DUP2 MSTORE DUP3 DUP3 KECCAK256 DUP1 SLOAD PUSH1 0x1 PUSH1 0x1 PUSH1 0xA0 SHL SUB NOT AND CALLER OR SWAP1 SSTORE PUSH1 0x6 SWAP1 MSTORE KECCAK256 CALLVALUE SWAP1 SSTORE PUSH1 0xC0 DUP3 ADD CALLDATALOAD CALLER PUSH2 0xF5E PUSH1 0xA0 DUP6 ADD PUSH1 0x80 DUP7 ADD PUSH2 0x29CA JUMP JUMPDEST PUSH2 0x1732 PUSH2 0x2182 JUMP JUMPDEST PUSH0 PUSH2 0x1743 PUSH1 0x80 DUP6 ADD PUSH1 0x60 DUP7 ADD PUSH2 0x29CA JUMP JUMPDEST PUSH1 0x1 PUSH1 0x1 PUSH1 0xA0 SHL SUB AND SUB PUSH2 0x17A9 JUMPI PUSH1 0x40 MLOAD PUSH3 0x461BCD PUSH1 0xE5 SHL DUP2 MSTORE PUSH1 0x20 PUSH1 0x4 DUP3 ADD MSTORE PUSH1 0x27 PUSH1 0x24 DUP3 ADD MSTORE PUSH32 0x506F6C617279732045786368616E67653A20496E76616C6964207061796D656E PUSH1 0x44 DUP3 ADD MSTORE PUSH7 0x3A103A37B5B2B7 PUSH1 0xC9 SHL PUSH1 0x64 DUP3 ADD MSTORE PUSH1 0x84 ADD PUSH2 0x65C JUMP JUMPDEST PUSH2 0x17B4 DUP3 DUP3 CALLER PUSH2 0x21D9 JUMP JUMPDEST PUSH2 0x17D0 JUMPI PUSH1 0x40 MLOAD PUSH3 0x461BCD PUSH1 0xE5 SHL DUP2 MSTORE PUSH1 0x4 ADD PUSH2 0x65C SWAP1 PUSH2 0x2FD1 JUMP JUMPDEST PUSH2 0x17DA DUP4 DUP4 PUSH2 0x222C JUMP JUMPDEST PUSH2 0x1839 JUMPI PUSH1 0x40 MLOAD PUSH3 0x461BCD PUSH1 0xE5 SHL DUP2 MSTORE PUSH1 0x20 PUSH1 0x4 DUP3 ADD MSTORE PUSH1 0x2A PUSH1 0x24 DUP3 ADD MSTORE PUSH32 0x506F6C617279732045786368616E67653A20496E76616C6964206F7264657220 PUSH1 0x44 DUP3 ADD MSTORE PUSH10 0x706172616D6574657273 PUSH1 0xB0 SHL PUSH1 0x64 DUP3 ADD MSTORE PUSH1 0x84 ADD PUSH2 0x65C JUMP JUMPDEST PUSH1 0x9 DUP1 SLOAD PUSH1 0xFF PUSH1 0xA0 SHL NOT AND PUSH1 0x1 PUSH1 0xA0 SHL OR SWAP1 SSTORE PUSH2 0x10B0 DUP4 DUP4 PUSH2 0x1D00 JUMP JUMPDEST PUSH1 0x9 SLOAD PUSH1 0x1 PUSH1 0xA0 SHL SWAP1 DIV PUSH1 0xFF AND PUSH2 0x187F JUMPI PUSH1 0x40 MLOAD PUSH3 0x461BCD PUSH1 0xE5 SHL DUP2 MSTORE PUSH1 0x4 ADD PUSH2 0x65C SWAP1 PUSH2 0x2D88 JUMP JUMPDEST PUSH2 0x18CF PUSH2 0x188F PUSH1 0x20 DUP5 ADD DUP5 PUSH2 0x2F65 JUMP JUMPDEST PUSH2 0x189F PUSH1 0x60 DUP6 ADD PUSH1 0x40 DUP7 ADD PUSH2 0x29CA JUMP JUMPDEST PUSH2 0x18AF PUSH1 0xA0 DUP7 ADD PUSH1 0x80 DUP8 ADD PUSH2 0x29CA JUMP JUMPDEST PUSH2 0x18BF PUSH1 0xC0 DUP8 ADD PUSH1 0xA0 DUP9 ADD PUSH2 0x29CA JUMP JUMPDEST DUP7 PUSH1 0xC0 ADD CALLDATALOAD DUP8 PUSH2 0x120 ADD CALLDATALOAD PUSH2 0x1EDB JUMP JUMPDEST PUSH2 0x18EC PUSH2 0x18E2 PUSH1 0xA0 DUP5 ADD PUSH1 0x80 DUP6 ADD PUSH2 0x29CA JUMP JUMPDEST DUP4 PUSH1 0xE0 ADD CALLDATALOAD PUSH2 0x12B5 JUMP JUMPDEST PUSH1 0x3 PUSH0 PUSH2 0x18FF PUSH1 0x60 DUP6 ADD PUSH1 0x40 DUP7 ADD PUSH2 0x29CA JUMP JUMPDEST PUSH1 0x1 PUSH1 0x1 PUSH1 0xA0 SHL SUB AND DUP2 MSTORE PUSH1 0x20 DUP1 DUP3 ADD SWAP3 SWAP1 SWAP3 MSTORE PUSH1 0x40 SWAP1 DUP2 ADD PUSH0 SWAP1 DUP2 KECCAK256 PUSH1 0xC0 DUP7 ADD CALLDATALOAD DUP1 DUP4 MSTORE SWAP1 DUP5 MSTORE DUP3 DUP3 KECCAK256 DUP3 SWAP1 SSTORE DUP5 DUP3 MSTORE PUSH1 0x4 SWAP1 SWAP4 MSTORE KECCAK256 DUP1 SLOAD PUSH1 0xFF NOT AND PUSH1 0x1 OR SWAP1 SSTORE CALLER PUSH2 0x1952 PUSH1 0xA0 DUP6 ADD PUSH1 0x80 DUP7 ADD PUSH2 0x29CA JUMP JUMPDEST PUSH1 0x1 PUSH1 0x1 PUSH1 0xA0 SHL SUB AND PUSH32 0x6D794D38D52C34DB77F62ADCAE8C890DC87664E863643CB6363A6AD4D1FC5FD0 PUSH2 0x198C PUSH1 0x60 DUP8 ADD PUSH1 0x40 DUP9 ADD PUSH2 0x29CA JUMP JUMPDEST PUSH2 0x199C PUSH1 0x80 DUP9 ADD PUSH1 0x60 DUP10 ADD PUSH2 0x29CA JUMP JUMPDEST DUP8 PUSH1 0xE0 ADD CALLDATALOAD DUP8 PUSH1 0x40 MLOAD PUSH2 0x19B2 SWAP5 SWAP4 SWAP3 SWAP2 SWAP1 PUSH2 0x2F7E JUMP JUMPDEST PUSH1 0x40 MLOAD DUP1 SWAP2 SUB SWAP1 LOG4 PUSH2 0xCBD PUSH2 0x213F JUMP JUMPDEST PUSH1 0x9 SLOAD PUSH1 0x1 PUSH1 0xA0 SHL SWAP1 DIV PUSH1 0xFF AND PUSH2 0x19EB JUMPI PUSH1 0x40 MLOAD PUSH3 0x461BCD PUSH1 0xE5 SHL DUP2 MSTORE PUSH1 0x4 ADD PUSH2 0x65C SWAP1 PUSH2 0x2D88 JUMP JUMPDEST PUSH0 PUSH2 0x19FC PUSH1 0x40 DUP5 ADD PUSH1 0x20 DUP6 ADD PUSH2 0x2DD1 JUMP JUMPDEST PUSH1 0x5 DUP2 GT ISZERO PUSH2 0x1A0D JUMPI PUSH2 0x1A0D PUSH2 0x2DAF JUMP JUMPDEST SUB PUSH2 0x1AAE JUMPI PUSH2 0x1A25 PUSH2 0x7E6 PUSH1 0x60 DUP5 ADD PUSH1 0x40 DUP6 ADD PUSH2 0x29CA JUMP JUMPDEST ISZERO PUSH2 0x1A42 JUMPI PUSH1 0x40 MLOAD PUSH3 0x461BCD PUSH1 0xE5 SHL DUP2 MSTORE PUSH1 0x4 ADD PUSH2 0x65C SWAP1 PUSH2 0x2DEA JUMP JUMPDEST PUSH2 0x1A55 PUSH2 0x82F PUSH1 0x60 DUP5 ADD PUSH1 0x40 DUP6 ADD PUSH2 0x29CA JUMP JUMPDEST PUSH1 0xC0 DUP3 ADD CALLDATALOAD CALLER PUSH32 0x3AF7E15C36E0552067E803A0D3E9A1A90B6D95F5BE49BB25A9642B7F43E06F41 PUSH2 0x1A8C PUSH1 0x80 DUP7 ADD PUSH1 0x60 DUP8 ADD PUSH2 0x29CA JUMP JUMPDEST PUSH2 0x1A9C PUSH1 0x60 DUP8 ADD PUSH1 0x40 DUP9 ADD PUSH2 0x29CA JUMP JUMPDEST DUP6 DUP8 PUSH1 0x40 MLOAD PUSH2 0x893 SWAP5 SWAP4 SWAP3 SWAP2 SWAP1 PUSH2 0x3248 JUMP JUMPDEST PUSH1 0x5 PUSH2 0x1AC0 PUSH1 0x40 DUP5 ADD PUSH1 0x20 DUP6 ADD PUSH2 0x2DD1 JUMP JUMPDEST PUSH1 0x5 DUP2 GT ISZERO PUSH2 0x1AD1 JUMPI PUSH2 0x1AD1 PUSH2 0x2DAF JUMP JUMPDEST SUB PUSH2 0xCBD JUMPI PUSH1 0x3 PUSH0 PUSH2 0x1AE9 PUSH1 0x60 DUP6 ADD PUSH1 0x40 DUP7 ADD PUSH2 0x29CA JUMP JUMPDEST PUSH1 0x1 PUSH1 0x1 PUSH1 0xA0 SHL SUB AND DUP2 MSTORE PUSH1 0x20 DUP1 DUP3 ADD SWAP3 SWAP1 SWAP3 MSTORE PUSH1 0x40 SWAP1 DUP2 ADD PUSH0 SWAP1 DUP2 KECCAK256 PUSH1 0xC0 DUP7 ADD CALLDATALOAD DUP3 MSTORE DUP4 MSTORE DUP2 DUP2 KECCAK256 SSTORE MLOAD DUP3 DUP2 MSTORE PUSH32 0x30AD15C39984AA59D60D4089CBBBAA503C4C9E0FA0E3BDF62A5BAB180FCB974D SWAP2 ADD PUSH1 0x40 MLOAD DUP1 SWAP2 SUB SWAP1 LOG1 POP POP PUSH1 0x9 DUP1 SLOAD PUSH1 0xFF PUSH1 0xA0 SHL NOT AND SWAP1 SSTORE JUMP JUMPDEST PUSH0 DUP2 PUSH1 0x40 MLOAD PUSH1 0x20 ADD PUSH2 0x1B65 SWAP2 SWAP1 PUSH2 0x3275 JUMP JUMPDEST PUSH1 0x40 MLOAD PUSH1 0x20 DUP2 DUP4 SUB SUB DUP2 MSTORE SWAP1 PUSH1 0x40 MSTORE DUP1 MLOAD SWAP1 PUSH1 0x20 ADD KECCAK256 SWAP1 POP SWAP2 SWAP1 POP JUMP JUMPDEST PUSH0 SWAP1 DUP2 MSTORE PUSH1 0x5 PUSH1 0x20 MSTORE PUSH1 0x40 SWAP1 KECCAK256 SLOAD PUSH1 0x1 PUSH1 0x1 PUSH1 0xA0 SHL SUB AND SWAP1 JUMP JUMPDEST CALLVALUE PUSH0 SUB PUSH2 0x1BA7 JUMPI PUSH0 DUP1 REVERT JUMPDEST PUSH2 0x1BAF PUSH2 0x2182 JUMP JUMPDEST PUSH2 0x1BBA DUP3 DUP3 CALLER PUSH2 0x21D9 JUMP JUMPDEST PUSH2 0x1C2C JUMPI PUSH1 0x40 MLOAD PUSH3 0x461BCD PUSH1 0xE5 SHL DUP2 MSTORE PUSH1 0x20 PUSH1 0x4 DUP3 ADD MSTORE PUSH1 0x39 PUSH1 0x24 DUP3 ADD MSTORE PUSH32 0x506F6C617279732045786368616E67653A20496E76616C6964207369676E6174 PUSH1 0x44 DUP3 ADD MSTORE PUSH32 0x75726520666F722061756374696F6E20657865637574696F6E00000000000000 PUSH1 0x64 DUP3 ADD MSTORE PUSH1 0x84 ADD PUSH2 0x65C JUMP JUMPDEST PUSH2 0x1C3E PUSH2 0x14BE CALLDATASIZE DUP6 SWAP1 SUB DUP6 ADD DUP6 PUSH2 0x308B JUMP JUMPDEST PUSH2 0x1C9F JUMPI PUSH1 0x40 MLOAD PUSH3 0x461BCD PUSH1 0xE5 SHL DUP2 MSTORE PUSH1 0x20 PUSH1 0x4 DUP3 ADD MSTORE PUSH1 0x2C PUSH1 0x24 DUP3 ADD MSTORE PUSH32 0x506F6C617279732045786368616E67653A20496E76616C69642061756374696F PUSH1 0x44 DUP3 ADD MSTORE PUSH12 0x6E20706172616D6574657273 PUSH1 0xA0 SHL PUSH1 0x64 DUP3 ADD MSTORE PUSH1 0x84 ADD PUSH2 0x65C JUMP JUMPDEST PUSH0 PUSH2 0x1CA9 DUP4 PUSH2 0x1B82 JUMP JUMPDEST PUSH1 0x1 PUSH1 0x1 PUSH1 0xA0 SHL SUB AND EQ PUSH2 0x1CE3 JUMPI PUSH0 DUP3 DUP2 MSTORE PUSH1 0x7 PUSH1 0x20 MSTORE PUSH1 0x40 SWAP1 KECCAK256 SLOAD TIMESTAMP LT PUSH2 0x1CE3 JUMPI PUSH1 0x40 MLOAD PUSH3 0x461BCD PUSH1 0xE5 SHL DUP2 MSTORE PUSH1 0x4 ADD PUSH2 0x65C SWAP1 PUSH2 0x314D JUMP JUMPDEST PUSH1 0x9 DUP1 SLOAD PUSH1 0xFF PUSH1 0xA0 SHL NOT AND PUSH1 0x1 PUSH1 0xA0 SHL OR SWAP1 SSTORE PUSH2 0x10B0 DUP4 DUP4 PUSH2 0x1584 JUMP JUMPDEST PUSH1 0x9 SLOAD PUSH1 0x1 PUSH1 0xA0 SHL SWAP1 DIV PUSH1 0xFF AND PUSH2 0x1D29 JUMPI PUSH1 0x40 MLOAD PUSH3 0x461BCD PUSH1 0xE5 SHL DUP2 MSTORE PUSH1 0x4 ADD PUSH2 0x65C SWAP1 PUSH2 0x2D88 JUMP JUMPDEST PUSH2 0x1D39 PUSH2 0x188F PUSH1 0x20 DUP5 ADD DUP5 PUSH2 0x2F65 JUMP JUMPDEST PUSH2 0x1D67 PUSH2 0x1D4C PUSH1 0x80 DUP5 ADD PUSH1 0x60 DUP6 ADD PUSH2 0x29CA JUMP JUMPDEST CALLER PUSH2 0x1D5D PUSH1 0xA0 DUP7 ADD PUSH1 0x80 DUP8 ADD PUSH2 0x29CA JUMP JUMPDEST DUP6 PUSH1 0xE0 ADD CALLDATALOAD PUSH2 0x24B2 JUMP JUMPDEST PUSH1 0x3 PUSH0 PUSH2 0x1D7A PUSH1 0x60 DUP6 ADD PUSH1 0x40 DUP7 ADD PUSH2 0x29CA JUMP JUMPDEST PUSH1 0x1 PUSH1 0x1 PUSH1 0xA0 SHL SUB AND DUP2 MSTORE PUSH1 0x20 DUP1 DUP3 ADD SWAP3 SWAP1 SWAP3 MSTORE PUSH1 0x40 SWAP1 DUP2 ADD PUSH0 SWAP1 DUP2 KECCAK256 PUSH1 0xC0 DUP7 ADD CALLDATALOAD DUP1 DUP4 MSTORE SWAP4 MSTORE SWAP1 DUP2 KECCAK256 SSTORE CALLER PUSH2 0x1952 PUSH1 0xA0 DUP6 ADD PUSH1 0x80 DUP7 ADD PUSH2 0x29CA JUMP JUMPDEST PUSH1 0x2 SLOAD PUSH1 0x1 PUSH1 0x1 PUSH1 0xA0 SHL SUB AND CALLER EQ PUSH2 0x1DE0 JUMPI PUSH1 0x40 MLOAD PUSH3 0x461BCD PUSH1 0xE5 SHL DUP2 MSTORE PUSH1 0x4 ADD PUSH2 0x65C SWAP1 PUSH2 0x2D46 JUMP JUMPDEST PUSH1 0x2 DUP1 SLOAD PUSH1 0x1 PUSH1 0x1 PUSH1 0xA0 SHL SUB NOT AND PUSH1 0x1 PUSH1 0x1 PUSH1 0xA0 SHL SUB SWAP3 SWAP1 SWAP3 AND SWAP2 SWAP1 SWAP2 OR SWAP1 SSTORE JUMP JUMPDEST PUSH0 DUP2 PUSH1 0x40 MLOAD PUSH1 0x20 ADD PUSH2 0x1B65 SWAP2 SWAP1 PUSH2 0x3284 JUMP JUMPDEST PUSH1 0x1 PUSH1 0x1 PUSH1 0xA0 SHL SUB DUP3 AND PUSH0 SWAP1 DUP2 MSTORE PUSH1 0x3 PUSH1 0x20 SWAP1 DUP2 MSTORE PUSH1 0x40 DUP1 DUP4 KECCAK256 DUP5 DUP5 MSTORE SWAP1 SWAP2 MSTORE SWAP1 KECCAK256 SLOAD JUMPDEST SWAP3 SWAP2 POP POP JUMP JUMPDEST PUSH1 0x9 SLOAD PUSH1 0x1 PUSH1 0xA0 SHL SWAP1 DIV PUSH1 0xFF AND PUSH2 0x1E67 JUMPI PUSH1 0x40 MLOAD PUSH3 0x461BCD PUSH1 0xE5 SHL DUP2 MSTORE PUSH1 0x4 ADD PUSH2 0x65C SWAP1 PUSH2 0x2D88 JUMP JUMPDEST PUSH1 0x1 PUSH1 0x1 PUSH1 0xA0 SHL SUB SWAP1 SWAP3 AND PUSH0 SWAP1 DUP2 MSTORE PUSH1 0x3 PUSH1 0x20 SWAP1 DUP2 MSTORE PUSH1 0x40 DUP1 DUP4 KECCAK256 SWAP4 DUP4 MSTORE SWAP3 SWAP1 MSTORE KECCAK256 SSTORE PUSH1 0x9 DUP1 SLOAD PUSH1 0xFF PUSH1 0xA0 SHL NOT AND SWAP1 SSTORE JUMP JUMPDEST PUSH0 TIMESTAMP DUP6 LT DUP1 ISZERO PUSH2 0x1EC2 JUMPI POP PUSH2 0x1EAD DUP5 PUSH2 0x1B82 JUMP JUMPDEST PUSH1 0x1 PUSH1 0x1 PUSH1 0xA0 SHL SUB AND CALLER PUSH1 0x1 PUSH1 0x1 PUSH1 0xA0 SHL SUB AND EQ JUMPDEST DUP1 PUSH2 0x1ED2 JUMPI POP PUSH2 0x1ED2 DUP4 DUP4 PUSH2 0x25C1 JUMP JUMPDEST SWAP6 SWAP5 POP POP POP POP POP JUMP JUMPDEST PUSH0 DUP7 PUSH1 0x1 DUP2 GT ISZERO PUSH2 0x1EEE JUMPI PUSH2 0x1EEE PUSH2 0x2DAF JUMP JUMPDEST SUB PUSH2 0x1F5B JUMPI PUSH1 0x8 SLOAD PUSH1 0x40 MLOAD PUSH4 0xEF0DFAAF PUSH1 0xE0 SHL DUP2 MSTORE PUSH1 0x1 PUSH1 0x1 PUSH1 0xA0 SHL SUB SWAP1 SWAP2 AND SWAP1 PUSH4 0xEF0DFAAF SWAP1 PUSH2 0x1F29 SWAP1 DUP9 SWAP1 DUP9 SWAP1 DUP9 SWAP1 DUP9 SWAP1 PUSH1 0x4 ADD PUSH2 0x2FA7 JUMP JUMPDEST PUSH0 PUSH1 0x40 MLOAD DUP1 DUP4 SUB DUP2 PUSH0 DUP8 DUP1 EXTCODESIZE ISZERO DUP1 ISZERO PUSH2 0x1F40 JUMPI PUSH0 DUP1 REVERT JUMPDEST POP GAS CALL ISZERO DUP1 ISZERO PUSH2 0x1F52 JUMPI RETURNDATASIZE PUSH0 DUP1 RETURNDATACOPY RETURNDATASIZE PUSH0 REVERT JUMPDEST POP POP POP POP PUSH2 0x1FED JUMP JUMPDEST PUSH1 0x1 DUP7 PUSH1 0x1 DUP2 GT ISZERO PUSH2 0x1F6F JUMPI PUSH2 0x1F6F PUSH2 0x2DAF JUMP JUMPDEST SUB PUSH2 0x1FED JUMPI PUSH1 0x8 SLOAD PUSH1 0x40 MLOAD PUSH4 0x4282F5D3 PUSH1 0xE0 SHL DUP2 MSTORE PUSH1 0x1 PUSH1 0x1 PUSH1 0xA0 SHL SUB DUP8 DUP2 AND PUSH1 0x4 DUP4 ADD MSTORE DUP7 DUP2 AND PUSH1 0x24 DUP4 ADD MSTORE DUP6 DUP2 AND PUSH1 0x44 DUP4 ADD MSTORE PUSH1 0x64 DUP3 ADD DUP6 SWAP1 MSTORE PUSH1 0x84 DUP3 ADD DUP5 SWAP1 MSTORE SWAP1 SWAP2 AND SWAP1 PUSH4 0x4282F5D3 SWAP1 PUSH1 0xA4 ADD PUSH0 PUSH1 0x40 MLOAD DUP1 DUP4 SUB DUP2 PUSH0 DUP8 DUP1 EXTCODESIZE ISZERO DUP1 ISZERO PUSH2 0x1FD6 JUMPI PUSH0 DUP1 REVERT JUMPDEST POP GAS CALL ISZERO DUP1 ISZERO PUSH2 0x1FE8 JUMPI RETURNDATASIZE PUSH0 DUP1 RETURNDATACOPY RETURNDATASIZE PUSH0 REVERT JUMPDEST POP POP POP POP JUMPDEST POP POP POP POP POP POP JUMP JUMPDEST PUSH1 0x9 SLOAD PUSH0 SWAP1 PUSH2 0x2016 SWAP1 PUSH1 0x64 SWAP1 PUSH2 0xD54 SWAP1 DUP6 SWAP1 PUSH1 0x1 PUSH1 0xA8 SHL SWAP1 DIV PUSH1 0xFF AND PUSH2 0x2155 JUMP JUMPDEST SWAP1 POP PUSH1 0x1 PUSH1 0x1 PUSH1 0xA0 SHL SUB DUP5 AND ISZERO PUSH2 0x2116 JUMPI PUSH1 0x8 SLOAD PUSH1 0x1 PUSH1 0x1 PUSH1 0xA0 SHL SUB AND PUSH4 0xB97BE865 DUP6 DUP6 PUSH2 0x2044 DUP7 DUP7 PUSH2 0x230A JUMP JUMPDEST PUSH1 0x40 MLOAD PUSH1 0x1 PUSH1 0x1 PUSH1 0xE0 SHL SUB NOT PUSH1 0xE0 DUP7 SWAP1 SHL AND DUP2 MSTORE PUSH1 0x1 PUSH1 0x1 PUSH1 0xA0 SHL SUB SWAP4 DUP5 AND PUSH1 0x4 DUP3 ADD MSTORE SWAP3 SWAP1 SWAP2 AND PUSH1 0x24 DUP4 ADD MSTORE PUSH1 0x44 DUP3 ADD MSTORE PUSH1 0x64 ADD PUSH0 PUSH1 0x40 MLOAD DUP1 DUP4 SUB DUP2 PUSH0 DUP8 DUP1 EXTCODESIZE ISZERO DUP1 ISZERO PUSH2 0x2090 JUMPI PUSH0 DUP1 REVERT JUMPDEST POP GAS CALL ISZERO DUP1 ISZERO PUSH2 0x20A2 JUMPI RETURNDATASIZE PUSH0 DUP1 RETURNDATACOPY RETURNDATASIZE PUSH0 REVERT JUMPDEST POP POP PUSH1 0x8 SLOAD PUSH1 0x9 SLOAD PUSH1 0x40 MLOAD PUSH4 0xB97BE865 PUSH1 0xE0 SHL DUP2 MSTORE PUSH1 0x1 PUSH1 0x1 PUSH1 0xA0 SHL SUB DUP10 DUP2 AND PUSH1 0x4 DUP4 ADD MSTORE SWAP2 DUP3 AND PUSH1 0x24 DUP3 ADD MSTORE PUSH1 0x44 DUP2 ADD DUP7 SWAP1 MSTORE SWAP2 AND SWAP3 POP PUSH4 0xB97BE865 SWAP2 POP PUSH1 0x64 ADD PUSH0 PUSH1 0x40 MLOAD DUP1 DUP4 SUB DUP2 PUSH0 DUP8 DUP1 EXTCODESIZE ISZERO DUP1 ISZERO PUSH2 0x20FB JUMPI PUSH0 DUP1 REVERT JUMPDEST POP GAS CALL ISZERO DUP1 ISZERO PUSH2 0x210D JUMPI RETURNDATASIZE PUSH0 DUP1 RETURNDATACOPY RETURNDATASIZE PUSH0 REVERT JUMPDEST POP POP POP POP PUSH2 0x135D JUMP JUMPDEST PUSH2 0x2129 DUP4 PUSH2 0x2124 DUP5 DUP5 PUSH2 0x230A JUMP JUMPDEST PUSH2 0x239F JUMP JUMPDEST PUSH1 0x9 SLOAD PUSH2 0x135D SWAP1 PUSH1 0x1 PUSH1 0x1 PUSH1 0xA0 SHL SUB AND DUP3 PUSH2 0x239F JUMP JUMPDEST PUSH1 0xA DUP1 SLOAD SWAP1 PUSH0 PUSH2 0x214E DUP4 PUSH2 0x32A7 JUMP JUMPDEST SWAP2 SWAP1 POP SSTORE POP JUMP JUMPDEST PUSH0 PUSH2 0x2160 DUP3 DUP5 PUSH2 0x32BF JUMP JUMPDEST SWAP4 SWAP3 POP POP POP JUMP JUMPDEST PUSH0 PUSH2 0x2160 DUP3 DUP5 PUSH2 0x32D6 JUMP JUMPDEST PUSH0 TIMESTAMP DUP2 PUSH2 0x2160 DUP3 PUSH3 0x15180 PUSH2 0x32F5 JUMP JUMPDEST PUSH1 0x2 PUSH0 SLOAD SUB PUSH2 0x21D3 JUMPI PUSH1 0x40 MLOAD PUSH3 0x461BCD PUSH1 0xE5 SHL DUP2 MSTORE PUSH1 0x20 PUSH1 0x4 DUP3 ADD MSTORE PUSH1 0x1F PUSH1 0x24 DUP3 ADD MSTORE PUSH32 0x5265656E7472616E637947756172643A207265656E7472616E742063616C6C00 PUSH1 0x44 DUP3 ADD MSTORE PUSH1 0x64 ADD PUSH2 0x65C JUMP JUMPDEST PUSH1 0x2 PUSH0 SSTORE JUMP JUMPDEST PUSH32 0x19457468657265756D205369676E6564204D6573736167653A0A333200000000 PUSH0 SWAP1 DUP2 MSTORE PUSH1 0x1C DUP5 SWAP1 MSTORE PUSH1 0x3C DUP2 KECCAK256 PUSH0 PUSH2 0x2212 DUP3 DUP7 PUSH2 0x263D JUMP JUMPDEST PUSH1 0x1 PUSH1 0x1 PUSH1 0xA0 SHL SUB SWAP1 DUP2 AND SWAP1 DUP6 AND EQ SWAP3 POP POP POP SWAP4 SWAP3 POP POP POP JUMP JUMPDEST PUSH0 DUP1 PUSH2 0x223E PUSH1 0xA0 DUP6 ADD PUSH1 0x80 DUP7 ADD PUSH2 0x29CA JUMP JUMPDEST PUSH1 0x1 PUSH1 0x1 PUSH1 0xA0 SHL SUB AND EQ ISZERO DUP1 ISZERO PUSH2 0x2285 JUMPI POP PUSH2 0x2260 PUSH1 0xC0 DUP5 ADD PUSH1 0xA0 DUP6 ADD PUSH2 0x29CA JUMP JUMPDEST PUSH1 0x1 PUSH1 0x1 PUSH1 0xA0 SHL SUB AND PUSH2 0x2279 PUSH1 0xA0 DUP6 ADD PUSH1 0x80 DUP7 ADD PUSH2 0x29CA JUMP JUMPDEST PUSH1 0x1 PUSH1 0x1 PUSH1 0xA0 SHL SUB AND EQ ISZERO JUMPDEST DUP1 ISZERO PUSH2 0x2295 JUMPI POP TIMESTAMP DUP4 PUSH2 0x100 ADD CALLDATALOAD GT JUMPDEST DUP1 ISZERO PUSH2 0x22B2 JUMPI POP PUSH2 0x22AF PUSH2 0x8DC PUSH1 0x60 DUP6 ADD PUSH1 0x40 DUP7 ADD PUSH2 0x29CA JUMP JUMPDEST DUP3 EQ JUMPDEST DUP1 ISZERO PUSH2 0x22C2 JUMPI POP TIMESTAMP DUP4 PUSH2 0x100 ADD CALLDATALOAD GT JUMPDEST DUP1 ISZERO PUSH2 0x2160 JUMPI POP PUSH2 0x22E6 PUSH2 0x22DC PUSH1 0x60 DUP6 ADD PUSH1 0x40 DUP7 ADD PUSH2 0x29CA JUMP JUMPDEST DUP5 PUSH1 0xC0 ADD CALLDATALOAD PUSH2 0x25C1 JUMP JUMPDEST ISZERO SWAP4 SWAP3 POP POP POP JUMP JUMPDEST PUSH0 PUSH2 0x22F9 DUP4 DUP4 PUSH2 0x265F JUMP JUMPDEST DUP1 ISZERO PUSH2 0x2160 JUMPI POP PUSH2 0x2160 DUP4 DUP4 PUSH2 0x25C1 JUMP JUMPDEST PUSH0 PUSH2 0x2160 DUP3 DUP5 PUSH2 0x3308 JUMP JUMPDEST PUSH1 0x80 DUP3 ADD MLOAD PUSH0 SWAP1 PUSH1 0x1 PUSH1 0x1 PUSH1 0xA0 SHL SUB AND ISZERO DUP1 ISZERO SWAP1 PUSH2 0x234D JUMPI POP DUP3 PUSH1 0xA0 ADD MLOAD PUSH1 0x1 PUSH1 0x1 PUSH1 0xA0 SHL SUB AND DUP4 PUSH1 0x80 ADD MLOAD PUSH1 0x1 PUSH1 0x1 PUSH1 0xA0 SHL SUB AND EQ ISZERO JUMPDEST DUP1 ISZERO PUSH2 0x2369 JUMPI POP PUSH2 0x2366 DUP4 PUSH1 0x40 ADD MLOAD DUP5 PUSH1 0xC0 ADD MLOAD PUSH2 0x1E14 JUMP JUMPDEST DUP3 EQ JUMPDEST DUP1 ISZERO PUSH2 0x2386 JUMPI POP PUSH0 DUP3 DUP2 MSTORE PUSH1 0x7 PUSH1 0x20 MSTORE PUSH1 0x40 SWAP1 KECCAK256 SLOAD DUP4 PUSH2 0x140 ADD MLOAD EQ JUMPDEST DUP1 ISZERO PUSH2 0x2160 JUMPI POP PUSH2 0x22E6 DUP4 PUSH1 0x40 ADD MLOAD DUP5 PUSH1 0xC0 ADD MLOAD PUSH2 0x25C1 JUMP JUMPDEST DUP1 SELFBALANCE LT ISZERO PUSH2 0x2407 JUMPI PUSH1 0x40 MLOAD PUSH3 0x461BCD PUSH1 0xE5 SHL DUP2 MSTORE PUSH1 0x20 PUSH1 0x4 DUP3 ADD MSTORE PUSH1 0x2F PUSH1 0x24 DUP3 ADD MSTORE PUSH32 0x506F6C617279732045786368616E67653A20496E73756666696369656E742063 PUSH1 0x44 DUP3 ADD MSTORE PUSH15 0x6F6E74726163742062616C616E6365 PUSH1 0x88 SHL PUSH1 0x64 DUP3 ADD MSTORE PUSH1 0x84 ADD PUSH2 0x65C JUMP JUMPDEST PUSH0 DUP3 PUSH1 0x1 PUSH1 0x1 PUSH1 0xA0 SHL SUB AND DUP3 PUSH1 0x40 MLOAD PUSH0 PUSH1 0x40 MLOAD DUP1 DUP4 SUB DUP2 DUP6 DUP8 GAS CALL SWAP3 POP POP POP RETURNDATASIZE DUP1 PUSH0 DUP2 EQ PUSH2 0x2450 JUMPI PUSH1 0x40 MLOAD SWAP2 POP PUSH1 0x1F NOT PUSH1 0x3F RETURNDATASIZE ADD AND DUP3 ADD PUSH1 0x40 MSTORE RETURNDATASIZE DUP3 MSTORE RETURNDATASIZE PUSH0 PUSH1 0x20 DUP5 ADD RETURNDATACOPY PUSH2 0x2455 JUMP JUMPDEST PUSH1 0x60 SWAP2 POP JUMPDEST POP POP SWAP1 POP DUP1 PUSH2 0x10B9 JUMPI PUSH1 0x40 MLOAD PUSH3 0x461BCD PUSH1 0xE5 SHL DUP2 MSTORE PUSH1 0x20 PUSH1 0x4 DUP3 ADD MSTORE PUSH1 0x24 DUP1 DUP3 ADD MSTORE PUSH32 0x506F6C617279732045786368616E67653A204661696C656420746F2073656E64 PUSH1 0x44 DUP3 ADD MSTORE PUSH4 0x408AA89 PUSH1 0xE3 SHL PUSH1 0x64 DUP3 ADD MSTORE PUSH1 0x84 ADD PUSH2 0x65C JUMP JUMPDEST PUSH1 0x9 SLOAD PUSH0 SWAP1 PUSH2 0x24D3 SWAP1 PUSH1 0x64 SWAP1 PUSH2 0xD54 SWAP1 DUP6 SWAP1 PUSH1 0x1 PUSH1 0xA8 SHL SWAP1 DIV PUSH1 0xFF AND PUSH2 0x2155 JUMP JUMPDEST PUSH1 0x8 SLOAD SWAP1 SWAP2 POP PUSH1 0x1 PUSH1 0x1 PUSH1 0xA0 SHL SUB AND PUSH4 0x8E1976E9 DUP7 DUP7 DUP7 PUSH2 0x24F4 DUP8 DUP8 PUSH2 0x230A JUMP JUMPDEST PUSH1 0x40 MLOAD DUP6 PUSH4 0xFFFFFFFF AND PUSH1 0xE0 SHL DUP2 MSTORE PUSH1 0x4 ADD PUSH2 0x2513 SWAP5 SWAP4 SWAP3 SWAP2 SWAP1 PUSH2 0x2FA7 JUMP JUMPDEST PUSH0 PUSH1 0x40 MLOAD DUP1 DUP4 SUB DUP2 PUSH0 DUP8 DUP1 EXTCODESIZE ISZERO DUP1 ISZERO PUSH2 0x252A JUMPI PUSH0 DUP1 REVERT JUMPDEST POP GAS CALL ISZERO DUP1 ISZERO PUSH2 0x253C JUMPI RETURNDATASIZE PUSH0 DUP1 RETURNDATACOPY RETURNDATASIZE PUSH0 REVERT JUMPDEST POP POP PUSH1 0x9 SLOAD PUSH1 0x1 PUSH1 0x1 PUSH1 0xA0 SHL SUB AND ISZERO SWAP2 POP PUSH2 0x25BA SWAP1 POP JUMPI PUSH1 0x8 SLOAD PUSH1 0x9 SLOAD PUSH1 0x40 MLOAD PUSH4 0x8E1976E9 PUSH1 0xE0 SHL DUP2 MSTORE PUSH1 0x1 PUSH1 0x1 PUSH1 0xA0 SHL SUB SWAP3 DUP4 AND SWAP3 PUSH4 0x8E1976E9 SWAP3 PUSH2 0x258C SWAP3 DUP11 SWAP3 DUP11 SWAP3 AND SWAP1 DUP8 SWAP1 PUSH1 0x4 ADD PUSH2 0x2FA7 JUMP JUMPDEST PUSH0 PUSH1 0x40 MLOAD DUP1 DUP4 SUB DUP2 PUSH0 DUP8 DUP1 EXTCODESIZE ISZERO DUP1 ISZERO PUSH2 0x25A3 JUMPI PUSH0 DUP1 REVERT JUMPDEST POP GAS CALL ISZERO DUP1 ISZERO PUSH2 0x25B5 JUMPI RETURNDATASIZE PUSH0 DUP1 RETURNDATACOPY RETURNDATASIZE PUSH0 REVERT JUMPDEST POP POP POP POP JUMPDEST POP POP POP POP POP JUMP JUMPDEST PUSH1 0x40 MLOAD PUSH4 0x31A9108F PUSH1 0xE1 SHL DUP2 MSTORE PUSH1 0x4 DUP2 ADD DUP3 SWAP1 MSTORE PUSH0 SWAP1 CALLER SWAP1 PUSH1 0x1 PUSH1 0x1 PUSH1 0xA0 SHL SUB DUP6 AND SWAP1 PUSH4 0x6352211E SWAP1 PUSH1 0x24 ADD PUSH1 0x20 PUSH1 0x40 MLOAD DUP1 DUP4 SUB DUP2 DUP7 GAS STATICCALL ISZERO DUP1 ISZERO PUSH2 0x2608 JUMPI RETURNDATASIZE PUSH0 DUP1 RETURNDATACOPY RETURNDATASIZE PUSH0 REVERT JUMPDEST POP POP POP POP PUSH1 0x40 MLOAD RETURNDATASIZE PUSH1 0x1F NOT PUSH1 0x1F DUP3 ADD AND DUP3 ADD DUP1 PUSH1 0x40 MSTORE POP DUP2 ADD SWAP1 PUSH2 0x262C SWAP2 SWAP1 PUSH2 0x331B JUMP JUMPDEST PUSH1 0x1 PUSH1 0x1 PUSH1 0xA0 SHL SUB AND EQ SWAP4 SWAP3 POP POP POP JUMP JUMPDEST PUSH0 DUP1 PUSH0 PUSH2 0x264A DUP6 DUP6 PUSH2 0x275B JUMP JUMPDEST SWAP2 POP SWAP2 POP PUSH2 0x2657 DUP2 PUSH2 0x279D JUMP JUMPDEST POP SWAP4 SWAP3 POP POP POP JUMP JUMPDEST PUSH1 0x8 SLOAD PUSH1 0x40 MLOAD PUSH4 0x20604BF PUSH1 0xE2 SHL DUP2 MSTORE PUSH1 0x4 DUP2 ADD DUP4 SWAP1 MSTORE PUSH0 SWAP2 DUP5 SWAP2 PUSH1 0x1 PUSH1 0x1 PUSH1 0xA0 SHL SUB SWAP2 DUP3 AND SWAP2 DUP4 AND SWAP1 PUSH4 0x81812FC SWAP1 PUSH1 0x24 ADD PUSH1 0x20 PUSH1 0x40 MLOAD DUP1 DUP4 SUB DUP2 DUP7 GAS STATICCALL ISZERO DUP1 ISZERO PUSH2 0x26AD JUMPI RETURNDATASIZE PUSH0 DUP1 RETURNDATACOPY RETURNDATASIZE PUSH0 REVERT JUMPDEST POP POP POP POP PUSH1 0x40 MLOAD RETURNDATASIZE PUSH1 0x1F NOT PUSH1 0x1F DUP3 ADD AND DUP3 ADD DUP1 PUSH1 0x40 MSTORE POP DUP2 ADD SWAP1 PUSH2 0x26D1 SWAP2 SWAP1 PUSH2 0x331B JUMP JUMPDEST PUSH1 0x1 PUSH1 0x1 PUSH1 0xA0 SHL SUB AND EQ DUP1 PUSH2 0x2753 JUMPI POP PUSH1 0x8 SLOAD PUSH1 0x40 MLOAD PUSH4 0xE985E9C5 PUSH1 0xE0 SHL DUP2 MSTORE CALLER PUSH1 0x4 DUP3 ADD MSTORE PUSH1 0x1 PUSH1 0x1 PUSH1 0xA0 SHL SUB SWAP2 DUP3 AND PUSH1 0x24 DUP3 ADD MSTORE SWAP1 DUP3 AND SWAP1 PUSH4 0xE985E9C5 SWAP1 PUSH1 0x44 ADD PUSH1 0x20 PUSH1 0x40 MLOAD DUP1 DUP4 SUB DUP2 DUP7 GAS STATICCALL ISZERO DUP1 ISZERO PUSH2 0x272F JUMPI RETURNDATASIZE PUSH0 DUP1 RETURNDATACOPY RETURNDATASIZE PUSH0 REVERT JUMPDEST POP POP POP POP PUSH1 0x40 MLOAD RETURNDATASIZE PUSH1 0x1F NOT PUSH1 0x1F DUP3 ADD AND DUP3 ADD DUP1 PUSH1 0x40 MSTORE POP DUP2 ADD SWAP1 PUSH2 0x2753 SWAP2 SWAP1 PUSH2 0x3336 JUMP JUMPDEST SWAP5 SWAP4 POP POP POP POP JUMP JUMPDEST PUSH0 DUP1 DUP3 MLOAD PUSH1 0x41 SUB PUSH2 0x278F JUMPI PUSH1 0x20 DUP4 ADD MLOAD PUSH1 0x40 DUP5 ADD MLOAD PUSH1 0x60 DUP6 ADD MLOAD PUSH0 BYTE PUSH2 0x2783 DUP8 DUP3 DUP6 DUP6 PUSH2 0x28E9 JUMP JUMPDEST SWAP5 POP SWAP5 POP POP POP POP PUSH2 0x2796 JUMP JUMPDEST POP PUSH0 SWAP1 POP PUSH1 0x2 JUMPDEST SWAP3 POP SWAP3 SWAP1 POP JUMP JUMPDEST PUSH0 DUP2 PUSH1 0x4 DUP2 GT ISZERO PUSH2 0x27B0 JUMPI PUSH2 0x27B0 PUSH2 0x2DAF JUMP JUMPDEST SUB PUSH2 0x27B8 JUMPI POP JUMP JUMPDEST PUSH1 0x1 DUP2 PUSH1 0x4 DUP2 GT ISZERO PUSH2 0x27CC JUMPI PUSH2 0x27CC PUSH2 0x2DAF JUMP JUMPDEST SUB PUSH2 0x2819 JUMPI PUSH1 0x40 MLOAD PUSH3 0x461BCD PUSH1 0xE5 SHL DUP2 MSTORE PUSH1 0x20 PUSH1 0x4 DUP3 ADD MSTORE PUSH1 0x18 PUSH1 0x24 DUP3 ADD MSTORE PUSH32 0x45434453413A20696E76616C6964207369676E61747572650000000000000000 PUSH1 0x44 DUP3 ADD MSTORE PUSH1 0x64 ADD PUSH2 0x65C JUMP JUMPDEST PUSH1 0x2 DUP2 PUSH1 0x4 DUP2 GT ISZERO PUSH2 0x282D JUMPI PUSH2 0x282D PUSH2 0x2DAF JUMP JUMPDEST SUB PUSH2 0x287A JUMPI PUSH1 0x40 MLOAD PUSH3 0x461BCD PUSH1 0xE5 SHL DUP2 MSTORE PUSH1 0x20 PUSH1 0x4 DUP3 ADD MSTORE PUSH1 0x1F PUSH1 0x24 DUP3 ADD MSTORE PUSH32 0x45434453413A20696E76616C6964207369676E6174757265206C656E67746800 PUSH1 0x44 DUP3 ADD MSTORE PUSH1 0x64 ADD PUSH2 0x65C JUMP JUMPDEST PUSH1 0x3 DUP2 PUSH1 0x4 DUP2 GT ISZERO PUSH2 0x288E JUMPI PUSH2 0x288E PUSH2 0x2DAF JUMP JUMPDEST SUB PUSH2 0x28E6 JUMPI PUSH1 0x40 MLOAD PUSH3 0x461BCD PUSH1 0xE5 SHL DUP2 MSTORE PUSH1 0x20 PUSH1 0x4 DUP3 ADD MSTORE PUSH1 0x22 PUSH1 0x24 DUP3 ADD MSTORE PUSH32 0x45434453413A20696E76616C6964207369676E6174757265202773272076616C PUSH1 0x44 DUP3 ADD MSTORE PUSH2 0x7565 PUSH1 0xF0 SHL PUSH1 0x64 DUP3 ADD MSTORE PUSH1 0x84 ADD PUSH2 0x65C JUMP JUMPDEST POP JUMP JUMPDEST PUSH0 DUP1 PUSH32 0x7FFFFFFFFFFFFFFFFFFFFFFFFFFFFFFF5D576E7357A4501DDFE92F46681B20A0 DUP4 GT ISZERO PUSH2 0x291E JUMPI POP PUSH0 SWAP1 POP PUSH1 0x3 PUSH2 0x299D JUMP JUMPDEST PUSH1 0x40 DUP1 MLOAD PUSH0 DUP1 DUP3 MSTORE PUSH1 0x20 DUP3 ADD DUP1 DUP5 MSTORE DUP10 SWAP1 MSTORE PUSH1 0xFF DUP9 AND SWAP3 DUP3 ADD SWAP3 SWAP1 SWAP3 MSTORE PUSH1 0x60 DUP2 ADD DUP7 SWAP1 MSTORE PUSH1 0x80 DUP2 ADD DUP6 SWAP1 MSTORE PUSH1 0x1 SWAP1 PUSH1 0xA0 ADD PUSH1 0x20 PUSH1 0x40 MLOAD PUSH1 0x20 DUP2 SUB SWAP1 DUP1 DUP5 SUB SWAP1 DUP6 GAS STATICCALL ISZERO DUP1 ISZERO PUSH2 0x296F JUMPI RETURNDATASIZE PUSH0 DUP1 RETURNDATACOPY RETURNDATASIZE PUSH0 REVERT JUMPDEST POP POP PUSH1 0x40 MLOAD PUSH1 0x1F NOT ADD MLOAD SWAP2 POP POP PUSH1 0x1 PUSH1 0x1 PUSH1 0xA0 SHL SUB DUP2 AND PUSH2 0x2997 JUMPI PUSH0 PUSH1 0x1 SWAP3 POP SWAP3 POP POP PUSH2 0x299D JUMP JUMPDEST SWAP2 POP PUSH0 SWAP1 POP JUMPDEST SWAP5 POP SWAP5 SWAP3 POP POP POP JUMP JUMPDEST PUSH1 0x1 PUSH1 0x1 PUSH1 0xA0 SHL SUB DUP2 AND DUP2 EQ PUSH2 0x28E6 JUMPI PUSH0 DUP1 REVERT JUMPDEST DUP1 CALLDATALOAD PUSH2 0x29C5 DUP2 PUSH2 0x29A6 JUMP JUMPDEST SWAP2 SWAP1 POP JUMP JUMPDEST PUSH0 PUSH1 0x20 DUP3 DUP5 SUB SLT ISZERO PUSH2 0x29DA JUMPI PUSH0 DUP1 REVERT JUMPDEST DUP2 CALLDATALOAD PUSH2 0x2160 DUP2 PUSH2 0x29A6 JUMP JUMPDEST PUSH0 PUSH2 0x180 DUP3 DUP5 SUB SLT ISZERO PUSH2 0x29F6 JUMPI PUSH0 DUP1 REVERT JUMPDEST POP SWAP2 SWAP1 POP JUMP JUMPDEST PUSH0 DUP1 PUSH2 0x1A0 DUP4 DUP6 SUB SLT ISZERO PUSH2 0x2A0E JUMPI PUSH0 DUP1 REVERT JUMPDEST PUSH2 0x2A18 DUP5 DUP5 PUSH2 0x29E5 JUMP JUMPDEST SWAP5 PUSH2 0x180 SWAP4 SWAP1 SWAP4 ADD CALLDATALOAD SWAP4 POP POP POP JUMP JUMPDEST PUSH0 PUSH2 0x140 DUP3 DUP5 SUB SLT ISZERO PUSH2 0x29F6 JUMPI PUSH0 DUP1 REVERT JUMPDEST PUSH4 0x4E487B71 PUSH1 0xE0 SHL PUSH0 MSTORE PUSH1 0x41 PUSH1 0x4 MSTORE PUSH1 0x24 PUSH0 REVERT JUMPDEST PUSH1 0x40 MLOAD PUSH2 0x180 DUP2 ADD PUSH8 0xFFFFFFFFFFFFFFFF DUP2 GT DUP3 DUP3 LT OR ISZERO PUSH2 0x2A70 JUMPI PUSH2 0x2A70 PUSH2 0x2A38 JUMP JUMPDEST PUSH1 0x40 MSTORE SWAP1 JUMP JUMPDEST PUSH0 DUP3 PUSH1 0x1F DUP4 ADD SLT PUSH2 0x2A85 JUMPI PUSH0 DUP1 REVERT JUMPDEST DUP2 CALLDATALOAD PUSH8 0xFFFFFFFFFFFFFFFF DUP1 DUP3 GT ISZERO PUSH2 0x2AA0 JUMPI PUSH2 0x2AA0 PUSH2 0x2A38 JUMP JUMPDEST PUSH1 0x40 MLOAD PUSH1 0x1F DUP4 ADD PUSH1 0x1F NOT SWAP1 DUP2 AND PUSH1 0x3F ADD AND DUP2 ADD SWAP1 DUP3 DUP3 GT DUP2 DUP4 LT OR ISZERO PUSH2 0x2AC8 JUMPI PUSH2 0x2AC8 PUSH2 0x2A38 JUMP JUMPDEST DUP2 PUSH1 0x40 MSTORE DUP4 DUP2 MSTORE DUP7 PUSH1 0x20 DUP6 DUP9 ADD ADD GT ISZERO PUSH2 0x2AE0 JUMPI PUSH0 DUP1 REVERT JUMPDEST DUP4 PUSH1 0x20 DUP8 ADD PUSH1 0x20 DUP4 ADD CALLDATACOPY PUSH0 PUSH1 0x20 DUP6 DUP4 ADD ADD MSTORE DUP1 SWAP5 POP POP POP POP POP SWAP3 SWAP2 POP POP JUMP JUMPDEST PUSH0 DUP1 PUSH0 PUSH2 0x180 DUP5 DUP7 SUB SLT ISZERO PUSH2 0x2B12 JUMPI PUSH0 DUP1 REVERT JUMPDEST PUSH2 0x2B1C DUP6 DUP6 PUSH2 0x2A27 JUMP JUMPDEST SWAP3 POP PUSH2 0x140 DUP5 ADD CALLDATALOAD SWAP2 POP PUSH2 0x160 DUP5 ADD CALLDATALOAD PUSH8 0xFFFFFFFFFFFFFFFF DUP2 GT ISZERO PUSH2 0x2B40 JUMPI PUSH0 DUP1 REVERT JUMPDEST PUSH2 0x2B4C DUP7 DUP3 DUP8 ADD PUSH2 0x2A76 JUMP JUMPDEST SWAP2 POP POP SWAP3 POP SWAP3 POP SWAP3 JUMP JUMPDEST PUSH0 DUP1 PUSH2 0x1A0 DUP4 DUP6 SUB SLT ISZERO PUSH2 0x2B68 JUMPI PUSH0 DUP1 REVERT JUMPDEST PUSH2 0x2B72 DUP5 DUP5 PUSH2 0x29E5 JUMP JUMPDEST SWAP2 POP PUSH2 0x180 DUP4 ADD CALLDATALOAD PUSH8 0xFFFFFFFFFFFFFFFF DUP2 GT ISZERO PUSH2 0x2B8E JUMPI PUSH0 DUP1 REVERT JUMPDEST PUSH2 0x2B9A DUP6 DUP3 DUP7 ADD PUSH2 0x2A76 JUMP JUMPDEST SWAP2 POP POP SWAP3 POP SWAP3 SWAP1 POP JUMP JUMPDEST PUSH0 DUP1 PUSH2 0x160 DUP4 DUP6 SUB SLT ISZERO PUSH2 0x2BB6 JUMPI PUSH0 DUP1 REVERT JUMPDEST PUSH2 0x2BC0 DUP5 DUP5 PUSH2 0x2A27 JUMP JUMPDEST SWAP2 POP PUSH2 0x140 DUP4 ADD CALLDATALOAD PUSH8 0xFFFFFFFFFFFFFFFF DUP2 GT ISZERO PUSH2 0x2B8E JUMPI PUSH0 DUP1 REVERT JUMPDEST PUSH0 DUP1 PUSH1 0x40 DUP4 DUP6 SUB SLT ISZERO PUSH2 0x2BED JUMPI PUSH0 DUP1 REVERT JUMPDEST DUP3 CALLDATALOAD PUSH2 0x2BF8 DUP2 PUSH2 0x29A6 JUMP JUMPDEST SWAP5 PUSH1 0x20 SWAP4 SWAP1 SWAP4 ADD CALLDATALOAD SWAP4 POP POP POP JUMP JUMPDEST PUSH0 DUP1 PUSH1 0x40 DUP4 DUP6 SUB SLT ISZERO PUSH2 0x2C17 JUMPI PUSH0 DUP1 REVERT JUMPDEST DUP3 CALLDATALOAD PUSH2 0x2C22 DUP2 PUSH2 0x29A6 JUMP JUMPDEST SWAP2 POP PUSH1 0x20 DUP4 ADD CALLDATALOAD PUSH1 0xFF DUP2 AND DUP2 EQ PUSH2 0x2C37 JUMPI PUSH0 DUP1 REVERT JUMPDEST DUP1 SWAP2 POP POP SWAP3 POP SWAP3 SWAP1 POP JUMP JUMPDEST PUSH0 DUP1 PUSH0 PUSH2 0x1C0 DUP5 DUP7 SUB SLT ISZERO PUSH2 0x2C55 JUMPI PUSH0 DUP1 REVERT JUMPDEST PUSH2 0x2C5F DUP6 DUP6 PUSH2 0x29E5 JUMP JUMPDEST SWAP3 POP PUSH2 0x180 DUP5 ADD CALLDATALOAD SWAP2 POP PUSH2 0x1A0 DUP5 ADD CALLDATALOAD PUSH8 0xFFFFFFFFFFFFFFFF DUP2 GT ISZERO PUSH2 0x2B40 JUMPI PUSH0 DUP1 REVERT JUMPDEST PUSH0 PUSH1 0x20 DUP3 DUP5 SUB SLT ISZERO PUSH2 0x2C93 JUMPI PUSH0 DUP1 REVERT JUMPDEST POP CALLDATALOAD SWAP2 SWAP1 POP JUMP JUMPDEST PUSH0 DUP1 PUSH2 0x160 DUP4 DUP6 SUB SLT ISZERO PUSH2 0x2CAC JUMPI PUSH0 DUP1 REVERT JUMPDEST PUSH2 0x2CB6 DUP5 DUP5 PUSH2 0x2A27 JUMP JUMPDEST SWAP5 PUSH2 0x140 SWAP4 SWAP1 SWAP4 ADD CALLDATALOAD SWAP4 POP POP POP JUMP JUMPDEST PUSH0 PUSH1 0x20 DUP1 DUP4 MSTORE DUP4 MLOAD DUP1 DUP3 DUP6 ADD MSTORE PUSH0 JUMPDEST DUP2 DUP2 LT ISZERO PUSH2 0x2CF0 JUMPI DUP6 DUP2 ADD DUP4 ADD MLOAD DUP6 DUP3 ADD PUSH1 0x40 ADD MSTORE DUP3 ADD PUSH2 0x2CD4 JUMP JUMPDEST POP PUSH0 PUSH1 0x40 DUP3 DUP7 ADD ADD MSTORE PUSH1 0x40 PUSH1 0x1F NOT PUSH1 0x1F DUP4 ADD AND DUP6 ADD ADD SWAP3 POP POP POP SWAP3 SWAP2 POP POP JUMP JUMPDEST PUSH0 PUSH2 0x180 DUP3 DUP5 SUB SLT ISZERO PUSH2 0x2D21 JUMPI PUSH0 DUP1 REVERT JUMPDEST PUSH2 0x2160 DUP4 DUP4 PUSH2 0x29E5 JUMP JUMPDEST PUSH0 PUSH2 0x140 DUP3 DUP5 SUB SLT ISZERO PUSH2 0x2D3C JUMPI PUSH0 DUP1 REVERT JUMPDEST PUSH2 0x2160 DUP4 DUP4 PUSH2 0x2A27 JUMP JUMPDEST PUSH1 0x20 DUP1 DUP3 MSTORE PUSH1 0x22 SWAP1 DUP3 ADD MSTORE PUSH32 0x4F6E6C792061646D696E2063616E20706572666F726D20746869732061637469 PUSH1 0x40 DUP3 ADD MSTORE PUSH2 0x37B7 PUSH1 0xF1 SHL PUSH1 0x60 DUP3 ADD MSTORE PUSH1 0x80 ADD SWAP1 JUMP JUMPDEST PUSH1 0x20 DUP1 DUP3 MSTORE PUSH1 0xD SWAP1 DUP3 ADD MSTORE PUSH13 0x1A5B9CD958DD5C994818D85B1B PUSH1 0x9A SHL PUSH1 0x40 DUP3 ADD MSTORE PUSH1 0x60 ADD SWAP1 JUMP JUMPDEST PUSH4 0x4E487B71 PUSH1 0xE0 SHL PUSH0 MSTORE PUSH1 0x21 PUSH1 0x4 MSTORE PUSH1 0x24 PUSH0 REVERT JUMPDEST DUP1 CALLDATALOAD PUSH1 0x6 DUP2 LT PUSH2 0x29C5 JUMPI PUSH0 DUP1 REVERT JUMPDEST PUSH0 PUSH1 0x20 DUP3 DUP5 SUB SLT ISZERO PUSH2 0x2DE1 JUMPI PUSH0 DUP1 REVERT JUMPDEST PUSH2 0x2160 DUP3 PUSH2 0x2DC3 JUMP JUMPDEST PUSH1 0x20 DUP1 DUP3 MSTORE PUSH1 0x27 SWAP1 DUP3 ADD MSTORE PUSH32 0x506F6C617279732045786368616E67653A20746F6B656E20616C726561647920 PUSH1 0x40 DUP3 ADD MSTORE PUSH7 0x6F6E2073616C65 PUSH1 0xC8 SHL PUSH1 0x60 DUP3 ADD MSTORE PUSH1 0x80 ADD SWAP1 JUMP JUMPDEST DUP1 CALLDATALOAD PUSH1 0x2 DUP2 LT PUSH2 0x29C5 JUMPI PUSH0 DUP1 REVERT JUMPDEST PUSH1 0x2 DUP2 LT PUSH2 0x2E4F JUMPI PUSH2 0x2E4F PUSH2 0x2DAF JUMP JUMPDEST SWAP1 MSTORE JUMP JUMPDEST PUSH1 0x6 DUP2 LT PUSH2 0x2E4F JUMPI PUSH2 0x2E4F PUSH2 0x2DAF JUMP JUMPDEST PUSH2 0x2E75 DUP3 PUSH2 0x2E70 DUP4 PUSH2 0x2E31 JUMP JUMPDEST PUSH2 0x2E3F JUMP JUMPDEST PUSH2 0x2E81 PUSH1 0x20 DUP3 ADD PUSH2 0x2DC3 JUMP JUMPDEST PUSH2 0x2E8E PUSH1 0x20 DUP5 ADD DUP3 PUSH2 0x2E53 JUMP JUMPDEST POP PUSH2 0x2E9B PUSH1 0x40 DUP3 ADD PUSH2 0x29BA JUMP JUMPDEST PUSH1 0x1 PUSH1 0x1 PUSH1 0xA0 SHL SUB AND PUSH1 0x40 DUP4 ADD MSTORE PUSH2 0x2EB5 PUSH1 0x60 DUP3 ADD PUSH2 0x29BA JUMP JUMPDEST PUSH1 0x1 PUSH1 0x1 PUSH1 0xA0 SHL SUB AND PUSH1 0x60 DUP4 ADD MSTORE PUSH2 0x2ECF PUSH1 0x80 DUP3 ADD PUSH2 0x29BA JUMP JUMPDEST PUSH1 0x1 PUSH1 0x1 PUSH1 0xA0 SHL SUB AND PUSH1 0x80 DUP4 ADD MSTORE PUSH2 0x2EE9 PUSH1 0xA0 DUP3 ADD PUSH2 0x29BA JUMP JUMPDEST PUSH1 0x1 PUSH1 0x1 PUSH1 0xA0 SHL SUB AND PUSH1 0xA0 DUP4 ADD MSTORE PUSH1 0xC0 DUP2 DUP2 ADD CALLDATALOAD SWAP1 DUP4 ADD MSTORE PUSH1 0xE0 DUP1 DUP3 ADD CALLDATALOAD SWAP1 DUP4 ADD MSTORE PUSH2 0x100 DUP1 DUP3 ADD CALLDATALOAD SWAP1 DUP4 ADD MSTORE PUSH2 0x120 DUP1 DUP3 ADD CALLDATALOAD SWAP1 DUP4 ADD MSTORE PUSH2 0x140 DUP1 DUP3 ADD CALLDATALOAD SWAP1 DUP4 ADD MSTORE PUSH2 0x160 SWAP1 DUP2 ADD CALLDATALOAD SWAP2 ADD MSTORE JUMP JUMPDEST PUSH1 0x1 PUSH1 0x1 PUSH1 0xA0 SHL SUB DUP6 DUP2 AND DUP3 MSTORE DUP5 AND PUSH1 0x20 DUP3 ADD MSTORE PUSH1 0x40 DUP2 ADD DUP4 SWAP1 MSTORE PUSH2 0x1E0 DUP2 ADD PUSH2 0x1ED2 PUSH1 0x60 DUP4 ADD DUP5 PUSH2 0x2E63 JUMP JUMPDEST PUSH0 PUSH1 0x20 DUP3 DUP5 SUB SLT ISZERO PUSH2 0x2F75 JUMPI PUSH0 DUP1 REVERT JUMPDEST PUSH2 0x2160 DUP3 PUSH2 0x2E31 JUMP JUMPDEST PUSH1 0x1 PUSH1 0x1 PUSH1 0xA0 SHL SUB SWAP5 DUP6 AND DUP2 MSTORE SWAP3 SWAP1 SWAP4 AND PUSH1 0x20 DUP4 ADD MSTORE PUSH1 0x40 DUP3 ADD MSTORE PUSH1 0x60 DUP2 ADD SWAP2 SWAP1 SWAP2 MSTORE PUSH1 0x80 ADD SWAP1 JUMP JUMPDEST PUSH1 0x1 PUSH1 0x1 PUSH1 0xA0 SHL SUB SWAP5 DUP6 AND DUP2 MSTORE SWAP3 DUP5 AND PUSH1 0x20 DUP5 ADD MSTORE SWAP3 AND PUSH1 0x40 DUP3 ADD MSTORE PUSH1 0x60 DUP2 ADD SWAP2 SWAP1 SWAP2 MSTORE PUSH1 0x80 ADD SWAP1 JUMP JUMPDEST PUSH1 0x20 DUP1 DUP3 MSTORE PUSH1 0x37 SWAP1 DUP3 ADD MSTORE PUSH32 0x506F6C617279732045786368616E67653A20496E76616C6964207369676E6174 PUSH1 0x40 DUP3 ADD MSTORE PUSH32 0x75726520666F72206F7264657220657865637574696F6E000000000000000000 PUSH1 0x60 DUP3 ADD MSTORE PUSH1 0x80 ADD SWAP1 JUMP JUMPDEST PUSH1 0x20 DUP1 DUP3 MSTORE PUSH1 0x3D SWAP1 DUP3 ADD MSTORE PUSH32 0x506F6C617279732045786368616E67653A20596F7520617265206E6F74207468 PUSH1 0x40 DUP3 ADD MSTORE PUSH32 0x65206F776E6572206F7220746F6B656E206E6F7420617070726F766564000000 PUSH1 0x60 DUP3 ADD MSTORE PUSH1 0x80 ADD SWAP1 JUMP JUMPDEST PUSH0 PUSH2 0x180 DUP3 DUP5 SUB SLT ISZERO PUSH2 0x309C JUMPI PUSH0 DUP1 REVERT JUMPDEST PUSH2 0x30A4 PUSH2 0x2A4C JUMP JUMPDEST PUSH2 0x30AD DUP4 PUSH2 0x2E31 JUMP JUMPDEST DUP2 MSTORE PUSH2 0x30BB PUSH1 0x20 DUP5 ADD PUSH2 0x2DC3 JUMP JUMPDEST PUSH1 0x20 DUP3 ADD MSTORE PUSH2 0x30CC PUSH1 0x40 DUP5 ADD PUSH2 0x29BA JUMP JUMPDEST PUSH1 0x40 DUP3 ADD MSTORE PUSH2 0x30DD PUSH1 0x60 DUP5 ADD PUSH2 0x29BA JUMP JUMPDEST PUSH1 0x60 DUP3 ADD MSTORE PUSH2 0x30EE PUSH1 0x80 DUP5 ADD PUSH2 0x29BA JUMP JUMPDEST PUSH1 0x80 DUP3 ADD MSTORE PUSH2 0x30FF PUSH1 0xA0 DUP5 ADD PUSH2 0x29BA JUMP JUMPDEST PUSH1 0xA0 DUP3 ADD MSTORE PUSH1 0xC0 DUP4 DUP2 ADD CALLDATALOAD SWAP1 DUP3 ADD MSTORE PUSH1 0xE0 DUP1 DUP5 ADD CALLDATALOAD SWAP1 DUP3 ADD MSTORE PUSH2 0x100 DUP1 DUP5 ADD CALLDATALOAD SWAP1 DUP3 ADD MSTORE PUSH2 0x120 DUP1 DUP5 ADD CALLDATALOAD SWAP1 DUP3 ADD MSTORE PUSH2 0x140 DUP1 DUP5 ADD CALLDATALOAD SWAP1 DUP3 ADD MSTORE PUSH2 0x160 SWAP3 DUP4 ADD CALLDATALOAD SWAP3 DUP2 ADD SWAP3 SWAP1 SWAP3 MSTORE POP SWAP2 SWAP1 POP JUMP JUMPDEST PUSH1 0x20 DUP1 DUP3 MSTORE PUSH1 0x21 SWAP1 DUP3 ADD MSTORE PUSH32 0x506F6C617279732045786368616E67653A2041756374696F6E20657870697265 PUSH1 0x40 DUP3 ADD MSTORE PUSH1 0x19 PUSH1 0xFA SHL PUSH1 0x60 DUP3 ADD MSTORE PUSH1 0x80 ADD SWAP1 JUMP JUMPDEST PUSH2 0x319B DUP3 PUSH2 0x2E70 DUP4 PUSH2 0x2E31 JUMP JUMPDEST PUSH2 0x31A7 PUSH1 0x20 DUP3 ADD PUSH2 0x2DC3 JUMP JUMPDEST PUSH2 0x31B4 PUSH1 0x20 DUP5 ADD DUP3 PUSH2 0x2E53 JUMP JUMPDEST POP PUSH2 0x31C1 PUSH1 0x40 DUP3 ADD PUSH2 0x29BA JUMP JUMPDEST PUSH1 0x1 PUSH1 0x1 PUSH1 0xA0 SHL SUB AND PUSH1 0x40 DUP4 ADD MSTORE PUSH2 0x31DB PUSH1 0x60 DUP3 ADD PUSH2 0x29BA JUMP JUMPDEST PUSH1 0x1 PUSH1 0x1 PUSH1 0xA0 SHL SUB AND PUSH1 0x60 DUP4 ADD MSTORE PUSH2 0x31F5 PUSH1 0x80 DUP3 ADD PUSH2 0x29BA JUMP JUMPDEST PUSH1 0x1 PUSH1 0x1 PUSH1 0xA0 SHL SUB AND PUSH1 0x80 DUP4 ADD MSTORE PUSH2 0x320F PUSH1 0xA0 DUP3 ADD PUSH2 0x29BA JUMP JUMPDEST PUSH1 0x1 PUSH1 0x1 PUSH1 0xA0 SHL SUB AND PUSH1 0xA0 DUP4 ADD MSTORE PUSH1 0xC0 DUP2 DUP2 ADD CALLDATALOAD SWAP1 DUP4 ADD MSTORE PUSH1 0xE0 DUP1 DUP3 ADD CALLDATALOAD SWAP1 DUP4 ADD MSTORE PUSH2 0x100 DUP1 DUP3 ADD CALLDATALOAD SWAP1 DUP4 ADD MSTORE PUSH2 0x120 SWAP1 DUP2 ADD CALLDATALOAD SWAP2 ADD MSTORE JUMP JUMPDEST PUSH1 0x1 PUSH1 0x1 PUSH1 0xA0 SHL SUB DUP6 DUP2 AND DUP3 MSTORE DUP5 AND PUSH1 0x20 DUP3 ADD MSTORE PUSH1 0x40 DUP2 ADD DUP4 SWAP1 MSTORE PUSH2 0x1A0 DUP2 ADD PUSH2 0x1ED2 PUSH1 0x60 DUP4 ADD DUP5 PUSH2 0x318E JUMP JUMPDEST PUSH2 0x180 DUP2 ADD PUSH2 0x1E38 DUP3 DUP5 PUSH2 0x2E63 JUMP JUMPDEST PUSH2 0x140 DUP2 ADD PUSH2 0x1E38 DUP3 DUP5 PUSH2 0x318E JUMP JUMPDEST PUSH4 0x4E487B71 PUSH1 0xE0 SHL PUSH0 MSTORE PUSH1 0x11 PUSH1 0x4 MSTORE PUSH1 0x24 PUSH0 REVERT JUMPDEST PUSH0 PUSH1 0x1 DUP3 ADD PUSH2 0x32B8 JUMPI PUSH2 0x32B8 PUSH2 0x3293 JUMP JUMPDEST POP PUSH1 0x1 ADD SWAP1 JUMP JUMPDEST DUP1 DUP3 MUL DUP2 ISZERO DUP3 DUP3 DIV DUP5 EQ OR PUSH2 0x1E38 JUMPI PUSH2 0x1E38 PUSH2 0x3293 JUMP JUMPDEST PUSH0 DUP3 PUSH2 0x32F0 JUMPI PUSH4 0x4E487B71 PUSH1 0xE0 SHL PUSH0 MSTORE PUSH1 0x12 PUSH1 0x4 MSTORE PUSH1 0x24 PUSH0 REVERT JUMPDEST POP DIV SWAP1 JUMP JUMPDEST DUP1 DUP3 ADD DUP1 DUP3 GT ISZERO PUSH2 0x1E38 JUMPI PUSH2 0x1E38 PUSH2 0x3293 JUMP JUMPDEST DUP2 DUP2 SUB DUP2 DUP2 GT ISZERO PUSH2 0x1E38 JUMPI PUSH2 0x1E38 PUSH2 0x3293 JUMP JUMPDEST PUSH0 PUSH1 0x20 DUP3 DUP5 SUB SLT ISZERO PUSH2 0x332B JUMPI PUSH0 DUP1 REVERT JUMPDEST DUP2 MLOAD PUSH2 0x2160 DUP2 PUSH2 0x29A6 JUMP JUMPDEST PUSH0 PUSH1 0x20 DUP3 DUP5 SUB SLT ISZERO PUSH2 0x3346 JUMPI PUSH0 DUP1 REVERT JUMPDEST DUP2 MLOAD DUP1 ISZERO ISZERO DUP2 EQ PUSH2 0x2160 JUMPI PUSH0 DUP1 REVERT INVALID LOG2 PUSH5 0x6970667358 0x22 SLT KECCAK256 0xBA 0xDF 0x22 SWAP15 SWAP14 0xD8 0x1E SELFDESTRUCT 0x2A TIMESTAMP PUSH21 0x31B0AAAFAC993921F86D8E25D1CB43C374331FB412 PUSH5 0x736F6C6343 STOP ADDMOD ISZERO STOP CALLER "
		},
		"gasEstimates": {
			"creation": {
				"codeDepositCost": "2639000",
				"executionCost": "73517",
				"totalCost": "2712517"
			},
			"external": {
				"": "infinite",
				"EXCHANGE_NAME()": "infinite",
				"TransferHelper()": "2414",
				"VERSION()": "infinite",
				"_executeAuction((uint8,uint8,address,address,address,address,uint256,uint256,uint256,uint256,uint256,uint256),bytes32)": "infinite",
				"_executeBid((uint8,uint8,address,address,address,address,uint256,uint256,uint256,uint256,uint256,uint256),bytes32)": "infinite",
				"_executeBidWithERC20((uint8,uint8,address,address,address,address,uint256,uint256,uint256,uint256,uint256,uint256),bytes32)": "infinite",
				"_executeBuy((uint8,uint8,address,address,address,address,uint256,uint256,uint256,uint256),bytes32)": "infinite",
				"_executeBuyWithERC20((uint8,uint8,address,address,address,address,uint256,uint256,uint256,uint256),bytes32)": "infinite",
				"_executeSellOrCancel((uint8,uint8,address,address,address,address,uint256,uint256,uint256,uint256),bytes32)": "infinite",
				"_expirationTime(bytes32)": "2524",
				"_hashAuction((uint8,uint8,address,address,address,address,uint256,uint256,uint256,uint256,uint256,uint256))": "infinite",
				"_hashOrder((uint8,uint8,address,address,address,address,uint256,uint256,uint256,uint256))": "infinite",
				"_highestBid(bytes32)": "2503",
				"_highestBidder(bytes32)": "2586",
				"_ordersFilled(bytes32)": "2558",
				"_transferFunds(address,uint256)": "infinite",
				"admin()": "2407",
				"executeAuction((uint8,uint8,address,address,address,address,uint256,uint256,uint256,uint256,uint256,uint256),bytes)": "infinite",
				"executeBid((uint8,uint8,address,address,address,address,uint256,uint256,uint256,uint256,uint256,uint256),bytes32,bytes)": "infinite",
				"executeBidWithERC20((uint8,uint8,address,address,address,address,uint256,uint256,uint256,uint256,uint256,uint256),bytes32,bytes)": "infinite",
				"executeBuy((uint8,uint8,address,address,address,address,uint256,uint256,uint256,uint256),bytes32,bytes)": "infinite",
				"executeBuyWithERC20((uint8,uint8,address,address,address,address,uint256,uint256,uint256,uint256),bytes32,bytes)": "infinite",
				"executeSellOrCancel((uint8,uint8,address,address,address,address,uint256,uint256,uint256,uint256),bytes)": "infinite",
				"feeRate()": "2441",
				"feeRecipient()": "2393",
				"implementation()": "2386",
				"ordersFilled()": "2383",
				"updateAdmin(address)": "26747",
				"updateFeeRateAndFeeRecipient(address,uint8)": "26871",
				"updateTransferHelper(address)": "26793",
				"upgrade(address)": "30076"
			},
			"internal": {
				"_addFilledOrders()": "24293",
				"_calculateAuctionEndTime()": "112",
				"_orderActive(address,uint256)": "2287",
				"_ownerAndApprovalVerify(address,uint256)": "infinite",
				"_storeData(address,uint256,bytes32)": "infinite",
				"_transferAssets(enum AssetType,address,address,address,uint256,uint256)": "infinite",
				"_transferBack(address,address,uint256)": "infinite",
				"_transferERC20(address,address,address,uint256)": "infinite",
				"_validateOwnership(address,uint256)": "infinite",
				"_verifyAuction(uint256,bytes32,address,uint256)": "infinite",
				"_verifyAuctionsByTokenId(struct Auction memory,bytes32)": "infinite",
				"_verifyOrdersByTokenId(struct Order calldata,bytes32)": "infinite",
				"_verifyTokenApproval(address,uint256)": "infinite",
				"safeSendETH(address,uint256)": "infinite"
			}
		},
		"methodIdentifiers": {
			"EXCHANGE_NAME()": "9f81a3b3",
			"TransferHelper()": "b7a501a7",
			"VERSION()": "ffa1ad74",
			"_executeAuction((uint8,uint8,address,address,address,address,uint256,uint256,uint256,uint256,uint256,uint256),bytes32)": "1a2522d0",
			"_executeBid((uint8,uint8,address,address,address,address,uint256,uint256,uint256,uint256,uint256,uint256),bytes32)": "585d53d0",
			"_executeBidWithERC20((uint8,uint8,address,address,address,address,uint256,uint256,uint256,uint256,uint256,uint256),bytes32)": "1ee9bcaa",
			"_executeBuy((uint8,uint8,address,address,address,address,uint256,uint256,uint256,uint256),bytes32)": "8231f5df",
			"_executeBuyWithERC20((uint8,uint8,address,address,address,address,uint256,uint256,uint256,uint256),bytes32)": "d89b9525",
			"_executeSellOrCancel((uint8,uint8,address,address,address,address,uint256,uint256,uint256,uint256),bytes32)": "8f919650",
			"_expirationTime(bytes32)": "73db3cb4",
			"_hashAuction((uint8,uint8,address,address,address,address,uint256,uint256,uint256,uint256,uint256,uint256))": "aebdde50",
			"_hashOrder((uint8,uint8,address,address,address,address,uint256,uint256,uint256,uint256))": "ec58f41f",
			"_highestBid(bytes32)": "8e7569d0",
			"_highestBidder(bytes32)": "bb660784",
			"_ordersFilled(bytes32)": "df5aa262",
			"_transferFunds(address,uint256)": "3b1ebb62",
			"admin()": "f851a440",
			"executeAuction((uint8,uint8,address,address,address,address,uint256,uint256,uint256,uint256,uint256,uint256),bytes)": "258b7f22",
			"executeBid((uint8,uint8,address,address,address,address,uint256,uint256,uint256,uint256,uint256,uint256),bytes32,bytes)": "c68fade0",
			"executeBidWithERC20((uint8,uint8,address,address,address,address,uint256,uint256,uint256,uint256,uint256,uint256),bytes32,bytes)": "548eb8e1",
			"executeBuy((uint8,uint8,address,address,address,address,uint256,uint256,uint256,uint256),bytes32,bytes)": "21c0c856",
			"executeBuyWithERC20((uint8,uint8,address,address,address,address,uint256,uint256,uint256,uint256),bytes32,bytes)": "7f358469",
			"executeSellOrCancel((uint8,uint8,address,address,address,address,uint256,uint256,uint256,uint256),bytes)": "26977e64",
			"feeRate()": "978bbdb9",
			"feeRecipient()": "46904840",
			"implementation()": "5c60da1b",
			"ordersFilled()": "d8cf5ed9",
			"updateAdmin(address)": "e2f273bd",
			"updateFeeRateAndFeeRecipient(address,uint8)": "3fad53f0",
			"updateTransferHelper(address)": "4f17d2af",
			"upgrade(address)": "0900f010"
		}
	},
	"abi": [
		{
			"inputs": [
				{
					"components": [
						{
							"internalType": "enum AssetType",
							"name": "asset",
							"type": "uint8"
						},
						{
							"internalType": "enum Action",
							"name": "action",
							"type": "uint8"
						},
						{
							"internalType": "address",
							"name": "collection",
							"type": "address"
						},
						{
							"internalType": "address",
							"name": "paymentToken",
							"type": "address"
						},
						{
							"internalType": "address",
							"name": "seller",
							"type": "address"
						},
						{
							"internalType": "address",
							"name": "highestBidder",
							"type": "address"
						},
						{
							"internalType": "uint256",
							"name": "tokenId",
							"type": "uint256"
						},
						{
							"internalType": "uint256",
							"name": "reservedPrice",
							"type": "uint256"
						},
						{
							"internalType": "uint256",
							"name": "highestBid",
							"type": "uint256"
						},
						{
							"internalType": "uint256",
							"name": "startTime",
							"type": "uint256"
						},
						{
							"internalType": "uint256",
							"name": "expirationTime",
							"type": "uint256"
						},
						{
							"internalType": "uint256",
							"name": "tokenAmount",
							"type": "uint256"
						}
					],
					"internalType": "struct Auction",
					"name": "auction",
					"type": "tuple"
				},
				{
					"internalType": "bytes32",
					"name": "orderHash",
					"type": "bytes32"
				}
			],
			"name": "_executeAuction",
			"outputs": [],
			"stateMutability": "nonpayable",
			"type": "function"
		},
		{
			"inputs": [
				{
					"components": [
						{
							"internalType": "enum AssetType",
							"name": "asset",
							"type": "uint8"
						},
						{
							"internalType": "enum Action",
							"name": "action",
							"type": "uint8"
						},
						{
							"internalType": "address",
							"name": "collection",
							"type": "address"
						},
						{
							"internalType": "address",
							"name": "paymentToken",
							"type": "address"
						},
						{
							"internalType": "address",
							"name": "seller",
							"type": "address"
						},
						{
							"internalType": "address",
							"name": "highestBidder",
							"type": "address"
						},
						{
							"internalType": "uint256",
							"name": "tokenId",
							"type": "uint256"
						},
						{
							"internalType": "uint256",
							"name": "reservedPrice",
							"type": "uint256"
						},
						{
							"internalType": "uint256",
							"name": "highestBid",
							"type": "uint256"
						},
						{
							"internalType": "uint256",
							"name": "startTime",
							"type": "uint256"
						},
						{
							"internalType": "uint256",
							"name": "expirationTime",
							"type": "uint256"
						},
						{
							"internalType": "uint256",
							"name": "tokenAmount",
							"type": "uint256"
						}
					],
					"internalType": "struct Auction",
					"name": "auction",
					"type": "tuple"
				},
				{
					"internalType": "bytes32",
					"name": "orderHash",
					"type": "bytes32"
				}
			],
			"name": "_executeBid",
			"outputs": [],
			"stateMutability": "payable",
			"type": "function"
		},
		{
			"inputs": [
				{
					"components": [
						{
							"internalType": "enum AssetType",
							"name": "asset",
							"type": "uint8"
						},
						{
							"internalType": "enum Action",
							"name": "action",
							"type": "uint8"
						},
						{
							"internalType": "address",
							"name": "collection",
							"type": "address"
						},
						{
							"internalType": "address",
							"name": "paymentToken",
							"type": "address"
						},
						{
							"internalType": "address",
							"name": "seller",
							"type": "address"
						},
						{
							"internalType": "address",
							"name": "highestBidder",
							"type": "address"
						},
						{
							"internalType": "uint256",
							"name": "tokenId",
							"type": "uint256"
						},
						{
							"internalType": "uint256",
							"name": "reservedPrice",
							"type": "uint256"
						},
						{
							"internalType": "uint256",
							"name": "highestBid",
							"type": "uint256"
						},
						{
							"internalType": "uint256",
							"name": "startTime",
							"type": "uint256"
						},
						{
							"internalType": "uint256",
							"name": "expirationTime",
							"type": "uint256"
						},
						{
							"internalType": "uint256",
							"name": "tokenAmount",
							"type": "uint256"
						}
					],
					"internalType": "struct Auction",
					"name": "auction",
					"type": "tuple"
				},
				{
					"internalType": "bytes32",
					"name": "orderHash",
					"type": "bytes32"
				}
			],
			"name": "_executeBidWithERC20",
			"outputs": [],
			"stateMutability": "nonpayable",
			"type": "function"
		},
		{
			"inputs": [
				{
					"components": [
						{
							"internalType": "enum AssetType",
							"name": "asset",
							"type": "uint8"
						},
						{
							"internalType": "enum Action",
							"name": "action",
							"type": "uint8"
						},
						{
							"internalType": "address",
							"name": "collection",
							"type": "address"
						},
						{
							"internalType": "address",
							"name": "paymentToken",
							"type": "address"
						},
						{
							"internalType": "address",
							"name": "seller",
							"type": "address"
						},
						{
							"internalType": "address",
							"name": "buyer",
							"type": "address"
						},
						{
							"internalType": "uint256",
							"name": "tokenId",
							"type": "uint256"
						},
						{
							"internalType": "uint256",
							"name": "price",
							"type": "uint256"
						},
						{
							"internalType": "uint256",
							"name": "expirationTime",
							"type": "uint256"
						},
						{
							"internalType": "uint256",
							"name": "tokenAmount",
							"type": "uint256"
						}
					],
					"internalType": "struct Order",
					"name": "order",
					"type": "tuple"
				},
				{
					"internalType": "bytes32",
					"name": "orderHash",
					"type": "bytes32"
				}
			],
			"name": "_executeBuy",
			"outputs": [],
			"stateMutability": "payable",
			"type": "function"
		},
		{
			"inputs": [
				{
					"components": [
						{
							"internalType": "enum AssetType",
							"name": "asset",
							"type": "uint8"
						},
						{
							"internalType": "enum Action",
							"name": "action",
							"type": "uint8"
						},
						{
							"internalType": "address",
							"name": "collection",
							"type": "address"
						},
						{
							"internalType": "address",
							"name": "paymentToken",
							"type": "address"
						},
						{
							"internalType": "address",
							"name": "seller",
							"type": "address"
						},
						{
							"internalType": "address",
							"name": "buyer",
							"type": "address"
						},
						{
							"internalType": "uint256",
							"name": "tokenId",
							"type": "uint256"
						},
						{
							"internalType": "uint256",
							"name": "price",
							"type": "uint256"
						},
						{
							"internalType": "uint256",
							"name": "expirationTime",
							"type": "uint256"
						},
						{
							"internalType": "uint256",
							"name": "tokenAmount",
							"type": "uint256"
						}
					],
					"internalType": "struct Order",
					"name": "order",
					"type": "tuple"
				},
				{
					"internalType": "bytes32",
					"name": "orderHash",
					"type": "bytes32"
				}
			],
			"name": "_executeBuyWithERC20",
			"outputs": [],
			"stateMutability": "nonpayable",
			"type": "function"
		},
		{
			"inputs": [
				{
					"components": [
						{
							"internalType": "enum AssetType",
							"name": "asset",
							"type": "uint8"
						},
						{
							"internalType": "enum Action",
							"name": "action",
							"type": "uint8"
						},
						{
							"internalType": "address",
							"name": "collection",
							"type": "address"
						},
						{
							"internalType": "address",
							"name": "paymentToken",
							"type": "address"
						},
						{
							"internalType": "address",
							"name": "seller",
							"type": "address"
						},
						{
							"internalType": "address",
							"name": "buyer",
							"type": "address"
						},
						{
							"internalType": "uint256",
							"name": "tokenId",
							"type": "uint256"
						},
						{
							"internalType": "uint256",
							"name": "price",
							"type": "uint256"
						},
						{
							"internalType": "uint256",
							"name": "expirationTime",
							"type": "uint256"
						},
						{
							"internalType": "uint256",
							"name": "tokenAmount",
							"type": "uint256"
						}
					],
					"internalType": "struct Order",
					"name": "order",
					"type": "tuple"
				},
				{
					"internalType": "bytes32",
					"name": "orderHash",
					"type": "bytes32"
				}
			],
			"name": "_executeSellOrCancel",
			"outputs": [],
			"stateMutability": "nonpayable",
			"type": "function"
		},
		{
			"inputs": [
				{
					"internalType": "address",
					"name": "seller",
					"type": "address"
				},
				{
					"internalType": "uint256",
					"name": "amount",
					"type": "uint256"
				}
			],
			"name": "_transferFunds",
			"outputs": [],
			"stateMutability": "payable",
			"type": "function"
		},
		{
			"inputs": [
				{
					"components": [
						{
							"internalType": "enum AssetType",
							"name": "asset",
							"type": "uint8"
						},
						{
							"internalType": "enum Action",
							"name": "action",
							"type": "uint8"
						},
						{
							"internalType": "address",
							"name": "collection",
							"type": "address"
						},
						{
							"internalType": "address",
							"name": "paymentToken",
							"type": "address"
						},
						{
							"internalType": "address",
							"name": "seller",
							"type": "address"
						},
						{
							"internalType": "address",
							"name": "highestBidder",
							"type": "address"
						},
						{
							"internalType": "uint256",
							"name": "tokenId",
							"type": "uint256"
						},
						{
							"internalType": "uint256",
							"name": "reservedPrice",
							"type": "uint256"
						},
						{
							"internalType": "uint256",
							"name": "highestBid",
							"type": "uint256"
						},
						{
							"internalType": "uint256",
							"name": "startTime",
							"type": "uint256"
						},
						{
							"internalType": "uint256",
							"name": "expirationTime",
							"type": "uint256"
						},
						{
							"internalType": "uint256",
							"name": "tokenAmount",
							"type": "uint256"
						}
					],
					"internalType": "struct Auction",
					"name": "auction",
					"type": "tuple"
				},
				{
					"internalType": "bytes32",
					"name": "orderHash",
					"type": "bytes32"
				},
				{
					"internalType": "bytes",
					"name": "_signature",
					"type": "bytes"
				}
			],
			"name": "executeBid",
			"outputs": [],
			"stateMutability": "payable",
			"type": "function"
		},
		{
			"inputs": [
				{
					"components": [
						{
							"internalType": "enum AssetType",
							"name": "asset",
							"type": "uint8"
						},
						{
							"internalType": "enum Action",
							"name": "action",
							"type": "uint8"
						},
						{
							"internalType": "address",
							"name": "collection",
							"type": "address"
						},
						{
							"internalType": "address",
							"name": "paymentToken",
							"type": "address"
						},
						{
							"internalType": "address",
							"name": "seller",
							"type": "address"
						},
						{
							"internalType": "address",
							"name": "buyer",
							"type": "address"
						},
						{
							"internalType": "uint256",
							"name": "tokenId",
							"type": "uint256"
						},
						{
							"internalType": "uint256",
							"name": "price",
							"type": "uint256"
						},
						{
							"internalType": "uint256",
							"name": "expirationTime",
							"type": "uint256"
						},
						{
							"internalType": "uint256",
							"name": "tokenAmount",
							"type": "uint256"
						}
					],
					"internalType": "struct Order",
					"name": "order",
					"type": "tuple"
				},
				{
					"internalType": "bytes",
					"name": "_signature",
					"type": "bytes"
				}
			],
			"name": "executeSellOrCancel",
			"outputs": [],
			"stateMutability": "nonpayable",
			"type": "function"
		},
		{
			"inputs": [],
			"stateMutability": "nonpayable",
			"type": "constructor"
		},
		{
			"anonymous": false,
			"inputs": [
				{
					"indexed": false,
					"internalType": "bytes32",
					"name": "orderHash",
					"type": "bytes32"
				}
			],
			"name": "AuctionCanceled",
			"type": "event"
		},
		{
			"anonymous": false,
			"inputs": [
				{
					"indexed": true,
					"internalType": "address",
					"name": "seller",
					"type": "address"
				},
				{
					"indexed": true,
					"internalType": "address",
					"name": "highestBidder",
					"type": "address"
				},
				{
					"indexed": false,
					"internalType": "address",
					"name": "collection",
					"type": "address"
				},
				{
					"indexed": true,
					"internalType": "uint256",
					"name": "tokenId",
					"type": "uint256"
				},
				{
					"indexed": false,
					"internalType": "address",
					"name": "paymentToken",
					"type": "address"
				},
				{
					"indexed": false,
					"internalType": "uint256",
					"name": "highestBid",
					"type": "uint256"
				},
				{
					"indexed": false,
					"internalType": "bytes32",
					"name": "orderHash",
					"type": "bytes32"
				}
			],
			"name": "AuctionCompleted",
			"type": "event"
		},
		{
			"anonymous": false,
			"inputs": [
				{
					"indexed": true,
					"internalType": "address",
					"name": "seller",
					"type": "address"
				},
				{
					"indexed": false,
					"internalType": "address",
					"name": "paymentToken",
					"type": "address"
				},
				{
					"indexed": false,
					"internalType": "address",
					"name": "collection",
					"type": "address"
				},
				{
					"indexed": true,
					"internalType": "uint256",
					"name": "tokenId",
					"type": "uint256"
				},
				{
					"indexed": false,
					"internalType": "bytes32",
					"name": "orderHash",
					"type": "bytes32"
				},
				{
					"components": [
						{
							"internalType": "enum AssetType",
							"name": "asset",
							"type": "uint8"
						},
						{
							"internalType": "enum Action",
							"name": "action",
							"type": "uint8"
						},
						{
							"internalType": "address",
							"name": "collection",
							"type": "address"
						},
						{
							"internalType": "address",
							"name": "paymentToken",
							"type": "address"
						},
						{
							"internalType": "address",
							"name": "seller",
							"type": "address"
						},
						{
							"internalType": "address",
							"name": "highestBidder",
							"type": "address"
						},
						{
							"internalType": "uint256",
							"name": "tokenId",
							"type": "uint256"
						},
						{
							"internalType": "uint256",
							"name": "reservedPrice",
							"type": "uint256"
						},
						{
							"internalType": "uint256",
							"name": "highestBid",
							"type": "uint256"
						},
						{
							"internalType": "uint256",
							"name": "startTime",
							"type": "uint256"
						},
						{
							"internalType": "uint256",
							"name": "expirationTime",
							"type": "uint256"
						},
						{
							"internalType": "uint256",
							"name": "tokenAmount",
							"type": "uint256"
						}
					],
					"indexed": false,
					"internalType": "struct Auction",
					"name": "auction",
					"type": "tuple"
				}
			],
			"name": "AuctionCreated",
			"type": "event"
		},
		{
			"inputs": [
				{
					"components": [
						{
							"internalType": "enum AssetType",
							"name": "asset",
							"type": "uint8"
						},
						{
							"internalType": "enum Action",
							"name": "action",
							"type": "uint8"
						},
						{
							"internalType": "address",
							"name": "collection",
							"type": "address"
						},
						{
							"internalType": "address",
							"name": "paymentToken",
							"type": "address"
						},
						{
							"internalType": "address",
							"name": "seller",
							"type": "address"
						},
						{
							"internalType": "address",
							"name": "highestBidder",
							"type": "address"
						},
						{
							"internalType": "uint256",
							"name": "tokenId",
							"type": "uint256"
						},
						{
							"internalType": "uint256",
							"name": "reservedPrice",
							"type": "uint256"
						},
						{
							"internalType": "uint256",
							"name": "highestBid",
							"type": "uint256"
						},
						{
							"internalType": "uint256",
							"name": "startTime",
							"type": "uint256"
						},
						{
							"internalType": "uint256",
							"name": "expirationTime",
							"type": "uint256"
						},
						{
							"internalType": "uint256",
							"name": "tokenAmount",
							"type": "uint256"
						}
					],
					"internalType": "struct Auction",
					"name": "auction",
					"type": "tuple"
				},
				{
					"internalType": "bytes",
					"name": "_signature",
					"type": "bytes"
				}
			],
			"name": "executeAuction",
			"outputs": [],
			"stateMutability": "nonpayable",
			"type": "function"
		},
		{
			"inputs": [
				{
					"components": [
						{
							"internalType": "enum AssetType",
							"name": "asset",
							"type": "uint8"
						},
						{
							"internalType": "enum Action",
							"name": "action",
							"type": "uint8"
						},
						{
							"internalType": "address",
							"name": "collection",
							"type": "address"
						},
						{
							"internalType": "address",
							"name": "paymentToken",
							"type": "address"
						},
						{
							"internalType": "address",
							"name": "seller",
							"type": "address"
						},
						{
							"internalType": "address",
							"name": "highestBidder",
							"type": "address"
						},
						{
							"internalType": "uint256",
							"name": "tokenId",
							"type": "uint256"
						},
						{
							"internalType": "uint256",
							"name": "reservedPrice",
							"type": "uint256"
						},
						{
							"internalType": "uint256",
							"name": "highestBid",
							"type": "uint256"
						},
						{
							"internalType": "uint256",
							"name": "startTime",
							"type": "uint256"
						},
						{
							"internalType": "uint256",
							"name": "expirationTime",
							"type": "uint256"
						},
						{
							"internalType": "uint256",
							"name": "tokenAmount",
							"type": "uint256"
						}
					],
					"internalType": "struct Auction",
					"name": "auction",
					"type": "tuple"
				},
				{
					"internalType": "bytes32",
					"name": "orderHash",
					"type": "bytes32"
				},
				{
					"internalType": "bytes",
					"name": "_signature",
					"type": "bytes"
				}
			],
			"name": "executeBidWithERC20",
			"outputs": [],
			"stateMutability": "nonpayable",
			"type": "function"
		},
		{
			"inputs": [
				{
					"components": [
						{
							"internalType": "enum AssetType",
							"name": "asset",
							"type": "uint8"
						},
						{
							"internalType": "enum Action",
							"name": "action",
							"type": "uint8"
						},
						{
							"internalType": "address",
							"name": "collection",
							"type": "address"
						},
						{
							"internalType": "address",
							"name": "paymentToken",
							"type": "address"
						},
						{
							"internalType": "address",
							"name": "seller",
							"type": "address"
						},
						{
							"internalType": "address",
							"name": "buyer",
							"type": "address"
						},
						{
							"internalType": "uint256",
							"name": "tokenId",
							"type": "uint256"
						},
						{
							"internalType": "uint256",
							"name": "price",
							"type": "uint256"
						},
						{
							"internalType": "uint256",
							"name": "expirationTime",
							"type": "uint256"
						},
						{
							"internalType": "uint256",
							"name": "tokenAmount",
							"type": "uint256"
						}
					],
					"internalType": "struct Order",
					"name": "order",
					"type": "tuple"
				},
				{
					"internalType": "bytes32",
					"name": "orderHash",
					"type": "bytes32"
				},
				{
					"internalType": "bytes",
					"name": "_signature",
					"type": "bytes"
				}
			],
			"name": "executeBuy",
			"outputs": [],
			"stateMutability": "payable",
			"type": "function"
		},
		{
			"inputs": [
				{
					"components": [
						{
							"internalType": "enum AssetType",
							"name": "asset",
							"type": "uint8"
						},
						{
							"internalType": "enum Action",
							"name": "action",
							"type": "uint8"
						},
						{
							"internalType": "address",
							"name": "collection",
							"type": "address"
						},
						{
							"internalType": "address",
							"name": "paymentToken",
							"type": "address"
						},
						{
							"internalType": "address",
							"name": "seller",
							"type": "address"
						},
						{
							"internalType": "address",
							"name": "buyer",
							"type": "address"
						},
						{
							"internalType": "uint256",
							"name": "tokenId",
							"type": "uint256"
						},
						{
							"internalType": "uint256",
							"name": "price",
							"type": "uint256"
						},
						{
							"internalType": "uint256",
							"name": "expirationTime",
							"type": "uint256"
						},
						{
							"internalType": "uint256",
							"name": "tokenAmount",
							"type": "uint256"
						}
					],
					"internalType": "struct Order",
					"name": "order",
					"type": "tuple"
				},
				{
					"internalType": "bytes32",
					"name": "orderHash",
					"type": "bytes32"
				},
				{
					"internalType": "bytes",
					"name": "_signature",
					"type": "bytes"
				}
			],
			"name": "executeBuyWithERC20",
			"outputs": [],
			"stateMutability": "nonpayable",
			"type": "function"
		},
		{
			"anonymous": false,
			"inputs": [
				{
					"indexed": true,
					"internalType": "address",
					"name": "seller",
					"type": "address"
				},
				{
					"indexed": true,
					"internalType": "address",
					"name": "bidder",
					"type": "address"
				},
				{
					"indexed": false,
					"internalType": "address",
					"name": "paymentToken",
					"type": "address"
				},
				{
					"indexed": false,
					"internalType": "uint256",
					"name": "highestBid",
					"type": "uint256"
				},
				{
					"indexed": false,
					"internalType": "address",
					"name": "collection",
					"type": "address"
				},
				{
					"indexed": true,
					"internalType": "uint256",
					"name": "tokenId",
					"type": "uint256"
				},
				{
					"indexed": false,
					"internalType": "bytes32",
					"name": "orderHash",
					"type": "bytes32"
				}
			],
			"name": "NewBidPlaced",
			"type": "event"
		},
		{
			"anonymous": false,
			"inputs": [
				{
					"indexed": false,
					"internalType": "bytes32",
					"name": "orderHash",
					"type": "bytes32"
				}
			],
			"name": "OrderCanceled",
			"type": "event"
		},
		{
			"anonymous": false,
			"inputs": [
				{
					"indexed": true,
					"internalType": "address",
					"name": "seller",
					"type": "address"
				},
				{
					"indexed": false,
					"internalType": "address",
					"name": "paymentToken",
					"type": "address"
				},
				{
					"indexed": false,
					"internalType": "address",
					"name": "collection",
					"type": "address"
				},
				{
					"indexed": true,
					"internalType": "uint256",
					"name": "tokenId",
					"type": "uint256"
				},
				{
					"indexed": false,
					"internalType": "bytes32",
					"name": "orderHash",
					"type": "bytes32"
				},
				{
					"components": [
						{
							"internalType": "enum AssetType",
							"name": "asset",
							"type": "uint8"
						},
						{
							"internalType": "enum Action",
							"name": "action",
							"type": "uint8"
						},
						{
							"internalType": "address",
							"name": "collection",
							"type": "address"
						},
						{
							"internalType": "address",
							"name": "paymentToken",
							"type": "address"
						},
						{
							"internalType": "address",
							"name": "seller",
							"type": "address"
						},
						{
							"internalType": "address",
							"name": "buyer",
							"type": "address"
						},
						{
							"internalType": "uint256",
							"name": "tokenId",
							"type": "uint256"
						},
						{
							"internalType": "uint256",
							"name": "price",
							"type": "uint256"
						},
						{
							"internalType": "uint256",
							"name": "expirationTime",
							"type": "uint256"
						},
						{
							"internalType": "uint256",
							"name": "tokenAmount",
							"type": "uint256"
						}
					],
					"indexed": false,
					"internalType": "struct Order",
					"name": "order",
					"type": "tuple"
				}
			],
			"name": "OrderCreated",
			"type": "event"
		},
		{
			"anonymous": false,
			"inputs": [
				{
					"indexed": true,
					"internalType": "address",
					"name": "seller",
					"type": "address"
				},
				{
					"indexed": true,
					"internalType": "address",
					"name": "buyer",
					"type": "address"
				},
				{
					"indexed": false,
					"internalType": "address",
					"name": "collection",
					"type": "address"
				},
				{
					"indexed": true,
					"internalType": "uint256",
					"name": "tokenId",
					"type": "uint256"
				},
				{
					"indexed": false,
					"internalType": "address",
					"name": "paymentToken",
					"type": "address"
				},
				{
					"indexed": false,
					"internalType": "uint256",
					"name": "price",
					"type": "uint256"
				},
				{
					"indexed": false,
					"internalType": "bytes32",
					"name": "orderHash",
					"type": "bytes32"
				}
			],
			"name": "OrderFilled",
			"type": "event"
		},
		{
			"inputs": [
				{
					"internalType": "address",
					"name": "newAdmin",
					"type": "address"
				}
			],
			"name": "updateAdmin",
			"outputs": [],
			"stateMutability": "nonpayable",
			"type": "function"
		},
		{
			"inputs": [
				{
					"internalType": "address",
					"name": "newAddr",
					"type": "address"
				},
				{
					"internalType": "uint8",
					"name": "newRate",
					"type": "uint8"
				}
			],
			"name": "updateFeeRateAndFeeRecipient",
			"outputs": [],
			"stateMutability": "nonpayable",
			"type": "function"
		},
		{
			"anonymous": false,
			"inputs": [
				{
					"indexed": true,
					"internalType": "address",
					"name": "implementation",
					"type": "address"
				}
			],
			"name": "Upgraded",
			"type": "event"
		},
		{
			"stateMutability": "payable",
			"type": "fallback"
		},
		{
			"inputs": [
				{
					"internalType": "address",
					"name": "_transferHelper",
					"type": "address"
				}
			],
			"name": "updateTransferHelper",
			"outputs": [],
			"stateMutability": "nonpayable",
			"type": "function"
		},
		{
			"inputs": [
				{
					"internalType": "address",
					"name": "newImplementation",
					"type": "address"
				}
			],
			"name": "upgrade",
			"outputs": [],
			"stateMutability": "nonpayable",
			"type": "function"
		},
		{
			"stateMutability": "payable",
			"type": "receive"
		},
		{
			"inputs": [
				{
					"internalType": "bytes32",
					"name": "orderHash",
					"type": "bytes32"
				}
			],
			"name": "_expirationTime",
			"outputs": [
				{
					"internalType": "uint256",
					"name": "",
					"type": "uint256"
				}
			],
			"stateMutability": "view",
			"type": "function"
		},
		{
			"inputs": [
				{
					"components": [
						{
							"internalType": "enum AssetType",
							"name": "asset",
							"type": "uint8"
						},
						{
							"internalType": "enum Action",
							"name": "action",
							"type": "uint8"
						},
						{
							"internalType": "address",
							"name": "collection",
							"type": "address"
						},
						{
							"internalType": "address",
							"name": "paymentToken",
							"type": "address"
						},
						{
							"internalType": "address",
							"name": "seller",
							"type": "address"
						},
						{
							"internalType": "address",
							"name": "highestBidder",
							"type": "address"
						},
						{
							"internalType": "uint256",
							"name": "tokenId",
							"type": "uint256"
						},
						{
							"internalType": "uint256",
							"name": "reservedPrice",
							"type": "uint256"
						},
						{
							"internalType": "uint256",
							"name": "highestBid",
							"type": "uint256"
						},
						{
							"internalType": "uint256",
							"name": "startTime",
							"type": "uint256"
						},
						{
							"internalType": "uint256",
							"name": "expirationTime",
							"type": "uint256"
						},
						{
							"internalType": "uint256",
							"name": "tokenAmount",
							"type": "uint256"
						}
					],
					"internalType": "struct Auction",
					"name": "auction",
					"type": "tuple"
				}
			],
			"name": "_hashAuction",
			"outputs": [
				{
					"internalType": "bytes32",
					"name": "",
					"type": "bytes32"
				}
			],
			"stateMutability": "pure",
			"type": "function"
		},
		{
			"inputs": [
				{
					"components": [
						{
							"internalType": "enum AssetType",
							"name": "asset",
							"type": "uint8"
						},
						{
							"internalType": "enum Action",
							"name": "action",
							"type": "uint8"
						},
						{
							"internalType": "address",
							"name": "collection",
							"type": "address"
						},
						{
							"internalType": "address",
							"name": "paymentToken",
							"type": "address"
						},
						{
							"internalType": "address",
							"name": "seller",
							"type": "address"
						},
						{
							"internalType": "address",
							"name": "buyer",
							"type": "address"
						},
						{
							"internalType": "uint256",
							"name": "tokenId",
							"type": "uint256"
						},
						{
							"internalType": "uint256",
							"name": "price",
							"type": "uint256"
						},
						{
							"internalType": "uint256",
							"name": "expirationTime",
							"type": "uint256"
						},
						{
							"internalType": "uint256",
							"name": "tokenAmount",
							"type": "uint256"
						}
					],
					"internalType": "struct Order",
					"name": "order",
					"type": "tuple"
				}
			],
			"name": "_hashOrder",
			"outputs": [
				{
					"internalType": "bytes32",
					"name": "",
					"type": "bytes32"
				}
			],
			"stateMutability": "pure",
			"type": "function"
		},
		{
			"inputs": [
				{
					"internalType": "bytes32",
					"name": "orderHash",
					"type": "bytes32"
				}
			],
			"name": "_highestBid",
			"outputs": [
				{
					"internalType": "uint256",
					"name": "",
					"type": "uint256"
				}
			],
			"stateMutability": "view",
			"type": "function"
		},
		{
			"inputs": [
				{
					"internalType": "bytes32",
					"name": "orderHash",
					"type": "bytes32"
				}
			],
			"name": "_highestBidder",
			"outputs": [
				{
					"internalType": "address",
					"name": "",
					"type": "address"
				}
			],
			"stateMutability": "view",
			"type": "function"
		},
		{
			"inputs": [
				{
					"internalType": "bytes32",
					"name": "orderHash",
					"type": "bytes32"
				}
			],
			"name": "_ordersFilled",
			"outputs": [
				{
					"internalType": "bool",
					"name": "",
					"type": "bool"
				}
			],
			"stateMutability": "view",
			"type": "function"
		},
		{
			"inputs": [],
			"name": "admin",
			"outputs": [
				{
					"internalType": "address",
					"name": "",
					"type": "address"
				}
			],
			"stateMutability": "view",
			"type": "function"
		},
		{
			"inputs": [],
			"name": "EXCHANGE_NAME",
			"outputs": [
				{
					"internalType": "string",
					"name": "",
					"type": "string"
				}
			],
			"stateMutability": "view",
			"type": "function"
		},
		{
			"inputs": [],
			"name": "feeRate",
			"outputs": [
				{
					"internalType": "uint8",
					"name": "",
					"type": "uint8"
				}
			],
			"stateMutability": "view",
			"type": "function"
		},
		{
			"inputs": [],
			"name": "feeRecipient",
			"outputs": [
				{
					"internalType": "address",
					"name": "",
					"type": "address"
				}
			],
			"stateMutability": "view",
			"type": "function"
		},
		{
			"inputs": [],
			"name": "implementation",
			"outputs": [
				{
					"internalType": "address",
					"name": "",
					"type": "address"
				}
			],
			"stateMutability": "view",
			"type": "function"
		},
		{
			"inputs": [],
			"name": "ordersFilled",
			"outputs": [
				{
					"internalType": "uint256",
					"name": "",
					"type": "uint256"
				}
			],
			"stateMutability": "view",
			"type": "function"
		},
		{
			"inputs": [],
			"name": "TransferHelper",
			"outputs": [
				{
					"internalType": "contract ITransferHelper",
					"name": "",
					"type": "address"
				}
			],
			"stateMutability": "view",
			"type": "function"
		},
		{
			"inputs": [],
			"name": "VERSION",
			"outputs": [
				{
					"internalType": "string",
					"name": "",
					"type": "string"
				}
			],
			"stateMutability": "view",
			"type": "function"
		}
	]
}